:100000000C947D0B0C94A50B0C94A50B0C94A50BD8
:100010000C94A50B0C94A50B0C94A50B0C94A50BA0
:100020000C94A50B0C94A50B0C943B160C94AA16DF
:100030000C94A50B0C94A50B0C94A50B0C94A50B80
:100040000C94A50B0C94A50B0C94A50B0C94A50B70
:100050000C94A50B0C94A50B0C94A50B0C94F1150A
:100060000C94A50B0C94A50B0C94A50B0C94A50B50
:100070000C94A50B0C94A50B0C94A50B0C94A50B40
:100080000C94DC180C94A50B0C94A50B0C94A50BEC
:100090000C94A50B0C94A50B0C94A50B0C94A50B20
:1000A0000C94A50B0C94A50B0C94A50B2020000020
:1000B0000000000000000000000000000000000040
:1000C0000000000000000000000000000000000030
:1000D00000000000000000000000E0F070F8189838
:1000E0001C9CE00000000000000000000000000078
:1000F0000000000000000060B018017BFAF4F4F486
:1001000074044340200000000000000000000000D4
:10011000000000000000000000080C0602000202BF
:100120000408102040000000000000000000000053
:1001300000000000000000000000000000000000BF
:1001400000000000000000000000000000000000AF
:1001500000000000000000000000C0E0E0F03030CF
:100160003838C0000000000000000000000000005F
:10017000000000000000000000E00377F4E9E8E977
:10018000E8098700000000000000000000000000F7
:100190000000000000000000000009111D01057DA5
:1001A000000000000000000000000000000000004F
:1001B000000000000000000000000000000000003F
:1001C000000000000000000000000000000000002F
:1001D00000000000000000000000C0E0E0F030304F
:1001E0003838C000000000000000000000000000DF
:1001F00000000000000000000000E3F7B4A968E977
:10020000E809870000000000000000000000000076
:1002100000000000000000000000000109710F054F
:1002200000000000000000000000000000000000CE
:1002300000000000000000000000000000000000BE
:1002400000000000000000000000000000000000AE
:1002500000000000000000000000E0F070F81898B6
:100260001C9CE000000000000000000000000000F6
:1002700000000000000000000060016BDAB4B4B4BC
:10028000B4040300000000000000000000000000B3
:10029000000000000000000000000040380E0210C6
:1002A0000A0600000000000000000000000000003E
:1002B000000000000000000000000000000000003E
:1002C000000000000000000000000000000000002E
:1002D00000000000000000000000F0F8387C0C4C2A
:1002E0000E4EF000000000000000000000000000C2
:1002F00000000000000000001028001D356A6A6A36
:100300006A22210000000000000000000000000040
:1003100000000000000000040404040404030100C1
:100320000101030C000000000000000000000000BC
:1003300000000000000000000000000000000000BD
:1003400000000000000000000000000000000000AD
:1003500000000000000000000000E0F070F81898B5
:100360001C9CE000000000000000000000000000F5
:1003700000000000000000000060017BDAB4B4B4AB
:10038000B4040300000000000000000000000000B2
:10039000000000000000000000080C06020200023D
:1003A000061870400000000000000000000000007F
:1003B000000000000000000000000000000000003D
:1003C000000000000000000000000000000000002D
:1003D00000000000000000000000C0E0E0F030304D
:1003E0003838C000000000000000000000000000DD
:1003F00000000000000000000000E3F77469E8E975
:10040000E8090700000000000000000000000000F4
:100410000000000000000000000008111D01047D24
:1004200000010000000000000000000000000000CB
:1004300000000000000000000000000000000000BC
:1004400000000000000000000000000000000000AC
:1004500000000000000000000000C0E0E0F03030CC
:100460003838C0000000000000000000000000005C
:10047000000000000000000000E003F7F4E9E8E9F4
:10048000E809070000000000000000000000000074
:1004900000000000000000000000010011711F05B5
:1004A000000100000000000000000000000000004B
:1004B000000000000000000000000000000000003C
:1004C000000000000000000000000000000000002C
:1004D00000000000000000000000E0F070F8189834
:1004E0001C9CE00000000000000000000000000074
:1004F00000000000000000609008013B7AF4F4F472
:100500007484830000000000000000000000000070
:10051000000000000000000000004020180E021043
:100520000A060000000000000000000000000000BB
:1005300000000000000000000000000000000000BB
:1005400000000000000000000000000000000000AB
:1005500000000000000000000000F0F8387C0C4CA7
:100560000E4EF0000000000000000000000000003F
:1005700000000000000000180404001D3D7A7A7A93
:100580007A021118000000000000000000000000C6
:100590000000000000000000000206040403010047
:1005A0000101030C000000000000000000002020FA
:1005B000000000000000000000000000000000003B
:1005C000000000000000000000000000000000002B
:1005D000000000000000000000000000C0E0E0F0AB
:1005E00030303838C000000000000000000000007B
:1005F000000000000000000000C0600073F7E4E9A4
:10060000E8E9E809C780C0400000000000000000E1
:100610000000000000000000014362100805050111
:1006200005050404040870400000000000000000FC
:1006300000000000000000000000000000000000BA
:1006400000000000000000000000000000000000AA
:100650000000000000000000000000E0F070F8184A
:10066000981C9CE00000000000000000000000005A
:10067000000000000000000080E030013BFAF4F4CC
:10068000F4F47403604060200000000000000000EB
:100690000000000000000000004161180402020098
:1006A0000202020204087040000000000000000086
:1006B00020200000000000000000000000000000FA
:1006C000000000000000000000000000000000002A
:1006D0000000000000000000000000000000E0F04A
:1006E00070F818981C9CE00000000000000000005A
:1006F000000000000000000000000060B018017B56
:10070000FAF4F4F4740443402000000000000000F8
:1007100000000000000000000000000000080C06BF
:100720000200020204081020400000000000000047
:1007300000000000000000000000000000000000B9
:1007400000000000000000000000000000000000A9
:100750000000000000000000000000000000C0E0F9
:10076000E0F030303838C000000000000000000029
:1007700000000000000000000000000000E003771F
:10078000F4E9E8E9E8098700000000000000000043
:10079000000000000000000000000000000009113F
:1007A0001D01057D000000000000000000000000A9
:1007B0000000000000000000000000000000000039
:1007C0000000000000000000000000000000000029
:1007D0000000000000000000000000000000C0E079
:1007E000E0F030303838C0000000000000000000A9
:1007F0000000000000000000000000000000E3F71F
:10080000B4A968E9E80987000000000000000000C2
:1008100000000000000000000000000000000001D7
:1008200009710F050000000000000000000000003A
:1008300000000000000000000000000000000000B8
:1008400000000000000000000000000000000000A8
:100850000000000000000000000000000000E0F0C8
:1008600070F818981C9CE0000000000000000000D8
:100870000000000000000000000000000060016BAC
:10088000DAB4B4B4B40403000000000000000000B7
:100890000000000000000000000000000000004018
:1008A000380E02100A0600000000000000000000E0
:1008B0000000000000000000000000000000000038
:1008C0000000000000000000000000000000000028
:1008D0000000000000000000000000000000F0F830
:1008E000387C0C4C0E4EF0000000000000000000B0
:1008F0000000000000000000000000001028001DA3
:10090000356A6A6A6A2221000000000000000000C7
:1009100000000000000000000000000404040404C3
:10092000040301000101030C0000000000000000AE
:1009300000000000000000000000000000000000B7
:1009400000000000000000000000000000000000A7
:100950000000000000000000000000000000E0F0C7
:1009600070F818981C9CE0000000000000000000D7
:100970000000000000000000000000000060017B9B
:10098000DAB4B4B4B40403000000000000000000B6
:1009900000000000000000000000000000080C063D
:1009A0000202000206187040000000000000000073
:1009B0000000000000000000000000000000000037
:1009C0000000000000000000000000000000000027
:1009D0000000000000000000000000000000C0E077
:1009E000E0F030303838C0000000000000000000A7
:1009F0000000000000000000000000000000E3F71D
:100A00007469E8E9E8090700000000000000000040
:100A100000000000000000000000000000000811BD
:100A20001D01047D00010000000000000000000026
:100A300000000000000000000000000000000000B6
:100A400000000000000000000000000000000000A6
:100A50000000000000000000000000000000C0E0F6
:100A6000E0F030303838C000000000000000000026
:100A700000000000000000000000000000E003F79C
:100A8000F4E9E8E9E80907000000000000000000C0
:100A90000000000000000000000000000000010055
:100AA00011711F050001000000000000000000009F
:100AB0000000000000000000000000000000000036
:100AC0000000000000000000000000000000000026
:100AD0000000000000000000000000000000E0F046
:100AE00070F818981C9CE000000000000000000056
:100AF0000000000000000000000000609008013BC2
:100B00007AF4F4F474848300000000000000000014
:100B10000000000000000000000000000000402075
:100B2000180E02100A06000000000000000000007D
:100B300000000000000000000000000000000000B5
:100B400000000000000000000000000000000000A5
:100B50000000000000000000000000000000F0F8AD
:100B6000387C0C4C0E4EF00000000000000000002D
:100B70000000000000000000000000180404001D38
:100B80003D7A7A7A7A021118000000000000000015
:100B90000000000000000000000000000002060449
:100BA000040301000101030C00000000000000002C
:100BB00000002020000000000000000000000000F5
:100BC0000000000000000000000000000000000025
:100BD0000000000000000000000000000000000015
:100BE000C0E0E0F030303838C00000000000000005
:100BF00000000000000000000000000000C06000D5
:100C000073F7E4E9E8E9E809C780C04000000000A4
:100C1000000000000000000000000000014362101E
:100C200008050501050504040408704000000000E3
:100C300000000000000000000000000000000000B4
:100C400000000000000000000000000000000000A4
:100C5000000000000000000000000000000000E0B4
:100C6000F070F818981C9CE00000000000000000E4
:100C700000000000000000000000000080E03001E3
:100C80003BFAF4F4F4F474036040602000000000C8
:100C9000000000000000000000000000004161189A
:100CA0000402020002020202040870400000000078
:100CB0000000000006060603010501030606060FF4
:100CC0001E0F060080400000000000000000000031
:100CD0000000000000000000000000000000000014
:100CE000000078DC7CFC5CFC7C7800000000000CE0
:100CF00018307C70E0E0C0FF818080FC86B2A2BE2C
:100D00008080C37E0000000201000030693A6F3825
:100D100010303DCE0A0A720204180000000078DC90
:100D20007CFC5CFC7C7800000000000000000000FF
:100D300000000000000000000000000000000000B3
:100D40000000000000001C1C1C1C1C1C1C1C1C9C0B
:100D50001C1C9C9C1C1C9C9C9C1C1C1C9C9C1C1C53
:100D60001C9C9C9C1C9C1C1C1C1C1C1C1C1C1C1CC3
:100D70001C1C1C1C1C1C1C1C1C1C1C1C1C1C1C1CB3
:100D80001C1C1C1C1C1C1C1C1C1C1C1C1C1C1C1CA3
:100D90001C1C1C1F1C1C1C1C1C1C1C1C1C1C1C1C90
:100DA0001C1C1C1C1C1C1C1C1C1C1C1C1C1C1C1C83
:100DB0001C1C1C1C1C1C1C1C1C1C1C1C1C1C1C1C73
:100DC0001C1C1C1C1C1C00000000000084C8C8C7A0
:100DD000C0C78808C7C0CFC000CFC00FC4C4CFC031
:100DE000CBCA8A04C0C1C0C0C0C0C000C0C0C0C09F
:100DF000C0C0C08000000000000000C0C0C0C0C073
:100E0000C0C0800080C0E0C08000C0C0C0C0C0C002
:100E1000C08000C0C0C0C0C0C0C0C0C0C000C0C092
:100E2000C0C000C0C0C000C0C0C0C0C0C0C0800042
:100E300080C0C0C0C0C0C08000C0C0C0C000C0C0B2
:100E4000C000000000000000000000001F3F3F3F06
:100E500038F9F100FFFFFFFF00FFFF00FFFFFFFF7A
:100E6000383F1F00FFFFFFFF38383800FFFFFFFF4C
:100E700038FFFFEF00000000000000FFFFFFFF3819
:100E8000FFFFEF00D9EB73BBD900FFFFFFFF18FF97
:100E9000FFEF00000000FFFFFFFF00000000FFFF6A
:100EA000FFFF18FFFFFF00FFFFFFFF00FFFFFF0036
:100EB000FFFFFFFF18FFFFFF001F1FFFFFF8FF1FCF
:100EC0001F000000000000000000000003070706EC
:100ED00006070300030707070607030007070707BE
:100EE00000000000070707070606060007070707B8
:100EF00000070707000000000000000707070706BB
:100F00000707030005060703050007070707000793
:100F10000707000000000707070700000000070799
:100F20000707000787E7A0A7A7E70706C7670380AB
:100F3000E70787E7A0A7270700C020070787E70084
:100F4000000000000000C0C0C0C0C0C0C0C0C0C021
:100F5000C0C0C0C0C0C0C0C0C0C0C0C0C0C0C0C091
:100F6000C0C0C0C0C0C0C0C0C0C0C0C0C0C0C0C081
:100F7000C0C0C0C0C0C0C0C0C0C0C0C0C0C0C0C071
:100F8000C0C0C0C0C0C0C0C0C0C0C0C0C0C0C0C061
:100F9000C0C0C0C0C0C0C0C0C0C0C0C0C0C0C0C051
:100FA000C0C0C0C6C3C0C0C0C7C4C4C0C7C4C6C315
:100FB000C0C4C4C4C4C7C3C0C6C3C1C1CFC3C0C0FA
:100FC000C0C0C0C0C0C00101010101010101010197
:100FD0000101010101010101010101010101010101
:100FE0000101E111D1F909094909F10101010101E9
:100FF00001010101010101E1F179F9399919199111
:10100000E1010101010101010101010101E1F1F928
:101010001919090911E10101010101010101010190
:10102000C1E1E1F131313939C101010101010101B0
:1010300001010101010101010101010101010101A0
:10104000010101010101000000000000000000009A
:101050000000000000000000000000000000008010
:10106000E030017AFAF7F404F57403604078280060
:101070000000000000E010033B7AF4F4F4F4740480
:101080004340404000000000008080400037696815
:10109000E8E9E86904030000000000000000C06007
:1010A0000377F4E9E8E9E8E907C080C04000000000
:1010B0000000000000000000000000000000000030
:1010C00000000000000000000000003E5B4F5B3E9F
:1010D0003E6B4F6B3E1C3E7C3E1C183C7E3C181CFD
:1010E000577D571C1C5E7F5E1C00183C1800FFE7F4
:1010F000C3E7FF0018241800FFE7DBE7FF30483A9A
:10110000060E2629792926407F050507407F0525FB
:101110003F5A3CE73C5A7F3E1C1C08081C1C3E7F83
:1011200014227F22145F5F005F5F06097F017F004A
:101130006689956A606060606094A2FFA29408046A
:101140007E040810207E201008082A1C08081C2A8B
:1011500008081E101010100C1E0C1E0C30383E38E3
:1011600030060E3E0E06000000000000005F00008A
:101170000007000700147F147F14242A7F2A1223FB
:101180001308646236495620500008070300001C0B
:101190002241000041221C002A1C7F1C2A08083E14
:1011A0000808008070300008080808080000606027
:1011B0000020100804023E5149453E00427F400095
:1011C00072494949462141494D331814127F10276D
:1011D000454545393C4A49493141211109073649BC
:1011E000494936464949291E000014000000403490
:1011F0000000000814224114141414140041221495
:101200000802015909063E415D594E7C1211127CBB
:101210007F494949363E414141227F4141413E7F1C
:10122000494949417F090909013E414151737F08FC
:1012300008087F00417F41002040413F017F0814A2
:1012400022417F404040407F021C027F7F04081003
:101250007F3E4141413E7F090909063E4151215EE1
:101260007F09192946264949493203017F01033F75
:101270004040403F1F2040201F3F4038403F631404
:1012800008146303047804036159494D43007F4106
:1012900041410204081020004141417F0402010243
:1012A0000440404040400003070800205454784068
:1012B0007F284444383844444428384444287F38FC
:1012C0005454541800087E090218A4A49C787F087E
:1012D00004047800447D40002040403D007F1028F9
:1012E000440000417F40007C047804787C080404BA
:1012F000783844444438FC1824241818242418FC52
:101300007C08040408485454542404043F44243CF6
:101310004040207C1C2040201C3C4030403C442865
:101320001028444C9090907C4464544C44000836FF
:10133000410000007700000041360800020102046D
:10134000023C2623263C1EA1A161123A4040207A8D
:1013500038545455592155557941215454784121D7
:101360005554784020545579400C1E52721239550C
:101370005555593954545459395554545800004509
:101380007C410002457D420001457C40F029242932
:10139000F0F0282528F07C545545002054547C5406
:1013A0007C0A097F49324949493232484848323239
:1013B0004A4848303A4141217A3A42402078009DDB
:1013C000A0A07D39444444393D4040403D3C24FF89
:1013D0002424487E4943662B2FFC2F2BFF0929F636
:1013E00020C0887E090320545479410000447D4187
:1013F0003048484A32384040227A007A0A0A727DE0
:101400000D19317D2629292F2826292929263048FA
:101410004D4020380808080808080808382F10C868
:10142000ACBA2F102834FA00007B000008142A14EC
:101430002222142A14089500220095AA005500AA19
:10144000AA55AA55AA000000FF00101010FF0014B2
:101450001414FF001010FF00FF1010F010F014140F
:1014600014FC001414F700FF0000FF00FF1414F434
:1014700004FC141417101F10101F101F1414141F35
:1014800000101010F0000000001F101010101F10AE
:10149000101010F010000000FF10101010101010AD
:1014A0001010FF10000000FF140000FF00FF0000FC
:1014B0001F10170000FC04F414141710171414F470
:1014C00004F40000FF00F714141414141414F700AB
:1014D000F7141414171410101F101F141414F414FC
:1014E0001010F010F000001F101F0000001F14006B
:1014F0000000FC140000F010F01010FF10FF141496
:1015000014FF141010101F00000000F010FFFFFF68
:10151000FFFFF0F0F0F0F0FFFFFF0000000000FF21
:10152000FF0F0F0F0F0F38444438447C2A2A3E1413
:101530007E02020606027E027E026355494163383E
:1015400044443C04407E201E2006027E020299A5EF
:10155000E7A5991C2A492A1C4C7201724C304A4D4D
:101560004D303048784830BC625A463D3E49494982
:10157000007E0101017E2A2A2A2A2A44445F44442B
:1015800040514A444040444A51400000FF0103E0BA
:1015900080FF000008086B6B083612362436060FF1
:1015A000090F06000018180000001010003040FF5E
:1015B0000101001F01011E00191D1712003C3C3CD7
:1015C0003C0000000000080B0002020200000904B9
:1015D00000000102020000052400100105240101A1
:1015E00001042402060524060001070581031000FA
:1015F0004009040100020A00000007050202400041
:1016000000070583024000000403090412010002E0
:10161000EF020140412336800001010203014172C3
:101620006475696E6F204C4C430041726475696E3D
:101630006F204C656F6E6172646F00F0F89C8E874E
:1016400083878E9CF8F00000FEFF0303030303076B
:101650000EFCF80000FEFF0303030303070EFCF873
:101660000000FFFF00000000000000FFFF0000FE80
:10167000FF8383838383C7EE7C380000F8FC0E076A
:10168000030303070EFCF800003F7FE0C08080C02A
:10169000E07F3FFFFF01010101010101FFFF0000A9
:1016A000FFFF0C0C0C0C1C3E77E3C100007FFFC059
:1016B000C0C0C0C0E0703F1F00001F3F70E0C0C04E
:1016C000C0E0703F1F00007FFFC1C1C1C1C1E3770F
:1016D0003E1C00001F3F70E0C0C0C0E0703F1F0014
:1016E0000000000001FFFF01000000D5F08D14A1F3
:1016F000C881CFD9F1AF2000111A11241FBECFEF3E
:10170000DAE0DEBFCDBF11E0A0E0B1E0E2E8FDE34A
:1017100002C005900D92AA3AB107D9F726E0AAEACD
:10172000B1E001C01D92A137B207E1F71BE0CDE7A0
:10173000DBE004C02197FE010E94941DCC37D10745
:10174000C9F70E94671A0C94BF1E0C940000809188
:10175000C8010895FC0180899189009729F00197BB
:10176000D1F030E020E002C0268137818285938568
:10177000019693878287468557858417950754F08D
:101780008485958501968217930744F4958784870D
:1017900013861286089520853185E8CF1586148634
:1017A000F7CF480F592F511D1416150684F58038B0
:1017B00091056CF597FF02C090E080E0413851053B
:1017C00014F040E850E0481BFB01E770FF2721E0E0
:1017D00001C0220FEA95EAF777FF02C0695F7F4FE9
:1017E000FB0133E0F595E7953A95E1F7F695FE2F85
:1017F000EE27F795E795E80FF91FE451FE4F4150AA
:1018000030F08191DF011197822B8C93F8CF0895EE
:10181000ECEEF1E0A0E0B8E000800EBC8111012CFC
:101820001197A0FDFDCF0192B9F70DB40895FC0109
:101830008091EB01882311F13FB7F89482E0809307
:10184000E9002091F200822F90E01816190614F496
:1018500081E090E0882339F0289844E64093EA013B
:101860004091F1004083222339F02091F2002111B0
:1018700003C02BE62093E8003FBF08958FEF9FEF52
:1018800008952FB7F89483E08093E9009091E800E1
:10189000892F807295FF04C09091F20080E4891B2B
:1018A0002FBF08958091E20181110DC082E08093E5
:1018B000DE0184E08093DF011092E1011092E001EB
:1018C00081E08093E2018EED91E008953FB7F894B6
:1018D0008091DA019091DB01A091DC01B091DD01F2
:1018E00026B5A89B05C02F3F19F00196A11DB11D7B
:1018F0003FBFBA2FA92F982F8827BC01CD01620FB7
:10190000711D811D911D42E0660F771F881F991F71
:101910004A95D1F708958F929F92AF92BF92CF923E
:10192000DF92EF92FF926B017C010E94660C4B01EB
:101930005C01C114D104E104F104B9F00E94660C09
:10194000681979098A099B09683E734081059105E8
:1019500080F321E0C21AD108E108F10888EE880E70
:1019600083E0981EA11CB11CE4CFFF90EF90DF90A4
:10197000CF90BF90AF909F908F9008950895409121
:10198000C2015091C3012091C0013091C1014217A1
:101990005307B4F49091E8009570E1F39091E8005A
:1019A00092FD19C08093F1008091C2019091C30112
:1019B00001968F739927892B19F48EEF8093E80095
:1019C0008091C2019091C30101969093C3018093CD
:1019D000C20181E0089580E00895DF92EF92FF92C6
:1019E0000F931F93CF93DF93D82E8A01EB017B01D6
:1019F000E40EF51ECE15DF0559F0D7FE12C0FE012C
:101A000084910E94BF0C21968111F4CF0FEF1FEF3C
:101A1000C801DF91CF911F910F91FF90EF90DF9060
:101A200008958881EECF0F931F93CF93DF931F927A
:101A3000CDB7DEB782E0898342E450E066EC75E121
:101A400080E80E94ED0C0E94520CDC0112960D9170
:101A50001C910115110589F0D801ED91FC910280CE
:101A6000F381E02DBE016F5F7F4FC801099597FD9F
:101A700004C0F80100851185ECCF89810F90DF91BA
:101A8000CF911F910F910895615030F02091F10096
:101A9000FC0120830196F8CF289884E68093EA0120
:101AA0000895AF92BF92CF92DF92EF92FF920F9381
:101AB0001F93CF93DF936C017B018B01040F151FE4
:101AC000EB015E01AE18BF08C017D10759F069914C
:101AD000D601ED91FC910190F081E02DC6010995B0
:101AE000892B79F7C501DF91CF911F910F91FF905D
:101AF000EF90DF90CF90BF90AF9008958F929F921C
:101B0000AF92BF92CF92DF92EF92FF920F931F930B
:101B1000CF93DF936C017B018A0180910C018823B4
:101B200009F45CC08091EB01882309F457C08091CF
:101B3000C60180FF05C08091E00082608093E000D4
:101B4000E801B12C8AEFA82E93E0892E2AE3922E89
:101B5000209711F4BB20D9F10E94410C81110AC0D9
:101B6000AA94AA20D9F161E070E080E090E00E94A0
:101B70008B0CEECF8C171D0611F00CF08C2F9FB73D
:101B8000F8948092E9002091E80025FD02C09FBFF3
:101B9000DFCF282F30E0C21BD30BF701815020F09C
:101BA00041914093F100FACFE20EF31EBB2021F0E9
:101BB0009092E800B12CEBCF8091E80085FDE7CF53
:101BC0009092E800BB24B394209709F3F3CF5D987B
:101BD00084E68093C501101611063CF081E090E088
:101BE000F6019383828310E000E0C801DF91CF917A
:101BF0001F910F91FF90EF90DF90CF90BF90AF902B
:101C00009F908F900895CF93DF931F92CDB7DEB74B
:101C10006983DC01ED91FC910280F381E02D41E0CC
:101C200050E0BE016F5F7F4F09950F90DF91CF911C
:101C3000089583E08093E9008091F200882319F0F1
:101C40008AE38093E80008950E94410C90E0089593
:101C5000CF93DF931F92CDB7DEB7FC0184859585C6
:101C600097FD08C02FEF3FEF358724870F90DF9156
:101C7000CF910895CE0101960E94170C019719F497
:101C8000898190E0F3CF8FEF9FEFF0CF0F931F93F9
:101C9000CF93DF931F92CDB7DEB78C01FC01848513
:101CA000958597FF0BC0CE0101960E94170C0197F6
:101CB00071F4898190E0F80195878487F801848523
:101CC00095850F90DF91CF911F910F9108958FEF20
:101CD0009FEFF1CFFC018485958597FD0BC09FB7E1
:101CE000F89482E08093E9008091F2009FBF90E039
:101CF000019608959FB7F89482E08093E90080915F
:101D0000F2009FBF90E008952091B401E091B701E7
:101D1000F091B801CF0102969093B8018093B7017A
:101D2000222319F0859194910895808191810895DD
:101D30004F925F926F927F928F929F92AF92BF92DB
:101D4000CF92DF92EF92FF920F931F93CF93DF9387
:101D50004C015901FC2DC02FD0E0CE01880D991DFA
:101D6000181619060CF06CC020E8821691040CF0CD
:101D700067C09B012E0D311D121613060CF060C0BA
:101D8000603471050CF05CC04115510509F458C070
:101D9000E62FE770FE2EDB0177FD179633E0B59551
:101DA000A7953A95E1F73A2F77FF04C0FF2011F08D
:101DB0003FEF3A0F662777276819790997FC02C029
:101DC00070E060E0803891050CF44BC090E8981901
:101DD000961BA32F032E000CBB0B1A2F10953F3F11
:101DE0000CF010E021E08E2D877009F420E0E694DD
:101DF000E694E694E20EAE0DB11D19971CF028E0B2
:101E0000E22EE31AE11A310F20E83203D001112447
:101E1000A80DB91DA60FB71F019F600D711D1124DC
:101E2000460F571F0F2D0F2C000C110BF33009F428
:101E30001CC1C8F4F13009F4D0C0F23009F47CC000
:101E4000DF91CF911F910F91FF90EF90DF90CF9096
:101E5000BF90AF909F908F907F906F905F904F90CA
:101E60000895902FB5CFFA3FB1F1232F2E0DFB3FF0
:101E700039F7321729F3BD0164517E4FD12CC12CA3
:101E8000C91608F0A4C0FA01EC0DFD1DE491F0E0C4
:101E90004F01002E02C0880C991C0A94E2F737FD0E
:101EA00006C0FB018081E82CE0948E218083FF2016
:101EB00061F0373054F45B01F0E8AF0EB11CE92C4F
:101EC000E094F50180818E218083FFEFCF1ADF0A35
:101ED0006F5F7F4FD5CF232F2E0D321709F4B0CF70
:101EE000BD0164517E4FD12CC12CC91608F069C0C8
:101EF000FA01EC0DFD1DE491F0E04F01002E02C04F
:101F0000880C991C0A94E2F737FD04C0FB0180811C
:101F100088298083FF2051F0373044F45B01F0E8DA
:101F2000AF0EB11CF501808189298083FFEFCF1AA4
:101F3000DF0A6F5F7F4FD9CF6FEF70E00F2C02C0C9
:101F4000660F771F0A94E2F760957095772E232F1E
:101F50002E0D321709F474CFFD01E451FE4F6F01CD
:101F6000B12CA12CA91638F5FA01EA0DFB1DE4915C
:101F7000F0E02F01002E02C0440C551C0A94E2F739
:101F800037FD05C0F6018081862384298083FF20E8
:101F900059F037304CF44601F0E88F0E911CF401F3
:101FA0008081872185298083FFEFAF1ABF0A8FEFD9
:101FB000C81AD80AD7CF3F5F4C0F5D1FA058BF4F3C
:101FC000C8CF3F5F4C0F5D1FA058BF4F86CF3F5F0C
:101FD0004C0F5D1FA058BF4F4CCF6A0D7B1D232FA8
:101FE0002E0D321709F42CCFFD01E451FE4F6F0185
:101FF000B12CA12CA91688F5FB01EA0DFB1D8490DC
:10200000912C002E02C0880C991C0A94E2F780944F
:102010009094FA01EA0DFB1D6490712C002E02C011
:10202000660C771C0A94E2F737FD05C0F601808143
:10203000882186298083FF2049F037303CF4F6015F
:10204000E058FF4F8081892187298083FFEFAF1AF5
:10205000BF0A8FEFC81AD80ACDCF3F5F4C0F5D1F64
:102060006C0F7D1FA058BF4FBCCFC92ED12CFA01D9
:10207000E60FF71FA451BE4F00E810E00C191D0930
:10208000CC19DD09BE01660F771F41E050E06A01FF
:102090000F2C01C0CC0C0A94EAF7592F2E2D792E63
:1020A000CF93DF93ED01EF96EF9622968590A59062
:1020B000FF2059F08C9C4001AC9C500137302CF42F
:1020C000E880B094EB20E928E99233233AF0EC90D1
:1020D000A094EA20E828ED920C946F1011965A957E
:1020E00029F72A9551F0572D33951124E60FF11D4C
:1020F000A00FB11DC00FD11DD9CFDF91CF911124F9
:102100009FCECF92EF920F93DC0150968D919C91D0
:102110005197009739F0019709F43EC00F91EF9065
:10212000CF90089512964D915C91139741155105EA
:10213000A9F31C962C911C97FA0104913196E49016
:102140004E5F5F4F2223D1F061E070E09E2D9770CB
:1021500011F470E060E08E2D869586958695860F49
:10216000972F911D089FB001099F700D1124269F84
:10217000C001279F900D1124480F591F54966D914F
:102180007C9155978AEFC82E30E020E052968D91D1
:102190009C910E94980EC2CF14964D915C91159718
:1021A000C5CF2D9A0895BC0190E080E00C948B0C73
:1021B0008FB18095807F669B88601C9B84600895AA
:1021C0009091CD01982329F49091CE01982381E03C
:1021D00009F480E0089580E00C94080C80389105A3
:1021E000B8F460347105A0F420E191E061FD94E061
:1021F00060FD990F62FD9295687F269FD0011124A2
:10220000A80FA451BE4F8C9140FF03C0892B8C9323
:10221000089590958923FBCF8F929F92AF92BF92A2
:10222000CF92DF92EF92FF920F931F93CF93DF93A2
:102230007C016B01C1E0D0E002E010E0842F8470EB
:10224000A82E842F8270982E842F8870882E41703B
:10225000B42EAA2091F041E0B8016C0D7D1DCE0195
:102260008E0D9F1D0E94EE1041E0BE016C0D7D1D84
:10227000C701800F911F0E94EE10992091F041E05C
:10228000B601601B710BCE018E0D9F1D0E94EE10DA
:1022900041E0B6016C1B7D0BC8018E0D9F1D0E9495
:1022A000EE10882091F041E0BE016C0D7D1DC7014C
:1022B000801B910B0E94EE1041E0B8016C0D7D1D5A
:1022C000C7018C1B9D0B0E94EE10BB2091F041E0DA
:1022D000B6016C1B7D0BC701801B910B0E94EE1099
:1022E00041E0B601601B710BC7018C1B9D0B0E9466
:1022F000EE1021960130110519F001E010E0A9CF90
:10230000DF91CF911F910F91FF90EF90DF90CF90D1
:10231000BF90AF909F908F9008958F929F92AF92B1
:10232000BF92CF92DF92EF92FF920F931F93CF93C2
:10233000DF936D3089F0C090D101D090D2016A3026
:10234000D1F41092D0011092CF0188E0C80ED11CB8
:10235000D092D201C092D10181E090E0DF91CF9183
:102360001F910F91FF90EF90DF90CF90BF90AF90B3
:102370009F908F9008950091CF011091D001E5E0DA
:102380006E9FE0011124CA53DF4E4801F12CF5E0A5
:10239000E12CFF1629F0CE010196FE01E490EC013C
:1023A000B12CA12C4E2D4170B6016A0D7B1DC401CC
:1023B0000E94EE10E694FFEFAF1ABF0A88E0A8165D
:1023C000B10481F7F394EFEF8E1A9E0AF6E0FF1244
:1023D000DECF0A5F1F4F1093D0010093CF01BCCF17
:1023E000DF92EF92FF920F931F93CF93DF937C01C5
:1023F000D22E8B01040F111DEB0177FF02C0D0E03C
:10240000C0E0C8010134110514F080E490E0C81761
:10241000D9073CF44D2DBE01C7010E94EE10219654
:10242000F0CFDF91CF911F910F91FF90EF90DF9050
:1024300008956F927F928F929F92AF92BF92CF92A8
:10244000DF92EF92FF920F931F93CF93DF937C0164
:102450004B01642ED22EC22E01E010E0C2E0D0E08B
:1024600045E04D0DB4016C1B7D0B83E0782E7C0C98
:102470005401A01AB10A81E020E0681218C0C80116
:102480008E0D9F1D0E94F01120E0472DB501CE0159
:102490008E0D9F1D0E94F0110F5F1F4FDA94DA948A
:1024A000C394C394219779F0C1E0D0E0D9CFC7019C
:1024B000801B910B0E94F01120E0472DB501C70150
:1024C0008C1B9D0BE7CFDF91CF911F910F91FF9058
:1024D000EF90DF90CF90BF90AF909F908F907F90C4
:1024E0006F900895089590E080E008958091AE0186
:1024F0009091AF01009739F0DC01ED91FC910280E1
:10250000F381E02D09940895CF93DF93EC0188E0E7
:102510000E94E010882339F0EA81FB81309719F09E
:1025200090E080E009958091AE019091AF01DF913C
:10253000CF910C94AA0BA0916B06B0916C061496E7
:10254000ED91FC911597F093AF01E093AE011586E4
:1025500014861386128681E090E0918B808B808DAB
:10256000918D13969C938E9312970895CF93DF933A
:10257000EC0188E00E94E0108823E9F0EA81FB8109
:102580003097C9F08091AA019091AB01880F991FF3
:10259000A091AC01B091AD01A80FB91F8D919C9194
:1025A000A0916B06B0916C0615969C938E93149730
:1025B00082E090E0099580E40E94E010882361F0B9
:1025C0008091AA019091AB018430910544F5019668
:1025D0009093AB018093AA0180E20E94E0108823CF
:1025E00061F08091AA019091AB0118161906E4F4EC
:1025F00001979093AB018093AA018091AA019091D9
:10260000AB01880F991FE091AC01F091AD01E80F8B
:10261000F91F80819181DF91CF910C94AA0B1092C8
:10262000AB011092AA01D8CF84E090E0E2CFFC0188
:102630007383628308950895089508950C942E1D60
:10264000FB0101900020E9F73197AF01461B570BC2
:10265000DC01ED91FC910280F381E02D0994AF92B1
:10266000BF92CF92EF920F931F93CF93DF935B01B3
:10267000E4ECFCE00491E5ECFCE0E49082E0C82EA0
:1026800030E020E046EC5CE070E060E090E080E06C
:102690000E94980E8FB7F8944091D6015091D701BF
:1026A0006091D8017091D9018FBF8091B001909154
:1026B000B101A091B201B091B3018A019B01081B45
:1026C000190B2A0B3B0BD901C801843F9140A1058E
:1026D000B10570F08091000191E08927809300019D
:1026E0004093B0015093B1016093B2017093B30174
:1026F000C0E1D0E020E04CE065E370E0CE010E9454
:10270000F0112196C037D105A9F727E030E041E06C
:1027100067E370E08FE690E00E94191227E030E056
:1027200042E067E370E080E190E00E94191240E629
:1027300065E370E080E190E00E94D10B21E048E089
:1027400067E370E08EE090E00E94F01121E048E045
:1027500067E370E081E790E00E94F01141E067E3F9
:1027600070E080E190E00E940C1142E067E370E0CD
:102770008FE690E00E940C1144E06EE370E08FE67B
:1027800090E00E940C1148E06EE370E080E190E080
:102790000E940C11809100018823C9F081E190E032
:1027A0009093D0018093CF0187E390E09093D20182
:1027B0008093D10169E771E0C501DF91CF911F914D
:1027C0000F91EF90CF90BF90AF900C942013DF91BA
:1027D000CF911F910F91EF90CF90BF90AF90089540
:1027E000CF93DF93EC0188E00E94E0108823A9F0EA
:1027F0006AE871E08CEE95E00E9420136BE971E0CD
:102800008CEE95E00E942013EA81FB81309729F03D
:1028100081E090E0DF91CF910994DF91CF9108950D
:102820004F925F926F927F928F929F92AF92BF92E0
:10283000CF92EF920F93CF93DF93EB018091AE0194
:102840009091AF010E948110E0916B06F0916C06AF
:102850000480F581E02D668977896115710519F08D
:10286000CE010E942013E0916B06F0916C06A481CA
:10287000B5815696CD91DC915797FE0101900020CD
:10288000E9F73197EC1BFD0B86E08E9F50018F9F7F
:10289000B00C112458964D905C90D0E0C0E09CEBB9
:1028A000692E9CE0792E2DEB822E2CE0922EC41501
:1028B000D505A4F4F3010491F401E49082E0C82E5C
:1028C00030E020E04EEB5CE070E060E0C5010E948B
:1028D000980EF6E0AF0EB11C2196E9CFDF91CF91B3
:1028E0000F91EF90CF90BF90AF909F908F907F907F
:1028F0006F905F904F9008958F929F92AF92BF928A
:10290000CF92EF920F93CF93DF93CB012091AA0147
:102910003091AB01220F331FE091AC01F091AD017A
:10292000E20FF31F0190F081E02D66897789FB01AA
:1029300001900020E9F73197E61BF70B46E04E9F28
:1029400090014F9F300D112437FF02C02F5F3F4F82
:1029500035952795319521953109205C3F4F30936E
:10296000D0012093CF011092D2011092D1016115B4
:10297000710511F00E9420138091AA019091AB0182
:10298000880F991FE091AC01F091AD01E80FF91F9C
:10299000808191810E948110D0E0C0E034EB832ED1
:1029A0003CE0932E45EBA42E4CE0B42EF4010491B0
:1029B000F501E49082E0C82E30E020E046EB5CE0D8
:1029C0006CE370E0CE010E94980E2696CE37D105BA
:1029D00069F7DF91CF910F91EF90CF90BF90AF90BB
:1029E0009F908F9008950C94361ECF93DF93D0E084
:1029F000C0E0E091AC01F091AD01EC0FFD1F8081D2
:102A00009181009739F0DC01ED91FC910280F38116
:102A1000E02D09952296CA30D10559F78091AC0175
:102A20009091AD01009721F0DF91CF910C94361E6B
:102A3000DF91CF9108950C94361E0C94361E2F9280
:102A40003F924F925F926F927F928F929F92AF923E
:102A5000BF92CF92DF92EF92FF920F931F93CF938B
:102A6000DF938AE090E00E949A1D9093AD018093DD
:102A7000AC01512C412C30E3632E712C4EE1842E9D
:102A8000912C03E010E052E0E52EF12C69E0C62E17
:102A9000D12C7AE0A72EB12CEEE92E2EE1E03E2ECD
:102AA000C091AC01D091AD018AE190E04114510494
:102AB000E9F50E949A1DFC01738A628A958A848ACC
:102AC00015861486118F008F88E191E091838083B1
:102AD000378A268A8EEA95E093838283F782E6829C
:102AE0008CEA90E095838483D186C086B786A686DB
:102AF000118A108AF983E8839FEF491A590A85E001
:102B00004816510469F6DF91CF911F910F91FF9004
:102B1000EF90DF90CF90BF90AF909F908F907F907D
:102B20006F905F904F903F902F9008950E949A1D54
:102B3000FC01738A628A958A848A15861486118FAD
:102B4000008F80E291E09183808384EA91E0978B0B
:102B5000868B82EB9BE093838283F782E68280EB15
:102B600096E095838483D186C086B786A686118A2F
:102B7000108AC201880F991FC80FD91FBBCFCF93EE
:102B8000DF93EC018091D3019091D401DC01ED91B0
:102B9000FC910084F185E02D0995C130D10569F0E3
:102BA00028F02297A1F0DF91CF91089585E596E076
:102BB0009093D4018093D301F6CF81E596E0909372
:102BC000D4018093D301DF91CF910C941F158CE435
:102BD00096E09093D4018093D301DF91CF910C9430
:102BE0009B121F920F920FB60F9211242F933F93B7
:102BF0008F939F93AF93BF938091D6019091D7010C
:102C0000A091D801B091D9013091D50123E0230FD3
:102C10002D3758F50196A11DB11D2093D501809344
:102C2000D6019093D701A093D801B093D901809198
:102C3000DA019091DB01A091DC01B091DD010196F8
:102C4000A11DB11D8093DA019093DB01A093DC01FB
:102C5000B093DD01BF91AF919F918F913F912F91E3
:102C60000F900FBE0F901F90189526E8230F029625
:102C7000A11DB11DD2CF1F920F920FB60F9211243A
:102C80008F939F938091E1009091E100937F9093C7
:102C9000E10083FF0FC01092E90091E09093EB00F8
:102CA0001092EC0092E39093ED001092EB0198E00B
:102CB0009093F00082FF22C093E09093E9009091FE
:102CC000F200992319F09AE39093E8009091C501DE
:102CD000992341F09091C50191509093C5019111B4
:102CE00001C05D9A9091EA01992341F09091EA0127
:102CF00091509093EA01911101C0289A84FF18C065
:102D00008091E2008E7E81608093E2008091E100FC
:102D10008F7E8093E1008091C6018E7E80618093DA
:102D2000C6019F918F910F900FBE0F901F90189525
:102D300080FFF7CF8091E2008E7E80618093E20079
:102D40008091E1008E7E8093E1008091C6018E7EAD
:102D50008160E5CF1F920F920FB60F921124CF9290
:102D6000DF92EF92FF920F931F932F933F934F9316
:102D70005F936F937F938F939F93AF93BF93EF93E3
:102D8000FF93CF93DF93CDB7DEB76C97DEBFCDBF98
:102D90001092E9008091E80083FF25C068E0CE0131
:102DA00045960E94440D82EF8093E8008D8987FF4D
:102DB00039C09091E80090FFFCCF982F907609F0F1
:102DC00034C19E894F89588D2F89F88C911131C05B
:102DD000803861F58091C7018093F1001092F10075
:102DE0008EEF8093E8006C960FB6F894DEBF0FBEAE
:102DF000CDBFDF91CF91FF91EF91BF91AF919F91A7
:102E00008F917F916F915F914F913F912F911F9182
:102E10000F91FF90EF90DF90CF900F900FBE0F902B
:102E20001F9018959EEF9093E800C7CF1092F10085
:102E3000D5CF913059F48111D3CF4130510581F66E
:102E40008091C7018D7F8093C701CACF933049F429
:102E50008111C6CF4130510519F68091C7018260BA
:102E6000F2CF953041F48091E80080FFFCCF2068DC
:102E70002093E300B5CF963009F0A9C00B8D1C8DCF
:102E800022E01092E9001092C3011092C201F212E6
:102E90002EC01092C1011092C0010E94130D1F821A
:102EA00099E09983FA8291E09E8390EA98879AEF5D
:102EB00099872091C2013091C301275F3F4F3C8326
:102EC0002B838D831092E9001092C3011092C201EE
:102ED0001093C1010093C00149E050E0BE016F5F53
:102EE0007F4F80E00E94ED0C0E94130D79CF10936C
:102EF000C1010093C0010E94520CDC0112960D9199
:102F00001C910115110509F451C1D801ED91FC91F5
:102F10000480F581E02DBE016B5E7F4FC8010995ED
:102F2000009709F03EC1F80100851185EACFF3E072
:102F3000FF120EC08F89882309F440C0823061F4EB
:102F400040E860E18AE296E10E94DE19811148CFF3
:102F500081E28093EB0047CF813029F440E86BE0B9
:102F60008EE196E1F1CF833099F70E94520CDC019B
:102F70001296ED90FC908E010F5F1F4F6801E114D7
:102F8000F10479F0D701ED91FC910680F781E02DF5
:102F9000B801C7010995080F111DF701E084F184FC
:102FA000EECFD8011C92F60101900020E9F731978D
:102FB000BF016C197D0940E0C601C6CF68E076E12B
:102FC000FB01449150E080E80E94ED0C09CF97305E
:102FD00009F4BECF983021F481E08093F10000CF56
:102FE000993009F0FDCE837009F0B2CFE5E2F1E04F
:102FF00081E031E096E32191222371F08093E90092
:103000003093EB00DF0111972C912093EC0090930B
:10301000ED008F5F873079F78EE78093EA0010929A
:10302000EA008F898093EB01DBCE8B8D9C8D109213
:10303000E9001092C3011092C2019093C1018093E4
:10304000C001898D811192C08E899D89913A49F480
:10305000813209F07DCF47E050E065E071E080E02B
:10306000B3CF913209F074CF833269F48F89988D90
:10307000B0E0A0E08093010190930201A0930301CE
:10308000B0930401ADCE803269F48091E80082FFF4
:10309000FCCF67E085E091E00E94440D8BEF8093C8
:1030A000E8009ECE823209F09BCE8F8980930C017E
:1030B000EEEFFFE7859194918B3F9C4D51F1E0E05D
:1030C000F8E08091050190910601A0910701B0916F
:1030D0000801803B9440A105B105F1F480910C01F9
:1030E00080FD1AC0EE3F8AE0F80789F587E797E789
:1030F00091838083809160008093C40188E19BE08C
:103100000FB6F894A895809360000FBE909360006E
:1031100067CEEEEFFAE0D5CF808191818737974770
:1031200009F05ECEA8958091600088618093600070
:103130008091C40180936000EE3F2AE0F20789F09D
:103140008091FE0A9091FF0A9183808349CE80810D
:1031500091818737980751F29093FF0A8093FE0A76
:10316000C5CF1092FF0A1092FE0A3ACE0E94520C6E
:10317000DC0112960D911C910115110509F4E8CEA0
:10318000D801ED91FC910190F081E02DBE016B5EC4
:103190007F4FC8010995811123CEF8010085118563
:1031A000EBCF181619060CF41BCED2CEF1E0FF12AD
:1031B000BECE6CE076E104CF1F920F920FB60F9255
:1031C0001124CF92DF92EF92FF922F933F934F9370
:1031D0005F936F937F938F939F93AF93BF93CF939F
:1031E000DF93EF93FF938091BC019091BD01A0917B
:1031F000BE01B091BF01892B8A2B8B2B09F446C0ED
:103200008091BB0181110BC088B190E4892788B9F6
:103210008091BA01882319F088B1805888B98091CB
:10322000BC019091BD01A091BE01B091BF011816E3
:1032300019061A061B069CF48091BC019091BD01F1
:10324000A091BE01B091BF010197A109B10980937E
:10325000BC019093BD01A093BE01B093BF01FF914B
:10326000EF91DF91CF91BF91AF919F918F917F911E
:103270006F915F914F913F912F91FF90EF90DF9071
:10328000CF900F900FBE0F901F9018950E94840E44
:10329000811520E8920761F4809171008D7F809301
:1032A000710010929100469847981092B901D7CFBB
:1032B00021E02093B901813020E8920731F4109287
:1032C000B8011092B7010E94840E97FD05C02091AD
:1032D000B601222309F454C02091B501211150C038
:1032E00021E02093BA01EC01DF77209709F04BC071
:1032F00081E08093BB0146983FE9C32E3FE0D32E87
:10330000E12CF12CCAEFD0E0E0914A06F0914B0697
:103310000995811103C081E08093BB018091BA01BE
:10332000882329F08091BB01882309F43FC0479886
:103330000E94840E0097F1F19C01DE010E94851D20
:10334000DC01CB0129E0B595A795979587952A953E
:10335000D1F7109290002AE020939100D09299002A
:10336000C09298008093BC019093BD01A093BE01D0
:10337000B093BF01809171008260809371006FCF24
:103380001092BA01B0CF9E0150E040E060E472E4D8
:103390008FE090E00E94441D69017A0181E0C81A23
:1033A000D108E108F1081092BB01AECF4699BFCF1A
:1033B000479ABECF8FEF9FEFDC01CBCFEF92FF920A
:1033C0000F931F93CF93DF93F82E192FE62E042F20
:1033D00081E0860F880F0E94BF0C83E00E94BF0C23
:1033E000CF2DD12FEC0EFD2EF11CCE15DF05B9F03F
:1033F00007FF13C0FE0184910E94BF0C182F80E0CC
:103400000E94BF0C812321968111EFCFDF91CF91D4
:103410001F910F91FF90EF9008958881EDCF81E08B
:10342000F5CF1092EF051092EE0588EE93E0A0E044
:10343000B0E08093F0059093F105A093F205B0936E
:10344000F30585E391E09093ED058093EC058FEF14
:103450009FEF9093F9058093F80510925C06109207
:103460005B0681E791E090935A068093590687EABC
:103470009BE090934B0680934A0680E090E89093FF
:1034800049068093480646983E9A47983F9A83E6B5
:1034900091E0909356068093550685E591E09093D0
:1034A00052068093510687E491E090934D068093F5
:1034B0004C0680916306811103C081E0809363060E
:1034C0008DE596E090936C0680936B060895789452
:1034D00084B5826084BD84B5816084BD85B5826019
:1034E00085BD85B5816085BD80916E0081608093CA
:1034F0006E00109281008091810082608093810033
:103500008091810081608093810080918000816042
:1035100080938000809191008260809391008091DF
:1035200091008160809391008091900081608093F0
:1035300090008091C10084608093C1008091C1009F
:1035400082608093C1008091C10081608093C1003E
:103550008091C30081608093C3008091C00082602D
:103560008093C0008091C20081608093C2008091EE
:103570007A00846080937A0080917A0082608093E0
:103580007A0080917A00816080937A0080917A003D
:10359000806880937A001092EB011092C70110921C
:1035A000C6018091D70081608093D70080EA809324
:1035B000D80089B5806189BD89B5826089BD09B4AB
:1035C00000FEFDCF61E070E080E090E00E948B0C97
:1035D0008091D8008F7C80618093D8008091E0003A
:1035E000807F8093E0008091E1008E7E8093E100F7
:1035F0008DE08093E200559A209A8FEF9FEF909391
:10360000F9058093F80581EC80937C0085B1806F8B
:1036100085B984B1877E84B984B1876E84B95E9A96
:103620005F988AB1806D8AB9769A6E9881B3806FFF
:1036300081BB899880B38D7080BB80E58CBD81E0B3
:103640008DBD85E090E00E94D3105F9A85E090E008
:103650000E94D3105E985C98EBEEF6E188EF96E15D
:1036600024912EBD00000DB407FEFDCF31968E17BC
:103670009F07B1F75C9A81E88093640080916500B0
:103680008160809365000E94EB100E94D81087FF34
:1036900015C05C9885EA8EBD00000DB407FEFDCF15
:1036A0005C9A2E982F982D98809164008062809368
:1036B000640081E083BF889513BEFCCF0E94D810C0
:1036C00082FF48C02D980E94D81084788438E1F495
:1036D0000E94D11088EC90E00E94D3102F9882E0D5
:1036E00090E00E942E1D8F3F29F06FEF82E090E066
:1036F0000E94361D84EF91E00E94D3102F9A0E9401
:10370000D81084788438D9F30E94D8108471843119
:10371000E1F40E94D11088EC90E00E94D3102E9822
:1037200082E090E00E942E1D882329F060E082E074
:1037300090E00E94361D84EF91E00E94D3102E9AF3
:103740000E94D81084718431D9F388EC90E00E94F3
:10375000D310B4CF0E94D11082E090E00E941E13DB
:10376000882309F45FC03E9A3F9A81E08093C801A4
:1037700081E090E00E941E13282F2470922E81FF7A
:1037800010C021112E98C1EFDFEF08E010E078E5BE
:10379000872E0E94D81086FF4AC02E9A2F9A0E9428
:1037A000D11082E390E00E94D3100E94D8108111C2
:1037B000F8CF80E180930D01CBE2D1E0899199911E
:1037C000DC01ED91FC910680F781E02D6FEB75E156
:1037D0000995B1E0C133DB0789F785E596E0909361
:1037E000D4018093D301FF24F3940CEE11E0C0E0E8
:1037F000D0E0EE24E3948FB7F8944091D601509135
:10380000D7016091D8017091D9018FBF8091CB0110
:10381000882309F4CDC01092CB01209761F30E9458
:103820000000E9CF1092C8013E983F98A1CF99209F
:1038300029F0C430D10511F42E9A2F9881E00E940E
:10384000080C9E01D7FF04C0222733272C1B3D0BF9
:1038500027703327CE01D7FD079663E095958795AE
:103860006A95E1F7D7FF05C00197A801421B530BEA
:103870009A01BC017695762F6627779567956451F6
:103880007E4FF12CE12C3801621A730A8E3F5FEFF4
:10389000950709F43DC08E9CD0018F9CB00D11247A
:1038A00050E040E0A55CB94E5B01E0E8AE0EB11C13
:1038B0008F3F980791F0FD01E40FF51FE4916B0134
:1038C000C40ED51EF0E02F01022E01C0440C0A9454
:1038D000EAF7F60154884528448A2115310599F004
:1038E000FD01E40FF51FE4916501C40ED51EF0E063
:1038F0002F01062C02C0559447940A94E2F7F60172
:1039000054884528448A4F5F5F4F4835510581F6FA
:10391000019660587F4FEA94EF2809F045C00E9455
:10392000EB108FE090E00E94D3102196C931D105B1
:1039300009F02FCF992011F02F9A2D9880E991E06E
:103940000E94D3100E94D11081E090E00E941E13CB
:1039500080FF27CF8AE090E00E941E139FEF980F10
:103960009E3F08F01ECF22E330E03093D001209339
:10397000CF0128E330E03093D2012093D101CBE096
:10398000D0E0682F89E596E00E948D11CE010E945B
:103990001E132196C131D105A1F70E94EB1088EECC
:1039A00093E00E94D310FDCEEE24E394F12C6ECF71
:1039B0009091CC01E42FE91B9E2F20910D01E2177D
:1039C00040F49F5F921708F028CFF3BE889513BE8E
:1039D00024CFE092CB014093CC012091C9013091DA
:1039E000CA012F5F3F4F3093CA012093C901F801EC
:1039F00081118FEF002481938193819381930394AC
:103A0000D1F71092D2011092D1011092D0011092F0
:103A1000CF018091CE018093CD010E94D810809378
:103A2000CE018091D3019091D401DC01ED91FC9104
:103A30000280F381E02D69E576E009958091D3015C
:103A40009091D401DC01ED91FC910480F581E02D91
:103A500069E576E009950E94EB10DFCEF999FECF7B
:103A600092BD81BDF89A992780B50895262FF999BE
:103A7000FECF1FBA92BD81BD20BD0FB6F894FA9A51
:103A8000F99A0FBE01960895052E97FB1EF4009437
:103A90000E945B1D57FD07D00E94631D07FC03D0E9
:103AA0004EF40C945B1D50954095309521953F4FF9
:103AB0004F4F5F4F089590958095709561957F4F1A
:103AC0008F4F9F4F0895A1E21A2EAA1BBB1BFD0129
:103AD0000DC0AA1FBB1FEE1FFF1FA217B307E407ED
:103AE000F50720F0A21BB30BE40BF50B661F771F45
:103AF000881F991F1A9469F7609570958095909525
:103B00009B01AC01BD01CF010895A29FB001B39FFD
:103B1000C001A39F700D811D1124911DB29F700DD6
:103B2000811D1124911D0895EE0FFF1F0590F49142
:103B3000E02D09940F931F93CF93DF93823091056B
:103B400010F482E090E0E0916F06F091700630E0B2
:103B500020E0B0E0A0E0309799F42115310509F498
:103B60004AC0281B390B24303105D8F58A819B8146
:103B70006115710589F1FB0193838283FE0111C0F8
:103B8000408151810281138148175907E0F048179D
:103B9000590799F4109761F012960C9312971396A7
:103BA0001C933296CF01DF91CF911F910F91089511
:103BB00000936F0610937006F4CF2115310551F074
:103BC0004217530738F0A901DB019A01BD01DF015B
:103BD000F801C1CFEF01F9CF9093700680936F0683
:103BE000CDCFFE01E20FF31F819391932250310953
:103BF00039832883D7CF20916D0630916E06232B11
:103C000041F4209110013091110130936E06209300
:103C10006D0620910E0130910F012115310541F4FF
:103C20002DB73EB74091120150911301241B350B63
:103C3000E0916D06F0916E06E217F307A0F42E1BDB
:103C40003F0B2817390778F0AC014E5F5F4F241700
:103C5000350748F04E0F5F1F50936E0640936D0678
:103C6000819391939FCFF0E0E0E09CCFCF93DF93DF
:103C70000097E9F0FC01329713821282A0916F063F
:103C8000B0917006ED0130E020E01097A1F42081A2
:103C90003181820F931F20916D0630916E06281797
:103CA000390709F061C0F0936E06E0936D06DF916D
:103CB000CF910895EA01CE17DF07E8F54A815B81CD
:103CC0009E0141155105B1F7E901FB83EA83499152
:103CD0005991C40FD51FEC17FD0761F480819181C4
:103CE0000296840F951FE9019983888382819381CD
:103CF0009B838A83F0E0E0E012968D919C9113976C
:103D00000097B9F52D913C911197CD010296820F44
:103D1000931F20916D0630916E062817390739F6EA
:103D2000309751F51092700610926F06B0936E06A0
:103D3000A0936D06BCCFD383C28340815181840F91
:103D4000951FC817D90761F44E5F5F4F888199812D
:103D5000480F591F518340838A819B8193838283BB
:103D60002115310509F0B0CFF0937006E0936F068E
:103D70009ECFFD01DC01C0CF13821282D7CFF89411
:023D8000FFCF73
:103D820001FFFFFFFF00E100000000000010000043
:103D920071068000000000001D13F31400000000F3
:103DA2001C131B1500C18081000000550651064CF2
:103DB2000600000000030E7E0D240E190E6A0E2866
:103DC2000E460E000000009B128412101417137688
:103DD20012000000001F15B6127C141713F5140010
:103DE200000000BE0CF0132F131713721200000014
:103DF200008D11510D7312721250524553532041CE
:103E020020544F205354415254004120427574743F
:103E12006F6E2050726573736564000D0A004A4F1D
:0A3E22004E41530048454E5259002E
:00000001FF
