:100000000C94F2050C941A060C941A060C941A0619
:100010000C941A060C941A060C941A060C941A06E0
:100020000C941A060C941A060C949F0C0C940E0D4A
:100030000C941A060C941A060C941A060C941A06C0
:100040000C941A060C941A060C941A060C941A06B0
:100050000C941A060C941A060C941A060C94550C5F
:100060000C941A060C941A060C941A060C941A0690
:100070000C941A060C941A060C941A060C941A0680
:100080000C94400F0C941A060C941A060C941A0641
:100090000C941A060C941A060C941A060C941A0660
:1000A0000C941A060C941A060C941A0620200000D0
:1000B0000000000000000000000000000000000040
:1000C0000000000000000000000000000000000030
:1000D00000000000000000000000C0E0E0F0303050
:1000E0003838C000000000000000000000000000E0
:1000F00000000000000000C0600073F7E4E9E8E9D8
:10010000E809C780C04000000000000000000000B7
:10011000000000000000014362100805050105050C
:10012000040404087040000000000000000000000B
:1001300000000000000000000000000000000000BF
:1001400000000000000000000000000000000000AF
:10015000000000000000000000E0F070F818981C9B
:100160009CE0000000000000000000000000000013
:1001700000000000000080E030013BFAF4F4F4F4E9
:1001800074036040602000000000000000000000D8
:100190000000000000000041611804020200020299
:1001A00002020408704000000000000000008040CF
:1001B000000000000000000000000000000000003F
:1001C00000000000000000000000000078DC7CFC63
:1001D0005CFC7C7800000000000C18307C70E0E0D3
:1001E000C0FF818080FC86B2A2BE8080C37E0000FA
:1001F000000201000030693A6F3810303DCE0A0A23
:10020000720204180000000078DC7CFC5CFC7C7846
:1002100000000000000000000000000000000000DE
:1002200000000000000000000000000000000000CE
:100230001C1C1C1C1C1C1C1C1C9C1C1C9C9C1C1C7E
:100240009C9C9C1C1C1C9C9C1C1C1C9C9C9C1C9C6E
:100250001C1C1C1C1C1C1C1C1C1C1C1C1C1C1C1CDE
:100260001C1C1C1C1C1C1C1C1C1C1C1C1C1C1C1CCE
:100270001C1C1C1C1C1C1C1C1C1C1C1C1C1F1C1CBB
:100280001C1C1C1C1C1C1C1C1C1C1C1C1C1C1C1CAE
:100290001C1C1C1C1C1C1C1C1C1C1C1C1C1C1C1C9E
:1002A0001C1C1C1C1C1C1C1C1C1C1C1C1C1C1C1C8E
:1002B00000000000000084C8C8C7C0C78808C7C0C5
:1002C000CFC000CFC00FC4C4CFC0CBCA8A04C0C146
:1002D000C0C0C0C0C000C0C0C0C0C0C0C08000009E
:1002E0000000000000C0C0C0C0C0C0C0800080C00E
:1002F000E0C08000C0C0C0C0C0C0C08000C0C0C0DE
:10030000C0C0C0C0C0C0C000C0C0C0C000C0C0C06D
:1003100000C0C0C0C0C0C0C0800080C0C0C0C0C0DD
:10032000C08000C0C0C0C000C0C0C000000000004D
:100330000000000000001F3F3F3F38F9F100FFFFC1
:10034000FFFF00FFFF00FFFFFFFF383F1F00FFFF21
:10035000FFFF38383800FFFFFFFF38FFFFEF0000D6
:100360000000000000FFFFFFFF38FFFFEF00D9EBA8
:1003700073BBD900FFFFFFFF18FFFFEF0000000075
:10038000FFFFFFFF00000000FFFFFFFF18FFFFFF60
:1003900000FFFFFFFF00FFFFFF00FFFFFFFF18FF51
:1003A000FFFF001F1FFFFFF8FF1F1F0000000000DE
:1003B000000000000000030707060607030003070C
:1003C00007070607030007070707000000000707E5
:1003D00007070606060007070707000707070000CC
:1003E00000000000000707070706070703000506CF
:1003F00007030500070707070007070700000000BD
:10040000070707070000000007070707000787E73F
:10041000A0A7A7E70706C7670380E70787E7A0A7A6
:10042000270700C020070787E70000000000000042
:10043000C0C0C0C0C0C0C0C0C0C0C0C0C0C0C0C0BC
:10044000C0C0C0C0C0C0C0C0C0C0C0C0C0C0C0C0AC
:10045000C0C0C0C0C0C0C0C0C0C0C0C0C0C0C0C09C
:10046000C0C0C0C0C0C0C0C0C0C0C0C0C0C0C0C08C
:10047000C0C0C0C0C0C0C0C0C0C0C0C0C0C0C0C07C
:10048000C0C0C0C0C0C0C0C0C0C0C0C0C0C6C3C063
:10049000C0C0C7C4C4C0C7C4C6C3C0C4C4C4C4C722
:1004A000C3C0C6C3C1C1CFC3C0C0C0C0C0C0C0C02C
:1004B000010101010101010101010101010101012C
:1004C000010101010101010101010101E111D1F964
:1004D00009094909F10101010101010101010101BC
:1004E00001E1F179F93999191991E101010101014C
:1004F00001010101010101E1F1F91919090911E1F4
:1005000001010101010101010101C1E1E1F131310B
:100510003939C1010101010101010101010101019B
:1005200001010101010101010101010101010101BB
:1005300000000000000000000000000000000000BB
:1005400000000000000000000080E030017AFAF7AF
:10055000F404F5740360407828000000000000E017
:1005600010033B7AF4F4F4F4740443404040000078
:1005700000000080804000376968E8E9E86904030A
:100580000000000000000000C0600377F4E9E8E923
:10059000E8E907C080C04000000000000000000043
:1005A000000000000000000000000000000000004B
:1005B00000000000003E5B4F5B3E3E6B4F6B3E1CFD
:1005C0003E7C3E1C183C7E3C181C577D571C1C5E14
:1005D0007F5E1C00183C1800FFE7C3E7FF001824EB
:1005E0001800FFE7DBE7FF30483A060E2629792995
:1005F00026407F050507407F05253F5A3CE73C5ACA
:100600007F3E1C1C08081C1C3E7F14227F22145FA6
:100610005F005F5F06097F017F006689956A606001
:1006200060606094A2FFA29408047E040810207EFB
:10063000201008082A1C08081C2A08081E10101080
:10064000100C1E0C1E0C30383E3830060E3E0E06C6
:10065000000000000000005F000000070007001419
:100660007F147F14242A7F2A1223130864623649D8
:100670005620500008070300001C224100004122C0
:100680001C002A1C7F1C2A08083E080800807030C5
:100690000008080808080000606000201008040234
:1006A0003E5149453E00427F40007249494946213A
:1006B00041494D331814127F1027454545393C4AAE
:1006C00049493141211109073649494936464949C5
:1006D000291E00001400000040340000000814220D
:1006E000411414141414004122140802015909067B
:1006F0003E415D594E7C1211127C7F494949363E7C
:10070000414141227F4141413E7F494949417F0961
:100710000909013E414151737F0808087F00417F6C
:1007200041002040413F017F081422417F4040406A
:10073000407F021C027F7F0408107F3E4141413E02
:100740007F090909063E4151215E7F091929462684
:100750004949493203017F01033F4040403F1F2088
:1007600040201F3F4038403F63140814630304785F
:1007700004036159494D43007F414141020408107F
:1007800020004141417F04020102044040404040BA
:10079000000307080020545478407F284444383828
:1007A00044444428384444287F385454541800089A
:1007B0007E090218A4A49C787F0804047800447D74
:1007C00040002040403D007F1028440000417F4011
:1007D000007C047804787C08040478384444443865
:1007E000FC1824241818242418FC7C080404084845
:1007F0005454542404043F44243C4040207C1C2096
:1008000040201C3C4030403C44281028444C9090F0
:10081000907C4464544C440008364100000077004A
:1008200000004136080002010204023C2623263C57
:100830001EA1A161123A4040207A385454555921E2
:1008400055557941215454784121555478402054CC
:100850005579400C1E527212395555555939545418
:10086000545939555454580000457C410002457D87
:10087000420001457C40F0292429F0F0282528F089
:100880007C545545002054547C547C0A097F4932DD
:10089000494949323248484832324A4848303A4158
:1008A00041217A3A42402078009DA0A07D394444FD
:1008B00044393D4040403D3C24FF2424487E494388
:1008C000662B2FFC2F2BFF0929F620C0887E0903F9
:1008D00020545479410000447D413048484A323820
:1008E0004040227A007A0A0A727D0D19317D26294C
:1008F000292F28262929292630484D402038080844
:10090000080808080808382F10C8ACBA2F10283477
:10091000FA00007B000008142A142222142A14086A
:100920009500220095AA005500AAAA55AA55AA002A
:100930000000FF00101010FF00141414FF0010102E
:10094000FF00FF1010F010F0141414FC001414F742
:1009500000FF0000FF00FF1414F404FC141417102F
:100960001F10101F101F1414141F00101010F0007F
:100970000000001F101010101F10101010F01000B9
:100980000000FF101010101010101010FF100000C9
:1009900000FF140000FF00FF00001F10170000FC04
:1009A00004F414141710171414F404F40000FF00D6
:1009B000F714141414141414F700F714141417145F
:1009C00010101F101F141414F4141010F010F00065
:1009D000001F101F0000001F14000000FC14000086
:1009E000F010F01010FF10FF141414FF141010106A
:1009F0001F00000000F010FFFFFFFFFFF0F0F0F01D
:100A0000F0FFFFFF0000000000FFFF0F0F0F0F0FB0
:100A100038444438447C2A2A3E147E0202060602E8
:100A20007E027E0263554941633844443C04407E63
:100A3000201E2006027E020299A5E7A5991C2A49DC
:100A40002A1C4C7201724C304A4D4D303048784867
:100A500030BC625A463D3E494949007E0101017E53
:100A60002A2A2A2A2A44445F444440514A444040A6
:100A7000444A51400000FF0103E080FF00000808E5
:100A80006B6B083612362436060F090F0600001865
:100A9000180000001010003040FF0101001F01018C
:100AA0001E00191D1712003C3C3C3C0000000000D9
:100AB000080B00020202000009040000010202000B
:100AC000000524001001052401010104240206058B
:100AD00024060001070581031000400904010002FB
:100AE0000A000000070502024000000705830240DB
:100AF00000000403090412010002EF020140412337
:100B0000368000010102030141726475696E6F2035
:100B10004C4C430041726475696E6F204C656F6E7A
:100B20006172646F00F0F89C8E8783878E9CF8F06A
:100B30000000FEFF0303030303070EFCF80000FEA2
:100B4000FF0303030303070EFCF80000FFFF000090
:100B50000000000000FFFF0000FEFF83838383830B
:100B6000C7EE7C380000F8FC0E07030303070EFCF9
:100B7000F800003F7FE0C08080C0E07F3FFFFF01C2
:100B8000010101010101FFFF0000FFFF0C0C0C0C33
:100B90001C3E77E3C100007FFFC0C0C0C0C0E07052
:100BA0003F1F00001F3F70E0C0C0C0E0703F1F004B
:100BB000007FFFC1C1C1C1C1E3773E1C00001F3FE0
:100BC00070E0C0C0C0E0703F1F000000000001FFE7
:100BD000FF01000000D5F08D14A1C881CFD9F1AF7D
:100BE0002000751011241FBECFEFDAE0DEBFCDBFAD
:100BF00011E0A0E0B1E0ECE0FAE202C005900D9255
:100C0000A037B107D9F726E0A0E7B1E001C01D92F7
:100C1000AA31B207E1F715E0C2EFD5E004C0219791
:100C2000FE010E94D913C13FD107C9F70E94AE103F
:100C30000C9404150C940000809186010895EAEA52
:100C4000F1E0A0E0B8E000800EBC8111012C11970A
:100C5000A0FDFDCF0192B9F70DB40895FC0180917C
:100C6000A901882311F13FB7F89482E08093E9004D
:100C70002091F200822F90E01816190614F481E0FA
:100C800090E0882339F0289844E64093A8014091E9
:100C9000F1004083222339F02091F200211103C09A
:100CA0002BE62093E8003FBF08958FEF9FEF089554
:100CB0002FB7F89483E08093E9009091E800892FA2
:100CC000807295FF04C09091F20080E4891B2FBFD1
:100CD00008958091A00181110DC082E080939C0154
:100CE00084E080939D0110929F0110929E0181E00B
:100CF0008093A0018CE991E008953FB7F89480912A
:100D0000980190919901A0919A01B0919B0126B50B
:100D1000A89B05C02F3F19F00196A11DB11D3FBF33
:100D2000BA2FA92F982F8827BC01CD01620F711D02
:100D3000811D911D42E0660F771F881F991F4A95FC
:100D4000D1F708958F929F92AF92BF92CF92DF9288
:100D5000EF92FF926B017C010E947D064B015C01CA
:100D6000C114D104E104F104B9F00E947D066819B0
:100D700079098A099B09683E73408105910580F3D2
:100D800021E0C21AD108E108F10888EE880E83E05C
:100D9000981EA11CB11CE4CFFF90EF90DF90CF9084
:100DA000BF90AF909F908F900895089540918001DB
:100DB0005091810120917E0130917F0142175307AC
:100DC000B4F49091E8009570E1F39091E80092FD01
:100DD00019C08093F100809180019091810101966A
:100DE0008F739927892B19F48EEF8093E8008091F7
:100DF00080019091810101969093810180938001FF
:100E000081E0089580E00895DF92EF92FF920F93C2
:100E10001F93CF93DF93D82E8A01EB017B01E40E61
:100E2000F51ECE15DF0559F0D7FE12C0FE018491E4
:100E30000E94D60621968111F4CF0FEF1FEFC80153
:100E4000DF91CF911F910F91FF90EF90DF90089568
:100E50008881EECF0F931F93CF93DF931F92CDB76F
:100E6000DEB782E0898342E450E060EB7AE080E81C
:100E70000E9404070E946906DC0112960D911C91E4
:100E80000115110589F0D801ED91FC910280F381E3
:100E9000E02DBE016F5F7F4FC801099597FD04C02B
:100EA000F80100851185ECCF89810F90DF91CF91FA
:100EB0001F910F910895615030F02091F100FC01D5
:100EC00020830196F8CF289884E68093A80108959E
:100ED000AF92BF92CF92DF92EF92FF920F931F9348
:100EE000CF93DF936C017B018B01040F151FEB0186
:100EF0005E01AE18BF08C017D10759F06991D6013D
:100F0000ED91FC910190F081E02DC6010995892BAE
:100F100079F7C501DF91CF911F910F91FF90EF906D
:100F2000DF90CF90BF90AF9008958F929F92AF9235
:100F3000BF92CF92DF92EF92FF920F931F93CF93C6
:100F4000DF936C017B018A0180910B01882309F4F6
:100F50005CC08091A901882309F457C08091840165
:100F600080FF05C08091E00082608093E000E8018E
:100F7000B12C8AEFA82E93E0892E2AE3922E209797
:100F800011F4BB20D9F10E94580681110AC0AA941D
:100F9000AA20D9F161E070E080E090E00E94A20612
:100FA000EECF8C171D0611F00CF08C2F9FB7F89424
:100FB0008092E9002091E80025FD02C09FBFDFCFAD
:100FC000282F30E0C21BD30BF701815020F0419154
:100FD0004093F100FACFE20EF31EBB2021F0909275
:100FE000E800B12CEBCF8091E80085FDE7CF90922F
:100FF000E800BB24B394209709F3F3CF5D9884E60F
:1010000080938301101611063CF081E090E0F60118
:101010009383828310E000E0C801DF91CF911F919C
:101020000F91FF90EF90DF90CF90BF90AF909F9087
:101030008F900895CF93DF931F92CDB7DEB769836A
:10104000DC01ED91FC910280F381E02D41E050E064
:10105000BE016F5F7F4F09950F90DF91CF9108958B
:1010600083E08093E9008091F200882319F08AE3FD
:101070008093E80008950E94580690E00895CF9369
:10108000DF931F92CDB7DEB7FC018485958597FD70
:1010900008C02FEF3FEF358724870F90DF91CF9166
:1010A0000895CE0101960E942E06019719F48981B8
:1010B00090E0F3CF8FEF9FEFF0CF0F931F93CF937D
:1010C000DF931F92CDB7DEB78C01FC018485958537
:1010D00097FF0BC0CE0101960E942E06019771F476
:1010E000898190E0F80195878487F801848595854A
:1010F0000F90DF91CF911F910F9108958FEF9FEF88
:10110000F1CFFC018485958597FD0BC09FB7F894BE
:1011100082E08093E9008091F2009FBF90E0019609
:1011200008959FB7F89482E08093E9008091F200DF
:101130009FBF90E0089520917201E0917501F091B8
:101140007601CF0102969093760180937501222358
:1011500019F08591949108958081918108954F921D
:101160005F926F927F928F929F92AF92BF92CF9237
:10117000DF92EF92FF920F931F93CF93DF934C0177
:101180005901FC2DC02FD0E0CE01880D991D1816F5
:1011900019060CF06CC020E8821691040CF067C0B0
:1011A0009B012E0D311D121613060CF060C0603429
:1011B00071050CF05CC04115510509F458C0E62FCB
:1011C000E770FE2EDB0177FD179633E0B595A79506
:1011D0003A95E1F73A2F77FF04C0FF2011F03FEF77
:1011E0003A0F662777276819790997FC02C070E0E3
:1011F00060E0803891050CF44BC090E89819961B7C
:10120000A32F032E000CBB0B1A2F10953F3F0CF0A1
:1012100010E021E08E2D877009F420E0E694E6943A
:10122000E694E20EAE0DB11D19971CF028E0E22EF7
:10123000E31AE11A310F20E83203D0011124A80D7E
:10124000B91DA60FB71F019F600D711D1124460F18
:10125000571F0F2D0F2C000C110BF33009F41CC17C
:10126000C8F4F13009F4D0C0F23009F47CC0DF9149
:10127000CF911F910F91FF90EF90DF90CF90BF9093
:10128000AF909F908F907F906F905F904F90089558
:10129000902FB5CFFA3FB1F1232F2E0DFB3F39F739
:1012A000321729F3BD0166557E4FD12CC12CC916CA
:1012B00008F0A4C0FA01EC0DFD1DE491F0E04F012F
:1012C000002E02C0880C991C0A94E2F737FD06C074
:1012D000FB018081E82CE0948E218083FF2061F067
:1012E000373054F45B01F0E8AF0EB11CE92CE09408
:1012F000F50180818E218083FFEFCF1ADF0A6F5FB7
:101300007F4FD5CF232F2E0D321709F4B0CFBD015B
:1013100066557E4FD12CC12CC91608F069C0FA0160
:10132000EC0DFD1DE491F0E04F01002E02C0880C91
:10133000991C0A94E2F737FD04C0FB0180818829DB
:101340008083FF2051F0373044F45B01F0E8AF0EAA
:10135000B11CF501808189298083FFEFCF1ADF0A54
:101360006F5F7F4FD9CF6FEF70E00F2C02C0660F19
:10137000771F0A94E2F760957095772E232F2E0D34
:10138000321709F474CFFD01E655FE4F6F01B12C01
:10139000A12CA91638F5FA01EA0DFB1DE491F0E045
:1013A0002F01002E02C0440C551C0A94E2F737FDB1
:1013B00005C0F6018081862384298083FF2059F0AF
:1013C00037304CF44601F0E88F0E911CF401808117
:1013D000872185298083FFEFAF1ABF0A8FEFC81AD4
:1013E000D80AD7CF3F5F4C0F5D1FA058BF4FC8CF63
:1013F0003F5F4C0F5D1FA058BF4F86CF3F5F4C0F24
:101400005D1FA058BF4F4CCF6A0D7B1D232F2E0DA3
:10141000321709F42CCFFD01E655FE4F6F01B12CB8
:10142000A12CA91688F5FB01EA0DFB1D8490912CD7
:10143000002E02C0880C991C0A94E2F780949094C4
:10144000FA01EA0DFB1D6490712C002E02C0660C9F
:10145000771C0A94E2F737FD05C0F60180818821E8
:1014600086298083FF2049F037303CF4F601E058AC
:10147000FF4F8081892187298083FFEFAF1ABF0A40
:101480008FEFC81AD80ACDCF3F5F4C0F5D1F6C0F8E
:101490007D1FA058BF4FBCCFC92ED12CFA01E60F3B
:1014A000F71FA655BE4F00E810E00C191D09CC1916
:1014B000DD09BE01660F771F41E050E06A010F2C85
:1014C00001C0CC0C0A94EAF7592F2E2D792ECF9318
:1014D000DF93ED01EF96EF9622968590A590FF2081
:1014E00059F08C9C4001AC9C500137302CF4E880C2
:1014F000B094EB20E928E99233233AF0EC90A094E1
:10150000EA20E828ED920C94860A11965A9529F75C
:101510002A9551F0572D33951124E60FF11DA00F98
:10152000B11DC00FD11DD9CFDF91CF9111249FCE16
:101530002D9A0895BC0190E080E00C94A2068FB132
:101540008095807F669B88601C9B84600895AF9225
:10155000BF92CF92DF92EF92FF920F931F93CF93A0
:10156000DF936D3079F0C0918D01D0918E016A309A
:10157000B1F410928C0110928B012896D0938E01B9
:10158000C0938D0181E090E0DF91CF911F910F9189
:10159000FF90EF90DF90CF90BF90AF900895409173
:1015A0008B0150918C0185E0689FF0011124E0557A
:1015B000FA4F9A01C12C80E1E82EA5E070E0CA162E
:1015C00021F0CF0101967491FC0110E000E0B72FEB
:1015D000B170DB2E20383105D0F4CE01800F911F81
:1015E00080349105A0F461E081FD64E080FD660F28
:1015F00082FD6295887FE89ED0011124A20FF62E0D
:10160000A655BE4F8C91DD20A9F0862B8C93769544
:101610000F5F1F4F08301105D1F6C3942F5F3F4F66
:1016200086E0C812CACF4A5F5F4F50938C01409347
:101630008B01A8CFF0948F21E9CF089590E080E04E
:101640000895CF92EF920F93EEEAF1E00491EFEA62
:10165000F1E0E49082E0C82E30E020E040EB51E081
:1016600070E060E090E080E00E94AF080F91EF90A2
:10167000CF900895CF92EF920F93E0917001F09187
:101680007101A081B18112964D915C911397411522
:101690005105C1F018962C911897FA0104913196D2
:1016A000E4904E5F5F4F211111C050966D917C9177
:1016B000519782E0C82E30E020E01E968D919C91DB
:1016C0000E94AF080F91EF90CF90089561E070E015
:1016D0009E2D977011F470E060E08E2D86958695B2
:1016E0008695860F972F911D089FB001099F700D59
:1016F0001124269FC001279F900D1124480F591FC8
:10170000D4CF20918F0123FD0DC02091900123FFA4
:1017100009C0DC011296ED91FC91309719F090E030
:1017200080E00995E0917001F09171010190F081E4
:10173000E02D868197810196978386832285338564
:101740008217930784F08085918501969187808721
:1017500024813581821793071CF41782168208951D
:1017600011861086FACF0895FC0173836283089571
:101770000895089508950C947313CF93DF932091E7
:101780008F0123FD1EC02091900123FF1AC0EC01A0
:1017900040E150E06CE571E08AEA95E00E9495072F
:1017A00042E050E06DE671E08AEA95E00E9495071C
:1017B000EA81FB81309729F081E090E0DF91CF91C1
:1017C0000994DF91CF9108950C947B14E0917001FE
:1017D000F091710180819181009739F0DC01ED91E8
:1017E000FC910280F381E02D099580917001909128
:1017F0007101009711F00C947B1408950C947B14E4
:101800000C947B14CF93DF9382E090E00E94DF136F
:10181000EC01909371018093700182E190E00E944D
:10182000DF13FC011786168684E190E0918B808B94
:1018300087E191E0918380838CEA90E093838283B7
:1018400082E090E0958384838AE090E093878287AA
:1018500015861486F983E883DF91CF910895CF939D
:10186000DF93EC018091910190919201DC01ED9167
:10187000FC910084F185E02D0995209729F02197AE
:1018800051F0DF91CF9108958EE096E09093920110
:1018900080939101F6CF8AE096E090939201809335
:1018A0009101DF91CF910C94020C1F920F920FB611
:1018B0000F9211242F933F938F939F93AF93BF93D6
:1018C0008091940190919501A0919601B09197011A
:1018D0003091930123E0230F2D3758F50196A11D78
:1018E000B11D209393018093940190939501A0934F
:1018F0009601B09397018091980190919901A091E0
:101900009A01B0919B010196A11DB11D8093980190
:1019100090939901A0939A01B0939B01BF91AF91CD
:101920009F918F913F912F910F900FBE0F901F901D
:10193000189526E8230F0296A11DB11DD2CF1F9244
:101940000F920FB60F9211248F939F938091E10015
:101950009091E100937F9093E10083FF0FC010927C
:10196000E90091E09093EB001092EC0092E39093E9
:10197000ED001092A90198E09093F00082FF22C040
:1019800093E09093E9009091F200992319F09AE383
:101990009093E80090918301992341F09091830105
:1019A000915090938301911101C05D9A9091A8018B
:1019B000992341F09091A80191509093A801911121
:1019C00001C0289A84FF18C08091E2008E7E816059
:1019D0008093E2008091E1008F7E8093E10080910E
:1019E00084018E7E8061809384019F918F910F90FE
:1019F0000FBE0F901F90189580FFF7CF8091E200E7
:101A00008E7E80618093E2008091E1008E7E8093E3
:101A1000E100809184018E7E8160E5CF1F920F925C
:101A20000FB60F921124CF92DF92EF92FF920F9395
:101A30001F932F933F934F935F936F937F938F9356
:101A40009F93AF93BF93EF93FF93CF93DF93CDB764
:101A5000DEB76C97DEBFCDBF1092E9008091E80041
:101A600083FF25C068E0CE0145960E945B0782EFA8
:101A70008093E8008D8987FF39C09091E80090FF3E
:101A8000FCCF982F907609F034C19E894F89588DEC
:101A90002F89F88C911131C0803861F580918501D2
:101AA0008093F1001092F1008EEF8093E8006C9625
:101AB0000FB6F894DEBF0FBECDBFDF91CF91FF917F
:101AC000EF91BF91AF919F918F917F916F915F91B6
:101AD0004F913F912F911F910F91FF90EF90DF90C9
:101AE000CF900F900FBE0F901F9018959EEF909380
:101AF000E800C7CF1092F100D5CF913059F4811191
:101B0000D3CF4130510581F6809185018D7F80933F
:101B10008501CACF933049F48111C6CF41305105B8
:101B200019F6809185018260F2CF953041F4809161
:101B3000E80080FFFCCF20682093E300B5CF96300B
:101B400009F0A9C00B8D1C8D22E01092E9001092C3
:101B5000810110928001F2122EC010927F0110922A
:101B60007E010E942A071F8299E09983FA8291E000
:101B70009E8390EA98879AEF99872091800130910F
:101B80008101275F3F4F3C832B838D831092E900B7
:101B9000109281011092800110937F0100937E01C9
:101BA00049E050E0BE016F5F7F4F80E00E94040774
:101BB0000E942A0779CF10937F0100937E010E9433
:101BC0006906DC0112960D911C910115110509F4AD
:101BD00051C1D801ED91FC910480F581E02DBE0149
:101BE0006B5E7F4FC8010995009709F03EC1F8016F
:101BF00000851185EACFF3E0FF120EC08F8988239C
:101C000009F440C0823061F440E860E184E19BE087
:101C10000E944210811148CF81E28093EB0047CFB0
:101C2000813029F440E86BE088E09BE0F1CF83301D
:101C300099F70E946906DC011296ED90FC908E01E6
:101C40000F5F1F4F6801E114F10479F0D701ED91A6
:101C5000FC910680F781E02DB801C7010995080FB6
:101C6000111DF701E084F184EECFD8011C92F6013A
:101C700001900020E9F73197BF016C197D0940E020
:101C8000C601C6CF62EF7AE0FB01449150E080E8E4
:101C90000E94040709CF973009F4BECF983021F491
:101CA00081E08093F10000CF993009F0FDCE837080
:101CB00009F0B2CFECE1F1E081E031E096E321916F
:101CC000222371F08093E9003093EB00DF0111973C
:101CD0002C912093EC009093ED008F5F873079F783
:101CE0008EE78093EA001092EA008F898093A90121
:101CF000DBCE8B8D9C8D1092E900109281011092A9
:101D0000800190937F0180937E01898D811192C023
:101D10008E899D89913A49F4813209F07DCF47E05F
:101D200050E064E071E080E0B3CF913209F074CF0D
:101D3000833269F48F89988DB0E0A0E08093000130
:101D400090930101A0930201B0930301ADCE8032C4
:101D500069F48091E80082FFFCCF67E084E091E0C5
:101D60000E945B078BEF8093E8009ECE823209F0E1
:101D70009BCE8F8980930B01EEEFFFE785919491C5
:101D80008B3F9C4D51F1E0E0F8E08091040190918F
:101D90000501A0910601B0910701803B9440A10587
:101DA000B105F1F480910B0180FD1AC0EE3F8AE08D
:101DB000F80789F587E797E7918380838091600032
:101DC0008093820188E19BE00FB6F894A8958093F8
:101DD00060000FBE9093600067CEEEEFFAE0D5CFC3
:101DE000808191818737974709F05ECEA8958091D1
:101DF0006000886180936000809182018093600020
:101E0000EE3F2AE0F20789F08091FE0A9091FF0AE6
:101E10009183808349CE808191818737980751F2E1
:101E20009093FF0A8093FE0AC5CF1092FF0A10928A
:101E3000FE0A3ACE0E946906DC0112960D911C91B1
:101E40000115110509F4E8CED801ED91FC9101903E
:101E5000F081E02DBE016B5E7F4FC80109958111B5
:101E600023CEF80100851185EBCF181619060CF466
:101E70001BCED2CEF1E0FF12BECE66EF7AE004CFE9
:101E80001F920F920FB60F921124CF92DF92EF9212
:101E9000FF922F933F934F935F936F937F938F9313
:101EA0009F93AF93BF93CF93DF93EF93FF93809173
:101EB0007A0190917B01A0917C01B0917D01892BE9
:101EC0008A2B8B2B09F446C08091790181110BC0BC
:101ED00088B190E4892788B980917801882319F026
:101EE00088B1805888B980917A0190917B01A09146
:101EF0007C01B0917D01181619061A061B069CF488
:101F000080917A0190917B01A0917C01B0917D013B
:101F10000197A109B10980937A0190937B01A09365
:101F20007C01B0937D01FF91EF91DF91CF91BF9143
:101F3000AF919F918F917F916F915F914F913F9161
:101F40002F91FF90EF90DF90CF900F900FBE0F90EA
:101F50001F9018950E949B08811520E8920761F454
:101F6000809171008D7F809371001092910046984E
:101F7000479810927701D7CF21E0209377018130E5
:101F800020E8920731F410927601109275010E94B8
:101F90009B0897FD05C020917401222309F454C0C9
:101FA00020917301211150C021E020937801EC01B0
:101FB000DF77209709F04BC081E080937901469844
:101FC0003FE9C32E3FE0D32EE12CF12CCAEFD0E045
:101FD000E0910806F09109060995811103C081E09E
:101FE0008093790180917801882329F0809179018B
:101FF000882309F43FC047980E949B080097F1F19D
:102000009C01DE010E94CA13DC01CB0129E0B595D9
:10201000A795979587952A95D1F7109290002AE079
:1020200020939100D0929900C092980080937A01F9
:1020300090937B01A0937C01B0937D01809171000E
:102040008260809371006FCF10927801B0CF9E01B3
:1020500050E040E060E472E48FE090E00E94891379
:1020600069017A0181E0C81AD108E108F1081092EB
:102070007901AECF4699BFCF479ABECF8FEF9FEF82
:10208000DC01CBCFEF92FF920F931F93CF93DF939F
:10209000F82E192FE62E042F81E0860F880F0E945C
:1020A000D60683E00E94D606CF2DD12FEC0EFD2E52
:1020B000F11CCE15DF05B9F007FF13C0FE018491B6
:1020C0000E94D606182F80E00E94D6068123219612
:1020D0008111EFCFDF91CF911F910F91FF90EF9082
:1020E00008958881EDCF81E0F5CFEAEAF5E013822B
:1020F000128288EE93E0A0E0B0E084839583A6830B
:10210000B78386E291E0918380838FEF9FEF95877D
:102110008487E2E1F6E01382128284E591E0918304
:1021200080838CE196E0909309068093080680E016
:1021300090E8909307068093060646983E9A479843
:102140003F9A86E491E090930F0680930E0688E311
:1021500091E090930B0680930A060895789484B5D5
:10216000826084BD84B5816084BD85B5826085BD93
:1021700085B5816085BD80916E00816080936E0021
:102180001092810080918100826080938100809113
:1021900081008160809381008091800081608093C4
:1021A00080008091910082608093910080919100E5
:1021B0008160809391008091900081608093900075
:1021C0008091C10084608093C1008091C1008260D1
:1021D0008093C1008091C10081608093C100809193
:1021E000C30081608093C3008091C00082608093AF
:1021F000C0008091C20081608093C20080917A000B
:10220000846080937A0080917A00826080937A0063
:1022100080917A00816080937A0080917A00806852
:1022200080937A001092A901109285011092840186
:102230008091D70081608093D70080EA8093D80096
:1022400089B5806189BD89B5826089BD09B400FE08
:10225000FDCF61E070E080E090E00E94A2068091F6
:10226000D8008F7C80618093D8008091E000807FCF
:102270008093E0008091E1008E7E8093E1008DE00C
:102280008093E200559A209A8FEF9FEF9093B705C5
:102290008093B60581EC80937C0085B1806F85B911
:1022A00084B1877E84B984B1876E84B95E9A5F9861
:1022B0008AB1806D8AB9769A6E9881B3806F81BB3E
:1022C000899880B38D7080BB80E58CBD81E08DBD29
:1022D00085E090E00E949A0A5F9A85E090E00E9473
:1022E0009A0A5E985C98E5EDFBE082EE9BE0249113
:1022F0002EBD00000DB407FEFDCF31968E179F074F
:10230000B1F75C9A81E880936400809165008160F8
:102310008093650080E00E941F060E949F0A87FF4D
:1023200015C05C9885EA8EBD00000DB407FEFDCF98
:102330005C9A2E982F982D988091640080628093EB
:10234000640081E083BF889513BEFCCF0E949F0A82
:1023500082FF48C02D980E949F0A84788438E1F457
:102360000E94980A88EC90E00E949A0A2F9882E0D6
:1023700090E00E9473138F3F29F06FEF82E090E0AE
:102380000E947B1384EF91E00E949A0A2F9A0E9488
:102390009F0A84788438D9F30E949F0A847184311B
:1023A000E1F40E94980A88EC90E00E949A0A2E9824
:1023B00082E090E00E947313882329F060E082E0BD
:1023C00090E00E947B1384EF91E00E949A0A2E9A7B
:1023D0000E949F0A84718431D9F388EC90E00E94B6
:1023E0009A0AB4CF0E94980A82E090E00E94BB0B48
:1023F000882309F45AC03E9A3F9A81E0809386016F
:1024000081E090E00E94BB0B482F4470942E81FF26
:1024100010C041112E98C1EFDFEF08E010E078E521
:10242000872E0E949F0A86FF45C02E9A2F9A0E94EF
:10243000980A82E390E00E949A0A0E949F0A811102
:10244000F8CF80E180930C018FE29CE0909311061D
:102450008093100690930D0680930C068EE096E014
:102460009093920180939101D1E08AEAE82E81E075
:10247000F82E00E010E0DD24D3948FB7F89440915B
:1024800094015091950160919601709197018FBFD1
:10249000C0918901CC2309F4D0C0109289010115A3
:1024A000110559F30E940000E8CF109286013E9872
:1024B0003F98A6CF992029F0C430D10511F42E9A67
:1024C0002F9881E00E941F069E01D7FF04C022279B
:1024D00033272C1B3D0B27703327CE01D7FD0796E2
:1024E00063E0959587956A95E1F7D7FF05C0019759
:1024F000D801A21BB30B9D01BC017695762F6627F0
:102500007795679566557E4FF12CE12C3801621A5C
:10251000730A8E3FBFEF9B0709F43DC08E9CD0012C
:102520008F9CB00D112450E040E0AB5DB44F5B01D7
:10253000E0E8AE0EB11C8F3F980791F0FD01E40F6B
:10254000F51FE4916B01C40ED51EF0E02F01022EA1
:1025500001C0440C0A94EAF7F60154884528448ADD
:102560002115310599F0FD01E40FF51FE491650196
:10257000C40ED51EF0E02F01062C02C055944794DE
:102580000A94E2F7F60154884528448A4F5F5F4F6A
:102590004835510581F6019660587F4FEA94EF283F
:1025A00009F047C080E00E941F068FE090E00E9483
:1025B0009A0A2196C931D10509F033CF992011F03B
:1025C0002F9A2D9880E991E00E949A0A0E94980A19
:1025D00081E090E00E94BB0B80FF2BCF8AE090E06F
:1025E0000E94BB0B9FEF980F9E3F08F022CF22E383
:1025F00030E030938C0120938B0128E330E030935E
:102600008E0120938D01CBE0D0E0682F82E196E02F
:102610000E94A70ACE010E94BB0B2196C131D105B1
:10262000A1F780E00E941F0688EE93E00E949A0ABC
:1026300000CFEE24E394F12C6CCF80918A01942F8B
:10264000981B892F90910C01891740F48F5F89178F
:1026500008F025CFD3BF889513BE21CFD092890132
:1026600040938A018091870190918801019690930F
:102670008801809387018091900180938F010E944F
:102680009F0A80939001F701C111CFEF0024C193FD
:10269000C193C193C1930394D1F710928E0110920C
:1026A0008D0110928C0110928B018091910190917B
:1026B0009201DC01ED91FC910280F381E02D62E159
:1026C00076E009958091910190919201DC01ED9164
:1026D000FC910480F581E02D62E176E0099581E0CE
:1026E0000E941F06DCCEF999FECF92BD81BDF89AFB
:1026F000992780B50895262FF999FECF1FBA92BD6C
:1027000081BD20BD0FB6F894FA9AF99A0FBE0196D2
:102710000895052E97FB1EF400940E94A01357FD08
:1027200007D00E94A81307FC03D04EF40C94A0130A
:1027300050954095309521953F4F4F4F5F4F0895ED
:1027400090958095709561957F4F8F4F9F4F08951D
:10275000A1E21A2EAA1BBB1BFD010DC0AA1FBB1FA5
:10276000EE1FFF1FA217B307E407F50720F0A21B17
:10277000B30BE40BF50B661F771F881F991F1A9484
:1027800069F760957095809590959B01AC01BD01AE
:10279000CF010895A29FB001B39FC001A39F700D08
:1027A000811D1124911DB29F700D811D1124911D59
:1027B0000895EE0FFF1F0590F491E02D09940F93FB
:1027C0001F93CF93DF938230910510F482E090E065
:1027D000E0911806F091190630E020E0B0E0A0E0AA
:1027E000309799F42115310509F44AC0281B390B9B
:1027F00024303105D8F58A819B816115710589F1F5
:10280000FB0193838283FE0111C0408151810281CB
:10281000138148175907E0F04817590799F41097A2
:1028200061F012960C93129713961C933296CF0177
:10283000DF91CF911F910F91089500931806109387
:102840001906F4CF2115310551F04217530738F01E
:10285000A901DB019A01BD01DF01F801C1CFEF0140
:10286000F9CF9093190680931806CDCFFE01E20FA1
:10287000F31F819391932250310939832883D7CF55
:102880002091160630911706232B41F420910F0159
:1028900030911001309317062093160620910D01F8
:1028A00030910E012115310541F42DB73EB740910D
:1028B000110150911201241B350BE0911606F09185
:1028C0001706E217F307A0F42E1B3F0B2817390752
:1028D00078F0AC014E5F5F4F2417350748F04E0F7C
:1028E0005F1F5093170640931606819391939FCFD5
:1028F000F0E0E0E09CCFCF93DF930097E9F0FC019C
:10290000329713821282A0911806B0911906ED0138
:1029100030E020E01097A1F420813181820F931FD5
:1029200020911606309117062817390709F061C063
:10293000F0931706E0931606DF91CF910895EA0110
:10294000CE17DF07E8F54A815B819E0141155105ED
:10295000B1F7E901FB83EA8349915991C40FD51F6F
:10296000EC17FD0761F4808191810296840F951F19
:10297000E90199838883828193819B838A83F0E034
:10298000E0E012968D919C9113970097B9F52D91E7
:102990003C911197CD010296820F931F209116064C
:1029A000309117062817390739F6309751F51092EC
:1029B000190610921806B0931706A0931606BCCFFE
:1029C000D383C28340815181840F951FC817D907D3
:1029D00061F44E5F5F4F88819981480F591F518381
:1029E00040838A819B81938382832115310509F07D
:1029F000B0CFF0931906E09318069ECFFD01DC01DD
:0C2A0000C0CF13821282D7CFF894FFCF12
:102A0C00FFFFFFFF00E10000000000001000001AB3
:102A1C0006800000000000BA0BFE0B00C180810094
:102A2C000000000000001A0895073B0830088108D8
:102A3C003F085D0800000000020C810B3A0BB40B40
:102A4C00E60B00000000D506BD0B210BB40B1D0BD3
:102A5C0000000000A70A68071E0B1D0B41204275E1
:102A6C0074746F6E2050726573736564000D0A0088
:00000001FF
