:100000000C94710D0C94990D0C94990D0C94990D00
:100010000C94990D0C94990D0C94990D0C94990DC8
:100020000C94990D0C94990D0C942F260C949E26EB
:100030000C94990D0C94990D0C94990D0C94990DA8
:100040000C94990D0C94990D0C94990D0C94990D98
:100050000C94990D0C94990D0C94990D0C94E52524
:100060000C94990D0C94990D0C94990D0C94990D78
:100070000C94990D0C94990D0C94990D0C94990D68
:100080000C94D0280C94990D0C94990D0C94990D06
:100090000C94990D0C94990D0C94990D0C94990D48
:1000A0000C94990D0C94990D0C94990D102000004E
:1000B00000000000008000008000000000003EC042
:1000C000000039FFBF0F07470747FE00F800000197
:1000D00002000F5E5CDDDDD95D0104070100000058
:1000E000403C0201000000000001011E2000102021
:1000F0000000000000000080808080000000000000
:100100000000001C7E5E87838B838B7F0100C07C98
:10011000007CC781000F5E5CDCDCD85C0001010064
:100120000000000060180F00000000300B0E0000FF
:10013000102000000000000000000000000000008F
:10014000000000000000E0F0F83810B838B8F020E7
:10015000000070D80808007BF2E4E4E4C4E4036023
:1001600040200000006020201A020A0A0A3A2000FB
:10017000000000000000000000000000000000007F
:10018000000000000000E0F0F83810B838B8F020A7
:10019000000000304888007BF2E4E4E4C4E403207B
:1001A000201000000000201012120A1A3662C080CF
:1001B00040000000000000000000000000000000FF
:1001C000000000000000C0E0F07020707070E0409F
:1001D0000000000040A01177E5C8C8C988C9070021
:1001E0008000000000000101341515CDB5050001A7
:1001F00000000000000000000000000000000000FF
:10020000000000000000E0F0F83810B838B8F02026
:100210000000000000C0B00BB264446444E443003A
:1002200000000000000081C0A21A0A026632180015
:1002300000000000000000000000000000000000BE
:1002400000000000000070F87C1C085C1C5CF810CA
:10025000000000003058083D695A525252521110A5
:1002600008000000180810100D05050303050C38E0
:10027000200000000000000000000000000000005E
:10028000000000000000E0F0F83810B838B8F020A6
:10029000000000000030006BD2B4A44444242300CA
:1002A0000000000000100818121A0206060230C0F2
:1002B000804000000000000000000000000000007E
:1002C000000000000000C0E0F07020707070E0409E
:1002D0000000000000C0A1B7554848490849070080
:1002E0000000000000000030151514D5AD0D000011
:1002F00000000000000000000000000000000000FE
:10030000000000000000E0F0F83810B838B8F02025
:10031000000000007090184BFAF4E4E4C4E4038099
:10032000800000000041A0908A020242222A1000B0
:1003300000000000000000000000000000000000BD
:1003400000000000000070F87C1C085C1C5CF810C9
:100350000000182404040439797272726272012058
:100360001C0000000C0408080D05050101050438F7
:10037000200010200000000000000000000000002D
:100380000000000000000000E0F0F83810B838B8B5
:10039000F0200000000000F8007BF2E4E4E4C4E494
:1003A0000330E0000000000F0080FA02060606FAA3
:1003B00080030100000000000000000000000000B9
:1003C0000000000000000000C0E0F07020707070BD
:1003D000E04000000000C07001E7E5C8C8C988C956
:1003E00007E00000000003060CA0D5050D0D0DD59B
:1003F000A007000010200000000000000000000026
:1004000000000000000000E00024FC381C580F0C25
:10041000ACFE000000000000030618113AFACACB37
:100420007A11180E030000000020380C06020002AA
:10043000030101070400102000000000000000007C
:100440000000000000000000000000000080E0F05C
:10045000F06070F0F0E08000402020202000E3E415
:10046000E928CA080A070100002010202130190BD2
:100470000B0B0804083018001020000000000000DA
:10048000000000000000000000000000000020F854
:100490003C7C189C3CBCF860400000806010100060
:1004A00019FAFACA3A0221201000000000000018D0
:1004B000080A0202060418100000000000000000F4
:1004C000000000000000000000000000000040F0FC
:1004D00078F830387878F0C08000000060909001A3
:1004E0001AF4F495740523100800000000000000C1
:1004F000180A0A0206186040000000000000000010
:10050000000000000000000000000000000000C02B
:10051000E0E0C0E0E0E0C000000000000000810773
:1005200069D3D054D195CF0302000000000001012F
:10053000012A0B6A510000000000000000000000CA
:100540000000000000000000000000000020F83C57
:100550007C189C3CBCF8604000000000000000617A
:100560005AAAAAAA2A010000000000000000603078
:10057000180C061214080000000000000000000023
:1005800000000000000000000000000000083E4FD6
:100590009F86A78FAF7E181000000000000018246F
:1005A0000226AAAA080804000000000000010302B5
:1005B000030100000101030400000000000000002E
:1005C000000000000000000000000000000080E0CB
:1005D000F0F06070F0F0E08000000000000040A348
:1005E0009469888A884A0701010000000000100809
:1005F000101E020018604000000000000000000013
:10060000000000000000000000000000000000806A
:10061000C0C080C0C0C08000000000000000028F89
:100620005367E169E32B1F0604000000000001325C
:1006300012100B6B410100000000000000000000E0
:100640000000000000000000000000000020F83C56
:100650007C189C3CBCF86040000000000040A011E9
:100660003AFACAFA0A312000000000000000605087
:1006700008021A0A04000000000010200000000018
:1006800000000000000000000000000000000080EA
:10069000E0F0F06070F0F0E080000000000000008A
:1006A000A364E9E82A28EA0701010000000000002D
:1006B000074C611B0B7B400600000000000000009F
:1006C000000000000000000000000000000000002A
:1006D00000C0E0E0C0E0E0E0C0000000000000007A
:1006E000A167E9D31014D1150F0302000000000028
:1006F000074C611B0B7B400600000000102000002F
:10070000000000000000000000000000000000FEEB
:100710000030E2F478399E0C185CF00038C000011B
:100720000E007BF2F4B424A4650221201C03020E07
:10073000080C04060200C2425C7000000000102099
:1007400000000000000000000000000000000000A9
:1007500000000000C0E0E07070703060E000000059
:1007600040A090007BF3F5B4A8AA680A2720121CC9
:1007700000000000000606120E040006120E000023
:100780001020000000000000000000000000000039
:10079000000000000000E0F0F03818580850F000A9
:1007A00000000060F0C035797A7A6A4A2A02613026
:1007B000300000000000301111050D0B102040002A
:1007C0000000000000000000000000000000000029
:1007D000000000000000C0E0E07030B010A0E000B9
:1007E0000000000040E0B38335F4D4945484C3C0C7
:1007F0000000000000000109101202764000000015
:1008000000000000000000000000000000000000E8
:10081000000000000000E0F0F03818580850F00028
:100820000000000030009D312A2A2232B20201006D
:1008300000000000006050190D0521331800000071
:1008400000000000000000000000000000000000A8
:10085000000000000000787CBC8E869682947C00AC
:100860000000000C0E001F524C4C48CA280C060613
:1008700000000004040C0C06030100000103020E3A
:100880000800000000000000000000000000000060
:10089000000000000000E0F0F03818580850F000A8
:1008A000000000001038055132224242323201006D
:1008B0000000000018081811190D010B18306060B5
:1008C0000000000000000000000000000000000028
:1008D000000000000000C0E0E07030B010A0E000B8
:1008E00000000000C0E03343F5F4D49414C4C30006
:1008F0000000000000013111101A027640000000D3
:1009000000000000000000000000000000000000E7
:10091000000000000000E0F0F03818580850F00027
:1009200000000060F09015417A7A6A0A4262610024
:1009300000000000016170590501251B080000003E
:1009400000000000000000000000000000000000A7
:10095000000000000000787CBC8E869682947C00AB
:100960000000001C1A030D2CAF2E2C68000C080E82
:1009700006000000060202030100000001030E0849
:100980000000102000000000000000000000000037
:100990000000000000000000C0E0E07030B010A0D7
:1009A000E000000000E030007BF3F5D494D4740440
:1009B0000300000000070C00601A0206060600098A
:1009C00073020000000000000000000000000000B2
:1009D00000000000000000C0E0E07030B010A0E0B7
:1009E00000000000E030007BF3F5D494D4740403DD
:1009F00000000000070C00007A020606060009133A
:100A00006200000000000000000000000000000084
:100A10000000000000000000E0F0F0381858085016
:100A2000F000000000E0380801397A7A6A4A6A3A30
:100A3000810000000001070060100D0103030300A6
:100A40007D00000000000000000000000000000029
:100A500000000000000000E0F0F03818580850F0E6
:100A60000000000000F80801397A7A6A4A6A3A817F
:100A7000C000000000030600700D01030303000422
:100A80007800000010208000004090E0506060700E
:100A9000604060800000001F204000DFE0A2A0A8AE
:100AA000A0A2209F8060000040700809030707078C
:100AB0000300242418000003142408080808101058
:100AC0005090A02020101020000000000000000026
:100AD000000000000000000000000000F8FC3C7E68
:100AE0000626060424F8000000C02010011D3D7AEF
:100AF0007A7A7A3A0221C0C0040808041715040261
:100B000002020101010504001020000000000000A5
:100B100000000000000000000000000000F8FC9E43
:100B20003E0E26060624F8000000003804008E1E43
:100B30003D3D3D3D9D81101010100408282F0808F0
:100B40000808080808082F28080400000000000012
:100B500000000000000000000000000000E0F0784D
:100B6000F83898181890E000000000E010033B7A75
:100B7000F4F4F4F47404434040400810505C121044
:100B80001010101012125C5010080000000000003D
:100B90000000000000000000000000000000F0F86D
:100BA0003C7C1C4C0C0C48F00000007008001D3D03
:100BB000797A7A7A3A02222120200810505E1110A8
:100BC0001010101011115E501008000000000000FD
:100BD0000000000000000000000000000000E0F045
:100BE00078F83898181890E0000000E010003B7B7F
:100BF000F2F4F4F47404444340400810505C1210C2
:100C00001010101012125C501008000000000000BC
:100C100000000000000000000000000000F8FC9E42
:100C20003E0E26060624F8000000003804008E1E42
:100C30003D3D3D3D9D81101010100408282F0808EF
:100C40000808080808082F28080400000000000011
:100C500000000000000000000000000000E0F0784C
:100C6000F83898181890E000000000E010033B7A74
:100C7000F4F4F4F47404434040400810505C121043
:100C80001010101012125C5010081020000000000C
:100C9000000000000000000000000000000000F064
:100CA000F83C7C1C4C0C0C48F00000000070080163
:100CB0001D3D7A7A7A7A3A02212020200810505E6F
:100CC00011101010101011115E50100800000000DB
:100CD0000000000000000000000000000000000014
:100CE000E0F078F83898181890E0000000E0100064
:100CF0003B7BF2F4F4F47404444340400810505C2D
:100D000012101010101012125C5010081020000069
:100D1000000000000000808080000000000000FC57
:100D2000000078FC9C3E06470747F800E03E0001C3
:100D30000304000EBE3D3D3DBD1D000F010000003F
:100D400000001E010000000000011E000000102035
:100D50000000000000000000008080800000000013
:100D6000000000000078FC9C3E06170717F8000002
:100D7000000000E018000EBE3D3DBD3D1DC0380026
:100D8000000000010040300F20100F0000010000A3
:100D90001020000000000000000000000000000023
:100DA000000000000000C0E0E0F030303838C00043
:100DB000000000C0603003F7F4E9E8E9E809878043
:100DC000400000000110180801010505081020402E
:100DD0008000000000000000000000000000000093
:100DE00000000000000080C0C0E060607070800003
:100DF0000000000000C007EFE9D3D0D2D0120F00EE
:100E0000000000000001122233030BFB010001006F
:100E100000000000000000000000000000000000D2
:100E2000000000000000C0E0E0F030303838C000C2
:100E30000000000000C003D7B469686968090700B2
:100E40000000000000000080711D0521110C000051
:100E50000000000000000000000000000000000092
:100E6000000000000000E0F070F818981C9CE00002
:100E7000000000002050013B6AD4D4D4D444430085
:100E8000000000080808080808060200000206180A
:100E90000000000000000000000000000000000052
:100EA000000000000000C0E0E0F030303838C00042
:100EB0000000000000C003F7B46968696809070012
:100EC000000000000010180C050501010930E08049
:100ED0000000000000000000000000000000000012
:100EE00000000000000080C0C0E060607070800002
:100EF000000000000000C7EFE9D3D0D2D0120F00ED
:100F000000000000000011233A0201F3010200007A
:100F100000000000000000000000000000000000D1
:100F2000000000000000C0E0E0F030303838C000C1
:100F3000000000C020100377F4E9E8E9E8090700A1
:100F4000000000000100804030190121140D010053
:100F50000000000000000000000000000000000091
:100F6000000000000000E0F070F818981C9CE00001
:100F7000000000300808013B7AF4F4F4F404233054
:100F80000000000000040C0808040000020206181B
:100F90000000102000000000000000000000000021
:100FA000000000000000000080C0C0E060607070C1
:100FB000800000000080C000E7EFC9D3D0D2D0127B
:100FC0008F0080800287C420100B0B030B0B0908D5
:100FD0000911E18000000000000000000000000096
:100FE00000000000000000C0E0E0F030303838C001
:100FF0000000000000C0600377F4E9E8E9E8E907D1
:10100000C080C0400183C230080505010505040405
:101010000810E08020200000000000000000000018
:10102000000000000000FF000000000000000000C1
:101030000000000000000000000000000000008030
:10104000808000000000FF000000000000000000A1
:1010500000000000000000000000001008040484EC
:1010600048D07FC48282EF705050901020C00000A2
:10107000000000000000000000000000000000016F
:10108000030103010021211E0000030000000000F5
:101090000000000000000808007E81BDBD817E00C8
:1010A00013100000F018CC2424242424CC08183079
:1010B000E0800000007C023F60C7898B89898987B6
:1010C000808080603F021E70060606090909090932
:1010D00006060603030F0703060606070F010103B2
:1010E000060606070F1F0F0706060603011D0F075A
:1010F0000808007E81BDBD817E0006061E0000003E
:10110000000006061E03010501030606060301058D
:101110000103FFFFFF0000000000000000000000CE
:101120000000000000000007FFFF01680000000051
:10113000031500000000000000000200FFFFFF0098
:1011400000000000000417045D0000000000000023
:1011500000FF7FF0020600000000035D00000000B9
:101160000000000002003FFEF80000000000000246
:101170002602620000000000000200FFFFFF0142A3
:101180000000000003460000000000000000010015
:10119000FFFFFF0000000000000438000000000016
:1011A0000000000000FFFFFF023A00000000000006
:1011B000000000000000000001008FE3F8000000C4
:1011C000000000011D01410165000000000300074F
:1011D000FFFF016800000000031500000000000090
:1011E00000000200FFFFFF000000000000041704E1
:1011F0005D0000000000000000FF7FF0020600001C
:101200000000035D000000000000000002003FFE3F
:10121000F80000000000000226026200000000004A
:10122000000200FFFFFF0142000000000346000033
:101230000000000000000100FFFFFF0000000000B0
:1012400000043800000000000000000000FFFFFF65
:10125000023A000000000000000000000000000052
:1012600001008FE3F8000000000000011D014101B2
:10127000650000000003001C08301C07051D65C741
:1012800080003E23301C07202427253D1900301EF6
:101290000908781C076F1BF0000004FC2E0E2E0EB0
:1012A0001C78F8700000000000000080C0F0787822
:1012B0003830F878F0400000000000000000000026
:1012C00000F0F8387C0D2F0F2EF000000000000019
:1012D0000000000000F8FC3C7E0626060424F8000E
:1012E00000000000000000000000008080808000FE
:1012F000000000000000000000008080808080C0AE
:10130000C0C0C080C00001070C18017272727272F6
:10131000793D00041CF00000000000000305046596
:1013200094F4F2F100901010102000000000C03082
:10133000001D7D7A7A7A7A3A817000000000000000
:1013400000C02010011D3D7A7A7A7A3A0221C0C08D
:1013500000000000008000DE9FAFA3435341533FD5
:101360000080E00000000000018183C74F1F1F873D
:10137000A0A4A0241F000030386CC1030303013D6A
:10138000E08002030100000000040C1804020405C0
:1013900005050C1810100810000000000003008064
:1013A000601F40201F000003000000000000000438
:1013B00008080417150402020201010105040000D7
:1013C00000000205040003B73715154543408101AD
:1013D0000100000000008080070C80C01137072347
:1013E0002160C48400000000000100000000000033
:1013F00003070000000000000000000000000000E3
:1014000000000000000000000000000000000000DC
:1014100000000000000000000000000000000000CC
:1014200000000000000000000000000000000000BC
:1014300000000000000403000000000003000000A2
:101440000000000000000001010100000000000099
:10145000000003750D7EFFFFFFE3E7C600FFFFFFFF
:10146000FF00FFFF00FFFFFFFFE3FF7E00FFFFFF26
:10147000FFE3E3E300FFFFFFFFE3FFFFBE00000029
:1014800000000000FFFFFFFFE3FFFFBE0066AFCFDD
:10149000EF6600FFFFFFFF63FFFFBE00030303FFD4
:1014A000FFFFFF03030300FFFFFFFF60FFFFFF00DD
:1014B000FFFFFFFF03FFFFFE00FEFFFFFF63FFFFD5
:1014C000FE007F7FFFFFE0FF7F7F0C1C1C18181FB2
:1014D0000F000F1F1F1F181F0F001F1F1F1F0000CF
:1014E00000001F1F1F1F181818001F1F1F1F001F9D
:1014F0001F1F000000000000001F1F1F1F181F1FDC
:101500000F00171B1D0E17001F1F1F1F001F1F1F7F
:10151000000000001F1F1F1F000000001F1F1F1FD3
:10152000001F1F1F001F1F1F1F181F1F0F001F1F3F
:101530001F1F001F1F1F0000001F1F1F1F00001A7A
:10154000050810100F000E11110E001F01011E00E2
:101550001E09091E001615150900030000000000F1
:101560003E5B4F5B3E3E6B4F6B3E1C3E7C3E1C1811
:101570003C7E3C181C577D571C1C5E7F5E1C00186F
:101580003C1800FFE7C3E7FF0018241800FFE7DB63
:10159000E7FF30483A060E2629792926407F0505BF
:1015A00007407F05253F5A3CE73C5A7F3E1C1C08FC
:1015B000081C1C3E7F14227F22145F5F005F5F06C1
:1015C000097F017F006689956A606060606094A20F
:1015D000FFA29408047E040810207E201008082A28
:1015E0001C08081C2A08081E101010100C1E0C1EC7
:1015F0000C30383E3830060E3E0E0600000000006B
:1016000000005F00000007000700147F147F14240F
:101610002A7F2A1223130864623649562050000894
:10162000070300001C2241000041221C002A1C7FED
:101630001C2A08083E0808008070300008080808C6
:1016400008000060600020100804023E5149453E39
:1016500000427F400072494949462141494D3318B3
:1016600014127F1027454545393C4A4949314121EB
:101670001109073649494936464949291E000014CF
:101680000000004034000000081422411414141417
:1016900014004122140802015909063E415D594EC9
:1016A0007C1211127C7F494949363E414141227FDB
:1016B0004141413E7F494949417F090909013E4174
:1016C0004151737F0808087F00417F41002040415D
:1016D0003F017F081422417F404040407F021C02AE
:1016E0007F7F0408107F3E4141413E7F0909090682
:1016F0003E4151215E7F0919294626494949320355
:10170000017F01033F4040403F1F2040201F3F40DA
:1017100038403F6314081463030478040361594993
:101720004D43007F414141020408102000414141E6
:101730007F040201020440404040400003070800CB
:1017400020545478407F284444383844444428384E
:101750004444287F385454541800087E090218A4C1
:10176000A49C787F0804047800447D400020404019
:101770003D007F1028440000417F40007C04780435
:10178000787C080404783844444438FC182424182D
:1017900018242418FC7C08040408485454542404D5
:1017A000043F44243C4040207C1C2040201C3C4002
:1017B00030403C44281028444C9090907C44645421
:1017C0004C44000836410000007700000041360814
:1017D0000002010204023C2623263C1EA1A1611244
:1017E0003A4040207A385454555921555579412171
:1017F00054547841215554784020545579400C1E5A
:101800005272123955555559395454545939555401
:1018100054580000457C410002457D420001457C52
:1018200040F0292429F0F0282528F07C5455450063
:101830002054547C547C0A097F4932494949323248
:1018400048484832324A4848303A4141217A3A427F
:10185000402078009DA0A07D39444444393D40405B
:10186000403D3C24FF2424487E4943662B2FFC2F17
:101870002BFF0929F620C0887E09032054547941A2
:101880000000447D413048484A32384040227A00C6
:101890007A0A0A727D0D19317D2629292F282629D9
:1018A00029292630484D402038080808080808082B
:1018B00008382F10C8ACBA2F102834FA00007B006B
:1018C0000008142A142222142A14089500220095D4
:1018D000AA005500AAAA55AA55AA000000FF0010A8
:1018E0001010FF00141414FF001010FF00FF101060
:1018F000F010F0141414FC001414F700FF0000FFA3
:1019000000FF1414F404FC141417101F10101F10FF
:101910001F1414141F00101010F0000000001F10FE
:101920001010101F10101010F010000000FF101009
:1019300010101010101010FF10000000FF14000015
:10194000FF00FF00001F10170000FC04F414141720
:1019500010171414F404F40000FF00F71414141406
:10196000141414F700F7141414171410101F101F78
:10197000141414F4141010F010F000001F101F00C5
:1019800000001F14000000FC140000F010F0101004
:10199000FF10FF141414FF141010101F000000009B
:1019A000F010FFFFFFFFFFF0F0F0F0F0FFFFFF008F
:1019B00000000000FFFF0F0F0F0F0F3844443844A2
:1019C0007C2A2A3E147E02020606027E027E026302
:1019D000554941633844443C04407E201E200602A1
:1019E0007E020299A5E7A5991C2A492A1C4C72017E
:1019F000724C304A4D4D303048784830BC625A46BF
:101A00003D3E494949007E0101017E2A2A2A2A2AAF
:101A100044445F444440514A444040444A51400099
:101A200000FF0103E080FF000008086B6B0836121E
:101A3000362436060F090F060000181800000010A3
:101A400010003040FF0101001F01011E00191D1789
:101A500012003C3C3C3C0000000000080B0002026D
:101A60000200000904000001020200000524001029
:101A700001052401010104240206052406000107D2
:101A800005810310004009040100020A000000075C
:101A9000050202400000070583024000000403091C
:101AA0000412010002EF02014041233680000101CF
:101AB00002030141726475696E6F204C4C43004112
:101AC000726475696E6F204C656F6E6172646F0031
:101AD000D5F08D14A1C881CFD9F1AF2000003129F4
:101AE000DE2B11241FBECFEFDAE0DEBFCDBF12E048
:101AF000A0E0B1E0EAE1F7E602C005900D92A03760
:101B0000B107D9F727E0A0E7B2E001C01D92A23EDD
:101B1000B207E1F71DE0C0E7DDE004C02197FE0158
:101B20000E947D2FCF36D107C9F70E940C2A0C9452
:101B300080330C940000809183020895FC01809111
:101B4000BE06882311F13FB7F89482E08093E90044
:101B50002091F200822F90E01816190614F481E00B
:101B600090E0882339F0289844E64093BD064091E0
:101B7000F1004083222339F02091F200211103C0AB
:101B80002BE62093E8003FBF08958FEF9FEF089565
:101B90002FB7F89483E08093E9009091E800892FB3
:101BA000807295FF04C09091F20080E4891B2FBFE2
:101BB00008958091B50681110DC082E08093B10631
:101BC00084E08093B2061092B4061092B30681E0CE
:101BD0008093B50681EB96E008953FB7F894809125
:101BE000AD069091AE06A091AF06B091B00626B5B5
:101BF000A89B05C02F3F19F00196A11DB11D3FBF45
:101C0000BA2FA92F982F8827BC01CD01620F711D13
:101C1000811D911D42E0660F771F881F991F4A950D
:101C2000D1F708958F929F92AF92BF92CF92DF9299
:101C3000EF92FF926B017C010E94ED0D4B015C0164
:101C4000C114D104E104F104B9F00E94ED0D68194A
:101C500079098A099B09683E73408105910580F3E3
:101C600021E0C21AD108E108F10888EE880E83E06D
:101C7000981EA11CB11CE4CFFF90EF90DF90CF9095
:101C8000BF90AF909F908F90089565E070E080E0E6
:101C900090E00C94120ECF93C82F8091A4069091DF
:101CA000A506DC01ED91FC910084F185E02D0995FC
:101CB000C130C1F070F0C230D1F08091A406909193
:101CC000A506DC01ED91FC910190F081E02DCF9112
:101CD000099480912307909124079093A5068093FF
:101CE000A406EBCF8091210790912207F6CF809137
:101CF0001F0790912007F1CF4091940250919502D7
:101D0000209192023091930242175307B4F49091BC
:101D1000E8009570E1F39091E80092FD19C080937E
:101D2000F100809194029091950201968F7399270A
:101D3000892B19F48EEF8093E800809194029091A2
:101D400095020196909395028093940281E0089504
:101D500080E00895EF92FF920F931F93CF93DF934C
:101D6000F82E192FE62E042F81E0860F880F0E948F
:101D70007C0E83E00E947C0ECF2DD12FEC0EFD2E29
:101D8000F11CCE15DF05B9F007FF13C0FE018491E9
:101D90000E947C0E182F80E00E947C0E81232196E9
:101DA0008111EFCFDF91CF911F910F91FF90EF90B5
:101DB00008958881EDCF81E0F5CFDF92EF92FF9219
:101DC0000F931F93CF93DF93D82E8A01EB017B01F2
:101DD000E40EF51ECE15DF0559F0D7FE12C0FE0148
:101DE00084910E947C0E21968111F4CF0FEF1FEF9A
:101DF000C801DF91CF911F910F91FF90EF90DF907D
:101E000008958881EECF0F931F93CF93DF931F9296
:101E1000CDB7DEB782E0898342E450E06BE57AE13A
:101E200080E80E94DD0E0E94D90DDC0112960D9112
:101E30001C910115110589F0D801ED91FC910280EA
:101E4000F381E02DBE016F5F7F4FC801099597FDBB
:101E500004C0F80100851185ECCF89810F90DF91D6
:101E6000CF911F910F910895615030F02091F100B2
:101E7000FC0120830196F8CF289884E68093BD0664
:101E80000895AF92BF92CF92DF92EF92FF920F939D
:101E90001F93CF93DF936C017B018B01040F151F00
:101EA000EB015E01AE18BF08C017D10759F0699168
:101EB000D601ED91FC910190F081E02DC6010995CC
:101EC000892B79F7C501DF91CF911F910F91FF9079
:101ED000EF90DF90CF90BF90AF9008958F929F9238
:101EE000AF92BF92CF92DF92EF92FF920F931F9328
:101EF000CF93DF936C017B018A01809129018823B4
:101F000009F45CC08091BE06882309F457C0809113
:101F1000980280FF05C08091E00082608093E0001D
:101F2000E801B12C8AEFA82E93E0892E2AE3922EA5
:101F3000209711F4BB20D9F10E94C80D81110AC06D
:101F4000AA94AA20D9F161E070E080E090E00E94BC
:101F5000120EEECF8C171D0611F00CF08C2F9FB7D0
:101F6000F8948092E9002091E80025FD02C09FBF0F
:101F7000DFCF282F30E0C21BD30BF701815020F0B8
:101F800041914093F100FACFE20EF31EBB2021F005
:101F90009092E800B12CEBCF8091E80085FDE7CF6F
:101FA0009092E800BB24B394209709F3F3CF5D9897
:101FB00084E680939702101611063CF081E090E0D1
:101FC000F6019383828310E000E0C801DF91CF9196
:101FD0001F910F91FF90EF90DF90CF90BF90AF9047
:101FE0009F908F900895CF93DF931F92CDB7DEB768
:101FF0006983DC01ED91FC910280F381E02D41E0E9
:1020000050E0BE016F5F7F4F09950F90DF91CF9138
:10201000089583E08093E9008091F200882319F00D
:102020008AE38093E80008950E94C80D90E0089527
:10203000CF93DF931F92CDB7DEB7FC0184859585E2
:1020400097FD08C02FEF3FEF358724870F90DF9172
:10205000CF910895CE0101960E949E0D019719F42B
:10206000898190E0F3CF8FEF9FEFF0CF0F931F9315
:10207000CF93DF931F92CDB7DEB78C01FC0184852F
:10208000958597FF0BC0CE0101960E949E0D01978A
:1020900071F4898190E0F80195878487F80184853F
:1020A00095850F90DF91CF911F910F9108958FEF3C
:1020B0009FEFF1CFFC018485958597FD0BC09FB7FD
:1020C000F89482E08093E9008091F2009FBF90E055
:1020D000019608959FB7F89482E08093E90080917B
:1020E000F2009FBF90E0089520918B02E091890259
:1020F000F0918A02CF01029690938A02809389021E
:10210000222319F0859194910895808191810895F9
:10211000CF92DF92EF92FF92CF93DF930E947410E1
:10212000811520E8920791F4809171008D7F809352
:102130007100109291004698479810928802DF91A2
:10214000CF91FF90EF90DF90CF90089521E0209302
:102150008802813020E8920751F4809186029091A4
:10216000870290938A02809389020E94741097FDDF
:1021700005C020918502222309F454C020918402D5
:10218000211150C021E020938C02EC01DF772097D1
:1021900009F04BC081E080938D0246983FE9C32E41
:1021A0003FE0D32EE12CF12CCAEFD0E0E0911D07E7
:1021B000F0911E070995811103C081E080938D0283
:1021C00080918C02882329F080918D02882309F464
:1021D0003FC047980E9474100097F1F19C01DE0106
:1021E0000E94082DDC01CB0129E0B595A7959795B4
:1021F00087952A95D1F7109290002AE020939100BC
:10220000D0929900C092980080938E0290938F0292
:10221000A0939002B09391028091710082608093AC
:1022200071008DCF10928C02B0CF9E0150E040E043
:1022300060E472E48FE090E00E94B42C69017A01BE
:1022400081E0C81AD108E108F10810928D02AECFE2
:102250004699BFCF479ABECF8FEF9FEFDC01CBCF20
:102260009C01E1E7F0E090819D7F908310928B02CA
:10227000EFE0F7E0F0938A02E0938902F09387029F
:10228000E0938602318320837383628380E090E849
:10229000958384830C9488104F925F926F927F9203
:1022A0008F929F92AF92BF92CF92DF92EF92FF9266
:1022B0000F931F93CF93DF934C015901FC2DC02F37
:1022C000D0E0CE01880D991D181619060CF06CC0CF
:1022D00020E8821691040CF067C09B012E0D311D81
:1022E000121613060CF060C0603471050CF05CC06F
:1022F0004115510509F458C0E62FE770FE2EDB01A9
:1023000077FD179633E0B595A7953A95E1F73A2F03
:1023100077FF04C0FF2011F03FEF3A0F66277727C1
:102320006819790997FC02C070E060E08038910577
:102330000CF44BC090E89819961BA32F032E000CA9
:10234000BB0B1A2F10953F3F0CF010E021E08E2DB3
:10235000877009F420E0E694E694E694E20EAE0D70
:10236000B11D19971CF028E0E22EE31AE11A310F93
:1023700020E83203D0011124A80DB91DA60FB71F04
:10238000019F600D711D1124460F571F0F2D0F2C3B
:10239000000C110BF33009F41CC1C8F4F13009F43E
:1023A000D0C0F23009F47CC0DF91CF911F910F9122
:1023B000FF90EF90DF90CF90BF90AF909F908F9065
:1023C0007F906F905F904F900895902FB5CFFA3F18
:1023D000B1F1232F2E0DFB3F39F7321729F3BD0141
:1023E00060567D4FD12CC12CC91608F0A4C0FA014B
:1023F000EC0DFD1DE491F0E04F01002E02C0880CB1
:10240000991C0A94E2F737FD06C0FB018081E82C95
:10241000E0948E218083FF2061F0373054F45B011B
:10242000F0E8AF0EB11CE92CE094F50180818E211B
:102430008083FFEFCF1ADF0A6F5F7F4FD5CF232F47
:102440002E0D321709F4B0CFBD0160567D4FD12C4F
:10245000C12CC91608F069C0FA01EC0DFD1DE4910C
:10246000F0E04F01002E02C0880C991C0A94E2F79C
:1024700037FD04C0FB01808188298083FF2051F053
:10248000373044F45B01F0E8AF0EB11CF5018081F8
:1024900089298083FFEFCF1ADF0A6F5F7F4FD9CF83
:1024A0006FEF70E00F2C02C0660F771F0A94E2F7FF
:1024B00060957095772E232F2E0D321709F474CF67
:1024C000FD01E056FD4F6F01B12CA12CA91638F586
:1024D000FA01EA0DFB1DE491F0E02F01002E02C08D
:1024E000440C551C0A94E2F737FD05C0F6018081C3
:1024F000862384298083FF2059F037304CF446012D
:10250000F0E88F0E911CF40180818721852980835A
:10251000FFEFAF1ABF0A8FEFC81AD80AD7CF3F5FB5
:102520004C0F5D1FA058BF4FC8CF3F5F4C0F5D1FC2
:10253000A058BF4F86CF3F5F4C0F5D1FA058BF4FC5
:102540004CCF6A0D7B1D232F2E0D321709F42CCF93
:10255000FD01E056FD4F6F01B12CA12CA91688F5A5
:10256000FB01EA0DFB1D8490912C002E02C0880C0B
:10257000991C0A94E2F780949094FA01EA0DFB1DED
:102580006490712C002E02C0660C771C0A94E2F74E
:1025900037FD05C0F6018081882186298083FF20D0
:1025A00049F037303CF4F601E058FF4F8081892133
:1025B00087298083FFEFAF1ABF0A8FEFC81AD80AA6
:1025C000CDCF3F5F4C0F5D1F6C0F7D1FA058BF4FDD
:1025D000BCCFC92ED12CFA01E60FF71FA056BD4F74
:1025E00000E810E00C191D09CC19DD09BE01660FC9
:1025F000771F41E050E06A010F2C01C0CC0C0A9417
:10260000EAF7592F2E2D792ECF93DF93ED01EF9618
:10261000EF9622968590A590FF2059F08C9C400162
:10262000AC9C500137302CF4E880B094EB20E928C2
:10263000E99233233AF0EC90A094EA20E828ED9256
:102640000C94231311965A9529F72A9551F0572D7A
:1026500033951124E60FF11DA00FB11DC00FD11D40
:10266000D9CFDF91CF9111249FCECF92EF920F93CC
:10267000FA0104913196E4904E5F5F4F22E0C22E42
:1026800030E020E00E944C110F91EF90CF90089520
:10269000CF92EF920F934115510541F1FA01049148
:1026A0003196E4904E5F5F4F2223D1F0A1E0B0E07D
:1026B0003E2D377011F4B0E0A0E0EE2DE695E695E2
:1026C000E695EA0FFB2FF11D0E9FD0010F9FB00D75
:1026D00011242A9FF0012B9FF00D11244E0F5F1F34
:1026E0002AEFC22E30E020E00E944C110F91EF90B3
:1026F000CF900895109283023E983F9808953E9A95
:102700003F9A81E0809383020895AF92BF92CF9267
:10271000DF92EF92FF920F931F93CF93DF936D3071
:1027200079F0C091A206D091A3066A30B1F410925C
:10273000A1061092A0062896D093A306C093A206E5
:1027400081E090E0DF91CF911F910F91FF90EF908A
:10275000DF90CF90BF90AF9008954091A006509128
:10276000A10685E0689FF0011124E55AFA4E9A010E
:10277000C12C80E1E82EA5E070E0CA1621F0CF015F
:1027800001967491FC0110E000E0B72FB170DB2ED0
:1027900020383105D0F4CE01800F911F803491058F
:1027A000A0F461E081FD64E080FD660F82FD62952A
:1027B000887FE89ED0011124A20FF62EA056BD4FAF
:1027C0008C91DD20A9F0862B8C9376950F5F1F4F9F
:1027D00008301105D1F6C3942F5F3F4F86E0C81231
:1027E000CACF4A5F5F4F5093A1064093A006A8CF7F
:1027F000F0948F21E9CF90919E02982329F4909133
:102800009F02982381E009F480E00895089590E004
:1028100080E00895CF93DF93EC0188E00E94FB13E2
:10282000882351F068E270E08BE092E00E94301162
:10283000EA81FB8181E0099584E00E94FB138823F3
:1028400091F080918302882321F0DF91CF910C9445
:102850007A130E947F1368E270E081E290E0DF91DA
:10286000CF910C943011DF91CF91089581E0809346
:102870001D012FB7F8948091A9069091AA06A09106
:10288000AB06B091AC062FBF80937F02909380027D
:10289000A0938102B093820208950895CF93DF93AD
:1028A000EC018A859B85009749F0DC01ED91FC9154
:1028B0000280F381E02D09951B861A8628A139A193
:1028C000FE0190E080E0821793074CF44485558523
:1028D000452B11F01586148601963296F4CF19A275
:1028E00018A2DF91CF9108958091700290917102AA
:1028F000009759F0DC01ED91FC910280F381E02D0D
:10290000099510927102109270020895FC01738370
:10291000628308958F929F92AF92BF92CF92DF927F
:10292000EF92FF920F931F93CF93DF938C01EC01F3
:10293000AB966C0181E3C80ED11CE990F990D701E8
:1029400054968C91882301F1F80162857385072ED6
:10295000000C880B990B0E94332E4B015C01D701B0
:1029600055966D917C91072E000C880B990B0E9457
:10297000332E9B01AC01C501B4010E94182D0E94A9
:10298000FB2DF70173876287CC15DD05B1F6980141
:10299000255C3F4FE991F9918685882351F0D80154
:1029A0001A968D919C9144855585840F951F91832E
:1029B0008083C217D30771F7DF91CF911F910F91D9
:1029C000FF90EF90DF90CF90BF90AF909F908F904F
:1029D0000895CF93DF93EC019B01FA0167E170E06A
:1029E0000E94552F48EE50E1892B21F1CE0161E183
:1029F00070E00E94552F40EE50E1892BD9F0CE01B6
:102A00006CE070E00E94552F48ED50E1892B91F069
:102A1000CE018770992740ED50E1892B59F0CE0106
:102A200067E070E00E94552F48EC50E1892B11F0CF
:102A30004AE051E1BF01C901DF91CF910C943513F8
:102A4000AF92BF92CF92DF92EF92FF920F931F93BC
:102A5000CF93DF93EC016C01B12CA12C10E000E0CE
:102A6000EA84FB84EA0CFB1C0115110519F00731FF
:102A7000110539F46C857D854AE051E1C7010E945A
:102A80003513D60153968C9153978130C1F46C85E0
:102A90007D850115110551F052968C9142E051E16E
:102AA000882351F00731110509F448C0F6018489E3
:102AB000811144C04AEF50E1C7010E9435130F5FF6
:102AC0001F4FF6E0AF0EB11C8FEFC81AD80A0831BD
:102AD000110531F68E01055D1F4F7E01A1E3EA0E5F
:102AE000F11CF801819191918F01DC01ED91FC9134
:102AF0000680F781E02D09950E151F0591F7EB96DD
:102B0000D801ED91FD918D018685882349F0628180
:102B1000738120E040EF50E1808191810E94481351
:102B2000C017D10769F7DF91CF911F910F91FF90E7
:102B3000EF90DF90CF90BF90AF900895AB01B701B9
:102B4000C8010E94E914BBCF0895FC018489882341
:102B5000E1F08389813049F46485758520E040EA9D
:102B600050E1828593850C944813823031F464855A
:102B7000758520E044E150E1F4CF811106C0648501
:102B8000758520E046E950E1ECCF0895CF92DF92C1
:102B9000EF92FF920F931F93CF93DF937B01FC0182
:102BA00004891589EC0130E020E086E0C82ED12CA4
:102BB00020173107DCF4E991F9913097A1F082896F
:102BC000811111C082859385A701481B590BCA0149
:102BD000B6010E94552F6831710528F4E60FF71FE2
:102BE0008389813069F02F5F3F4FE2CF80E0DF9132
:102BF000CF911F910F91FF90EF90DF90CF900895AC
:102C000081E0F5CF08958F929F92AF92BF92CF92BD
:102C1000DF92EF92FF92CF93DF93EC0120912B0193
:102C200030912C0140912D0150912E0168A179A184
:102C30008AA19BA10E94182D6B017C01C8A2D9A278
:102C4000EAA2FBA26EA17FA1072E000C880B990BB4
:102C50000E94332E4B015C01AC019B01C701B60100
:102C60000E94E32E87FD16C08CA19DA101969DA315
:102C70008CA32A893B898217930714F01DA21CA2FA
:102C8000A5019401C701B6010E94172D68A379A37D
:102C90008AA39BA3EE80FF80E114F104E9F068AD04
:102CA00079AD8AAD9BAD0E94FB2D4B016CA97DA92E
:102CB0008EA99FA90E94FB2DCB012CA1A701B401D5
:102CC000DF91CF91FF90EF90DF90CF90BF90AF90CA
:102CD0009F908F900C944813DF91CF91FF90EF90CD
:102CE000DF90CF90BF90AF909F908F900895089500
:102CF0004F925F926F927F928F929F92AF92BF920C
:102D0000EF92FF920F931F93CF93DF9300D0CDB735
:102D1000DEB78C01F62EFC0162ABF5E06F9F30014F
:102D20001124430120E5820E911CC4010E949E2CB7
:102D3000B82E8983C3018F5A9F4F0E949E2CE82E84
:102D40008A83C40102960E949E2CEB24E81611F09F
:102D50001A82198289819A81F801E05CFF4F918380
:102D6000808382E090E0F801958B848B28E030E04E
:102D7000378B268B21E030E0318F208F338F228FED
:102D8000358F248F4AE050E051A740A746E050E03D
:102D900053A742A735A724A737A726A731AB20AB57
:102DA0006AE9862E69E9962EA92C6EE3B62E8092EA
:102DB000080190920901A0920A01B0920B01412CE6
:102DC000512C70EA672E70EC772E409210015092D1
:102DD0001101609212017092130140920C01509205
:102DE0000D0160920E0170920F01412C512C612C4B
:102DF000AFE37A2E409200015092010160920201ED
:102E0000709203013093180120931701309316013B
:102E100020931501412C512C612CB1E47B2E44AE42
:102E200055AE66AE77AE10927302F2E0FF1609F46B
:102E300014C1FF1550F1FF2009F48EC0F21609F4F9
:102E4000CEC0F80183A915A214A210A211A212A249
:102E500013A2823009F4E5C108F0AFC1882309F458
:102E6000B4C1813009F4C6C10F900F90DF91CF91AA
:102E70001F910F91FF90EF90BF90AF909F908F9018
:102E80007F906F905F904F900895E3E0FE1609F4F5
:102E900038C1F4E0FF12D5CF2BEE31E0F801EC5B46
:102EA000FF4F3183208321EF31E03296318320833D
:102EB00024E030E0F801358B248B20E130E031A7AD
:102EC00020A722E839E03187208720E837E03387E0
:102ED00022872EE337E035872487318B208B2CEF38
:102EE00036E03787268743E353E363E970EC40938A
:102EF00010015093110160931201709313014EEA77
:102F000057E461E67EE34093080150930901609322
:102F10000A0170930B01909318018093170190930D
:102F200016018093150180E090E0A0E1B1E4809368
:102F30000C0190930D01A0930E01B0930F018DEC45
:102F40009CECACECBDE38093000190930101A09355
:102F50000201B093030175CF8AEB91E0F801EC5BBD
:102F6000FF4F9183808380EC91E032969183808340
:102F700082E99FE0F8019187808780E99DE093874F
:102F800082878EE49DE095878487918B808B8CE08F
:102F90009DE09787868783E393E3A3E5B0EC809376
:102FA000100190931101A0931201B09313018DECC5
:102FB0009CECACE4BEE38093080190930901A093DC
:102FC0000A01B0930B018092000190920101A0923E
:102FD0000201B092030181E08093730232CF2FECA3
:102FE00031E0F801EC5BFF4F3183208325ED31E0C8
:102FF000329631832083F801578B468B2AE83CE0D8
:103000003187208728E03BE03387228726EC3AE0AF
:1030100035872487318B208B24E83AE03787268751
:1030200040E050E060E870EC4093100150931101D3
:10303000609312017093130190931801809317010C
:10304000909316018093150140930C0150930D014C
:1030500060930E0170930F01F4CE25E032E0F80189
:10306000EC5BFF4F318320832BE032E032963183DB
:1030700020832AE736E0F8013187208728E734E00B
:103080003387228726E334E035872487318B208BF2
:1030900024EF33E03787268746E656E666E070EC95
:1030A000409310015093110160931201709313012A
:1030B00046E656E666E470EC40930C0150930D0131
:1030C00060930E0170930F014CEE51E568E37EE3CF
:1030D000409308015093090160930A0170930B011A
:1030E0009093180180931701909316018093150116
:1030F00080E090E0A0EAB0E484AF95AFA6AFB7AFB0
:10310000A0CE20E232E0F801EC5BFF4F3183208358
:1031100027E232E032963183208322E733E0F80160
:103120003187208720E331E0338722872EEE30E09D
:1031300035872487318B208B2CEA30E03787268730
:1031400024E130E031A720A740E050E060E870ECD7
:103150004093100150931101609312017093130179
:1031600043E353E363E170EC40930C0150930D0192
:1031700060930E0170930F0140E050E060E87EE341
:10318000409308015093090160930A0170930B0169
:103190004DEC5CEC6CE47EE3409300015093010144
:1031A00060930201709303019093180180931701BB
:1031B000909316018093150144CE8330E9F1843059
:1031C00009F052CE868597852EC08085918597839C
:1031D000868384899589938B828B80A591A597A3FB
:1031E00086A3809117019091180190931601809306
:1031F00015013ACE80E090E0A0E0B0E480A391A376
:10320000A2A3B3A382E090E095A384A382859385D3
:103210009783868386899789938B828B86E090E05B
:10322000DECF848595859783868381E090E0938BBC
:10323000828B97A386A318CE80899189F4CFCF93F0
:10324000DF93EC0188E00E94FB13882351F0EA81B0
:10325000FB8182E0099568E270E08BE092E00E94D9
:10326000301180E40E94FB138823B9F08091720230
:1032700090E0019666E070E00E94552F8093720204
:10328000682F80917002909171020E94781668E216
:1032900070E08BE790E00E94301180E20E94FB1307
:1032A0008823C9F08091720290E0059666E070E094
:1032B0000E94552F80937202682F80917002909126
:1032C00071020E94781668E270E08BE790E0DF916F
:1032D000CF910C943011DF91CF910895CF93DF936C
:1032E00088E490E00E94832FEC01609172028DE3EC
:1032F00091E0998388831A821B821C821D8280E060
:1033000090E0A0E6B2E48CAB9DABAEABBFAB80E08F
:1033100090E0A0EEB1E488AF99AFAAAFBBAF8CE16B
:1033200090E09F8F8E8F1DA21CA2FE01E05CFF4FDC
:1033300011821082329683E090E091838083CE01E7
:103340000E9478161DA21CA218A219A21AA21BA2E2
:103350001BAA888599859F838E838C899D899B8BE9
:103360008A8B88A599A59FA38EA380911701909120
:1033700018019093160180931501D0937102C093A8
:103380007002DF91CF9108956115710551F0FB0135
:1033900001900020E9F73197AF01461B570B0C94C1
:1033A000410F90E080E008950F931F934FE355E1A4
:1033B00070E060E085E090E00E94351343E554E161
:1033C00067E070E085E090E00E94351345E952E146
:1033D0006BE170E086E090E00E94351347E752E130
:1033E00066E170E08CE590E00E9435138FB7F894A9
:1033F0004091A9065091AA066091AB067091AC0667
:103400008FBF80917F0290918002A0918102B09144
:1034100082028A019B01081B190B2A0B3B0BD90165
:10342000C801843F9140A105B10570F080911D0154
:1034300091E0892780931D0140937F025093800281
:10344000609381027093820280911D01882391F024
:1034500081E190E09093A1068093A00689E390E03B
:103460009093A3068093A2066DE372E085E297E055
:103470000E94C41980918302811112C01092A1068A
:103480001092A0068AE390E09093A3068093A20690
:103490006EE472E085E297E01F910F910C94C419DD
:1034A0001F910F910895DC01FC0101900020E9F7C4
:1034B0003197E81BF90B9E2F990FE90FEF7780E406
:1034C00090E08E1B91099093A1068093A00670E076
:1034D0007093A3066093A206BD0185E297E00C9469
:1034E000C419CF92DF92EF92FF920F931F93CF9365
:1034F000DF9300D000D000D0CDB7DEB78C01DC0167
:1035000014966D917C91FB0101900020E9F73197B1
:10351000E61BF70B8E2F880FE80FEE0F80E890E088
:103520008E1B91099093A1068093A0061092A3068A
:103530001092A20685E297E00E94C41980917D0254
:103540008F9380917C028F9380E592E09F938F937D
:10355000FE0131967F01FF93EF930E94A8301092F5
:10356000A1061092A0061092A3061092A206B7011F
:1035700085E297E00E94C4196801FCE0CF0ED11CDF
:103580000F900F900F900F900F900F90F12CE12C57
:10359000D80190968D919C91E816F9068CF4F6016D
:1035A000819191916F01009739F0DC01ED91FC91CF
:1035B0000680F781E02D0995BFEFEB1AFB0AE8CFF3
:1035C000F801828593850E94031680917E028823EC
:1035D00091F082E290E09093A1068093A00680E2B1
:1035E00090E09093A3068093A20665E572E085E2E1
:1035F00097E00E94C41926960FB6F894DEBF0FBE5E
:10360000CDBFDF91CF911F910F91FF90EF90DF9091
:10361000CF900895EF92FF920F931F93CF93DF9374
:10362000CDB7DEB72C970FB6F894DEBF0FBECDBF77
:10363000E0917002F0917102E05CFF4F81818F9305
:1036400080818F938FE592E09F938F938E010F5F20
:103650001F4F1F930F930E94A830E0917002F091CA
:103660007102EC5BFF4F60E0808191810E94531AF0
:10367000E0917002F0917102EA5BFF4F6BE0808194
:1036800091810E94531A65E1C8010E94531A8091EA
:103690007002909171020E9403160F900F900F908C
:1036A0000F900F900F90F12CE12C10E000E04CE314
:1036B00050E0B801C7010E94E9140A5F1F4F8FEF65
:1036C000E81AF80A0E37110591F72C960FB6F89400
:1036D000DEBF0FBECDBFDF91CF911F910F91FF9045
:1036E000EF900895CF92DF92EF92FF920F931F9386
:1036F000CF93DF93EC01EA85FB8515A214A210A2FB
:1037000011A212A213A284E083AB868597859783CA
:103710008683848D958D938B828B80A991A997A3A5
:1037200086A31092190110921A0110921B01109297
:103730001C018DEC9CECACE4BFE380932B019093D7
:103740002C01A0932D01B0932E016AEF70E088E860
:1037500091E00E94301181E080937E0200917C0212
:1037600010917D02EA85FB85DF01A05CBF4F8D9142
:103770009C918017910764F5C2A985E0C89FE0017C
:1037800011247E0180E5E80EF11CC12EC026C70180
:103790000E949E2C801721F0602FC7010E94A62C4A
:1037A000CF5ADF4FCE010E949E2C181721F0612FB7
:1037B000CE010E94A62C6C2DC7010296DF91CF91FD
:1037C0001F910F91FF90EF90DF90CF900C94A62C5B
:1037D000DF91CF911F910F91FF90EF90DF90CF90ED
:1037E0000895EF92FF920F931F93CF93DF938C0175
:1037F00082EB91E0D8018D939C93E801AB96780120
:10380000B1E3EB0EF11C89919991009739F0DC013D
:10381000ED91FC910280F381E02D0995CE15DF0535
:1038200091F7055C1F4F899199910E941F300C17E9
:103830001D07C9F7DF91CF911F910F91FF90EF9076
:103840000895CF93DF93EC010E94F11BCE01DF912D
:10385000CF910C941F300C941F300C941F302F927A
:103860003F924F925F926F927F928F929F92AF9210
:10387000BF92CF92DF92EF92FF920F931F93CF935D
:10388000DF93CDB7DEB72A970FB6F894DEBF0FBE31
:10389000CDBF1C016B01AC014D5E5F4F90E080E03D
:1038A000FC01EC0DFD1DE491DA0130E020E0F0E0D8
:1038B000BF01022E02C0759567950A94E2F7617008
:1038C0006D932F5F3F4F2830310591F70196485F88
:1038D0005F4F8330910521F7560123E0A20EB11C02
:1038E000A1014A5F5F4F5C834B83710142E050E06E
:1038F000B501CE0101960E94952C8980D7018820C0
:1039000009F4FCC09B960D911C91F10162857385B1
:10391000072E000C880B990B0E94332E2B013C01C3
:10392000D80153968C925397E2E05296EC935297BB
:10393000912C6A8170E056967C936E935597072E72
:10394000000C880B990B0E94332EA30192010E9458
:10395000182D0E94FB2DD8011B967C936E931A970D
:10396000072E000C880B990B0E94332EF8016283FE
:10397000738384839583F6E0F89DC001F99D900DD3
:1039800011249C012F5B3E4F4901D9016C9170E0DD
:10399000F80175876487072E000C880B990B0E942D
:1039A000332ED80116966D937D938D939C93199722
:1039B000F401818190E01F969C938E931E978281E3
:1039C00090E051969C938E935097D7019B96ED91E2
:1039D000FC91B1E0B48BB2E0AB0EB11CE2E0EE0EB4
:1039E000F11C2B813C81E216F30609F07FCFD10157
:1039F000D196ED91FC91D2971686D396ED91FC91DC
:103A0000D4971686D596ED91FC91D6971686D796C3
:103A1000ED91FC91D8971686D996ED91FC9116867A
:103A2000F6013996FE83ED8396012D5E3F4F388770
:103A30002F83A101475C5F4F5A8749878AE0E82EB0
:103A4000F12C412C512C90E2692E91E4792E42E028
:103A500050E06D817E81CE0101960E94952CD98027
:103A600051E0D51250C0D101D1960D911C91D29741
:103A70006A8170E01A968D919C91F8017587648730
:103A8000860F971F91838083072E000C880B990B5C
:103A90000E94332ED80114966D937D938D939C9341
:103AA00017971396FC92EE921297F8014086518672
:103AB00062867386D6868D819E8102969E838D83D3
:103AC000AF81B885A817B90711F62A960FB6F894F2
:103AD000DEBF0FBECDBFDF91CF911F910F91FF9041
:103AE000EF90DF90CF90BF90AF909F908F907F909E
:103AF0006F905F904F903F902F9008959B96ED911F
:103B0000FC91148A68CFF2E0DF1255C0D101D19642
:103B1000CD90DC90D2970A8110E01A968D919C91FD
:103B2000F60115870487800F911F91838083B80168
:103B3000012E000C880B990B0E94332ED60114968F
:103B40006D937D938D939C9317971396FC92EE92B1
:103B50001297F601408651866286738621E0268799
:103B6000D101D396CD90DC90D497B801665F7F4F9A
:103B70001A968D919C91F60175876487860F971F21
:103B800091838083072E000C880B990B0E94332EA3
:103B9000D60114966D937D938D939C9317971396EE
:103BA000FC92EE921297F6014086518662867386E9
:103BB00021E0268780CF33E0D3129CC0D101D1967B
:103BC0000D911C91D297CA80D12C1A968D919C91FF
:103BD000F801D586C4868C0D9D1D91838083B60126
:103BE0000D2C000C880B990B0E94332E4B015C01AD
:103BF000D80114968D929D92AD92BC921797139610
:103C0000FC92EE921297F801408651866286738686
:103C100021E02687D101D3960D90BC91A02DBC83C5
:103C2000AB838601065F1F4FF101828593851D9648
:103C30001C930E931C97800F911F8D939C93B8013A
:103C4000012E000C880B990B0E94332EAB81BC8196
:103C500014966D937D938D939C9317971396FC9276
:103C6000EE921297FD01408651866286738621E0AE
:103C70002687D101D596ED91FC91D6971A962D9174
:103C80003C911B97D586C486C20ED31ED182C082BA
:103C900084829582A682B78224E130E03383228336
:103CA00020E030E040EA51E42087318742875387A3
:103CB00031E03687D796ED91FC91D8971A962D91E1
:103CC0003C9115870487200F311F31832083648343
:103CD00075838683978344E150E05383428380E079
:103CE00090E0A0EAB1E480879187A287B38791E052
:103CF0009687E1CEA4E0DA12DECE5101B1E3AB0E3D
:103D0000B11C0A8110E0F501C190D1905F01D10191
:103D10001A968D919C91F60115870487800F911F4B
:103D200091838083B801012E000C880B990B0E94AF
:103D3000332ED60114966D937D938D939C93179794
:103D40001396FC92EE921297F60140865186628697
:103D5000738621E02687065F1F4F49855A85A41682
:103D6000B50689F6A8CE2F923F924F925F926F923E
:103D70007F928F929F92AF92BF92CF92DF92EF92FB
:103D8000FF920F931F93CF93DF93CDB7DEB76A9760
:103D90000FB6F894DEBF0FBECDBF1C0180E40E94B9
:103DA000FB138823B1F020E030E040E85EE360914F
:103DB0002B0170912C0180912D0190912E010E9478
:103DC000182D60932B0170932C0180932D019093FB
:103DD0002E0180E20E94FB138823B1F020E030E046
:103DE00040E85EE360912B0170912C0180912D01E0
:103DF00090912E010E94172D60932B0170932C013E
:103E000080932D0190932E0180E80E94FB1388235C
:103E100031F08091140191E0892780931401809101
:103E20001401882329F12091DA073091DB074091B2
:103E3000DC075091DD0760912B0170912C0180917E
:103E40002D0190912E010E94182D6B017C012DEC0B
:103E50003CEC4CE050E40E94E32E18160CF41DC11B
:103E6000C0922B01D0922C01E0922D01F0922E01F4
:103E700084E00E94FB13882361F0D1011296ED913A
:103E8000FC9180E0099560E570E087EF90E00E948A
:103E900030116091190170911A0180911B0190916C
:103EA0001C01905820912B0130912C0140912D0143
:103EB00050912E010E94E82E60937802709379024F
:103EC00080937A0290937B027101D12CC12CF10175
:103ED00000A0F1A1E02DFA8BE98BCE16DF060CF0E5
:103EE000E9C0D7011C960D911C910115110509F42B
:103EF000CDC0F80182898111C9C0228133814481FA
:103F00005581609178027091790280917A02909146
:103F10007B020E94182D4B015C01D80112968D92F4
:103F20009D92AD92BC92159720E030E0A9011696C3
:103F30006D917D918D919C9119970E94182D2B0167
:103F40003C01F8014682578260867186C501B40142
:103F50000E94FB2D4B01D8011B967C936E931A9700
:103F6000C301B2010E94FB2DF80175876487868525
:103F70009785880E991E97FE7FC0F1013C9670E0F0
:103F800060E030E020E0A191B191109771F052967D
:103F90008C915297811109C01A968D919C918057EE
:103FA0009F4F681779070CF4BC012F5F3F4F498979
:103FB0005A894217530739F7D8011B967C936E93A1
:103FC0001A97072E000C880B990B0E94332EF801CC
:103FD000628373838483958380917C0290917D02B8
:103FE00050E040E08B30910534F042E050E04597DE
:103FF00014F441E050E022EE31E1B12CA12C90E02C
:1040000080E0F901659174914617570774F0F50146
:10401000EE0FFF1F61E070E06C0F7D1FE60FF71FD2
:1040200091838083D50111965D0101962B5E3F4FF0
:104030008830910531F7A114B104F1F00E943D2CB4
:104040009501BB0C440B550B0E94B42C660F771FD7
:10405000E1E0F0E0EC0FFD1F6E0F7F1FDB018D91A3
:104060009C91B5E1B89FB001B99F700D11246153C7
:104070007E4EC8010E942F1CF70184859585DC01C6
:10408000ED91FC910480F581E02D0995BFEFCB1AED
:10409000DB0AE2E0EE0EF11C1ACF8DEC9CECACE0FA
:1040A000B0E480932B0190932C01A0932D01B09349
:1040B0002E01DECED1011A96ED90FC90F70160AD95
:1040C00071AD82AD93AD0E94FB2D6C31710561F530
:1040D0008091A6069091A7060197029728F1810189
:1040E000045F1F4F20E030E040E051E4D701D49658
:1040F0006D917D918D919C91D7970E94182D0E9472
:10410000FB2D6B0163507109C8010E94C615811116
:104110000BC0B6016D5F7F4FC8010E94C6158111AB
:1041200003C0C1010E94721BF101E284F384D70134
:10413000D3968C91D397843009F4B8C08091A606A9
:104140009091A7068D7F019709F4B0C020E030E080
:1041500040E051E4D4966D917D918D919C91D797DB
:104160000E94182D0E94FB2D8B01F10140A151A14D
:10417000D1011C9630E020E0241735070CF096C0E2
:10418000ED91FD91309709F422C28285938508173D
:1041900019070CF41CC266857785860F971F801758
:1041A00091070CF414C2D701DC964D905D906D9090
:1041B0007C90DF97D8968D909D90AD90BC90DB97CA
:1041C0009F01255D3F4F3A8B298BAF014F5C5F4FBD
:1041D0005A8F498FA989BA89CD90DD90BA8BA98B66
:1041E000F6018489882309F459C0838936E0389F11
:1041F00090011124388F2F8B2F5B3E4F3C8B2B8BE4
:10420000D90113968C9122853385820F932F911DAE
:10421000F801E81BF90BFE8BED8B20E030E040E865
:1042200051E4C501B4010E94182D0E94FB2DAB89F9
:10423000BC8914964C91F60124853585240F311DD7
:10424000AB01421B530B5C8B4B8BC301B2010E9431
:10425000FB2DEF89F88DEF5BFE4F258130E0A90142
:10426000460F571F6D897E89669FC001679F900D1D
:10427000900D1124AB89BC89AA9F9001AB9F300D92
:10428000300D1124820F931F449F9001459F300DE4
:10429000300D1124821793070CF49CC1E98DFA8D1F
:1042A00029893A89E217F30709F094CFD1011A96C8
:1042B000CD90DC90F60183A9843009F485C020E01C
:1042C00030E040E051E464A975A986A997A90E944D
:1042D000182D0E94FB2D7B01D10190964D915C9190
:1042E000F1013C9630E020E0241735070CF06CC05B
:1042F000019111910115110509F47CC1D8011A969B
:104300008D919C911B97E816F9060CF473C11E96CB
:104310006D917C91860F971F8E159F050CF46AC1D5
:10432000F60140AC51AC62AC73AC64AD75AD86AD1A
:1043300097AD0E94FB2D6C5F7F4F669F4001679F8A
:10434000900C900C11246801F1E3CF0ED11C980160
:10435000255C3F4F3A8B298BD6010D911D916D0144
:10436000F8018685882359F180819181049657014F
:10437000A81AB90A20E030E040E851E4C301B201D4
:104380000E94182D0E94FB2DD80112962D913C9170
:1043900013972C5F3F4F621B730BAA9CC001AB9C11
:1043A000900D900D1124669F9001679F300D300D88
:1043B0001124820F931F881599050CF41EC1E989F9
:1043C000FA89EC15FD0541F6F1010285138588E0B7
:1043D0000E94FB13F82E80919E0283FF51C28091B0
:1043E0009F0283FD4DC2FF2009F421C1EF2C80E024
:1043F00090E0A0EFB1E48093740290937502A093D3
:104400007602B0937702C0901501D09016011C146B
:104410001D040CF08CC1D801D3968C919EEF980F9F
:10442000923008F40FC1843081F020E030E0A9011F
:10443000609174027091750280917602909177027A
:104440000E94E32E18160CF400C1D801D3963C90BC
:10445000D3978EEF830D823008F096C112968D901F
:104460009D90AD90BC90159720E030E0A901C5016A
:10447000B4010E94842D87FF13C0EE2089F0A501AE
:10448000940160910001709101018091020190916D
:1044900003010E94E82EF80162837383848395836D
:1044A000D80112968D909D90AD90BC901597C090BC
:1044B0002B01D0902C01E0902D01F0902E01A7014E
:1044C0009601C501B4010E94E82EF80120AD31AD7E
:1044D00042AD53AD0E94182D2B013C01D801D89656
:1044E0004D925D926D927C92DB9720910401309108
:1044F00005014091060150910701C701B6010E94D4
:10450000E82EA50194010E94182D4B015C01F801D1
:1045100082829382A482B582668D778D072E000CED
:10452000880B990B0E94332E6B017C01AC019B011F
:10453000C301B2010E94E32E87FD43C1D801D89682
:10454000CD92DD92ED92FC92DB9781E0D3968C9335
:1045500080E090E0A0E0B0E4F80180A391A3A2A3E2
:10456000B3A382E090E095A384A38285938597838B
:10457000868386899789938B828B82A593A597A33F
:1045800086A3809117019091180190931601809352
:10459000150168E270E081E390E06A960FB6F89446
:1045A000DEBF0FBECDBFDF91CF911F910F91FF9066
:1045B000EF90DF90CF90BF90AF909F908F907F90C3
:1045C0006F905F904F903F902F900C9430112F5F21
:1045D0003F4FD2CDCD2809F469CE86E696E6A6E611
:1045E000B0ECF70182839383A483B583C1010E9459
:1045F000721B5CCE2F5F3F4F77CE012B09F4E4CEC8
:104600001E961C9280917C0290917D02019690935F
:104610007D0280937C0280FD07C08FE69FE068E208
:1046200070E00E943011D0CE81E99EE0F8CF109268
:104630007402109275021092760210927702EE24A4
:10464000E394E1CEFF2009F400CF8091170190910F
:1046500018018C199D0909F051C064E670E08EE6DE
:1046600090E00E9430111092740210927502109224
:104670007602109277028091150190911601209197
:104680001701309118018217930709F047C0409134
:104690001001509111016091120170911301F80104
:1046A00042835383648375830197909316018093AB
:1046B00015018091080190910901A0910A01B09122
:1046C0000B018093040190930501A0930601B09320
:1046D000070115A214A210A211A212A213A282E035
:1046E00083AB8485958597838683808D918D938B0D
:1046F000828B84A595A597A386A3A7CE813091052B
:1047000029F464E670E083E990E0ABCF029709F00A
:10471000AACF64E670E08FEA90E0A3CF40910C014D
:1047200050910D0160910E0170910F01B8CF8091F1
:104730007302882309F489CEFF2091F010920401BE
:1047400010920501109206011092070183EC95EF7B
:10475000A8EABEE3F80182839383A483B58375CE70
:10476000EE2009F472CE8091080190910901A09188
:104770000A01B0910B018093040190930501A0936D
:104780000601B093070161CEF4E03F1609F43EC084
:104790006A960FB6F894DEBF0FBECDBFDF91CF9102
:1047A0001F910F91FF90EF90DF90CF90BF90AF904F
:1047B0009F908F907F906F905F904F903F902F9041
:1047C000089520E030E0A901C501B4010E94E32E64
:1047D0001816F4F6F3E03F16D9F2D80195961C921C
:1047E0001E929497F80110A211A212A213A283E0C4
:1047F00083AB8089918997838683828D938D938BF8
:10480000828B86A597A597A386A3C2CF1296CD903B
:10481000DD90ED90FC90159780902B0190902C01ED
:10482000A0902D01B0902E01A5019401C701B60101
:104830000E94E82E9B01AC01F80160AD71AD82AD24
:1048400093AD0E94182DD801D8966D937D938D93CA
:104850009C93DB97209108013091090140910A0156
:1048600050910B01C501B4010E94E82EA7019601E9
:104870000E94182DF801628373838483958388CF07
:10488000E12CF110B4CD20912B0130912C014091FD
:104890002D0150912E0160917402709175028091EA
:1048A0007602909177020E94172D609374027093A4
:1048B00075028093760290937702E12CA4CD2F921B
:1048C0003F924F925F926F927F928F929F92AF92A0
:1048D000BF92CF92DF92EF92FF920F931F93CF93ED
:1048E000DF93CDB7DEB762970FB6F894DEBF0FBE89
:1048F000CDBF1C0183E393E3A3E7BFE380932B01C8
:1049000090932C01A0932D01B0932E011092780268
:104910001092790210927A0210927B02812C912CD3
:10492000A12C70E4B72E8092190190921A01A092E6
:104930001B01B0921C0110927E0210927D02109217
:104940007C0220917202298B88E490E00E94832FE0
:104950008C018DE391E0F8019183808312821382B0
:104960001482158214AA15AA16AA17AA412C512C32
:10497000A0EE6A2EA1E47A2E40AE51AE62AE73AEC6
:10498000BCE1CB2ED12CD78EC68E15A214A2E05C32
:10499000FF4F118210827801F2E4EF0EF11C83E0E8
:1049A00090E0F701918380836989C8010E9478169D
:1049B0008091170190911801909316018093150131
:1049C000F10113870287F801EC5BFF4F20813181F1
:1049D000F80114AA15AA16AA17AA40AE51AE62AEE3
:1049E00073AED78EC68E81E083AB80A291A2A2A2C5
:1049F000B3A282E090E095A384A3828593859783F8
:104A0000868386899789938B828B82A593A597A3AA
:104A100086A3F70180819181F101358324839783F7
:104A20008683918780876AE770E080E090E00E944B
:104A30008C2CF1013C96C1018096119211928E1737
:104A40009F07D9F7F10111A210A280917C029091E9
:104A50007D0250E040E08B30910534F041E050E0C1
:104A6000459714F042E050E02AE331E1D12CC12C0B
:104A700090E080E0F901659174914617570774F052
:104A8000F601EE0FFF1F61E070E06C0F7D1FE60F77
:104A9000F71F91838083F60131966F0101962B5E9B
:104AA0003F4F8830910531F709E217E0F12CE12CF6
:104AB0001A8A198A412C512C30E7632E32E4732E66
:104AC00046010D2C000CAA08BB08F801F386E2860B
:104AD000B7010F2C000C880B990B0E94332EF801A4
:104AE00062837383848395836CE370E07587648746
:104AF000468257826086718660E970E077876687B4
:104B000081E090E0918B808BF10180A191A18A30AE
:104B100091055CF4FC01EE0FFF1FE20DF31D1587FC
:104B200004870196F10191A380A3F0E9EF0EF11C37
:104B300069897A89672B19F0C114D10461F562E1A2
:104B400071E1C8010E942F1C69897A896F5F7F4FCC
:104B50007A8B698B055C1F4F70EBE71671E0F706E7
:104B600009F0B3CF62960FB6F894DEBF0FBECDBF8B
:104B7000DF91CF911F910F91FF90EF90DF90CF9039
:104B8000BF90AF909F908F907F906F905F904F906D
:104B90003F902F9008950E943D2CA50194010E9402
:104BA000B42C660F771F81E090E08C0F9D1F680F7B
:104BB000791FFB0180819181F5E1F89FB001F99F98
:104BC000700D1124695D7E4EBCCF1F920F920FB6FF
:104BD0000F9211242F933F938F939F93AF93BF9383
:104BE0008091A9069091AA06A091AB06B091AC065F
:104BF0003091A80623E0230F2D3758F50196A11D0B
:104C0000B11D2093A8068093A9069093AA06A093AD
:104C1000AB06B093AC068091AD069091AE06A09124
:104C2000AF06B091B0060196A11DB11D8093AD06EF
:104C30009093AE06A093AF06B093B006BF91AF912C
:104C40009F918F913F912F910F900FBE0F901F90CA
:104C5000189526E8230F0296A11DB11DD2CF1F92F1
:104C60000F920FB60F9211248F939F938091E100C2
:104C70009091E100937F9093E10083FF0FC0109229
:104C8000E90091E09093EB001092EC0092E3909396
:104C9000ED001092BE0698E09093F00082FF22C0D3
:104CA00093E09093E9009091F200992319F09AE330
:104CB0009093E80090919702992341F09091970288
:104CC000915090939702911101C05D9A9091BD0609
:104CD000992341F09091BD0691509093BD0691119A
:104CE00001C0289A84FF18C08091E2008E7E816006
:104CF0008093E2008091E1008F7E8093E1008091BB
:104D000098028E7E8061809398029F918F910F9080
:104D10000FBE0F901F90189580FFF7CF8091E20093
:104D20008E7E80618093E2008091E1008E7E809390
:104D3000E100809198028E7E8160E5CF1F920F92F4
:104D40000FB60F921124CF92DF92EF92FF920F9342
:104D50001F932F933F934F935F936F937F938F9303
:104D60009F93AF93BF93EF93FF93CF93DF93CDB711
:104D7000DEB76C97DEBFCDBF1092E9008091E800EE
:104D800083FF25C068E0CE0145960E94340F82EF74
:104D90008093E8008D8987FF39C09091E80090FFEB
:104DA000FCCF982F907609F034C19E894F89588D99
:104DB0002F89F88C911131C0803861F5809199026A
:104DC0008093F1001092F1008EEF8093E8006C96D2
:104DD0000FB6F894DEBF0FBECDBFDF91CF91FF912C
:104DE000EF91BF91AF919F918F917F916F915F9163
:104DF0004F913F912F911F910F91FF90EF90DF9076
:104E0000CF900F900FBE0F901F9018959EEF90932C
:104E1000E800C7CF1092F100D5CF913059F481113D
:104E2000D3CF4130510581F6809199028D7F8093D7
:104E30009902CACF933049F48111C6CF4130510550
:104E400019F6809199028260F2CF953041F48091F9
:104E5000E80080FFFCCF20682093E300B5CF9630B8
:104E600009F0A9C00B8D1C8D22E01092E900109270
:104E7000950210929402F2122EC010929302109298
:104E800092020E94030F1F8299E09983FA8291E0B7
:104E90009E8390EA98879AEF9987209194023091A7
:104EA0009502275F3F4F3C832B838D831092E9004F
:104EB0001092950210929402109393020093920222
:104EC00049E050E0BE016F5F7F4F80E00E94DD0E41
:104ED0000E94030F79CF10939302009392020E94D5
:104EE000D90DDC0112960D911C910115110509F4E3
:104EF00051C1D801ED91FC910480F581E02DBE01F6
:104F00006B5E7F4FC8010995009709F03EC1F8011B
:104F100000851185EACFF3E0FF120EC08F89882348
:104F200009F440C0823061F440E860E18FEB9AE11F
:104F30000E94AA0E811148CF81E28093EB0047CFF7
:104F4000813029F440E86BE083EB9AE1F1CF8330C4
:104F500099F70E94D90DDC011296ED90FC908E011C
:104F60000F5F1F4F6801E114F10479F0D701ED9153
:104F7000FC910680F781E02DB801C7010995080F63
:104F8000111DF701E084F184EECFD8011C92F601E7
:104F900001900020E9F73197BF016C197D0940E0CD
:104FA000C601C6CF6DE97AE1FB01449150E080E88B
:104FB0000E94DD0E09CF973009F4BECF983021F45E
:104FC00081E08093F10000CF993009F0FDCE83702D
:104FD00009F0B2CFE4E5F1E081E031E096E3219120
:104FE000222371F08093E9003093EB00DF011197E9
:104FF0002C912093EC009093ED008F5F873079F730
:105000008EE78093EA001092EA008F898093BE06B3
:10501000DBCE8B8D9C8D1092E90010929502109240
:1050200094029093930280939202898D811192C091
:105030008E899D89913A49F4813209F07DCF47E00C
:1050400050E062E271E080E0B3CF913209F074CFBA
:10505000833269F48F89988DB0E0A0E080931E01BF
:1050600090931F01A0932001B0932101ADCE803217
:1050700069F48091E80082FFFCCF67E082E291E072
:105080000E94340F8BEF8093E8009ECE823209F0AD
:105090009BCE8F8980932901EEEFFFE78591949154
:1050A0008B3F9C4D51F1E0E0F8E08091220190911E
:1050B0002301A0912401B0912501803B9440A105DA
:1050C000B105F1F48091290180FD1AC0EE3F8AE01C
:1050D000F80789F587E797E79183808380916000DF
:1050E0008093960288E19BE00FB6F894A895809390
:1050F00060000FBE9093600067CEEEEFFAE0D5CF70
:10510000808191818737974709F05ECEA89580917D
:1051100060008861809360008091960280936000B7
:10512000EE3F2AE0F20789F08091FE0A9091FF0A93
:105130009183808349CE808191818737980751F28E
:105140009093FF0A8093FE0AC5CF1092FF0A109237
:10515000FE0A3ACE0E94D90DDC0112960D911C91E7
:105160000115110509F4E8CED801ED91FC910190EB
:10517000F081E02DBE016B5E7F4FC8010995811162
:1051800023CEF80100851185EBCF181619060CF413
:105190001BCED2CEF1E0FF12BECE61EA7AE104CF9F
:1051A0001F920F920FB60F9211242F933F934F939C
:1051B0005F936F937F938F939F93AF93BF93EF937F
:1051C000FF9380918E0290918F02A0919002B091F6
:1051D0009102892B8A2B8B2B09F440C080918D0280
:1051E00081110BC088B190E4892788B980918C0225
:1051F000882319F088B1805888B980918E029091E7
:105200008F02A0919002B0919102181619061A0609
:105210001B069CF480918E0290918F02A0919002C7
:10522000B09191020197A109B10980938E029093E8
:105230008F02A0939002B0939102FF91EF91BF91E2
:10524000AF919F918F917F916F915F914F913F911E
:105250002F910F900FBE0F901F9018950E948810ED
:10526000ECCFAF92BF92CF92DF92EF92FF920F936B
:105270001F93CF93DF931092C2061092C10688EE5F
:1052800093E0A0E0B0E08093C3069093C406A0939F
:10529000C506B093C6068EE591E09093C006809354
:1052A000BF068FEF9FEF9093CC068093CB061092B2
:1052B0002807109227078AE991E0909326078093A8
:1052C00025078BE99DE090931E0780931D0780E0E2
:1052D00090E890931C0780931B0746983E9A479846
:1052E0003F9A84E090E00E94832FFC011382128297
:1052F0002CE831E0318320839093240780932307A7
:1053000084E090E00E94832FFC01138212822EE73A
:1053100031E031832083909322078093210782E23A
:1053200090E00E94832FEC0182E2FE0111928A95A7
:10533000E9F780E791E0998388836AE770E080E08D
:1053400090E00E948C2CFE013C96CE01809611923A
:105350001192E817F907D9F719A218A2D0932007DC
:10536000C0931F0720912B0130912C0140912D01FA
:1053700050912E016DEC7CEC8CE090E40E94172D96
:1053800020E030E046E955E40E94892D6093DA0779
:105390007093DB078093DC079093DD07C9E2D7E0C9
:1053A00082EBC82E81E0D82E96EAA92E91E0B92E84
:1053B000D982C8821A8A8E01055D1F4F7E01F1E3F2
:1053C000EF0EF11C87E190E00E94832FFC01B18277
:1053D000A082F801819391938F01EE16FF0691F759
:1053E0008E01055C1F4FE7018FE090E00E94832F44
:1053F00089939993C017D107B9F7F7E0CA3DDF0742
:10540000B9F6DF91CF911F910F91FF90EF90DF9050
:10541000CF90BF90AF900895789484B5826084BD9A
:1054200084B5816084BD85B5826085BD85B58160A8
:1054300085BD80916E00816080936E001092810026
:1054400080918100826080938100809181008160E1
:1054500080938100809180008160809380008091A2
:10546000910082608093910080919100816080938F
:105470009100809190008160809390008091C100A4
:1054800084608093C1008091C10082608093C100DC
:105490008091C10081608093C1008091C3008160D0
:1054A0008093C3008091C00082608093C00080918F
:1054B000C20081608093C20080917A0084608093F2
:1054C0007A0080917A00826080937A0080917A00DD
:1054D000816080937A0080917A00806880937A005E
:1054E0001092BE0610929902109298028091D700F5
:1054F00081608093D70080EA8093D80089B580616D
:1055000089BD89B5826089BD09B400FEFDCF61E027
:1055100070E080E090E00E94120E8091D8008F7CB5
:1055200080618093D8008091E000807F8093E000CC
:105530008091E1008E7E8093E1008DE08093E20017
:10554000559A209A8FEF9FEF9093CC068093CB06CD
:1055500081EC80937C0085B1806F85B984B1877EB2
:1055600084B984B1876E84B95E9A5F988AB1806D80
:105570008AB9769A6E9881B3806F81BB899880B31F
:105580008D7080BB80E58CBD81E08DBD0E94450E95
:105590005F9A0E94450E5E985C98E0EDFAE1849176
:1055A0008EBD00000DB407FEFDCF31962AE1ED3D22
:1055B000F207A9F75C9A81E8809364008091650006
:1055C00081608093650082E090E00E949E2C882399
:1055D00009F461C00E947F1380E180932A018091C9
:1055E000230790912407DC01ED91FC910680F7815F
:1055F000E02D6BE47EE009958091210790912207D0
:10560000DC01ED91FC910680F781E02D6BE47EE0FA
:10561000099580911F0790912007DC01ED91FC9185
:105620000680F781E02D6BE47EE0099580912307E9
:10563000909124079093A5068093A406DC01ED9138
:10564000FC910190F081E02D0995AA24A394C0EA71
:10565000D2E0B12C84E0E82EF12C00E010E0992497
:1056600093949EE1C92ED12C8FB7F8944091A9064E
:105670005091AA066091AB067091AC068FBF8091E5
:105680009C02882359F010929C020115110561F3C8
:105690000E940000E9CF0E947A139ECF90919D0254
:1056A000B42FB91B9B2F20912A01B21738F49F5FAA
:1056B000921758F7A3BE889513BEE7CF90929C022D
:1056C00040939D0220919A0230919B022F5F3F4FA1
:1056D00030939B0220939A02FE0181118FEF0024E8
:1056E00081938193819381930394D1F71092A306C0
:1056F0001092A2061092A1061092A00680919F021D
:1057000080939E028FB18095807F669B88601C9BF2
:10571000846080939F0280E10E94FB13882361F0E4
:105720008091A6069091A7060196B7010E94552F79
:105730009093A7068093A6068091A4069091A50653
:10574000DC01ED91FC910280F381E02D09958091BF
:10575000A4069091A506DC01ED91FC910480F581F1
:10576000E02D0995D092A106C092A0061092A30642
:105770001092A2068091A6069091A70668E672E0B4
:105780008130910549F06AE672E08330910521F09D
:10579000029731F46DE672E085E297E00E94C41949
:1057A000FE0180E098E000800EBCB110012C019752
:1057B00080FDFDCF0192B9F70DB467CFCF93DF9392
:1057C000CAEDD7E0EB97E881F9810190F081E02DF7
:1057D000CE01099587E0C932D807A1F7DF91CF91B3
:1057E00008958F929F92AF92BF92CF92DF92EF92E5
:1057F000FF92CF93DF93EC01688179818A819B814D
:10580000611571058105910521F464E279ED8BE55F
:1058100097E02DE133EF41E050E00E94B42C4901C4
:105820005A019B01AC01A7EAB1E40E94D32C6B01A1
:105830007C01ACEEB4EFA50194010E94E12CC60EF0
:10584000D71EE81EF91EF7FE06C081E0C81AD1086F
:10585000E10880E8F80AC882D982EA82FB82C7019F
:10586000B6019F77DF91CF91FF90EF90DF90CF90BF
:10587000BF90AF909F908F9008958F929F92AF921C
:10588000BF92CF92DF92EF92FF9260912F017091C1
:1058900030018091310190913201611571058105CE
:1058A000910521F464E279ED8BE597E02DE133EF8A
:1058B00041E050E00E94B42C49015A019B01AC0127
:1058C000A7EAB1E40E94D32C6B017C01ACEEB4EFEB
:1058D000A50194010E94E12CC60ED71EE81EF91EF8
:1058E000F7FE06C081E0C81AD108E10880E8F80A8E
:1058F000C0922F01D0923001E0923101F09232013A
:10590000C701B6019F77FF90EF90DF90CF90BF90D7
:10591000AF909F908F90089560932F017093300106
:1059200080933101909332010895FB01DC0102C0A4
:1059300005900D9241505040D8F70895F999FECF47
:1059400092BD81BDF89A992780B50895262FF999BF
:10595000FECF1FBA92BD81BD20BD0FB6F894FA9A52
:10596000F99A0FBE01960895052E97FB1EF4009438
:105970000E94CB2C57FD07D00E94E62C07FC03D0D9
:105980004EF40C94CB2C50954095309521953F4F7B
:105990004F4F5F4F089590958095709561957F4F1B
:1059A0008F4F9F4F08950E94082DA59F900DB49F83
:1059B000900DA49F800D911D11240895B7FF0C94A4
:1059C000D32C0E94D32C821B930B0895A1E21A2E94
:1059D000AA1BBB1BFD010DC0AA1FBB1FEE1FFF1F93
:1059E000A217B307E407F50720F0A21BB30BE40BE3
:1059F000F50B661F771F881F991F1A9469F760952A
:105A00007095809590959B01AC01BD01CF010895E3
:105A1000A29FB001B39FC001A39F700D811D1124EF
:105A2000911DB29F700D811D1124911D0895505834
:105A3000BB27AA270E942F2D0C94A92E0E949B2ED3
:105A400038F00E94A22E20F039F49F3F19F426F47A
:105A50000C94982E0EF4E095E7FB0C94922EE92F0F
:105A60000E94BA2E58F3BA17620773078407950786
:105A700020F079F4A6F50C94DC2E0EF4E0950B2EB4
:105A8000BA2FA02D0B01B90190010C01CA01A00190
:105A90001124FF27591B99F0593F50F4503E68F1EB
:105AA0001A16F040A22F232F342F4427585FF3CF2C
:105AB000469537952795A795F0405395C9F77EF4FD
:105AC0001F16BA0B620B730B840BBAF09150A1F046
:105AD000FF0FBB1F661F771F881FC2F70EC0BA0FCC
