:100000000C9473080C949B080C949B080C949B080C
:100010000C949B080C949B080C949B080C949B08D4
:100020000C949B080C949B080C949B0F0C940A1046
:100030000C949B080C949B080C949B080C949B08B4
:100040000C949B080C949B080C949B080C949B08A4
:100050000C949B080C949B080C949B080C94510FD7
:100060000C949B080C949B080C949B080C949B0884
:100070000C949B080C949B080C949B080C949B0874
:100080000C943C120C949B080C949B080C949B08B9
:100090000C949B080C949B080C949B080C949B0854
:1000A0000C949B080C949B080C949B082020000047
:1000B0000000000000000000000000000000000040
:1000C0000000000000000000000000000000000030
:1000D00000000000000000000000C0E0E0F0303050
:1000E0003838C000000000000000000000000000E0
:1000F00000000000000000C0600073F7E4E9E8E9D8
:10010000E809C780C04000000000000000000000B7
:10011000000000000000014362100805050105050C
:10012000040404087040000000000000000000000B
:1001300000000000000000000000000000000000BF
:1001400000000000000000000000000000000000AF
:10015000000000000000000000E0F070F818981C9B
:100160009CE0000000000000000000000000000013
:1001700000000000000080E030013BFAF4F4F4F4E9
:1001800074036040602000000000000000000000D8
:100190000000000000000041611804020200020299
:1001A000020204087040000000000000000020204F
:1001B000000000000000000000000000000000003F
:1001C000000000000000000000000000000000002F
:1001D000000000000000000000000000E0F070F8E7
:1001E00018981C9CE00000000000000000000000C7
:1001F00000000000000000000060B018017BFAF46D
:10020000F4F47404434020000000000000000000EB
:100210000000000000000000000000080C060200C2
:10022000020204081020400000000000000000004E
:1002300000000000000000000000000000000000BE
:1002400000000000000000000000000000000000AE
:10025000000000000000000000000000C0E0E0F02E
:1002600030303838C00000000000000000000000FE
:100270000000000000000000000000E00377F4E947
:10028000E8E9E80987000000000000000000000025
:1002900000000000000000000000000009111D0126
:1002A000057D0000000000000000000000000000CC
:1002B000000000000000000000000000000000003E
:1002C000000000000000000000000000000000002E
:1002D000000000000000000000000000C0E0E0F0AE
:1002E00030303838C000000000000000000000007E
:1002F000000000000000000000000000E3F7B4A9C7
:1003000068E9E80987000000000000000000000024
:100310000000000000000000000000000001097162
:100320000F050000000000000000000000000000B9
:1003300000000000000000000000000000000000BD
:1003400000000000000000000000000000000000AD
:10035000000000000000000000000000E0F070F865
:1003600018981C9CE0000000000000000000000045
:10037000000000000000000000000060016BDAB423
:10038000B4B4B4040300000000000000000000004A
:100390000000000000000000000000000040380ED7
:1003A00002100A060000000000000000000000002B
:1003B000000000000000000000000000000000003D
:1003C000000000000000000000000000000000002D
:1003D000000000000000000000000000F0F8387C81
:1003E0000C4C0E4EF0000000000000000000000069
:1003F000000000000000000000001028001D356A09
:100400006A6A6A222100000000000000000000006B
:1004100000000000000000000004040404040403C1
:1004200001000101030C00000000000000000000BA
:1004300000000000000000000000000000000000BC
:1004400000000000000000000000000000000000AC
:10045000000000000000000000000000E0F070F864
:1004600018981C9CE0000000000000000000000044
:10047000000000000000000000000060017BDAB412
:10048000B4B4B40403000000000000000000000049
:100490000000000000000000000000080C0602023E
:1004A000000206187040000000000000000000007C
:1004B000000000000000000000000000000000003C
:1004C000000000000000000000000000000000002C
:1004D000000000000000000000000000C0E0E0F0AC
:1004E00030303838C000000000000000000000007C
:1004F000000000000000000000000000E3F7746945
:10050000E8E9E80907000000000000000000000022
:1005100000000000000000000000000008111D01A4
:10052000047D000100000000000000000000000049
:1005300000000000000000000000000000000000BB
:1005400000000000000000000000000000000000AB
:10055000000000000000000000000000C0E0E0F02B
:1005600030303838C00000000000000000000000FB
:100570000000000000000000000000E003F7F4E9C4
:10058000E8E9E809070000000000000000000000A2
:1005900000000000000000000000000001001171D8
:1005A0001F05000100000000000000000000000026
:1005B000000000000000000000000000000000003B
:1005C000000000000000000000000000000000002B
:1005D000000000000000000000000000E0F070F8E3
:1005E00018981C9CE00000000000000000000000C3
:1005F000000000000000000000609008013B7AF459
:10060000F4F4748483000000000000000000000087
:100610000000000000000000000000004020180E54
:1006200002100A06000000000000000000000000A8
:1006300000000000000000000000000000000000BA
:1006400000000000000000000000000000000000AA
:10065000000000000000000000000000F0F8387CFE
:100660000C4C0E4EF00000000000000000000000E6
:10067000000000000000000000180404001D3D7A86
:100680007A7A7A02111800000000000000000000D1
:100690000000000000000000000000020604040347
:1006A00001000101030C0000000000000000000038
:1006B000804000000000000000000000000000007A
:1006C000000000000000000000000000000078DCD6
:1006D0007CFC5CFC7C7800000000000C18307C7016
:1006E000E0E0C0FF818080FC86B2A2BE8080C37E35
:1006F0000000000201000030693A6F3810303DCE32
:100700000A0A720204180000000078DC7CFC5CFC21
:100710007C780000000000000000000000000000E5
:1007200000000000000000000000000000000000C9
:1007300000001C1C1C1C1C1C1C1C1C9C1C1C9C9CB1
:100740001C1C9C9C9C1C1C1C9C9C1C1C1C9C9C9CE9
:100750001C9C1C1C1C1C1C1C1C1C1C1C1C1C1C1C59
:100760001C1C1C1C1C1C1C1C1C1C1C1C1C1C1C1CC9
:100770001C1C1C1C1C1C1C1C1C1C1C1C1C1C1C1FB6
:100780001C1C1C1C1C1C1C1C1C1C1C1C1C1C1C1CA9
:100790001C1C1C1C1C1C1C1C1C1C1C1C1C1C1C1C99
:1007A0001C1C1C1C1C1C1C1C1C1C1C1C1C1C1C1C89
:1007B0001C1C00000000000084C8C8C7C0C788080F
:1007C000C7C0CFC000CFC00FC4C4CFC0CBCA8A043B
:1007D000C0C1C0C0C0C0C000C0C0C0C0C0C0C08018
:1007E00000000000000000C0C0C0C0C0C0C0800049
:1007F00080C0E0C08000C0C0C0C0C0C0C08000C019
:10080000C0C0C0C0C0C0C0C0C000C0C0C0C000C068
:10081000C0C000C0C0C0C0C0C0C0800080C0C0C0D8
:10082000C0C0C08000C0C0C0C000C0C0C0000000C8
:1008300000000000000000001F3F3F3F38F9F100BA
:10084000FFFFFFFF00FFFF00FFFFFFFF383F1F001C
:10085000FFFFFFFF38383800FFFFFFFF38FFFFEFD3
:1008600000000000000000FFFFFFFF38FFFFEF0067
:10087000D9EB73BBD900FFFFFFFF18FFFFEF0000AC
:100880000000FFFFFFFF00000000FFFFFFFF18FF59
:10089000FFFF00FFFFFFFF00FFFFFF00FFFFFFFF65
:1008A00018FFFFFF001F1FFFFFF8FF1F1F000000C2
:1008B0000000000000000000030707060607030011
:1008C00003070707060703000707070700000000E4
:1008D00007070707060606000707070700070707B9
:1008E00000000000000000070707070607070300D5
:1008F00005060703050007070707000707070000AD
:1009000000000707070700000000070707070007A8
:1009100087E7A0A7A7E70706C7670380E70787E77A
:10092000A0A7270700C020070787E70000000000F6
:100930000000C0C0C0C0C0C0C0C0C0C0C0C0C0C037
:10094000C0C0C0C0C0C0C0C0C0C0C0C0C0C0C0C0A7
:10095000C0C0C0C0C0C0C0C0C0C0C0C0C0C0C0C097
:10096000C0C0C0C0C0C0C0C0C0C0C0C0C0C0C0C087
:10097000C0C0C0C0C0C0C0C0C0C0C0C0C0C0C0C077
:10098000C0C0C0C0C0C0C0C0C0C0C0C0C0C0C0C661
:10099000C3C0C0C0C7C4C4C0C7C4C6C3C0C4C4C425
:1009A000C4C7C3C0C6C3C1C1CFC3C0C0C0C0C0C01C
:1009B000C0C00101010101010101010101010101A9
:1009C0000101010101010101010101010101E11127
:1009D000D1F909094909F1010101010101010101EF
:1009E000010101E1F179F93999191991E101010147
:1009F000010101010101010101E1F1F919190909DF
:100A000011E101010101010101010101C1E1E1F176
:100A100031313939C1010101010101010101010136
:100A200001010101010101010101010101010101B6
:100A300001010000000000000000000000000000B4
:100A4000000000000000000000000080E030017A9B
:100A5000FAF7F404F5740360407828000000000001
:100A600000E010033B7AF4F4F4F474044340404093
:100A7000000000000080804000376968E8E9E8690C
:100A800004030000000000000000C0600377F4E9E8
:100A9000E8E9E8E907C080C040000000000000006D
:100AA0000000000000000000000000000000000046
:100AB000000000000000003E5B4F5B3E3E6B4F6B52
:100AC0003E1C3E7C3E1C183C7E3C181C577D571C2F
:100AD0001C5E7F5E1C00183C1800FFE7C3E7FF00A8
:100AE00018241800FFE7DBE7FF30483A060E2629F6
:100AF000792926407F050507407F05253F5A3CE7B9
:100B00003C5A7F3E1C1C08081C1C3E7F14227F227E
:100B1000145F5F005F5F06097F017F006689956A49
:100B2000606060606094A2FFA29408047E040810D4
:100B3000207E201008082A1C08081C2A08081E10FD
:100B40001010100C1E0C1E0C30383E3830060E3EB5
:100B50000E06000000000000005F00000007000714
:100B600000147F147F14242A7F2A1223130864623E
:100B700036495620500008070300001C224100009F
:100B800041221C002A1C7F1C2A08083E08080080FD
:100B90007030000808080808000060600020100895
:100BA00004023E5149453E00427F40007249494996
:100BB000462141494D331814127F102745454539C8
:100BC0003C4A4949314121110907364949493646CC
:100BD0004949291E000014000000403400000008AC
:100BE000142241141414141400412214080201594F
:100BF00009063E415D594E7C1211127C7F494949DC
:100C0000363E414141227F4141413E7F4949494170
:100C10007F090909013E414151737F0808087F009F
:100C2000417F41002040413F017F081422417F4025
:100C30004040407F021C027F7F0408107F3E4141FC
:100C4000413E7F090909063E4151215E7F0919296C
:100C500046264949493203017F01033F4040403F56
:100C60001F2040201F3F4038403F63140814630397
:100C7000047804036159494D43007F414141020416
:100C8000081020004141417F04020102044040401D
:100C90004040000307080020545478407F28444413
:100CA000383844444428384444287F38545454182D
:100CB00000087E090218A4A49C787F080404780028
:100CC000447D40002040403D007F1028440000410A
:100CD0007F40007C047804787C080404783844441D
:100CE0004438FC1824241818242418FC7C08040414
:100CF00008485454542404043F44243C4040207C7D
:100D00001C2040201C3C4030403C44281028444CCF
:100D10009090907C4464544C44000836410000009C
:100D2000770000004136080002010204023C26233D
:100D3000263C1EA1A161123A4040207A38545455F5
:100D400059215555794121545478412155547840C1
:100D500020545579400C1E52721239555555593947
:100D60005454545939555454580000457C4100029C
:100D7000457D420001457C40F0292429F0F02825DA
:100D800028F07C545545002054547C547C0A097F3B
:100D90004932494949323248484832324A48483053
:100DA0003A4141217A3A42402078009DA0A07D3905
:100DB000444444393D4040403D3C24FF2424487E87
:100DC0004943662B2FFC2F2BFF0929F620C0887E74
:100DD000090320545479410000447D413048484A79
:100DE00032384040227A007A0A0A727D0D19317D2C
:100DF0002629292F28262929292630484D40203800
:100E00000808080808080808382F10C8ACBA2F10BE
:100E10002834FA00007B000008142A142222142A25
:100E200014089500220095AA005500AAAA55AA55B3
:100E3000AA000000FF00101010FF00141414FF009F
:100E40001010FF00FF1010F010F0141414FC001428
:100E500014F700FF0000FF00FF1414F404FC141446
:100E600017101F10101F101F1414141F0010101043
:100E7000F0000000001F101010101F10101010F0D4
:100E800010000000FF101010101010101010FF10B4
:100E9000000000FF140000FF00FF00001F101700FB
:100EA00000FC04F414141710171414F404F40000D4
:100EB000FF00F714141414141414F700F714141486
:100EC000171410101F101F141414F4141010F01025
:100ED000F000001F101F0000001F14000000FC1491
:100EE0000000F010F01010FF10FF141414FF141085
:100EF00010101F00000000F010FFFFFFFFFFF0F0D8
:100F0000F0F0F0FFFFFF0000000000FFFF0F0F0FE9
:100F10000F0F38444438447C2A2A3E147E020206CD
:100F200006027E027E0263554941633844443C0414
:100F3000407E201E2006027E020299A5E7A5991C8C
:100F40002A492A1C4C7201724C304A4D4D303048AF
:100F5000784830BC625A463D3E494949007E01010D
:100F6000017E2A2A2A2A2A44445F444440514A44A2
:100F70004040444A51400000FF0103E080FF000070
:100F800008086B6B083612362436060F090F060068
:100F90000018180000001010003040FF0101001F71
:100FA00001011E00191D1712003C3C3C3C000000D2
:100FB0000000080B00020202000009040000010208
:100FC000020000052400100105240101010424028F
:100FD00006052406000107058103100040090401ED
:100FE00000020A0000000705020240000007058316
:100FF000024000000403090412010002EF02014054
:101000004123368000010102030141726475696E5B
:101010006F204C4C430041726475696E6F204C65C3
:101020006F6E6172646F00F0F89C8E8783878E9C70
:10103000F8F00000FEFF0303030303070EFCF800B3
:1010400000FEFF0303030303070EFCF80000FFFF8D
:1010500000000000000000FFFF0000FEFF8383830C
:101060008383C7EE7C380000F8FC0E0703030307F8
:101070000EFCF800003F7FE0C08080C0E07F3FFFB3
:10108000FF01010101010101FFFF0000FFFF0C0C46
:101090000C0C1C3E77E3C100007FFFC0C0C0C0C085
:1010A000E0703F1F00001F3F70E0C0C0C0E0703F15
:1010B0001F00007FFFC1C1C1C1C1E3773E1C00001A
:1010C0001F3F70E0C0C0C0E0703F1F000000000084
:1010D00001FFFF01000000D5F08D14A1C881CFD918
:1010E000F1AF2000711311241FBECFEFDAE0DEBF95
:1010F000CDBF11E0A0E0B1E0EAEFFFE202C0059051
:101100000D92A837B107D9F726E0A8E7B1E001C0F2
:101110001D92A232B207E1F718E0C3E7D8E004C09D
:101120002197FE010E94D016C237D107C9F70E944D
:10113000AA130C94FB170C94000080918E01089563
:10114000E2EBF1E0A0E0B8E000800EBC8111012CE0
:101150001197A0FDFDCF0192B9F70DB40895FC01E0
:101160008091B101882311F13FB7F89482E0809318
:10117000E9002091F200822F90E01816190614F46D
:1011800081E090E0882339F0289844E64093B0014C
:101190004091F1004083222339F02091F200211187
:1011A00003C02BE62093E8003FBF08958FEF9FEF29
:1011B00008952FB7F89483E08093E9009091E800B8
:1011C000892F807295FF04C09091F20080E4891B02
:1011D0002FBF08958091A80181110DC082E08093F6
:1011E000A40184E08093A5011092A7011092A601AA
:1011F00081E08093A80184EA91E008953FB7F894D4
:101200008091A0019091A101A091A201B091A301B0
:1012100026B5A89B05C02F3F19F00196A11DB11D51
:101220003FBFBA2FA92F982F8827BC01CD01620F8D
:10123000711D811D911D42E0660F771F881F991F48
:101240004A95D1F708958F929F92AF92BF92CF9215
:10125000DF92EF92FF926B017C010E94FE084B012E
:101260005C01C114D104E104F104B9F00E94FE084C
:10127000681979098A099B09683E734081059105BF
:1012800080F321E0C21AD108E108F10888EE880E47
:1012900083E0981EA11CB11CE4CFFF90EF90DF907B
:1012A000CF90BF90AF909F908F90089508954091F8
:1012B0008801509189012091860130918701421760
:1012C0005307B4F49091E8009570E1F39091E80031
:1012D00092FD19C08093F10080918801909189015D
:1012E00001968F739927892B19F48EEF8093E8006C
:1012F0008091880190918901019690938901809352
:10130000880181E0089580E00895DF92EF92FF92D6
:101310000F931F93CF93DF93D82E8A01EB017B01AC
:10132000E40EF51ECE15DF0559F0D7FE12C0FE0102
:1013300084910E94570921968111F4CF0FEF1FEF7E
:10134000C801DF91CF911F910F91FF90EF90DF9037
:1013500008958881EECF0F931F93CF93DF931F9251
:10136000CDB7DEB782E0898342E450E062EB7FE0F4
:1013700080E80E9485090E94EA08DC0112960D911E
:101380001C910115110589F0D801ED91FC910280A5
:10139000F381E02DBE016F5F7F4FC801099597FD76
:1013A00004C0F80100851185ECCF89810F90DF9191
:1013B000CF911F910F910895615030F02091F1006D
:1013C000FC0120830196F8CF289884E68093B00131
:1013D0000895AF92BF92CF92DF92EF92FF920F9358
:1013E0001F93CF93DF936C017B018B01040F151FBB
:1013F000EB015E01AE18BF08C017D10759F0699123
:10140000D601ED91FC910190F081E02DC601099586
:10141000892B79F7C501DF91CF911F910F91FF9033
:10142000EF90DF90CF90BF90AF9008958F929F92F2
:10143000AF92BF92CF92DF92EF92FF920F931F93E2
:10144000CF93DF936C017B018A0180910B0188238C
:1014500009F45CC08091B101882309F457C08091E0
:101460008C0180FF05C08091E00082608093E000E5
:10147000E801B12C8AEFA82E93E0892E2AE3922E60
:10148000209711F4BB20D9F10E94D90881110AC01C
:10149000AA94AA20D9F161E070E080E090E00E9477
:1014A0002309EECF8C171D0611F00CF08C2F9FB77F
:1014B000F8948092E9002091E80025FD02C09FBFCA
:1014C000DFCF282F30E0C21BD30BF701815020F073
:1014D00041914093F100FACFE20EF31EBB2021F0C0
:1014E0009092E800B12CEBCF8091E80085FDE7CF2A
:1014F0009092E800BB24B394209709F3F3CF5D9852
:1015000084E680938B01101611063CF081E090E098
:10151000F6019383828310E000E0C801DF91CF9150
:101520001F910F91FF90EF90DF90CF90BF90AF9001
:101530009F908F900895CF93DF931F92CDB7DEB722
:101540006983DC01ED91FC910280F381E02D41E0A3
:1015500050E0BE016F5F7F4F09950F90DF91CF91F3
:10156000089583E08093E9008091F200882319F0C8
:101570008AE38093E80008950E94D90890E00895D6
:10158000CF93DF931F92CDB7DEB7FC01848595859D
:1015900097FD08C02FEF3FEF358724870F90DF912D
:1015A000CF910895CE0101960E94AF08019719F4DA
:1015B000898190E0F3CF8FEF9FEFF0CF0F931F93D0
:1015C000CF93DF931F92CDB7DEB78C01FC018485EA
:1015D000958597FF0BC0CE0101960E94AF08019739
:1015E00071F4898190E0F80195878487F8018485FA
:1015F00095850F90DF91CF911F910F9108958FEFF7
:101600009FEFF1CFFC018485958597FD0BC09FB7B7
:10161000F89482E08093E9008091F2009FBF90E00F
:10162000019608959FB7F89482E08093E900809135
:10163000F2009FBF90E0089520917A01E0917D0132
:10164000F0917E01CF01029690937E0180937D01FF
:10165000222319F0859194910895808191810895B4
:101660004F925F926F927F928F929F92AF92BF92B2
:10167000CF92DF92EF92FF920F931F93CF93DF935E
:101680004C015901FC2DC02FD0E0CE01880D991DD1
:10169000181619060CF06CC020E8821691040CF0A4
:1016A00067C09B012E0D311D121613060CF060C091
:1016B000603471050CF05CC04115510509F458C047
:1016C000E62FE770FE2EDB0177FD179633E0B59528
:1016D000A7953A95E1F73A2F77FF04C0FF2011F064
:1016E0003FEF3A0F662777276819790997FC02C000
:1016F00070E060E0803891050CF44BC090E89819D8
:10170000961BA32F032E000CBB0B1A2F10953F3FE7
:101710000CF010E021E08E2D877009F420E0E694B3
:10172000E694E694E20EAE0DB11D19971CF028E088
:10173000E22EE31AE11A310F20E83203D00111241E
:10174000A80DB91DA60FB71F019F600D711D1124B3
:10175000460F571F0F2D0F2C000C110BF33009F4FF
:101760001CC1C8F4F13009F4D0C0F23009F47CC0D7
:10177000DF91CF911F910F91FF90EF90DF90CF906D
:10178000BF90AF909F908F907F906F905F904F90A1
:101790000895902FB5CFFA3FB1F1232F2E0DFB3FC7
:1017A00039F7321729F3BD016E547E4FD12CC12C6D
:1017B000C91608F0A4C0FA01EC0DFD1DE491F0E09B
:1017C0004F01002E02C0880C991C0A94E2F737FDE5
:1017D00006C0FB018081E82CE0948E218083FF20ED
:1017E00061F0373054F45B01F0E8AF0EB11CE92C26
:1017F000E094F50180818E218083FFEFCF1ADF0A0C
:101800006F5F7F4FD5CF232F2E0D321709F4B0CF46
:10181000BD016E547E4FD12CC12CC91608F069C091
:10182000FA01EC0DFD1DE491F0E04F01002E02C025
:10183000880C991C0A94E2F737FD04C0FB018081F3
:1018400088298083FF2051F0373044F45B01F0E8B1
:10185000AF0EB11CF501808189298083FFEFCF1A7B
:10186000DF0A6F5F7F4FD9CF6FEF70E00F2C02C0A0
:10187000660F771F0A94E2F760957095772E232FF5
:101880002E0D321709F474CFFD01EE54FE4F6F0197
:10189000B12CA12CA91638F5FA01EA0DFB1DE49133
:1018A000F0E02F01002E02C0440C551C0A94E2F710
:1018B00037FD05C0F6018081862384298083FF20BF
:1018C00059F037304CF44601F0E88F0E911CF401CA
:1018D0008081872185298083FFEFAF1ABF0A8FEFB0
:1018E000C81AD80AD7CF3F5F4C0F5D1FA058BF4F13
:1018F000C8CF3F5F4C0F5D1FA058BF4F86CF3F5FE3
:101900004C0F5D1FA058BF4F4CCF6A0D7B1D232F7E
:101910002E0D321709F42CCFFD01EE54FE4F6F014E
:10192000B12CA12CA91688F5FB01EA0DFB1D8490B2
:10193000912C002E02C0880C991C0A94E2F7809426
:101940009094FA01EA0DFB1D6490712C002E02C0E8
:10195000660C771C0A94E2F737FD05C0F60180811A
:10196000882186298083FF2049F037303CF4F60136
:10197000E058FF4F8081892187298083FFEFAF1ACC
:10198000BF0A8FEFC81AD80ACDCF3F5F4C0F5D1F3B
:101990006C0F7D1FA058BF4FBCCFC92ED12CFA01B0
:1019A000E60FF71FAE54BE4F00E810E00C191D09FA
:1019B000CC19DD09BE01660F771F41E050E06A01D6
:1019C0000F2C01C0CC0C0A94EAF7592F2E2D792E3A
:1019D000CF93DF93ED01EF96EF9622968590A59039
:1019E000FF2059F08C9C4001AC9C500137302CF406
:1019F000E880B094EB20E928E99233233AF0EC90A8
:101A0000A094EA20E828ED920C94070D11965A95BF
:101A100029F72A9551F0572D33951124E60FF11D22
:101A2000A00FB11DC00FD11DD9CFDF91CF911124CF
:101A30009FCE2D9A0895BC0190E080E00C9423097C
:101A40008FB18095807F669B88601C9B8460089521
:101A5000AF92BF92CF92DF92EF92FF920F931F93BC
:101A6000CF93DF936D3079F0C0919701D0919801B9
:101A70006A30B1F410929601109295012896D09395
:101A80009801C093970181E090E0DF91CF911F9181
:101A90000F91FF90EF90DF90CF90BF90AF9008959F
:101AA000409195015091960185E0689FF0011124C5
:101AB000EE54F54F9A01C12C80E1E82EA5E070E0CC
:101AC000CA1621F0CF0101967491FC0110E000E0EC
:101AD000B72FB170DB2E20383105D0F4CE01800F46
:101AE000911F80349105A0F461E081FD64E080FDE8
:101AF000660F82FD6295887FE89ED0011124A20FB7
:101B0000F62EAE54BE4F8C91DD20A9F0862B8C931F
:101B100076950F5F1F4F08301105D1F6C3942F5FE4
:101B20003F4F86E0C812CACF4A5F5F4F509396017D
:101B300040939501A8CFF0948F21E9CF80E00C94D9
:101B4000A008089590E080E00895CF92EF920F935F
:101B5000E0EBF6E00491E1EBF6E0E49082E0C82EE1
:101B600030E020E042EB56E070E060E090E080E0A2
:101B70000E94300B0F91EF90CF900895CF92EF928B
:101B80000F93CF93DF93D0E0C0E0E0917801F09124
:101B90007901EC0FFD1FA081B18112964D915C91EE
:101BA00013974115510591F118962C911897FA0148
:101BB00004913196E4904E5F5F4F2223D1F061E0B3
:101BC00070E09E2D977011F470E060E08E2D869588
:101BD00086958695860F972F911D089FB001099FC6
:101BE000700D1124269FC001279F900D1124480FCE
:101BF000591F50966D917C91519782E0C82E30E02C
:101C000020E01E968D919C910E94300B2296CA3046
:101C1000D10509F0BACFDF91CF910F91EF90CF901E
:101C200008952091930123FD0DC02091940123FF7D
:101C300009C0DC011296ED91FC91309719F090E00B
:101C400080E00995A0917801B09179019D01265F0E
:101C50003F4FED91FD918681978101969783868311
:101C6000428553858417950774F080859185019688
:101C700091878087448155818417950714F01186D8
:101C80001086178216822A173B0719F70895FC0160
:101C90007383628308950895089508950C946A16D5
:101CA000CF93DF932091930123FD1EC020919401D7
:101CB00023FF1AC0EC0140E150E064E671E082EBE2
:101CC00095E00E94160A42E050E065E771E082EB81
:101CD00095E00E94160AEA81FB81309729F081E0A5
:101CE00090E0DF91CF910994DF91CF9108950C940A
:101CF0007217CF93DF93D0E0C0E0E0917801F091CC
:101D00007901EC0FFD1F80819181009739F0DC0192
:101D1000ED91FC910280F381E02D09952296CA3065
:101D2000D10559F78091780190917901009721F0C0
:101D3000DF91CF910C947217DF91CF9108950C949D
:101D400072170C9472172F923F924F925F926F927C
:101D50007F928F929F92AF92BF92CF92DF92EF923B
:101D6000FF920F931F93CF93DF938AE090E00E943E
:101D7000D6169093790180937801D12CC12C04E17F
:101D800010E03FE1232E31E0332E4EEA442E41E0B5
:101D9000542E59E0652E712C6AE0E62EF12C77E185
:101DA000872E71E0972EE2E0AE2EB12CC091780123
:101DB000D091790182E190E0C114D10479F50E94BB
:101DC000D616FC0117861686118B008B91828082B5
:101DD0008CEA90E093838283B582A482F386E286C4
:101DE00015861486F983E8838FEFC81AD80A95E020
:101DF000C916D104D9F6DF91CF911F910F91FF90B1
:101E0000EF90DF90CF90BF90AF909F908F907F909A
:101E10006F905F904F903F902F9008950E94D6163C
:101E2000FC0124E12C9DC0012D9D900D112497876C
:101E30008687118B008B3182208253824282758289
:101E40006482F386E28615861486C601880F991F80
:101E5000C80FD91FC7CFCF93DF93EC0180919901B1
:101E600090919A01DC01ED91FC910084F185E02DC7
:101E70000995209729F0219751F0DF91CF9108958E
:101E800086E196E090939A0180939901F6CF82E1E2
:101E900096E090939A0180939901DF91CF910C94F1
:101EA000A30E1F920F920FB60F9211242F933F9300
:101EB0008F939F93AF93BF9380919C0190919D01CD
:101EC000A0919E01B0919F0130919B0123E0230FCF
:101ED0002D3758F50196A11DB11D20939B018093CC
:101EE0009C0190939D01A0939E01B0939F018091CE
:101EF000A0019091A101A091A201B091A30101962E
:101F0000A11DB11D8093A0019093A101A093A201F6
:101F1000B093A301BF91AF919F918F913F912F916A
:101F20000F900FBE0F901F90189526E8230F029672
:101F3000A11DB11DD2CF1F920F920FB60F92112487
:101F40008F939F938091E1009091E100937F909314
:101F5000E10083FF0FC01092E90091E09093EB0045
:101F60001092EC0092E39093ED001092B10198E092
:101F70009093F00082FF22C093E09093E90090914B
:101F8000F200992319F09AE39093E80090918B0165
:101F9000992341F090918B01915090938B01911175
:101FA00001C05D9A9091B001992341F09091B001E8
:101FB00091509093B001911101C0289A84FF18C0EC
:101FC0008091E2008E7E81608093E2008091E1004A
:101FD0008F7E8093E10080918C018E7E8061809362
:101FE0008C019F918F910F900FBE0F901F901895AD
:101FF00080FFF7CF8091E2008E7E80618093E200C7
:102000008091E1008E7E8093E10080918C018E7E34
:102010008160E5CF1F920F920FB60F921124CF92DD
:10202000DF92EF92FF920F931F932F933F934F9363
:102030005F936F937F938F939F93AF93BF93EF9330
:10204000FF93CF93DF93CDB7DEB76C97DEBFCDBFE5
:102050001092E9008091E80083FF25C068E0CE017E
:1020600045960E94DC0982EF8093E8008D8987FF06
:1020700039C09091E80090FFFCCF982F907609F03E
:1020800034C19E894F89588D2F89F88C911131C0A8
:10209000803861F580918D018093F1001092F100FC
:1020A0008EEF8093E8006C960FB6F894DEBF0FBEFB
:1020B000CDBFDF91CF91FF91EF91BF91AF919F91F4
:1020C0008F917F916F915F914F913F912F911F91D0
:1020D0000F91FF90EF90DF90CF900F900FBE0F9079
:1020E0001F9018959EEF9093E800C7CF1092F100D3
:1020F000D5CF913059F48111D3CF4130510581F6BC
:1021000080918D018D7F80938D01CACF933049F4EA
:102110008111C6CF4130510519F680918D01826041
:10212000F2CF953041F48091E80080FFFCCF206829
:102130002093E300B5CF963009F0A9C00B8D1C8D1C
:1021400022E01092E9001092890110928801F212A7
:102150002EC010928701109286010E94AB091F8247
:1021600099E09983FA8291E09E8390EA98879AEFAA
:1021700099872091880130918901275F3F4F3C83E7
:102180002B838D831092E9001092890110928801AF
:10219000109387010093860149E050E0BE016F5F14
:1021A0007F4F80E00E9485090E94AB0979CF109390
:1021B0008701009386010E94EA08DC0112960D91C6
:1021C0001C910115110509F451C1D801ED91FC9143
:1021D0000480F581E02DBE016B5E7F4FC80109953B
:1021E000009709F03EC1F80100851185EACFF3E0C0
:1021F000FF120EC08F89882309F440C0823061F439
:1022000040E860E186E190E10E943E13811148CFF1
:1022100081E28093EB0047CF813029F440E86BE006
:102220008AE090E1F1CF833099F70E94EA08DC015F
:102230001296ED90FC908E010F5F1F4F6801E11424
:10224000F10479F0D701ED91FC910680F781E02D42
:10225000B801C7010995080F111DF701E084F18449
:10226000EECFD8011C92F60101900020E9F73197DA
:10227000BF016C197D0940E0C601C6CF64EF7FE065
:10228000FB01449150E080E80E94850909CF973016
:1022900009F4BECF983021F481E08093F10000CFA3
:1022A000993009F0FDCE837009F0B2CFE4E2F1E09D
:1022B00081E031E096E32191222371F08093E900DF
:1022C0003093EB00DF0111972C912093EC00909359
:1022D000ED008F5F873079F78EE78093EA001092E8
:1022E000EA008F898093B101DBCE8B8D9C8D10929B
:1022F000E9001092890110928801909387018093E0
:102300008601898D811192C08E899D89913A49F407
:10231000813209F07DCF47E050E064E071E080E079
:10232000B3CF913209F074CF833269F48F89988DDD
:10233000B0E0A0E08093000190930101A09302011E
:10234000B0930301ADCE803269F48091E80082FF42
:10235000FCCF67E084E091E00E94DC098BEF809382
:10236000E8009ECE823209F09BCE8F8980930B01CC
:10237000EEEFFFE7859194918B3F9C4D51F1E0E0AA
:10238000F8E08091040190910501A0910601B091BF
:102390000701803B9440A105B105F1F480910B0148
:1023A00080FD1AC0EE3F8AE0F80789F587E797E7D6
:1023B000918380838091600080938A0188E19BE013
:1023C0000FB6F894A895809360000FBE90936000BC
:1023D00067CEEEEFFAE0D5CF8081918187379747BE
:1023E00009F05ECEA89580916000886180936000BE
:1023F00080918A0180936000EE3F2AE0F20789F025
:102400008091FE0A9091FF0A9183808349CE80815A
:1024100091818737980751F29093FF0A8093FE0AC3
:10242000C5CF1092FF0A1092FE0A3ACE0E94EA0827
:10243000DC0112960D911C910115110509F4E8CEED
:10244000D801ED91FC910190F081E02DBE016B5E11
:102450007F4FC8010995811123CEF80100851185B0
:10246000EBCF181619060CF41BCED2CEF1E0FF12FA
:10247000BECE68EF7FE004CF1F920F920FB60F928F
:102480001124CF92DF92EF92FF922F933F934F93BD
:102490005F936F937F938F939F93AF93BF93CF93EC
:1024A000DF93EF93FF938091820190918301A0913C
:1024B0008401B0918501892B8A2B8B2B09F446C0AE
:1024C0008091810181110BC088B190E4892788B97E
:1024D00080918001882319F088B1805888B9809153
:1024E000820190918301A0918401B0918501181619
:1024F00019061A061B069CF48091820190918301B3
:10250000A0918401B09185010197A109B10980933F
:10251000820190938301A0938401B0938501FF9180
:10252000EF91DF91CF91BF91AF919F918F917F916B
:102530006F915F914F913F912F91FF90EF90DF90BE
:10254000CF900F900FBE0F901F9018950E941C0BFC
:10255000811520E8920761F4809171008D7F80934E
:102560007100109291004698479810927F01D7CF42
:1025700021E020937F01813020E8920731F410920E
:102580007E0110927D010E941C0B97FD05C02091D9
:102590007C01222309F454C020917B01211150C0F9
:1025A00021E020938001EC01DF77209709F04BC0F8
:1025B00081E08093810146983FE9C32E3FE0D32E0E
:1025C000E12CF12CCAEFD0E0E0911006F091110659
:1025D0000995811103C081E0809381018091800180
:1025E000882329F080918101882309F43FC047980E
:1025F0000E941C0B0097F1F19C01DE010E94C116A4
:10260000DC01CB0129E0B595A795979587952A958B
:10261000D1F7109290002AE020939100D092990077
:10262000C09298008093820190938301A0938401CB
:10263000B0938501809171008260809371006FCFAB
:1026400010928001B0CF9E0150E040E060E472E45F
:102650008FE090E00E94801669017A0181E0C81A3B
:10266000D108E108F10810928101AECF4699BFCFA1
:10267000479ABECF8FEF9FEFDC01CBCFEF92FF9257
:102680000F931F93CF93DF93F82E192FE62E042F6D
:1026900081E0860F880F0E94570983E00E94570946
:1026A000CF2DD12FEC0EFD2EF11CCE15DF05B9F08C
:1026B00007FF13C0FE0184910E945709182F80E084
:1026C0000E945709812321968111EFCFDF91CF918D
:1026D0001F910F91FF90EF9008958881EDCF81E0D9
:1026E000F5CFE2EBF5E01382128288EE93E0A0E0F2
:1026F000B0E084839583A683B7838EE291E09183D3
:1027000080838FEF9FEF95878487EAE1F6E013825D
:1027100012828CE591E0918380838DE998E090931B
:1027200011068093100680E090E890930F06809346
:102730000E0646983E9A47983F9A8EE491E0909311
:1027400017068093160680E491E090931306809319
:1027500012060895789484B5826084BD84B5816042
:1027600084BD85B5826085BD85B5816085BD80915C
:102770006E00816080936E001092810080918100D4
:1027800082608093810080918100816080938100CC
:1027900080918000816080938000809191008260B0
:1027A000809391008091910081608093910080914D
:1027B00090008160809390008091C100846080933C
:1027C000C1008091C10082608093C1008091C100EE
:1027D00081608093C1008091C30081608093C300B9
:1027E0008091C00082608093C0008091C2008160AF
:1027F0008093C20080917A00846080937A008091F7
:102800007A00826080937A0080917A008160809360
:102810007A0080917A00806880937A001092B101EA
:1028200010928D0110928C018091D700816080936D
:10283000D70080EA8093D80089B5806189BD89B5C9
:10284000826089BD09B400FEFDCF61E070E080E0E8
:1028500090E00E9423098091D8008F7C8061809352
:10286000D8008091E000807F8093E0008091E100BB
:102870008E7E8093E1008DE08093E200559A209A4D
:102880008FEF9FEF9093BF058093BE0581EC8093FF
:102890007C0085B1806F85B984B1877E84B984B1AD
:1028A000876E84B95E9A5F988AB1806D8AB9769A8C
:1028B0006E9881B3806F81BB899880B38D7080BB27
:1028C00080E58CBD81E08DBD85E090E00E941B0D10
:1028D0005F9A85E090E00E941B0D5E985C98E7EDA2
:1028E000F0E184EE90E124912EBD00000DB407FECE
:1028F000FDCF31968E179F07B1F75C9A81E88093E0
:102900006400809165008160809365000E949E0D47
:102910000E94200D87FF15C05C9885EA8EBD0000DF
:102920000DB407FEFDCF5C9A2E982F982D988091BC
:10293000640080628093640081E083BF889513BE49
:10294000FCCF0E94200D82FF48C02D980E94200DD0
:1029500084788438E1F40E94190D88EC90E00E949C
:102960001B0D2F9882E090E00E946A168F3F29F09D
:102970006FEF82E090E00E94721684EF91E00E9477
:102980001B0D2F9A0E94200D84788438D9F30E9461
:10299000200D84718431E1F40E94190D88EC90E0DF
:1029A0000E941B0D2E9882E090E00E946A168823F8
:1029B00029F060E082E090E00E94721684EF91E0DE
:1029C0000E941B0D2E9A0E94200D84718431D9F330
:1029D00088EC90E00E941B0DB4CF0E94190D82E09C
:1029E00090E00E944E0E882309F458C03E9A3F9A08
:1029F00081E080938E0181E090E00E944E0E282FAE
:102A00002470922E81FF10C021112E98C1EFDFEFAC
:102A100008E010E078E5872E0E94200D86FF43C075
:102A20002E9A2F9A0E94190D82E390E00E941B0DAE
:102A30000E94200D8111F8CF80E180930C018BE280
:102A40009FE0909319068093180690931506809343
:102A5000140686E196E090939A0180939901FF24F1
:102A6000F39402EB11E0C0E0D0E0EE24E3948FB7E2
:102A7000F89440919C0150919D0160919E0170914C
:102A80009F018FBF80919101882309F4CDC01092DE
:102A90009101209761F30E940000E9CF10928E010E
:102AA0003E983F98A8CF992029F0C430D10511F461
:102AB0002E9A2F9881E00E94A0089E01D7FF04C0A3
:102AC000222733272C1B3D0B27703327CE01D7FD40
:102AD000079663E0959587956A95E1F7D7FF05C05E
:102AE0000197A801421B530B9A01BC017695762FE2
:102AF0006627779567956E547E4FF12CE12C38014F
:102B0000621A730A8E3F5FEF950709F43DC08E9CF1
:102B1000D0018F9CB00D112450E040E0A95DBF4E64
:102B20005B01E0E8AE0EB11C8F3F980791F0FD010C
:102B3000E40FF51FE4916B01C40ED51EF0E02F01E8
:102B4000022E01C0440C0A94EAF7F6015488452885
:102B5000448A2115310599F0FD01E40FF51FE49138
:102B60006501C40ED51EF0E02F01062C02C055945D
:102B700047940A94E2F7F60154884528448A4F5F47
:102B80005F4F4835510581F6019660587F4FEA94B2
:102B9000EF2809F045C00E949E0D8FE090E00E9452
:102BA0001B0D2196C931D10509F036CF992011F0BE
:102BB0002F9A2D9880E991E00E941B0D0E94190D1B
:102BC00081E090E00E944E0E80FF2ECF8AE090E0E0
:102BD0000E944E0E9FEF980F9E3F08F025CF22E3F4
:102BE00030E0309396012093950128E330E0309354
:102BF000980120939701CBE0D0E0682F8AE196E01E
:102C00000E94280DCE010E944E0E2196C131D105A1
:102C1000A1F70E949E0D88EE93E00E941B0D04CF49
:102C2000EE24E394F12C6ECF90919201242F291B76
:102C3000922F20910C01921740F49F5F921708F099
:102C400028CFF3BE889513BE24CFE0929101409324
:102C5000920120918F01309190012F5F3F4F30936F
:102C6000900120938F01F80181118FEF002481934F
:102C70008193819381930394D1F7109298011092DC
:102C80009701109296011092950180919401809382
:102C900093010E94200D809394018091990190915D
:102CA0009A01DC01ED91FC910280F381E02D6AE153
:102CB00076E009958091990190919A01DC01ED915E
:102CC000FC910480F581E02D6AE176E009950E948F
:102CD0009E0DDFCEF999FECF92BD81BDF89A99275E
:102CE00080B50895262FF999FECF1FBA92BD81BDF8
:102CF00020BD0FB6F894FA9AF99A0FBE019608957E
:102D0000052E97FB1EF400940E94971657FD07D0DE
:102D10000E949F1607FC03D04EF40C949716509512
:102D20004095309521953F4F4F4F5F4F08959095B7
:102D30008095709561957F4F8F4F9F4F0895A1E2C9
:102D40001A2EAA1BBB1BFD010DC0AA1FBB1FEE1F25
:102D5000FF1FA217B307E407F50720F0A21BB30B70
:102D6000E40BF50B661F771F881F991F1A9469F7EC
:102D700060957095809590959B01AC01BD01CF0148
:102D80000895A29FB001B39FC001A39F700D811D44
:102D90001124911DB29F700D811D1124911D089564
:102DA000EE0FFF1F0590F491E02D09940F931F93F0
:102DB000CF93DF938230910510F482E090E0E091B0
:102DC0002006F091210630E020E0B0E0A0E030974E
:102DD00099F42115310509F44AC0281B390B243018
:102DE0003105D8F58A819B816115710589F1FB0157
:102DF00093838283FE0111C040815181028113813E
:102E000048175907E0F04817590799F4109761F0EF
:102E100012960C93129713961C933296CF01DF9162
:102E2000CF911F910F9108950093200610932106D2
:102E3000F4CF2115310551F04217530738F0A9019D
:102E4000DB019A01BD01DF01F801C1CFEF01F9CF2C
:102E50009093210680932006CDCFFE01E20FF31F51
:102E6000819391932250310939832883D7CF2091C0
:102E70001E0630911F06232B41F420910F01309143
:102E8000100130931F0620931E0620910D013091F2
:102E90000E012115310541F42DB73EB740911101C6
:102EA00050911201241B350BE0911E06F0911F0674
:102EB000E217F307A0F42E1B3F0B2817390778F011
:102EC000AC014E5F5F4F2417350748F04E0F5F1F70
:102ED00050931F0640931E06819391939FCFF0E07D
:102EE000E0E09CCFCF93DF930097E9F0FC013297AD
:102EF00013821282A0912006B0912106ED0130E0EC
:102F000020E01097A1F420813181820F931F20913E
:102F10001E0630911F062817390709F061C0F0938B
:102F20001F06E0931E06DF91CF910895EA01CE17A8
:102F3000DF07E8F54A815B819E0141155105B1F734
:102F4000E901FB83EA8349915991C40FD51FEC171E
:102F5000FD0761F4808191810296840F951FE9013C
:102F600099838883828193819B838A83F0E0E0E068
:102F700012968D919C9113970097B9F52D913C91E4
:102F80001197CD010296820F931F20911E0630915A
:102F90001F062817390739F6309751F51092210688
:102FA00010922006B0931F06A0931E06BCCFD383B9
:102FB000C28340815181840F951FC817D90761F4DE
:102FC0004E5F5F4F88819981480F591F518340831D
:102FD0008A819B81938382832115310509F0B0CFCB
:102FE000F0932106E09320069ECFFD01DC01C0CFC7
:0A2FF00013821282D7CFF894FFCFAE
:102FFA00FFFFFFFF00E100000000000010000022B8
:10300A00068000000000004D0E9F0E000000004CDC
:10301A000E770E00C18081000000000000009B0AAC
:10302A00160ABC0AB10A020BC00ADE0A0000000036
:10303A00A30E110EBE0D470E790E000000005609B0
:10304A00500EA50D470EA10D00000000280DE9093C
:10305A00A20DA10D4120427574746F6E20507265E5
:08306A0073736564000D0A0098
:00000001FF
