:100000000C94A50B0C94CD0B0C94CD0B0C94CD0B38
:100010000C94CD0B0C94CD0B0C94CD0B0C94CD0B00
:100020000C94CD0B0C94CD0B0C94B1180C9420199E
:100030000C94CD0B0C94CD0B0C94CD0B0C94CD0BE0
:100040000C94CD0B0C94CD0B0C94CD0B0C94CD0BD0
:100050000C94CD0B0C94CD0B0C94CD0B0C94671819
:100060000C94CD0B0C94CD0B0C94CD0B0C94CD0BB0
:100070000C94CD0B0C94CD0B0C94CD0B0C94CD0BA0
:100080000C94521B0C94CD0B0C94CD0B0C94CD0BFB
:100090000C94CD0B0C94CD0B0C94CD0B0C94CD0B80
:1000A0000C94CD0B0C94CD0B0C94CD0B06060603D3
:1000B0000105010306061E000000000006061E03DF
:1000C00001050103202000000000000000000000E6
:1000D0000000000000000000000000000000000020
:1000E0000000000000000000000000000000000010
:1000F0000000E0F070F818981C9CE0000000000080
:10010000000000000000000000000000000000608F
:10011000B018017BFAF4F4F47404434020000000AA
:1001200000000000000000000000000000000000CF
:1001300000080C0602000202040810204000000023
:1001400000000000000000000000000000000000AF
:10015000000000000000000000000000000000009F
:10016000000000000000000000000000000000008F
:100170000000C0E0E0F030303838C000000000007F
:10018000000000000000000000000000000000006F
:1001900000E00377F4E9E8E9E809870000000000DF
:1001A000000000000000000000000000000000004F
:1001B000000009111D01057D000000000000000085
:1001C000000000000000000000000000000000002F
:1001D000000000000000000000000000000000001F
:1001E000000000000000000000000000000000000F
:1001F0000000C0E0E0F030303838C00000000000FF
:1002000000000000000000000000000000000000EE
:100210000000E3F7B4A968E9E809870000000000DE
:1002200000000000000000000000000000000000CE
:100230000000000109710F0500000000000000002F
:1002400000000000000000000000000000000000AE
:10025000000000000000000000000000000000009E
:10026000000000000000000000000000000000008E
:100270000000E0F070F818981C9CE00000000000FE
:10028000000000000000000000000000000000006E
:100290000060016BDAB4B4B4B404030000000000E1
:1002A000000000000000000000000000000000004E
:1002B00000000040380E02100A0600000000000096
:1002C000000000000000000000000000000000002E
:1002D000000000000000000000000000000000001E
:1002E000000000000000000000000000000000000E
:1002F0000000F0F8387C0C4C0E4EF00000000000BE
:1003000000000000000000000000000000000000ED
:100310001028001D356A6A6A6A2221000000000068
:1003200000000000000000000000000000000004C9
:1003300004040404040301000101030C0000000094
:1003400000000000000000000000000000000000AD
:10035000000000000000000000000000000000009D
:10036000000000000000000000000000000000008D
:100370000000E0F070F818981C9CE00000000000FD
:10038000000000000000000000000000000000006D
:100390000060017BDAB4B4B4B404030000000000D0
:1003A000000000000000000000000000000000004D
:1003B00000080C060202000206187040000000004F
:1003C000000000000000000000000000000000002D
:1003D000000000000000000000000000000000001D
:1003E000000000000000000000000000000000000D
:1003F0000000C0E0E0F030303838C00000000000FD
:1004000000000000000000000000000000000000EC
:100410000000E3F77469E8E9E8090700000000005C
:1004200000000000000000000000000000000000CC
:10043000000008111D01047D000100000000000003
:1004400000000000000000000000000000000000AC
:10045000000000000000000000000000000000009C
:10046000000000000000000000000000000000008C
:100470000000C0E0E0F030303838C000000000007C
:10048000000000000000000000000000000000006C
:1004900000E003F7F4E9E8E9E809070000000000DC
:1004A000000000000000000000000000000000004C
:1004B0000000010011711F05000100000000000094
:1004C000000000000000000000000000000000002C
:1004D000000000000000000000000000000000001C
:1004E000000000000000000000000000000000000C
:1004F0000000E0F070F818981C9CE000000000007C
:10050000000000000000000000000000000000608B
:100510009008013B7AF4F4F4748483000000000036
:1005200000000000000000000000000000000000CB
:1005300000004020180E02100A0600000000000013
:1005400000000000000000000000000000000000AB
:10055000000000000000000000000000000000009B
:10056000000000000000000000000000000000008B
:100570000000F0F8387C0C4C0E4EF000000000003B
:100580000000000000000000000000000000001853
:100590000404001D3D7A7A7A7A02111800000000E6
:1005A000000000000000000000000000000000004B
:1005B00000020604040301000101030C0000000016
:1005C00000000000000020200000000000000000EB
:1005D000000000000000000000000000000000001B
:1005E000000000000000000000000000000000000B
:1005F00000000000C0E0E0F030303838C0000000FB
:1006000000000000000000000000000000000000EA
:1006100000C0600073F7E4E9E8E9E809C780C0407A
:1006200000000000000000000000000000000000CA
:100630000143621008050501050504040408704023
:1006400000000000000000000000000000000000AA
:10065000000000000000000000000000000000009A
:10066000000000000000000000000000000000008A
:10067000000000E0F070F818981C9CE000000000FA
:10068000000000000000000000000000000000006A
:1006900080E030013BFAF4F4F4F47403604060202D
:1006A000000000000000000000000000000000004A
:1006B00000416118040202000202020204087040B4
:1006C00000000000000000002020000000000000EA
:1006D000000000000000000000000000000000001A
:1006E000000000000000000000000000000000000A
:1006F000000000000000E0F070F818981C9CE0007A
:1007000000000000000000000000000000000000E9
:1007100000000060B018017BFAF4F4F47404434064
:1007200020000000000000000000000000000000A9
:100730000000000000080C0602000202040810205D
:100740004000000000000000000000000000000069
:100750000000000000000000000000000000000099
:100760000000000000000000000000000000000089
:10077000000000000000C0E0E0F030303838C00079
:100780000000000000000000000000000000000069
:100790000000000000E00377F4E9E8E9E8098700D9
:1007A0000000000000000000000000000000000049
:1007B00000000000000009111D01057D000000007F
:1007C0000000000000000000000000000000000029
:1007D0000000000000000000000000000000000019
:1007E0000000000000000000000000000000000009
:1007F000000000000000C0E0E0F030303838C000F9
:1008000000000000000000000000000000000000E8
:10081000000000000000E3F7B4A968E9E8098700D8
:1008200000000000000000000000000000000000C8
:10083000000000000000000109710F050000000029
:1008400000000000000000000000000000000000A8
:100850000000000000000000000000000000000098
:100860000000000000000000000000000000000088
:10087000000000000000E0F070F818981C9CE000F8
:100880000000000000000000000000000000000068
:10089000000000000060016BDAB4B4B4B4040300DB
:1008A0000000000000000000000000000000000048
:1008B0000000000000000040380E02100A06000090
:1008C0000000000000000000000000000000000028
:1008D0000000000000000000000000000000000018
:1008E0000000000000000000000000000000000008
:1008F000000000000000F0F8387C0C4C0E4EF000B8
:1009000000000000000000000000000000000000E7
:10091000000000001028001D356A6A6A6A22210062
:1009200000000000000000000000000000000000C7
:100930000000000404040404040301000101030C8A
:1009400000000000000000000000000000000000A7
:100950000000000000000000000000000000000097
:100960000000000000000000000000000000000087
:10097000000000000000E0F070F818981C9CE000F7
:100980000000000000000000000000000000000067
:10099000000000000060017BDAB4B4B4B4040300CA
:1009A0000000000000000000000000000000000047
:1009B0000000000000080C06020200020618704049
:1009C0000000000000000000000000000000000027
:1009D0000000000000000000000000000000000017
:1009E0000000000000000000000000000000000007
:1009F000000000000000C0E0E0F030303838C000F7
:100A000000000000000000000000000000000000E6
:100A1000000000000000E3F77469E8E9E809070056
:100A200000000000000000000000000000000000C6
:100A300000000000000008111D01047D00010000FD
:100A400000000000000000000000000000000000A6
:100A50000000000000000000000000000000000096
:100A60000000000000000000000000000000000086
:100A7000000000000000C0E0E0F030303838C00076
:100A80000000000000000000000000000000000066
:100A90000000000000E003F7F4E9E8E9E8090700D6
:100AA0000000000000000000000000000000000046
:100AB000000000000000010011711F05000100008E
:100AC0000000000000000000000000000000000026
:100AD0000000000000000000000000000000000016
:100AE0000000000000000000000000000000000006
:100AF000000000000000E0F070F818981C9CE00076
:100B000000000000000000000000000000000000E5
:100B1000000000609008013B7AF4F4F474848300D0
:100B200000000000000000000000000000000000C5
:100B30000000000000004020180E02100A0600000D
:100B400000000000000000000000000000000000A5
:100B50000000000000000000000000000000000095
:100B60000000000000000000000000000000000085
:100B7000000000000000F0F8387C0C4C0E4EF00035
:100B80000000000000000000000000000000000065
:100B9000000000180404001D3D7A7A7A7A021118C8
:100BA0000000000000000000000000000000000045
:100BB0000000000000020604040301000101030C10
:100BC00000000000000000000000202000000000E5
:100BD0000000000000000000000000000000000015
:100BE0000000000000000000000000000000000005
:100BF0000000000000000000C0E0E0F030303838B5
:100C0000C000000000000000000000000000000024
:100C10000000000000C0600073F7E4E9E8E9E809BB
:100C2000C780C0400000000000000000000000007D
:100C300000000000014362100805050105050404D9
:100C400004087040000000000000000000000000E8
:100C50000000000000000000000000000000000094
:100C60000000000000000000000000000000000084
:100C700000000000000000E0F070F818981C9CE0F4
:100C80000000000000000000000000000000000064
:100C90000000000080E030013BFAF4F4F4F4740347
:100CA0006040602000000000000000000000000024
:100CB000000000000041611804020200020202026A
:100CC0000408704000000000000000000606060353
:100CD0000105010301000100010001000100010004
:100CE00001000100010001000100010001000100FC
:100CF00001000100010001000100010001000100EC
:100D00000100010006060609120906000606060F84
:100D10001E0F060080400000000000004080807828
:100D2000007088887000F80808F000F04848F0006B
:100D3000B0A8A84800180000000000000000000053
:100D400000000000000000000000000000000000A3
:100D50000000000000000000000000000000000093
:100D60000000000000000000000000000000000083
:100D70000000000000000000000000000000000073
:100D80000000000000000000000000000000000063
:100D9000000000000000000000000000F8FCFCFC67
:100DA0008C9C1800FCFCFCFC00FCFC00FCFCFCFC2B
:100DB0008CFCF800FCFCFCFC8C8C8C00FCFCFCFC2F
:100DC0008CFCFCF800000000000000FCFCFCFC8C2B
:100DD000FCFCF80098BC3EBC9800FCFCFCFC8CFCC5
:100DE000FCF8000C0C0CFCFCFCFC0C0C0C00FCFCDF
:100DF000FCFC80FCFCFC00FCFCFCFC0CFCFCF8009B
:100E0000F8FCFCFC8CFCFCF800FCFCFCFC80FCFC12
:100E1000FC0000000000000000000000317373635C
:100E2000637F3F003F7F7F7F607F3F007F7F7F7FCB
:100E3000030301007FBFBFBF23A3A3007F7F7F7F8A
:100E4000037F7F7E00000000008080BFBF3F7F6384
:100E50007F7F3E005D6E773B5D007F7F7F7F017F00
:100E60007F7E00008080BFBF3F7F000000007F7F4B
:100E70007F7F017F7F7F007F7F7F7F607F7F3F005D
:100E80007F7F7F7F017F7F7F0001017F7F7F7F01E9
:100E900001000000000000000010E09800007E81CA
:100EA000A98181FF5A423C0000D860100000000078
:100EB0000000080C3F574753434F271F0400000012
:100EC000000000007CC000017F8B838B83875E7EE7
:100ED0001C000000000000000000000000000000F6
:100EE000007E7F4F9F81898181897E000000000004
:100EF00000000060380E0A3ACA8E00007C46603856
:100F00000E40484E4A7A3200603C1210F0380E0013
:100F1000000000000000000000000003068480863E
:100F2000CE50068E9F8FA0929B090C040C100000DF
:100F3000000040C080402046595F5FCF800901819A
:100F400001020000000103060054C0D4D45C5E0F0F
:100F50000081C77C00000000000000000000300895
:100F60000440470F9E9E9E5E4E404830300000C0B9
:100F7000E0E0F034BC3CB8C0000101000000000813
:100F80000C1C3C7CFCFE3E06260426F800000000FB
:100F9000000000000000000000000000030B04003F
:100FA000007E85A08084804040AD261C00008080AB
:100FB000C0706060210000000000E09009819198FD
:100FC00039F0E00000000C0E1B70000000000F382C
:100FD000E0C00000001C204080BC5E878313030338
:100FE0000316FC8160380000000001010000C0030E
:100FF00077F4E9E8E8E8E807C000000080C0C0E056
:10100000ECE466C2C8183C1D0D052120000000005C
:1010100000000000000000000000000000000000D0
:1010200000000409031D3E3FBFBF3F3F9E80A1A1BA
:10103000B0B090808080808080B0839494949494A9
:10104000AA81B3A080808080808080808080808022
:1010500080818080809CB48C8B878F8E8E8D8D8DCF
:101060008D8581A4B49C808080808080808F8080EA
:1010700080BD8181BD81808E8180A080B7A7AB2893
:101080001054D0140F000000000000000000000009
:101090000000000000000000000000000000000050
:1010A0000000000000000000000100FF0000000040
:1010B0000000000000000000000000000000000030
:1010C0000000000000000000000000000000000020
:1010D0000000000000000000000000000000000010
:1010E0000000000000000000000000000000000000
:1010F000000000000000000000000000000000FFF1
:1011000000010000000000000000000000000000DE
:1011100000000000000000000000003E5B4F5B3E4E
:101120003E6B4F6B3E1C3E7C3E1C183C7E3C181CAC
:10113000577D571C1C5E7F5E1C00183C1800FFE7A3
:10114000C3E7FF0018241800FFE7DBE7FF30483A49
:10115000060E2629792926407F050507407F0525AB
:101160003F5A3CE73C5A7F3E1C1C08081C1C3E7F33
:1011700014227F22145F5F005F5F06097F017F00FA
:101180006689956A606060606094A2FFA29408041A
:101190007E040810207E201008082A1C08081C2A3B
:1011A00008081E101010100C1E0C1E0C30383E3893
:1011B00030060E3E0E06000000000000005F00003A
:1011C0000007000700147F147F14242A7F2A1223AB
:1011D0001308646236495620500008070300001CBB
:1011E0002241000041221C002A1C7F1C2A08083EC4
:1011F00008080080703000080808080800006060D7
:101200000020100804023E5149453E00427F400044
:1012100072494949462141494D331814127F10271C
:10122000454545393C4A494931412111090736496B
:10123000494936464949291E00001400000040343F
:101240000000000814224114141414140041221444
:101250000802015909063E415D594E7C1211127C6B
:101260007F494949363E414141227F4141413E7FCC
:10127000494949417F090909013E414151737F08AC
:1012800008087F00417F41002040413F017F081452
:1012900022417F404040407F021C027F7F040810B3
:1012A0007F3E4141413E7F090909063E4151215E91
:1012B0007F09192946264949493203017F01033F25
:1012C0004040403F1F2040201F3F4038403F6314B4
:1012D00008146303047804036159494D43007F41B6
:1012E00041410204081020004141417F04020102F3
:1012F0000440404040400003070800205454784018
:101300007F284444383844444428384444287F38AB
:101310005454541800087E090218A4A49C787F082D
:1013200004047800447D40002040403D007F1028A8
:10133000440000417F40007C047804787C08040469
:10134000783844444438FC1824241818242418FC01
:101350007C08040408485454542404043F44243CA6
:101360004040207C1C2040201C3C4030403C442815
:101370001028444C9090907C4464544C44000836AF
:10138000410000007700000041360800020102041D
:10139000023C2623263C1EA1A161123A4040207A3D
:1013A0003854545559215555794121545478412187
:1013B0005554784020545579400C1E5272123955BC
:1013C00055555939545454593955545458000045B9
:1013D0007C410002457D420001457C40F0292429E2
:1013E000F0F0282528F07C545545002054547C54B6
:1013F0007C0A097F493249494932324848483232E9
:101400004A4848303A4141217A3A42402078009D8A
:10141000A0A07D39444444393D4040403D3C24FF38
:101420002424487E4943662B2FFC2F2BFF0929F6E5
:1014300020C0887E090320545479410000447D4136
:101440003048484A32384040227A007A0A0A727D8F
:101450000D19317D2629292F2826292929263048AA
:101460004D4020380808080808080808382F10C818
:10147000ACBA2F102834FA00007B000008142A149C
:101480002222142A14089500220095AA005500AAC9
:10149000AA55AA55AA000000FF00101010FF001462
:1014A0001414FF001010FF00FF1010F010F01414BF
:1014B00014FC001414F700FF0000FF00FF1414F4E4
:1014C00004FC141417101F10101F101F1414141FE5
:1014D00000101010F0000000001F101010101F105E
:1014E000101010F010000000FF101010101010105D
:1014F0001010FF10000000FF140000FF00FF0000AC
:101500001F10170000FC04F414141710171414F41F
:1015100004F40000FF00F714141414141414F7005A
:10152000F7141414171410101F101F141414F414AB
:101530001010F010F000001F101F0000001F14001A
:101540000000FC140000F010F01010FF10FF141445
:1015500014FF141010101F00000000F010FFFFFF18
:10156000FFFFF0F0F0F0F0FFFFFF0000000000FFD1
:10157000FF0F0F0F0F0F38444438447C2A2A3E14C3
:101580007E02020606027E027E02635549416338EE
:1015900044443C04407E201E2006027E020299A59F
:1015A000E7A5991C2A492A1C4C7201724C304A4DFD
:1015B0004D303048784830BC625A463D3E49494932
:1015C000007E0101017E2A2A2A2A2A44445F4444DB
:1015D00040514A444040444A51400000FF0103E06A
:1015E00080FF000008086B6B083612362436060FA1
:1015F000090F06000018180000001010003040FF0E
:101600000101001F01011E00191D1712003C3C3C86
:101610003C0000000000080B000202020000090468
:101620000000010202000005240010010524010150
:1016300001042402060524060001070581031000A9
:101640004009040100020A000000070502024000F0
:101650000007058302400000040309041201000290
:10166000EF02014041233680000101020301417273
:101670006475696E6F204C4C430041726475696EED
:101680006F204C656F6E6172646F00F0F89C8E87FE
:1016900083878E9CF8F00000FEFF0303030303071B
:1016A0000EFCF80000FEFF0303030303070EFCF823
:1016B0000000FFFF00000000000000FFFF0000FE30
:1016C000FF8383838383C7EE7C380000F8FC0E071A
:1016D000030303070EFCF800003F7FE0C08080C0DA
:1016E000E07F3FFFFF01010101010101FFFF000059
:1016F000FFFF0C0C0C0C1C3E77E3C100007FFFC009
:10170000C0C0C0C0E0703F1F00001F3F70E0C0C0FD
:10171000C0E0703F1F00007FFFC1C1C1C1C1E377BE
:101720003E1C00001F3F70E0C0C0C0E0703F1F00C3
:101730000000000001FFFF01000000D5F08D14A1A2
:10174000C881CFD9F1AF2000871C11241FBECFEF75
:10175000DAE0DEBFCDBF11E0A0E0B1E0ECE3F5E4FC
:1017600002C005900D92A83BB107D9F726E0A8EB7F
:10177000B1E001C01D92A539B207E1F71BE0C5EA4F
:10178000DBE004C02197FE010E947121C43AD10719
:10179000C9F70E94E91C0C949C220C9400008091D3
:1017A000D4010895480F592F511D1416150684F5BC
:1017B000803891056CF597FF02C090E080E04138D9
:1017C000510514F040E850E0481BFB01E770FF278B
:1017D00021E001C0220FEA95EAF777FF02C0695FB6
:1017E0007F4FFB0133E0F595E7953A95E1F7F695E4
:1017F000FE2FEE27F795E795E80FF91FE850FE4F0B
:10180000415030F08191DF011197822B8C93F8CFFA
:101810000895E8EFF1E0A0E0B8E000800EBC81118F
:10182000012C1197A0FDFDCF0192B9F70DB40895D9
:10183000FC018091F701882311F13FB7F89482E011
:101840008093E9002091F200822F90E0181619068B
:1018500014F481E090E0882339F0289844E640931E
:10186000F6014091F1004083222339F02091F200EB
:10187000211103C02BE62093E8003FBF08958FEFAE
:101880009FEF08952FB7F89483E08093E90090913B
:10189000E800892F807295FF04C09091F20080E4E7
:1018A000891B2FBF08958091EE0181110DC082E048
:1018B0008093EA0184E08093EB011092ED01109295
:1018C000EC0181E08093EE018AEE91E008953FB74C
:1018D000F8948091E6019091E701A091E801B09120
:1018E000E90126B5A89B05C02F3F19F00196A11D5F
:1018F000B11D3FBFBA2FA92F982F8827BC01CD015A
:10190000620F711D811D911D42E0660F771F881FB8
:10191000991F4A95D1F708958F929F92AF92BF92E7
:10192000CF92DF92EF92FF926B017C010E94670CD5
:101930004B015C01C114D104E104F104B9F00E942F
:10194000670C681979098A099B09683E734081050B
:10195000910580F321E0C21AD108E108F10888EE70
:10196000880E83E0981EA11CB11CE4CFFF90EF907D
:10197000DF90CF90BF90AF909F908F90089540914F
:10198000CE015091CF012091CC013091CD01421771
:101990005307B4F49091E8009570E1F39091E8005A
:1019A00092FD19C08093F1008091CE019091CF01FA
:1019B00001968F739927892B19F48EEF8093E80095
:1019C0008091CE019091CF0101969093CF018093A9
:1019D000CE0181E0089580E00895DF92EF92FF92BA
:1019E0000F931F93CF93DF93D82E8A01EB017B01D6
:1019F000E40EF51ECE15DF0559F0D7FE12C0FE012C
:101A000084910E94BF0C21968111F4CF0FEF1FEF3C
:101A1000C801DF91CF911F910F91FF90EF90DF9060
:101A200008958881EECF0F931F93CF93DF931F927A
:101A3000CDB7DEB782E0898342E450E066E176E12B
:101A400080E80E94ED0C0E94530CDC0112960D916F
:101A50001C910115110589F0D801ED91FC910280CE
:101A6000F381E02DBE016F5F7F4FC801099597FD9F
:101A700004C0F80100851185ECCF89810F90DF91BA
:101A8000CF911F910F910895615030F02091F10096
:101A9000FC0120830196F8CF289884E68093F60114
:101AA0000895AF92BF92CF92DF92EF92FF920F9381
:101AB0001F93CF93DF936C017B018B01040F151FE4
:101AC000EB015E01AE18BF08C017D10759F069914C
:101AD000D601ED91FC910190F081E02DC6010995B0
:101AE000892B79F7C501DF91CF911F910F91FF905D
:101AF000EF90DF90CF90BF90AF9008958F929F921C
:101B0000AF92BF92CF92DF92EF92FF920F931F930B
:101B1000CF93DF936C017B018A0180910E018823B2
:101B200009F45CC08091F701882309F457C08091C3
:101B3000D20180FF05C08091E00082608093E000C8
:101B4000E801B12C8AEFA82E93E0892E2AE3922E89
:101B5000209711F4BB20D9F10E94420C81110AC0D8
:101B6000AA94AA20D9F161E070E080E090E00E94A0
:101B70008C0CEECF8C171D0611F00CF08C2F9FB73C
:101B8000F8948092E9002091E80025FD02C09FBFF3
:101B9000DFCF282F30E0C21BD30BF701815020F09C
:101BA00041914093F100FACFE20EF31EBB2021F0E9
:101BB0009092E800B12CEBCF8091E80085FDE7CF53
:101BC0009092E800BB24B394209709F3F3CF5D987B
:101BD00084E68093D101101611063CF081E090E07C
:101BE000F6019383828310E000E0C801DF91CF917A
:101BF0001F910F91FF90EF90DF90CF90BF90AF902B
:101C00009F908F900895CF93DF931F92CDB7DEB74B
:101C10006983DC01ED91FC910280F381E02D41E0CC
:101C200050E0BE016F5F7F4F09950F90DF91CF911C
:101C3000089583E08093E9008091F200882319F0F1
:101C40008AE38093E80008950E94420C90E0089592
:101C5000CF93DF931F92CDB7DEB7FC0184859585C6
:101C600097FD08C02FEF3FEF358724870F90DF9156
:101C7000CF910895CE0101960E94180C019719F496
:101C8000898190E0F3CF8FEF9FEFF0CF0F931F93F9
:101C9000CF93DF931F92CDB7DEB78C01FC01848513
:101CA000958597FF0BC0CE0101960E94180C0197F5
:101CB00071F4898190E0F80195878487F801848523
:101CC00095850F90DF91CF911F910F9108958FEF20
:101CD0009FEFF1CFFC018485958597FD0BC09FB7E1
:101CE000F89482E08093E9008091F2009FBF90E039
:101CF000019608959FB7F89482E08093E90080915F
:101D0000F2009FBF90E008952091C001E091C301CF
:101D1000F091C401CF0102969093C4018093C30156
:101D2000222319F0859194910895808191810895DD
:101D30004F925F926F927F928F929F92AF92BF92DB
:101D4000CF92DF92EF92FF920F931F93CF93DF9387
:101D50004C015901FC2DC02FD0E0CE01880D991DFA
:101D6000181619060CF06CC020E8821691040CF0CD
:101D700067C09B012E0D311D121613060CF060C0BA
:101D8000603471050CF05CC04115510509F458C070
:101D9000E62FE770FE2EDB0177FD179633E0B59551
:101DA000A7953A95E1F73A2F77FF04C0FF2011F08D
:101DB0003FEF3A0F662777276819790997FC02C029
:101DC00070E060E0803891050CF44BC090E8981901
:101DD000961BA32F032E000CBB0B1A2F10953F3F11
:101DE0000CF010E021E08E2D877009F420E0E694DD
:101DF000E694E694E20EAE0DB11D19971CF028E0B2
:101E0000E22EE31AE11A310F20E83203D001112447
:101E1000A80DB91DA60FB71F019F600D711D1124DC
:101E2000460F571F0F2D0F2C000C110BF33009F428
:101E30001CC1C8F4F13009F4D0C0F23009F47CC000
:101E4000DF91CF911F910F91FF90EF90DF90CF9096
:101E5000BF90AF909F908F907F906F905F904F90CA
:101E60000895902FB5CFFA3FB1F1232F2E0DFB3FF0
:101E700039F7321729F3BD0168507E4FD12CC12CA0
:101E8000C91608F0A4C0FA01EC0DFD1DE491F0E0C4
:101E90004F01002E02C0880C991C0A94E2F737FD0E
:101EA00006C0FB018081E82CE0948E218083FF2016
:101EB00061F0373054F45B01F0E8AF0EB11CE92C4F
:101EC000E094F50180818E218083FFEFCF1ADF0A35
:101ED0006F5F7F4FD5CF232F2E0D321709F4B0CF70
:101EE000BD0168507E4FD12CC12CC91608F069C0C5
:101EF000FA01EC0DFD1DE491F0E04F01002E02C04F
:101F0000880C991C0A94E2F737FD04C0FB0180811C
:101F100088298083FF2051F0373044F45B01F0E8DA
:101F2000AF0EB11CF501808189298083FFEFCF1AA4
:101F3000DF0A6F5F7F4FD9CF6FEF70E00F2C02C0C9
:101F4000660F771F0A94E2F760957095772E232F1E
:101F50002E0D321709F474CFFD01E850FE4F6F01CA
:101F6000B12CA12CA91638F5FA01EA0DFB1DE4915C
:101F7000F0E02F01002E02C0440C551C0A94E2F739
:101F800037FD05C0F6018081862384298083FF20E8
:101F900059F037304CF44601F0E88F0E911CF401F3
:101FA0008081872185298083FFEFAF1ABF0A8FEFD9
:101FB000C81AD80AD7CF3F5F4C0F5D1FA058BF4F3C
:101FC000C8CF3F5F4C0F5D1FA058BF4F86CF3F5F0C
:101FD0004C0F5D1FA058BF4F4CCF6A0D7B1D232FA8
:101FE0002E0D321709F42CCFFD01E850FE4F6F0182
:101FF000B12CA12CA91688F5FB01EA0DFB1D8490DC
:10200000912C002E02C0880C991C0A94E2F780944F
:102010009094FA01EA0DFB1D6490712C002E02C011
:10202000660C771C0A94E2F737FD05C0F601808143
:10203000882186298083FF2049F037303CF4F6015F
:10204000E058FF4F8081892187298083FFEFAF1AF5
:10205000BF0A8FEFC81AD80ACDCF3F5F4C0F5D1F64
:102060006C0F7D1FA058BF4FBCCFC92ED12CFA01D9
:10207000E60FF71FA850BE4F00E810E00C191D092D
:10208000CC19DD09BE01660F771F41E050E06A01FF
:102090000F2C01C0CC0C0A94EAF7592F2E2D792E63
:1020A000CF93DF93ED01EF96EF9622968590A59062
:1020B000FF2059F08C9C4001AC9C500137302CF42F
:1020C000E880B094EB20E928E99233233AF0EC90D1
:1020D000A094EA20E828ED920C946F1011965A957E
:1020E00029F72A9551F0572D33951124E60FF11D4C
:1020F000A00FB11DC00FD11DD9CFDF91CF911124F9
:102100009FCE8F929F92AF92BF92CF92DF92EF922B
:102110000F931F93CF93DF93EC0188A199A1813096
:10212000910509F448C098F08230910509F446C041
:10213000039709F47FC0DF91CF911F910F91EF902A
:10214000DF90CF90BF90AF909F908F900895CA80FE
:10215000DB80C114D10479F32E89F6010491319604
:10216000E490A6014E5F5F4F2223D1F061E070E062
:102170009E2D977011F470E060E08E2D8695869507
:102180008695860F972F911D089FB001099F700DAE
:102190001124269FC001279F900D1124480F591F1D
:1021A0006CA17DA18AEFC82E30E020E08AA19BA11E
:1021B0000E94980EC0CFCC80DD80CBCFCC80DD805C
:1021C00088889988AA88BB886CA17DA1072E000CFD
:1021D000880B990B0E94BD20A50194010E94192033
:1021E0000E9485208B017DA36CA32AE939E949E986
:1021F0005EE3C501B4010E941920688B798B8A8B3C
:102200009B8B8E859F85081719070CF4A2CF9DA381
:102210008CA31F8A1E8A1D8A1C8A81E090E099A3E4
:1022200088A38A859B859F838E838C8D9D8D998FB6
:10223000888F8FCFCC80DD8088889988AA88BB88DA
:102240006CA17DA1072E000C880B990B0E94BD206C
:10225000A50194010E9419200E9485207DA36CA3F2
:102260002AE939E949E95EE3C501B4010E94192070
:10227000688B798B8A8B9B8B6CCFCF92EF920F936D
:10228000FA0104913196E4904E5F5F4F22E0C22E36
:1022900030E020E00E94980E0F91EF90CF900895CB
:1022A0002D9A0895BC0190E080E00C948C0C8FB1C5
:1022B0008095807F669B88601C9B846008959091C8
:1022C000D901982329F49091DA01982381E009F447
:1022D00080E0089580E00C94090C80389105B8F4F2
:1022E00060347105A0F420E191E061FD94E060FDAF
:1022F000990F62FD9295687F269FD0011124A80F47
:10230000A850BE4F8C9140FF03C0892B8C93089539
:1023100090958923FBCF8F929F92AF92BF92CF92DD
:10232000DF92EF92FF920F931F93CF93DF937C0185
:102330006B01C1E0D0E002E010E0842F8470A82E91
:10234000842F8270982E842F8870882E4170B42E2E
:10235000AA2091F041E0B8016C0D7D1DCE018E0DDB
:102360009F1D0E946D1141E0BE016C0D7D1DC701D6
:10237000800F911F0E946D11992091F041E0B601EC
:10238000601B710BCE018E0D9F1D0E946D1141E0EF
:10239000B6016C1B7D0BC8018E0D9F1D0E946D1137
:1023A000882091F041E0BE016C0D7D1DC701801BAE
:1023B000910B0E946D1141E0B8016C0D7D1DC701AC
:1023C0008C1B9D0B0E946D11BB2091F041E0B6016A
:1023D0006C1B7D0BC701801B910B0E946D1141E0AE
:1023E000B601601B710BC7018C1B9D0B0E946D1108
:1023F00021960130110519F001E010E0A9CFDF911D
:10240000CF911F910F91FF90EF90DF90CF90BF90F1
:10241000AF909F908F9008958F929F92AF92BF92AE
:10242000CF92DF92EF92FF920F931F93CF93DF93A0
:102430006D3089F0C090DD01D090DE016A30D1F4BA
:102440001092DC011092DB0188E0C80ED11CD09202
:10245000DE01C092DD0181E090E0DF91CF911F911C
:102460000F91FF90EF90DF90CF90BF90AF909F9033
:102470008F9008950091DB011091DC01E5E06E9FE3
:10248000E0011124CA5EDE4E4801F12CF5E0E12C9A
:10249000FF1629F0CE010196FE01E490EC01B12C6B
:1024A000A12C4E2D4170B6016A0D7B1DC4010E9406
:1024B0006D11E694FFEFAF1ABF0A88E0A816B104C9
:1024C00081F7F394EFEF8E1A9E0AF6E0FF12DECF4B
:1024D0000A5F1F4F1093DC010093DB01BCCFDF923A
:1024E000EF92FF920F931F93CF93DF937C01D22E35
:1024F0008B01040F111DEB0177FF02C0D0E0C0E09B
:10250000C8010134110514F080E490E0C817D90720
:102510003CF44D2DBE01C7010E946D112196F0CFF4
:10252000DF91CF911F910F91FF90EF90DF90089571
:102530006F927F928F929F92AF92BF92CF92DF92D3
:10254000EF92FF920F931F93CF93DF937C014B0188
:10255000642ED22EC22E01E010E0C2E0D0E045E0B1
:102560004D0DB4016C1B7D0B83E0782E7C0C540167
:10257000A01AB10A81E020E0681218C0C8018E0DCF
:102580009F1D0E946F1220E0472DB501CE018E0DD8
:102590009F1D0E946F120F5F1F4FDA94DA94C3944D
:1025A000C394219779F0C1E0D0E0D9CFC701801B57
:1025B000910B0E946F1220E0472DB501C7018C1BC3
:1025C0009D0BE7CFDF91CF911F910F91FF90EF907F
:1025D000DF90CF90BF90AF909F908F907F906F9043
:1025E0000895089590E080E0089581E080930201CD
:1025F0002FB7F8948091E2019091E301A091E4015A
:10260000B091E5012FBF8093BC019093BD01A093D1
:10261000BE01B093BF01089508950895AF92BF928F
:10262000CF92DF92EF92FF920F931F93CF93DF939E
:10263000EC0184E00E945F11882339F0EA81FB817C
:10264000309719F090E080E0099588E00E945F11D2
:102650008823F1F0ED81FE8180A191A10297C1F064
:1026600080E090E0A0EAB0EC808B918BA28BB38BE2
:10267000178A168A158A148A82E090E091A380A3B3
:102680008485958597838683868D978D918F808F9E
:10269000A0900001B09001018E01095F1F4F6801F9
:1026A000F12CE12C2B8D3C8DE216F306E4F4F601BF
:1026B000A191B1916F01109791F012968D919C911B
:1026C00013978A199B0913969C938E931297ED91F9
:1026D000FC9111970480F581E02DCD010995FFEF64
:1026E000EF1AFF0ADFCFED81FE818489958901967B
:1026F000958B848B408D518D8417950774F0868956
:1027000097890196978B868B468157818417950709
:1027100014F0178A168A158A148A84A195A14C97F9
:10272000D1F562A173A150E040E042175307FCF4D9
:10273000E801A991B9918E011097B1F01A968D9187
:102740009C911B97892B81F412968D919C911397E4
:10275000681779074CF016960D90BC91A02D8A0F42
:102760009B1F86179707BCF44F5F5F4FDECF178A1A
:10277000168A158A148A83E090E091A380A3848549
:10278000958597838683868D978D918F808F109204
:10279000010110920001DF91CF911F910F91FF90E5
:1027A000EF90DF90CF90BF90AF900895CF93DF93DD
:1027B000EC0188E00E945F118823E9F0EA81FB8147
:1027C0003097C9F08091B8019091B901880F991F95
:1027D000A091BA01B091BB01A80FB91F8D919C9136
:1027E000A0918F06B091900615969C938E931497A6
:1027F00082E090E0099580E40E945F11882369F0EF
:102800008091B8019091B901843091050CF040C0DD
:1028100001969093B9018093B80180E20E945F1104
:10282000882361F08091B8019091B90118161906BA
:10283000A4F501979093B9018093B8018091B801F4
:102840009091B901880F991FE091BA01F091BB01F5
:10285000E80FF91F0190F081E02D84899589019698
:10286000958B848B208D318D8217930774F0868928
:1028700097890196978B868B2681378182179307DC
:1028800014F0178A168A158A148ADF91CF91089559
:102890001092B9011092B801C0CF84E090E0CACF85
:1028A000FC0173836283089508950895089508953F
:1028B0000C94B21FFB0101900020E9F73197AF01A2
:1028C000461B570BDC01ED91FC910280F381E02D5A
:1028D0000994CF92DF92EF92FF920F931F93CF93C1
:1028E000DF938B0144E15DE070E060E090E080E028
:1028F0000E943D118FB7F8944091E2015091E3019D
:102900006091E4017091E5018FBF8091BC019091CD
:10291000BD01A091BE01B091BF016A017B01C81A3F
:10292000D90AEA0AFB0AD701C601843F9140A105F2
:10293000B10570F08091020191E089278093020136
:102940004093BC015093BD016093BE017093BF01E1
:10295000C0E1D0E020E04CE065E370E0CE010E94F1
:102960006F122196C037D105A9F727E030E041E08A
:1029700067E370E08FE690E00E94981227E030E075
:1029800042E067E370E080E190E00E94981240E648
:1029900065E370E080E190E00E94D20B21E048E026
:1029A00067E370E08EE090E00E946F1221E048E063
:1029B00067E370E081E790E00E946F1241E067E317
:1029C00070E080E190E00E948B1142E067E370E0EC
:1029D0008FE690E00E948B1144E06EE370E08FE69A
:1029E00090E00E948B1148E06EE370E080E190E09F
:1029F0000E948B11809102018823C9F081E190E04F
:102A00009093DC018093DB0187E390E09093DE01FB
:102A10008093DD0167E871E0C801DF91CF911F91DC
:102A20000F91FF90EF90DF90CF900C945A14DF91AC
:102A3000CF911F910F91FF90EF90DF90CF9008956D
:102A4000CF93DF93EC0188E00E945F118823A9F007
:102A500068E971E088EF95E00E945A1469EA71E034
:102A600088EF95E00E945A14EA81FB81309729F0A3
:102A700081E090E0DF91CF910994DF91CF910895AB
:102A80004F925F926F927F928F929F92AF92BF927E
:102A9000CF92DF92EF92FF920F931F93CF93DF932A
:102AA000CDB7DEB7A1970FB6F894DEBF0FBECDBF8E
:102AB0005C018B01DC011696CD90DC90C60166E0CE
:102AC00070E00E9449214B010D2C000CEE08FF081C
:102AD000F7FE59C0D801ED91FC910190F081E02DF5
:102AE0006DE2C801099522273327A9012C193D0958
:102AF0004E095F0919A2FE01B1967F019AE0492EA5
:102B0000512C612C712CCA01B901A30192010E94C0
:102B1000E71F605DD7016E937D01211531054105E9
:102B2000510589F7E114F10421F0B701C8010E94B1
:102B30005A1469EA71E0C8010E945A1486E0889D1F
:102B40007001899DF00C112410E000E0F5018681F0
:102B500097810817190794F56481758182819381A3
:102B60004CEB50E00115110549F0800F911F44EB2B
:102B700050E0E016F10611F04CEA50E00E943D11E1
:102B80000A5F1F4FE3CFA701960119A2FE01B1967C
:102B90007F018AE0482E512C612C712CCA01B901A9
:102BA000A30192010E94E71F605DD7016E937D0132
:102BB000211531054105510589F7B4CFA1960FB60E
:102BC000F894DEBF0FBECDBFDF91CF911F910F9163
:102BD000FF90EF90DF90CF90BF90AF909F908F903D
:102BE0007F906F905F904F900895CF92DF92EF9219
:102BF000FF920F931F93CF93DF93EC017B016C0146
:102C000087E0C80ED11C10E000E08B8D9C8D08176A
:102C100019078CF4D6018D919D916D01009741F0BB
:102C2000DC01ED91FC910680F781E02DB70109955B
:102C30000F5F1F4FEACF8D819E810E948110E0912E
:102C40008F06F09190060480F581E02D66A177A1B2
:102C50006115710519F0C7010E945A14A0918F06E1
:102C6000B09190061496CD91DC9115978EA19FA1FD
:102C7000FC0101900020E9F73197E81BF90B86E091
:102C80008E9F80018F9F100D1124E8A4F9A4129645
:102C9000CD90DC90D0E0C0E0CE15DF0584F44CE0B0
:102CA0005DE0CC15DD0514F044E05DE070E060E02F
:102CB000C8010E943D110A5F1F4F2196EDCFDF91A1
:102CC000CF911F910F91FF90EF90DF90CF900895DB
:102CD000CF93DF93CB012091B8013091B901220F3E
:102CE000331FE091BA01F091BB01E20FF31F019095
:102CF000F081E02D66A177A1FB0101900020E9F7AA
:102D00003197E61BF70B46E04E9F90014F9F300D29
:102D1000112437FF02C02F5F3F4F3595279531951E
:102D200021953109205C3F4F3093DC012093DB017A
:102D30001092DE011092DD016115710511F00E9403
:102D40005A148091B8019091B901880F991FE091B0
:102D5000BA01F091BB01E80FF91F808191810E94B7
:102D60008110D0E0C0E04CEC5CE06CE370E0CE01A0
:102D70000E943D112696CE37D105A9F7DF91CF915C
:102D80000895CF93DF93EC0182E090E090930101EE
:102D900080930001A0918F06B09190061496ED915A
:102DA000FC911597FE83ED8313A212A28CE190E0B3
:102DB00095A384A397878687178A168A158A148A0B
:102DC00081E090E091A380A3828593859783868399
:102DD000848D958D918F808F80A591A513969C935E
:102DE0008E931297FE013796CE014B961192119257
:102DF0008E179F07D9F71C8E1B8E8CE390E00E94E4
:102E00007721FC01138212828CE390E09583848306
:102E100080E990E09783868381E090E091878087C6
:102E20008AE291E091838083DF011C96CF01CC96EA
:102E30005A2F4B2F1D921D928A179B07D9F7138685
:102E4000128624ED3CE0652F742FD9014D915D91E0
:102E50009D01DB014D935D93BD01A817B907A9F74B
:102E6000F887EF8381E090E09C8F8B8FDF91CF918B
:102E700008952F923F924F925F926F927F928F921E
:102E80009F92AF92BF92CF92DF92EF92FF920F93F9
:102E90001F93CF93DF938AE090E00E947721909375
:102EA000BB018093BA01912C812C30E3232E312C6D
:102EB000CCE1D0E043E0442E512C02E010E059E098
:102EC000652E712CEE24E394F12C7AE0C72ED12CE0
:102ED000A090BA01B090BB018AE290E08114910405
:102EE00009F055C00E947721FC01108A118A128ACC
:102EF000138A33A222A2D5A3C4A3D787C687178A71
:102F0000168A51A640A68AE191E0918380838CEADB
:102F100091E097A386A386EC95E09383828384EC6B
:102F200090E0958384831187008773866286F58697
:102F3000E486D38EC28EA6E0B0E0B58FA48FF78E64
:102F4000E68E158A148A11A210A217830683D18EE9
:102F5000C08ED501ED93FC93BFEF8B1A9B0A85E0E1
:102F60008816910409F0B4CFDF91CF911F910F9192
:102F7000FF90EF90DF90CF90BF90AF909F908F9099
:102F80007F906F905F904F903F902F9008950E9498
:102F90007721FC01108A118A128A138A33A222A295
:102FA000D5A3C4A3D787C687178A168A51A640A679
:102FB00082E291E091838083A2EBB1E0B7A3A6A364
:102FC0008AEC9BE093838283A8ECB6E0B583A4836C
:102FD0001187008773866286F586E486D38EC28E5B
:102FE00086E090E0958F848FF78EE68E158A148A9E
:102FF00011A210A217830683D18EC08EC401880F40
:10300000991FA80EB91EA5CFCF93DF93EC01809135
:10301000DF019091E001DC01ED91FC910084F185EC
:10302000E02D0995C130D10581F028F02297B9F043
:10303000DF91CF91089589E796E09093E001809326
:10304000DF01DF91CF910C94F51285E796E0909324
:10305000E0018093DF01DF91CF910C94391788E56F
:1030600096E09093E0018093DF01DF91CF910C9483
:10307000C1160C941322CF93DF93D0E0C0E0E0910F
:10308000BA01F091BB01EC0FFD1F80819181009787
:1030900039F0DC01ED91FC910280F381E02D09957E
:1030A0002296CA30D10559F78091BA019091BB019F
:1030B000009721F0DF91CF910C941322DF91CF91F3
:1030C00008950C9413220C9413220C9413221F9233
:1030D0000F920FB60F9211242F933F938F939F93CC
:1030E000AF93BF938091E2019091E301A091E4013D
:1030F000B091E5013091E10123E0230F2D3758F520
:103100000196A11DB11D2093E1018093E2019093EE
:10311000E301A093E401B093E5018091E601909171
:10312000E701A091E801B091E9010196A11DB11D4F
:103130008093E6019093E701A093E801B093E90141
:10314000BF91AF919F918F913F912F910F900FBEA3
:103150000F901F90189526E8230F0296A11DB11D10
:10316000D2CF1F920F920FB60F9211248F939F937D
:103170008091E1009091E100937F9093E10083FFC3
:103180000FC01092E90091E09093EB001092EC00D8
:1031900092E39093ED001092F70198E09093F00085
:1031A00082FF22C093E09093E9009091F20099236E
:1031B00019F09AE39093E8009091D101992341F09E
:1031C0009091D10191509093D101911101C05D9ADC
:1031D0009091F601992341F09091F60191509093CE
:1031E000F601911101C0289A84FF18C08091E20075
:1031F0008E7E81608093E2008091E1008F7E8093DB
:10320000E1008091D2018E7E80618093D2019F91F6
:103210008F910F900FBE0F901F90189580FFF7CFE2
:103220008091E2008E7E80618093E2008091E100D7
:103230008E7E8093E1008091D2018E7E8160E5CF09
:103240001F920F920FB60F921124CF92DF92EF923E
:10325000FF920F931F932F933F934F935F936F931F
:103260007F938F939F93AF93BF93EF93FF93CF93EE
:10327000DF93CDB7DEB76C97DEBFCDBF1092E9000C
:103280008091E80083FF25C068E0CE0145960E944A
:10329000440D82EF8093E8008D8987FF39C09091BB
:1032A000E80090FFFCCF982F907609F034C19E89FA
:1032B0004F89588D2F89F88C911131C0803861F574
:1032C0008091D3018093F1001092F1008EEF8093F2
:1032D000E8006C960FB6F894DEBF0FBECDBFDF914D
:1032E000CF91FF91EF91BF91AF919F918F917F917E
:1032F0006F915F914F913F912F911F910F91FF908F
:10330000EF90DF90CF900F900FBE0F901F90189509
:103310009EEF9093E800C7CF1092F100D5CF913087
:1033200059F48111D3CF4130510581F68091D301F9
:103330008D7F8093D301CACF933049F48111C6CFDA
:103340004130510519F68091D3018260F2CF95305A
:1033500041F48091E80080FFFCCF20682093E300D7
:10336000B5CF963009F0A9C00B8D1C8D22E01092CC
:10337000E9001092CF011092CE01F2122EC01092ED
:10338000CD011092CC010E94130D1F8299E0998308
:10339000FA8291E09E8390EA98879AEF998720912C
:1033A000CE013091CF01275F3F4F3C832B838D832C
:1033B0001092E9001092CF011092CE011093CD012E
:1033C0000093CC0149E050E0BE016F5F7F4F80E089
:1033D0000E94ED0C0E94130D79CF1093CD01009344
:1033E000CC010E94530CDC0112960D911C91011529
:1033F000110509F451C1D801ED91FC910480F581CA
:10340000E02DBE016B5E7F4FC8010995009709F062
:103410003EC1F80100851185EACFF3E0FF120EC02E
:103420008F89882309F440C0823061F440E860E16C
:103430008AE796E10E94541C811148CF81E2809373
:10344000EB0047CF813029F440E86BE08EE696E14F
:10345000F1CF833099F70E94530CDC011296ED9066
:10346000FC908E010F5F1F4F6801E114F10479F0A9
:10347000D701ED91FC910680F781E02DB801C701DD
:103480000995080F111DF701E084F184EECFD801F2
:103490001C92F60101900020E9F73197BF016C19E9
:1034A0007D0940E0C601C6CF68E576E1FB014491A5
:1034B00050E080E80E94ED0C09CF973009F4BECFB0
:1034C000983021F481E08093F10000CF993009F029
:1034D000FDCE837009F0B2CFE3E3F1E081E031E0AB
:1034E00096E32191222371F08093E9003093EB0061
:1034F000DF0111972C912093EC009093ED008F5FEA
:10350000873079F78EE78093EA001092EA008F897E
:103510008093F701DBCE8B8D9C8D1092E900109289
:10352000CF011092CE019093CD018093CC01898D73
:10353000811192C08E899D89913A49F4813209F0B6
:103540007DCF47E050E067E071E080E0B3CF91329B
:1035500009F074CF833269F48F89988DB0E0A0E0D0
:103560008093030190930401A0930501B093060199
:10357000ADCE803269F48091E80082FFFCCF67E035
:1035800087E091E00E94440D8BEF8093E8009ECE8F
:10359000823209F09BCE8F8980930E01EEEFFFE718
:1035A000859194918B3F9C4D51F1E0E0F8E0809142
:1035B000070190910801A0910901B0910A01803B97
:1035C0009440A105B105F1F480910E0180FD1AC06F
:1035D000EE3F8AE0F80789F587E797E791838083D4
:1035E000809160008093D00188E19BE00FB6F89451
:1035F000A895809360000FBE9093600067CEEEEFB9
:10360000FAE0D5CF808191818737974709F05ECE68
:10361000A895809160008861809360008091D001BE
:1036200080936000EE3F2AE0F20789F08091FE0A65
:103630009091FF0A9183808349CE80819181873761
:10364000980751F29093FF0A8093FE0AC5CF10921B
:10365000FF0A1092FE0A3ACE0E94530CDC01129629
:103660000D911C910115110509F4E8CED801ED91D9
:10367000FC910190F081E02DBE016B5E7F4FC8018F
:103680000995811123CEF80100851185EBCF18161D
:1036900019060CF41BCED2CEF1E0FF12BECE6CE5C3
:1036A00076E104CF1F920F920FB60F921124CF92A2
:1036B000DF92EF92FF922F933F934F935F936F931D
:1036C0007F938F939F93AF93BF93CF93DF93EF93AA
:1036D000FF938091C8019091C901A091CA01B09156
:1036E000CB01892B8A2B8B2B09F446C08091C70113
:1036F00081110BC088B190E4892788B98091C601F7
:10370000882319F088B1805888B98091C8019091B8
:10371000C901A091CA01B091CB01181619061A0669
:103720001B069CF48091C8019091C901A091CA0127
:10373000B091CB010197A109B1098093C801909381
:10374000C901A093CA01B093CB01FF91EF91DF9122
:10375000CF91BF91AF919F918F917F916F915F9129
:103760004F913F912F91FF90EF90DF90CF900F906E
:103770000FBE0F901F9018950E94840E811520E8AF
:10378000920761F4809171008D7F80937100109297
:103790009100469847981092C501D7CF21E0209319
:1037A000C501813020E8920731F41092C4011092D3
:1037B000C3010E94840E97FD05C02091C2012223FF
:1037C00009F454C02091C101211150C021E020937F
:1037D000C601EC01DF77209709F04BC081E08093B0
:1037E000C70146983FE9C32E3FE0D32EE12CF12CD0
:1037F000CAEFD0E0E0915606F09157060995811185
:1038000003C081E08093C7018091C601882329F01D
:103810008091C701882309F43FC047980E94840E15
:103820000097F1F19C01DE010E940920DC01CB012F
:1038300029E0B595A795979587952A95D1F7109288
:1038400090002AE020939100D0929900C0929800B5
:103850008093C8019093C901A093CA01B093CB0192
:10386000809171008260809371006FCF1092C601C9
:10387000B0CF9E0150E040E060E472E48FE090E061
:103880000E94C81F69017A0181E0C81AD108E108C5
:10389000F1081092C701AECF4699BFCF479ABECF6D
:1038A0008FEF9FEFDC01CBCFEF92FF920F931F932F
:1038B000CF93DF93F82E192FE62E042F81E0860F89
:1038C000880F0E94BF0C83E00E94BF0CCF2DD12F28
:1038D000EC0EFD2EF11CCE15DF05B9F007FF13C06D
:1038E000FE0184910E94BF0C182F80E00E94BF0C43
:1038F000812321968111EFCFDF91CF911F910F91FD
:10390000FF90EF9008958881EDCF81E0F5CF109280
:10391000FB051092FA0588EE93E0A0E0B0E08093FA
:10392000FC059093FD05A093FE05B093FF0583E48D
:1039300091E09093F9058093F8058FEF9FEF9093B6
:103940000506809304061092800610927F068FE78A
:1039500091E090937E0680937D068FEC9BE09093A0
:1039600057068093560680E090E890935506809322
:10397000540646983E9A47983F9A81E791E0909383
:103980007A068093790683E691E090937606809399
:10399000750685E591E09093590680935806EFE50A
:1039A000F6E01192119286E0E337F807D1F7109212
:1039B00074061092730680918706811103C081E01E
:1039C0008093870681E896E09093900680938F0617
:1039D0000895789484B5826084BD84B5816084BD87
:1039E00085B5826085BD85B5816085BD80916E009D
:1039F000816080936E0010928100809181008260CE
:103A0000809381008091810081608093810080910A
:103A1000800081608093800080919100826080931B
:103A2000910080919100816080939100809190003D
:103A30008160809390008091C10084608093C10078
:103A40008091C10082608093C1008091C10081603B
:103A50008093C1008091C30081608093C3008091F6
:103A6000C00082608093C0008091C200816080931A
:103A7000C20080917A00846080937A0080917A00FD
:103A8000826080937A0080917A00816080937A00CE
:103A900080917A00806880937A001092F7011092EA
:103AA000D3011092D2018091D70081608093D7001A
:103AB00080EA8093D80089B5806189BD89B582602C
:103AC00089BD09B400FEFDCF61E070E080E090E0C8
:103AD0000E948C0C8091D8008F7C80618093D800EC
:103AE0008091E000807F8093E0008091E1008E7EF5
:103AF0008093E1008DE08093E200559A209A8FEF49
:103B00009FEF909305068093040681EC80937C00E0
:103B100085B1806F85B984B1877E84B984B1876EA1
:103B200084B95E9A5F988AB1806D8AB9769A6E98E8
:103B300081B3806F81BB899880B38D7080BB80E535
:103B40008CBD81E08DBD85E090E00E9452115F9AAE
:103B500085E090E00E9452115E985C98EBE3F7E1FB
:103B600088E497E124912EBD00000DB407FEFDCF3F
:103B700031968E179F07B1F75C9A81E880936400B5
:103B8000809165008160809365000E946A110E94A7
:103B9000571187FF15C05C9885EA8EBD00000DB4F3
:103BA00007FEFDCF5C9A2E982F982D988091640087
:103BB00080628093640081E083BF889513BEFCCF50
:103BC0000E94571182FF48C02D980E945711847897
:103BD0008438E1F40E94501188EC90E00E94521168
:103BE0002F9882E090E00E94B21F8F3F29F06FEF84
:103BF00082E090E00E94BA1F84EF91E00E9452118F
:103C00002F9A0E94571184788438D9F30E94571153
:103C100084718431E1F40E94501188EC90E00E949C
:103C200052112E9882E090E00E94B21F882329F062
:103C300060E082E090E00E94BA1F84EF91E00E9471
:103C400052112E9A0E94571184718431D9F388EC55
:103C500090E00E945211B4CF0E94501182E090E097
:103C60000E945814882309F461C03E9A3F9A81E06B
:103C70008093D40181E090E00E945814282F247092
:103C8000922E81FF10C021112E98C1EFDFEF08E0C6
:103C900010E078E5872E0E94571186FF4CC02E9ABF
:103CA0002F9A0E94501182E390E00E9452110E94CC
:103CB00057118111F8CF80E180930F01C9E3D1E062
:103CC00089919991DC01ED91FC910680F781E02DBD
:103CD00064E078E10995B1E0CF33DB0789F789E744
:103CE00096E09093E0018093DF010E94F512FF249B
:103CF000F39408EF11E0C0E0D0E0EE24E3948FB736
:103D0000F8944091E2015091E3016091E4017091D7
:103D1000E5018FBF8091D701882309F4CDC01092AF
:103D2000D701209761F30E940000E9CF1092D401DF
:103D30003E983F989FCF992029F0C430D10511F4C7
:103D40002E9A2F9881E00E94090C9E01D7FF04C093
:103D5000222733272C1B3D0B27703327CE01D7FD9D
:103D6000079663E0959587956A95E1F7D7FF05C0BB
:103D70000197A801421B530B9A01BC017695762F3F
:103D800066277795679568507E4FF12CE12C3801B6
:103D9000621A730A8E3F5FEF950709F43DC08E9C4F
:103DA000D0018F9CB00D112450E040E0A557B94ED2
:103DB0005B01E0E8AE0EB11C8F3F980791F0FD016A
:103DC000E40FF51FE4916B01C40ED51EF0E02F0146
:103DD000022E01C0440C0A94EAF7F60154884528E3
:103DE000448A2115310599F0FD01E40FF51FE49196
:103DF0006501C40ED51EF0E02F01062C02C05594BB
:103E000047940A94E2F7F60154884528448A4F5FA4
:103E10005F4F4835510581F6019660587F4FEA940F
:103E2000EF2809F045C00E946A118FE090E00E94DF
:103E300052112196C931D10509F02DCF992011F0E9
:103E40002F9A2D9880E991E00E9452110E94501102
:103E500081E090E00E94581480FF25CF8AE090E036
:103E60000E9458149FEF980F9E3F08F01CCF22E34A
:103E700030E03093DC012093DB0128E330E0309325
:103E8000DE012093DD01CBE0D0E0682F8DE796E0E6
:103E90000E940C12CE010E9458142196C131D10506
:103EA000A1F70E946A1188EE93E00E945211FBCEA6
:103EB000EE24E394F12C6ECF9091D801E42FE91B0E
:103EC0009E2F20910F01E21740F49F5F921708F098
:103ED00028CFF3BE889513BE24CFE092D70140933C
:103EE000D8012091D5013091D6012F5F3F4F3093FB
:103EF000D6012093D501F80181118FEF0024819321
:103F00008193819381930394D1F71092DE011092F3
:103F1000DD011092DC011092DB018091DA018093C7
:103F2000D9010E9457118093DA018091DF019091AD
:103F3000E001DC01ED91FC910280F381E02D6DE761
:103F400076E009958091DF019091E001DC01ED912F
:103F5000FC910480F581E02D6DE776E009950E94E3
:103F60006A11DFCEF999FECF92BD81BDF89A9927EB
:103F700080B50895262FF999FECF1FBA92BD81BD55
:103F800020BD0FB6F894FA9AF99A0FBE01960895DB
:103F9000052E97FB1EF400940E94DF1F57FD07D0EB
:103FA0000E94E71F07FC03D04EF40C94DF1F5095CE
:103FB0004095309521953F4F4F4F5F4F0895909515
:103FC0008095709561957F4F8F4F9F4F0895A1E227
:103FD0001A2EAA1BBB1BFD010DC0AA1FBB1FEE1F83
:103FE000FF1FA217B307E407F50720F0A21BB30BCE
:103FF000E40BF50B661F771F881F991F1A9469F74A
:1040000060957095809590959B01AC01BD01CF01A5
:104010000895A29FB001B39FC001A39F700D811DA1
:104020001124911DB29F700D811D1124911D0895C1
:104030005058BB27AA270E9430200C940F210E94C1
:10404000012138F00E94082120F039F49F3F19F433
:1040500026F40C94FE200EF4E095E7FB0C94F82077
:10406000E92F0E94202158F3BA17620773078407CB
:10407000950720F079F4A6F50C9442210EF4E09512
:104080000B2EBA2FA02D0B01B90190010C01CA0112
:10409000A0011124FF27591B99F0593F50F4503EBD
:1040A00068F11A16F040A22F232F342F4427585FAF
:1040B000F3CF469537952795A795F0405395C9F7C7
:1040C0007EF41F16BA0B620B730B840BBAF091507F
:1040D000A1F0FF0FBB1F661F771F881FC2F70EC01E
:1040E000BA0F621F731F841F48F4879577956795F1
:1040F000B795F7959E3F08F0B0CF9395880F08F0DD
:104100009927EE0F9795879508950E948C206894C3
:10411000B1110C94432108950E94282188F09F57E3
:1041200098F0B92F9927B751B0F0E1F0660F771FDB
:10413000881F991F1AF0BA95C9F714C0B13091F0D1
:104140000E944221B1E008950C944221672F782FFC
:104150008827B85F39F0B93FCCF386957795679596
:10416000B395D9F73EF490958095709561957F4F02
:104170008F4F9F4F0895E89409C097FB3EF49095A8
:104180008095709561957F4F8F4F9F4F9923A9F030
:10419000F92F96E9BB279395F695879577956795BF
:1041A000B795F111F8CFFAF4BB0F11F460FF1BC003
:1041B0006F5F7F4F8F4F9F4F16C0882311F096E996
:1041C00011C0772321F09EE8872F762F05C0662344
:1041D00071F096E8862F70E060E02AF09A95660FFD
:1041E000771F881FDAF7880F9695879597F90895B6
:1041F00097F99F6780E870E060E008959FEF80EC9A
:10420000089500240A94161617061806090608953C
:1042100000240A9412161306140605060895092EA2
:104220000394000C11F4882352F0BB0F40F4BF2B11
:1042300011F460FF04C06F5F7F4F8F4F9F4F089551
:1042400057FD9058440F551F59F05F3F71F0479547
:10425000880F97FB991F61F09F3F79F0879508952C
:10426000121613061406551FF2CF4695F1DF08C04B
:10427000161617061806991FF1CF86957105610568
:1042800008940895E894BB2766277727CB0197F910
:10429000089597FB072E16F4009407D077FD09D0F8
:1042A0000E945D2107FC05D03EF4909581959F4FBB
:1042B0000895709561957F4F0895AA1BBB1B51E12E
:1042C00007C0AA1FBB1FA617B70710F0A61BB70B86
:1042D000881F991F5A95A9F780959095BC01CD012B
:1042E0000895EE0FFF1F0590F491E02D09940F93B0
:1042F0001F93CF93DF938230910510F482E090E01A
:10430000E0919306F091940630E020E0B0E0A0E068
:10431000309799F42115310509F44AC0281B390B4F
:1043200024303105D8F58A819B816115710589F1A9
:10433000FB0193838283FE0111C040815181028180
:10434000138148175907E0F04817590799F4109757
:1043500061F012960C93129713961C933296CF012C
:10436000DF91CF911F910F910895009393061093C1
:104370009406F4CF2115310551F04217530738F058
:10438000A901DB019A01BD01DF01F801C1CFEF01F5
:10439000F9CF9093940680939306CDCFFE01E20F60
:1043A000F31F819391932250310939832883D7CF0A
:1043B0002091910630919206232B41F42091120115
:1043C00030911301309392062093910620911001B1
:1043D000309111012115310541F42DB73EB74091BF
:1043E000140150911501241B350BE0919106F091B9
:1043F0009206E217F307A0F42E1B3F0B281739078C
:1044000078F0AC014E5F5F4F2417350748F04E0F30
:104410005F1F5093920640939106819391939FCF93
:10442000F0E0E0E09CCFCF93DF930097E9F0FC0150
:10443000329713821282A0919306B0919406ED01F7
:1044400030E020E01097A1F420813181820F931F8A
:1044500020919106309192062817390709F061C022
:10446000F0939206E0939106DF91CF910895EA01CF
:10447000CE17DF07E8F54A815B819E0141155105A2
:10448000B1F7E901FB83EA8349915991C40FD51F24
:10449000EC17FD0761F4808191810296840F951FCE
:1044A000E90199838883828193819B838A83F0E0E9
:1044B000E0E012968D919C9113970097B9F52D919C
:1044C0003C911197CD010296820F931F2091910686
:1044D000309192062817390739F6309751F5109226
:1044E000940610929306B0939206A0939106BCCFC7
:1044F000D383C28340815181840F951FC817D90788
:1045000061F44E5F5F4F88819981480F591F518335
:1045100040838A819B81938382832115310509F031
:10452000B0CFF0939406E09393069ECFFD01DC019B
:0C453000C0CF13821282D7CFF894FFCFC7
:10453C00020001FFFFFFFF00E1000000000000107F
:10454C00000095068000000000005714631800005E
:10455C0000005614391800000000541461180D1393
:10456C00401500C1808100000079067506580600D0
:10457C00000000030E7E0D240E190E6A0E280E4646
:10458C000E00000000C1160E13F51550140D13008B
:10459C000000003917D613681650143B18000000A1
:1045AC0000F5122015691450140C13000000000CB7
:1045BC0012510DF212F11250524553532041205416
:1045CC004F205354415254004120427574746F6E05
:1045DC002050726573736564000D0A004A4F4E419A
:0845EC00530048454E525900EE
:00000001FF
