:100000000C94F90E0C94210F0C94210F0C94210FD9
:100010000C94210F0C94210F0C94210F0C94210FA0
:100020000C94210F0C94210F0C94CE270C943D2896
:100030000C94210F0C94210F0C94210F0C94210F80
:100040000C94210F0C94210F0C94210F0C94210F70
:100050000C94210F0C94210F0C94210F0C948427E5
:100060000C94210F0C94210F0C94210F0C94210F50
:100070000C94210F0C94210F0C94210F0C94210F40
:100080000C946F2A0C94210F0C94210F0C94210FC7
:100090000C94210F0C94210F0C94210F0C94210F20
:1000A0000C94210F0C94210F0C94210F10200000B0
:1000B000000000000080000000000000000000C000
:1000C0000000C0F0FCFF3FBE38B0E000800000033D
:1000D0000E100103C7E8E8E8680827100F000000C9
:1000E00007040406002030101E000000000010204D
:1000F0000000000000000000000000000000000000
:1001000000003EFEFCFCFCF838383030E000000017
:10011000607010110307CFE8E8E968092720604004
:100120000000101F010302000000020202061C1062
:1001300000000000000000000000000000000000BF
:10014000000000F0FEFFFEFC3C383030E000000014
:10015000303818100307CFE8E8E968092730106045
:100160000000101F010302000000020202061C1022
:10017000102000000000000000000000000000004F
:100180000000000080C0F8FCFC3C0C2C082CF8009F
:100190000000000081C13307B73A3ABA9A02010061
:1001A0000000000001003806010000080403000000
:1001B000000010200000000000000000000000000F
:1001C000000000000000000080C0F8FCFC7C0C4C2B
:1001D000084CF00000000078CB0D051171783A1A38
:1001E0002A42413000000018080804010302021CE2
:1001F00010000000000000000000000000000000EF
:100200000000000000000080C0C0F0F0F8F818986E
:100210001098E0000000000070990B23E3F07434A4
:1002200094844300000000000030101A06040810F7
:10023000204040000000000000000000000000001E
:100240000000000000004060E0E0E0E0F0F030304E
:100250002030C0000000000000C12347C7E1E8696A
:10026000A80907000000000000001901645D1801E2
:10027000010000000000000000000000000000007D
:10028000000000000000008080C0E0F0F8F818983E
:100290001098E000000000000103B76743504424B9
:1002A000040403000000004060580C0602001A0E0F
:1002B0000600000000000000000000000000000038
:1002C000000000000000000080E0F8F8FC7C0C4C0E
:1002D000084CF000000000016357033329282A2A44
:1002E0002212010000000C040404060301000101B5
:1002F00006080000000000000000000000000000F0
:10030000000000000000203070F0F0F0F8F81898BD
:100310001098E0000000000000E001332350546416
:1003200024040300000000001808080C0700030E56
:100330001860400000000000000000000000000005
:10034000000000000000000070E0E0E0F0F030305D
:100350002030C0000000000000E1B38777E1E869C9
:100360002889070000000000000018090D46605CA5
:10037000000000000000000000000000000000007D
:1003800000000000000000000080E0F0F8F818987D
:100390001098E0000000000163F393237BF0F474F5
:1003A0001444430000000000006071580802122E3F
:1003B0000600000010200000000000000000000007
:1003C0000000000000004060E0F0F8FC7C0C4C08ED
:1003D0004CF0000000000000F0190111707A7A7AE8
:1003E0000AE18000000000000041780E03000003D5
:1003F0007E4003000000000000000000000000003C
:10040000000000000000103070F8F8FC7C0C4C0874
:100410004CF0000000000000F0180111707A7A7AA8
:100420000AE18000000000000041780E0300000394
:100430007E400300000000000000000000000000FB
:1004400000000000000040C0E0F0F8FC7C0C4C080C
:100450004CF0000000000000F1190111707A7A7A66
:100460000AE18000000000000041780E0300000354
:100470007E4003000000102000000000000000800B
:1004800000008000000000003EC0000039FFBF0FE8
:1004900007470747FE00F800000102000F5E5CDD21
:1004A000DDD95D01040701000000403C02010000AD
:1004B00000000001011E20001020000000000000CC
:1004C000008080808000000000000000001C7E5E34
:1004D00087838B838B7F0100C07C007CC781000FEA
:1004E0005E5CDCDCD85C00010100000000006018EC
:1004F0000F00000000300B0E000010200000000074
:1005000000000000000000000000000000000000EB
:10051000E0F0F83810B838B8F020000070D80808BB
:10052000007BF2E4E4E4C4E40360402000000060E7
:1005300020201A020A0A0A3A2000000000000000E7
:1005400000000000000000000000000000000000AB
:10055000E0F0F83810B838B8F020000000304888D3
:10056000007BF2E4E4E4C4E4032020100000000077
:10057000201012120A1A3662C080400000000000EB
:10058000000000000000000000000000000000006B
:10059000C0E0F07020707070E0400000000040A0EB
:1005A0001177E5C8C8C988C90700800000000000AD
:1005B0000101341515CDB505000100000000000053
:1005C000000000000000000000000000000000002B
:1005D000E0F0F83810B838B8F0200000000000C093
:1005E000B00BB264446444E4430000000000000027
:1005F00081C0A21A0A026632180000000000000042
:1006000000000000000000000000000000000000EA
:1006100070F87C1C085C1C5CF8100000000030586E
:10062000083D695A52525252111008000000180831
:1006300010100D05050303050C3820000000000014
:1006400000000000000000000000000000000000AA
:10065000E0F0F83810B838B8F020000000000030A2
:10066000006BD2B4A4444424230000000000001016
:100670000818121A0206060230C08040000000006E
:10068000000000000000000000000000000000006A
:10069000C0E0F07020707070E0400000000000C00A
:1006A000A1B755484849084907000000000000006C
:1006B0000030151514D5AD0D00000000000000003D
:1006C000000000000000000000000000000000002A
:1006D000E0F0F83810B838B8F02000000000709052
:1006E000184BFAF4E4E4C4E4038080000000004105
:1006F000A0908A020242222A10000000000000009E
:1007000000000000000000000000000000000000E9
:1007100070F87C1C085C1C5CF810000018240404B1
:10072000043979727272627201201C0000000C049C
:1007300008080D05050101050438200010200000FF
:1007400000000000000000000000000000000000A9
:100750000000E0F0F83810B838B8F02000000000D1
:1007600000F8007BF2E4E4E4C4E40330E0000000BD
:10077000000F0080FA02060606FA8003010000005E
:100780000000000000000000000000000000000069
:100790000000C0E0F07020707070E04000000000C9
:1007A000C07001E7E5C8C8C988C907E000000000BB
:1007B00003060CA0D5050D0D0DD5A00700001020D7
:1007C0000000000000000000000000000000000029
:1007D00000E00024FC381C580F0CACFE00000000A8
:1007E0000000030618113AFACACB7A11180E03005A
:1007F00000000020380C060200020301010704007B
:1008000010200000000000000000000000000000B8
:100810000000000000000080E0F0F06070F0F0E008
:100820008000402020202000E3E4E928CA080A07CD
:100830000100002010202130190B0B0B0804083098
:100840001800102000000000000000000000000060
:10085000000000000000000020F83C7C189C3CBC1C
:10086000F860400000806010100019FAFACA3A02DD
:1008700021201000000000000018080A02020604EF
:100880001810000000000000000000000000000040
:10089000000000000000000040F078F83038787860
:1008A000F0C080000000609090011AF4F495740587
:1008B00023100800000000000000180A0A020618B1
:1008C0006040000000000000000000000000000088
:1008D000000000000000000000C0E0E0C0E0E0E038
:1008E000C000000000000000810769D3D054D195FA
:1008F000CF030200000000000101012A0B6A510031
:1009000000000000000000000000000000000000E7
:100910000000000000000020F83C7C189C3CBCF863
:10092000604000000000000000615AAAAAAA2A0143
:1009300000000000000000006030180C06121408CF
:1009400000000000000000000000000000000000A7
:1009500000000000000000083E4F9F86A78FAF7E7A
:10096000181000000000000018240226AAAA080897
:100970000400000000000001030203010000010167
:100980000304000000000000000000000000000060
:10099000000000000000000080E0F0F06070F0F067
:1009A000E08000000000000040A39469888A884A23
:1009B00007010100000000001008101E020018606E
:1009C00040000000000000000000000000000000E7
:1009D00000000000000000000080C0C080C0C0C057
:1009E0008000000000000000028F5367E169E32BE4
:1009F0001F06040000000000013212100B6B4101C1
:100A000000000000000000000000000000000000E6
:100A10000000000000000020F83C7C189C3CBCF862
:100A20006040000000000040A0113AFACAFA0A3102
:100A30002000000000000000605008021A0A0400B4
:100A40000000000010200000000000000000000076
:100A500000000000000000000080E0F0F06070F096
:100A6000F0E08000000000000000A364E9E82A280C
:100A7000EA070101000000000000074C611B0B7B2E
:100A80004006000000000000000000000000000020
:100A90000000000000000000000000C0E0E0C0E036
:100AA000E0E0C000000000000000A167E9D31014DE
:100AB000D1150F03020000000000074C611B0B7BE7
:100AC00040060000000010200000000000000000B0
:100AD000000000000000000000FE0030E2F4783961
:100AE0009E0C185CF00038C000010E007BF2F4B4DC
:100AF00024A4650221201C03020E080C0406020037
:100B0000C2425C70000000001020000000000000E5
:100B10000000000000000000000000000000C0E035
:100B2000E07070703060E000000040A090007BF347
:100B3000F5B4A8AA680A2720121C000000000006CD
:100B400006120E040006120E000010200000000025
:100B50000000000000000000000000000000000095
:100B6000E0F0F03818580850F00000000060F0C0C5
:100B700035797A7A6A4A2A02613030000000000032
:100B8000301111050D0B1020400000000000000086
:100B90000000000000000000000000000000000055
:100BA000C0E0E07030B010A0E0000000000040E0C5
:100BB000B38335F4D4945484C3C000000000000013
:100BC0000109101202764000000000000000000041
:100BD0000000000000000000000000000000000015
:100BE000E0F0F03818580850F00000000000300025
:100BF0009D312A2A2232B20201000000000000606A
:100C000050190D05213318000000000000000000FD
:100C100000000000000000000000000000000000D4
:100C2000787CBC8E869682947C000000000C0E00BE
:100C30001F524C4C48CA280C060600000004040C45
:100C40000C06030100000103020E08000000000072
:100C50000000000000000000000000000000000094
:100C6000E0F0F03818580850F0000000000010388C
:100C700005513222424232320100000000001808C1
:100C80001811190D010B1830606000000000000001
:100C90000000000000000000000000000000000054
:100CA000C0E0E07030B010A0E00000000000C0E044
:100CB0003343F5F4D49414C4C300000000000001D1
:100CC0003111101A02764000000000000000000000
:100CD0000000000000000000000000000000000014
:100CE000E0F0F03818580850F00000000060F09074
:100CF00015417A7A6A0A42626100000000000161CF
:100D000070590501251B08000000000000000000CC
:100D100000000000000000000000000000000000D3
:100D2000787CBC8E869682947C000000001C1A039E
:100D30000D2CAF2E2C68000C080E060000000602D9
:100D400002030100000001030E0800001020000053
:100D50000000000000000000000000000000000093
:100D60000000C0E0E07030B010A0E000000000E043
:100D700030007BF3F5D494D4740403000000000722
:100D80000C00601A0206060600097302000000004B
:100D90000000000000000000000000000000000053
:100DA00000C0E0E07030B010A0E000000000E030D3
:100DB000007BF3F5D494D474040300000000070C06
:100DC00000007A0206060600091362000000000017
:100DD0000000000000000000000000000000000013
:100DE0000000E0F0F03818580850F000000000E073
:100DF000380801397A7A6A4A6A3A810000000001AB
:100E0000070060100D01030303007D0000000000D7
:100E100000000000000000000000000000000000D2
:100E200000E0F0F03818580850F00000000000F81A
:100E30000801397A7A6A4A6A3A81C00000000003E0
:100E40000600700D01030303000478000000102069
:100E50008000004090E05060607060406080000062
:100E6000001F204000DFE0A2A0A8A0A2209F806079
:100E70000000407008090307070703002424180036
:100E8000000314240808080810105090A020201017
:100E90001020000000000000000000000000000022
:100EA000000000000000F8FC3C7E0626060424F842
:100EB000000000C02010011D3D7A7A7A7A3A0221A2
:100EC000C0C004080804171504020202010101054C
:100ED00004001020000000000000000000000000DE
:100EE00000000000000000F8FC9E3E0E26060624CE
:100EF000F8000000003804008E1E3D3D3D3D9D8100
:100F0000101010100408282F0808080808080808FE
:100F10002F2808040000000000000000000000006E
:100F200000000000000000E0F078F83898181890F1
:100F3000E000000000E010033B7AF4F4F4F47404E1
:100F4000434040400810505C121010101010121254
:100F50005C501008000000000000000000000000CD
:100F60000000000000000000F0F83C7C1C4C0C0C61
:100F700048F00000007008001D3D797A7A7A3A0244
:100F8000222120200810505E111010101010111195
:100F90005E5010080000000000000000000000008B
:100FA0000000000000000000E0F078F83898181801
:100FB00090E0000000E010003B7BF2F4F4F47404D5
:100FC000444340400810505C1210101010101212D0
:100FD0005C5010080000000000000000000000004D
:100FE00000000000000000F8FC9E3E0E26060624CD
:100FF000F8000000003804008E1E3D3D3D3D9D81FF
:10100000101010100408282F0808080808080808FD
:101010002F2808040000000000000000000000006D
:1010200000000000000000E0F078F83898181890F0
:10103000E000000000E010033B7AF4F4F4F47404E0
:10104000434040400810505C121010101010121253
:101050005C5010081020000000000000000000009C
:10106000000000000000000000F0F83C7C1C4C0C6C
:101070000C48F0000000007008011D3D7A7A7A7A71
:101080003A02212020200810505E1110101010107C
:1010900011115E5010080000000000000000000068
:1010A00000000000000000000000E0F078F8389830
:1010B000181890E0000000E010003B7BF2F4F4F41C
:1010C0007404444340400810505C1210101010107B
:1010D00012125C50100810200000000000000000F8
:1010E000808080000000000000FC000078FC9C3E36
:1010F00006470747F800E03E00010304000EBE3D2E
:101100003D3DBD1D000F0100000000001E0100005C
:10111000000000011E000000102000000000000080
:1011200000000080808000000000000000000078C7
:10113000FC9C3E06170717F80000000000E01800AE
:101140000EBE3D3DBD3D1DC0380000000001004009
:10115000300F20100F0000010000102000000000E0
:10116000000000000000000000000000000000007F
:10117000C0E0E0F030303838C000000000C060301F
:1011800003F7F4E9E8E9E80987804000000001106E
:10119000180801010505081020408000000000002B
:1011A000000000000000000000000000000000003F
:1011B00080C0C0E06060707080000000000000C06F
:1011C00007EFE9D3D0D2D0120F00000000000001D9
:1011D000122233030BFB010001000000000000009D
:1011E00000000000000000000000000000000000FF
:1011F000C0E0E0F030303838C0000000000000C02F
:1012000003D7B4696869680907000000000000009E
:101210000080711D0521110C00000000000000007D
:1012200000000000000000000000000000000000BE
:10123000E0F070F818981C9CE000000000002050BE
:10124000013B6AD4D4D4D444430000000008080809
:10125000080808060200000206180000000000004E
:10126000000000000000000000000000000000007E
:10127000C0E0E0F030303838C0000000000000C0AE
:1012800003F7B469686968090700000000000010EE
:10129000180C050501010930E08000000000000085
:1012A000000000000000000000000000000000003E
:1012B00080C0C0E06060707080000000000000002E
:1012C000C7EFE9D3D0D2D0120F0000000000000019
:1012D00011233A0201F301020000000000000000A7
:1012E00000000000000000000000000000000000FE
:1012F000C0E0E0F030303838C000000000C02010FE
:101300000377F4E9E8E9E8090700000000000100BC
:10131000804030190121140D010000000000000080
:1013200000000000000000000000000000000000BD
:10133000E0F070F818981C9CE000000000300808ED
:10134000013B7AF4F4F4F4042330000000000004BC
:101350000C0808040000020206180000102000001B
:10136000000000000000000000000000000000007D
:10137000000080C0C0E060607070800000000080ED
:10138000C000E7EFC9D3D0D2D0128F00808002878F
:10139000C420100B0B030B0B09080911E18000009E
:1013A000000000000000000000000000000000003D
:1013B00000C0E0E0F030303838C00000000000C06D
:1013C000600377F4E9E8E9E8E907C080C0400183F9
:1013D000C23008050501050504040810E080FFFF80
:1013E000FF000000000417045D000000FF87FF00FD
:1013F00000000003480000000000FF83FF00000021
:10140000000160021B000000FFFFFF01420000031B
:10141000460000000001FFFFE1023A00000000006A
:101420000000000107FFFF01680000031500000035
:101430000002FF7FF002060000035D0000000002D2
:101440003FFEF800000000022602620000028FE367
:10145000F800000000011D0141016503FFFFFF01CD
:1014600022024200000000000003CFCCFC0000007C
:1014700000032F00000000030700F8000000000038
:1014800000000000000313100000F018CC242424F6
:101490002424CC081830E0800000007C023F60C7A4
:1014A000898B89898987808080603F021E70202017
:1014B000000000000000000000000000000000002C
:1014C000FF0000000000000000000000000000001D
:1014D000000000000000000000808080000000008C
:1014E000FF000000000000000000000000000000FD
:1014F0000000000000100804048448D07FC48282E9
:10150000EF705050901020C000000000000000005C
:1015100000000000000000000001030103010021A1
:10152000211E000003000000000000000000000079
:10153000060606090909090906060603030F07033B
:10154000060606070F010103060606070F1F0F0711
:1015500006060603011D0F070808007E81BDBD8138
:101560007E0006061E000000000006061E030105A0
:1015700001030606060301050103FFFFFF0000004B
:1015800000000000000000001C08301C07051D655D
:10159000C780003E23301C07202427253D1900303A
:1015A0001E0908781C076F1BF0000004FC2E0E2E8D
:1015B0000E1C78F8700000000000000080C0F07879
:1015C000783830F878F0400000000000000000009B
:1015D0000000F0F8387C0D2F0F2EF0000000000006
:1015E000000000000000F8FC3C7E0626060424F8FB
:1015F00000000000000000000000000080808080EB
:10160000000000000000000000000080808080805A
:10161000C0C0C0C080C00001070C18017272727295
:1016200072793D00041CF000000000000003050476
:101630006594F4F2F100901010102000000000C03A
:1016400030001D7D7A7A7A7A3A81700000000000BD
:101650000000C02010011D3D7A7A7A7A3A0221C03A
:10166000C000000000008000DE9FAFA34353415341
:101670003F0080E00000000000018183C74F1F1F72
:1016800087A0A4A0241F000030386CC1030303010D
:101690003DE08002030100000000040C1804020475
:1016A0000505050C181010081000000000000300CC
:1016B00080601F40201F00000300000000000000A9
:1016C00004080804171504020202010101050400C0
:1016D0000000000205040003B7371515454340819B
:1016E000010100000000008080070C80C011370756
:1016F000232160C4840000000000010000000000FD
:1017000000030700000000000000000000000000CF
:1017100000000000000000000000000000000000C9
:1017200000000000000000000000000000000000B9
:1017300000000000000000000000000000000000A9
:10174000000000000000040300000000000300008F
:101750000000000000000000010101000000000086
:1017600000000003750D7EFFFFFFE3E7C600FFFFEB
:10177000FFFF00FFFF00FFFFFFFFE3FF7E00FFFF13
:10178000FFFFE3E3E300FFFFFFFFE3FFFFBE000017
:101790000000000000FFFFFFFFE3FFFFBE0066AF99
:1017A000CFEF6600FFFFFFFF63FFFFBE00030303F1
:1017B000FFFFFFFF03030300FFFFFFFF60FFFFFFCB
:1017C00000FFFFFFFF03FFFFFE00FEFFFFFF63FFC1
:1017D000FFFE007F7FFFFFE0FF7F7F0C1C1C1818BF
:1017E0001F0F000F1F1F1F181F0F001F1F1F1F009D
:1017F0000000001F1F1F1F181818001F1F1F1F00A9
:101800001F1F1F000000000000001F1F1F1F181FC8
:101810001F0F00171B1D0E17001F1F1F1F001F1F6C
:101820001F000000001F1F1F1F000000001F1F1FC0
:101830001F001F1F1F001F1F1F1F181F1F0F001F2C
:101840001F1F1F001F1F1F0000001F1F1F1F000062
:101850001A050810100F000E11110E001F01011EB5
:10186000001E09091E0016151509000300000000DE
:10187000003E5B4F5B3E3E6B4F6B3E1C3E7C3E1C16
:10188000183C7E3C181C577D571C1C5E7F5E1C005C
:10189000183C1800FFE7C3E7FF0018241800FFE713
:1018A000DBE7FF30483A060E2629792926407F05D6
:1018B0000507407F05253F5A3CE73C5A7F3E1C1CEC
:1018C00008081C1C3E7F14227F22145F5F005F5FAC
:1018D00006097F017F006689956A60606060609498
:1018E000A2FFA29408047E040810207E201008089D
:1018F0002A1C08081C2A08081E101010100C1E0CA8
:101900001E0C30383E3830060E3E0E060000000039
:101910000000005F00000007000700147F147F1420
:10192000242A7F2A12231308646236495620500065
:1019300008070300001C2241000041221C002A1C51
:101940007F1C2A08083E080800807030000808083C
:101950000808000060600020100804023E5149455C
:101960003E00427F400072494949462141494D337A
:101970001814127F1027454545393C4A49493141E1
:10198000211109073649494936464949291E0000AF
:101990001400000040340000000814224114141404
:1019A0001414004122140802015909063E415D59F0
:1019B0004E7C1211127C7F494949363E41414122F9
:1019C0007F4141413E7F494949417F090909013E23
:1019D000414151737F0808087F00417F410020404A
:1019E000413F017F081422417F404040407F021C5C
:1019F000027F7F0408107F3E4141413E7F09090973
:101A0000063E4151215E7F0919294626494949323E
:101A100003017F01033F4040403F1F2040201F3F04
:101A20004038403F63140814630304780403615989
:101A3000494D43007F4141410204081020004141CB
:101A4000417F040201020440404040400003070877
:101A50000020545478407F28444438384444442873
:101A6000384444287F385454541800087E0902181A
:101A7000A4A49C787F0804047800447D40002040A2
:101A8000403D007F1028440000417F40007C0478E6
:101A900004787C080404783844444438FC1824242E
:101AA0001818242418FC7C080404084854545424AE
:101AB00004043F44243C4040207C1C2040201C3C2B
:101AC0004030403C44281028444C9090907C446422
:101AD000544C4400083641000000770000004136B5
:101AE000080002010204023C2623263C1EA1A1613B
:101AF000123A4040207A385454555921555579416D
:101B00002154547841215554784020545579400C43
:101B10001E52721239555555593954545459395524
:101B20005454580000457C410002457D4200014567
:101B30007C40F0292429F0F0282528F07C545545D4
:101B4000002054547C547C0A097F49324949493267
:101B50003248484832324A4848303A4141217A3A7C
:101B600042402078009DA0A07D39444444393D4046
:101B700040403D3C24FF2424487E4943662B2FFCF3
:101B80002F2BFF0929F620C0887E090320545479A1
:101B9000410000447D413048484A32384040227A72
:101BA000007A0A0A727D0D19317D2629292F2826EF
:101BB0002929292630484D402038080808080808F7
:101BC0000808382F10C8ACBA2F102834FA00007B50
:101BD000000008142A142222142A14089500220056
:101BE00095AA005500AAAA55AA55AA000000FF0010
:101BF000101010FF00141414FF001010FF00FF104D
:101C000010F010F0141414FC001414F700FF00007E
:101C1000FF00FF1414F404FC141417101F10101FFD
:101C2000101F1414141F00101010F0000000001FEB
:101C3000101010101F10101010F010000000FF10F6
:101C40001010101010101010FF10000000FF1400F2
:101C500000FF00FF00001F10170000FC04F4141424
:101C60001710171414F404F40000FF00F7141414F0
:101C700014141414F700F7141414171410101F1070
:101C80001F141414F4141010F010F000001F101F93
:101C90000000001F14000000FC140000F010F01001
:101CA00010FF10FF141414FF141010101F00000078
:101CB00000F010FFFFFFFFFFF0F0F0F0F0FFFFFF7C
:101CC0000000000000FFFF0F0F0F0F0F38444438D3
:101CD000447C2A2A3E147E02020606027E027E020E
:101CE00063554941633844443C04407E201E20062D
:101CF000027E020299A5E7A5991C2A492A1C4C726A
:101D000001724C304A4D4D303048784830BC625AF0
:101D1000463D3E494949007E0101017E2A2A2A2A80
:101D20002A44445F444440514A444040444A51405C
:101D30000000FF0103E080FF000008086B6B08361D
:101D400012362436060F090F06000018180000008E
:101D50001010003040FF0101001F01011E00191D7D
:101D60001712003C3C3C3C0000000000080B000245
:101D70000202000009040000010202000005240024
:101D800010010524010101042402060524060001B6
:101D90000705810310004009040100020A00000049
:101DA000070502024000000705830240000004030B
:101DB000090412010002EF020140412336800001B4
:101DC0000102030141726475696E6F204C4C43003F
:101DD00041726475696E6F204C656F6E6172646FDD
:101DE00000D5F08D14A1C881CFD9F1AF2000D02A41
:101DF0002F2D11241FBECFEFDAE0DEBFCDBF12E0E2
:101E0000A0E0B1E0ECEBF9E602C005900D92A2383B
:101E1000B107D9F727E0A2E8B2E001C01D92AC3EBD
:101E2000B207E1F71EE0C8EFDEE004C02197FE0133
:101E30000E94CE30C73FD107C9F70E94922B0C9465
:101E4000D1340C940000809195020895FC0180919A
:101E5000CE06882311F13FB7F89482E08093E90021
:101E60002091F200822F90E01816190614F481E0F8
:101E700090E0882339F0289844E64093CD064091BD
:101E8000F1004083222339F02091F200211103C098
:101E90002BE62093E8003FBF08958FEF9FEF089552
:101EA0002FB7F89483E08093E9009091E800892FA0
:101EB000807295FF04C09091F20080E4891B2FBFCF
:101EC00008958091C50681110DC082E08093C106FE
:101ED00084E08093C2061092C4061092C30681E08B
:101EE0008093C50681EC96E008953FB7F894809101
:101EF000BD069091BE06A091BF06B091C00626B562
:101F0000A89B05C02F3F19F00196A11DB11D3FBF31
:101F1000BA2FA92F982F8827BC01CD01620F711D00
:101F2000811D911D42E0660F771F881F991F4A95FA
:101F3000D1F708958F929F92AF92BF92CF92DF9286
:101F4000EF92FF926B017C010E94750F4B015C01C7
:101F5000C114D104E104F104B9F00E94750F6819AD
:101F600079098A099B09683E73408105910580F3D0
:101F700021E0C21AD108E108F10888EE880E83E05A
:101F8000981EA11CB11CE4CFFF90EF90DF90CF9082
:101F9000BF90AF909F908F90089565E070E080E0D3
:101FA00090E00C949A0FCF93C82F8091B606909131
:101FB000B706DC01ED91FC910084F185E02D0995D7
:101FC000C130C1F070F0C230D1F08091B60690916E
:101FD000B706DC01ED91FC910190F081E02DCF91ED
:101FE000099480913307909134079093B7068093BA
:101FF000B606EBCF8091310790913207F6CF8091F2
:102000002F0790913007F1CF4091A6025091A7027F
:102010002091A4023091A50242175307B4F4909185
:10202000E8009570E1F39091E80092FD19C080936B
:10203000F1008091A6029091A70201968F739927D3
:10204000892B19F48EEF8093E8008091A60290917D
:10205000A70201969093A7028093A60281E00895BB
:1020600080E00895EF92FF920F931F93CF93DF9339
:10207000F82E192FE62E042F81E0860F880F0E947C
:10208000041083E00E940410CF2DD12FEC0EFD2E02
:10209000F11CCE15DF05B9F007FF13C0FE018491D6
:1020A0000E940410182F80E00E94041081232196C2
:1020B0008111EFCFDF91CF911F910F91FF90EF90A2
:1020C00008958881EDCF81E0F5CFDF92EF92FF9206
:1020D0000F931F93CF93DF93D82E8A01EB017B01DF
:1020E000E40EF51ECE15DF0559F0D7FE12C0FE0135
:1020F00084910E94041021968111F4CF0FEF1FEFFD
:10210000C801DF91CF911F910F91FF90EF90DF9069
:1021100008958881EECF0F931F93CF93DF931F9283
:10212000CDB7DEB782E0898342E450E06CE67DE122
:1021300080E80E9465100E94610FDC0112960D91EB
:102140001C910115110589F0D801ED91FC910280D7
:10215000F381E02DBE016F5F7F4FC801099597FDA8
:1021600004C0F80100851185ECCF89810F90DF91C3
:10217000CF911F910F910895615030F02091F1009F
:10218000FC0120830196F8CF289884E68093CD0641
:102190000895AF92BF92CF92DF92EF92FF920F938A
:1021A0001F93CF93DF936C017B018B01040F151FED
:1021B000EB015E01AE18BF08C017D10759F0699155
:1021C000D601ED91FC910190F081E02DC6010995B9
:1021D000892B79F7C501DF91CF911F910F91FF9066
:1021E000EF90DF90CF90BF90AF9008958F929F9225
:1021F000AF92BF92CF92DF92EF92FF920F931F9315
:10220000CF93DF936C017B018A01809128018823A1
:1022100009F45CC08091CE06882309F457C08091F0
:10222000AA0280FF05C08091E00082608093E000F8
:10223000E801B12C8AEFA82E93E0892E2AE3922E92
:10224000209711F4BB20D9F10E94500F81110AC0D0
:10225000AA94AA20D9F161E070E080E090E00E94A9
:102260009A0FEECF8C171D0611F00CF08C2F9FB734
:10227000F8948092E9002091E80025FD02C09FBFFC
:10228000DFCF282F30E0C21BD30BF701815020F0A5
:1022900041914093F100FACFE20EF31EBB2021F0F2
:1022A0009092E800B12CEBCF8091E80085FDE7CF5C
:1022B0009092E800BB24B394209709F3F3CF5D9884
:1022C00084E68093A902101611063CF081E090E0AC
:1022D000F6019383828310E000E0C801DF91CF9183
:1022E0001F910F91FF90EF90DF90CF90BF90AF9034
:1022F0009F908F900895CF93DF931F92CDB7DEB755
:102300006983DC01ED91FC910280F381E02D41E0D5
:1023100050E0BE016F5F7F4F09950F90DF91CF9125
:10232000089583E08093E9008091F200882319F0FA
:102330008AE38093E80008950E94500F90E008958A
:10234000CF93DF931F92CDB7DEB7FC0184859585CF
:1023500097FD08C02FEF3FEF358724870F90DF915F
:10236000CF910895CE0101960E94260F019719F48E
:10237000898190E0F3CF8FEF9FEFF0CF0F931F9302
:10238000CF93DF931F92CDB7DEB78C01FC0184851C
:10239000958597FF0BC0CE0101960E94260F0197ED
:1023A00071F4898190E0F80195878487F80184852C
:1023B00095850F90DF91CF911F910F9108958FEF29
:1023C0009FEFF1CFFC018485958597FD0BC09FB7EA
:1023D000F89482E08093E9008091F2009FBF90E042
:1023E000019608959FB7F89482E08093E900809168
:1023F000F2009FBF90E0089520919D02E0919B0222
:10240000F0919C02CF01029690939C0280939B02D4
:10241000222319F0859194910895808191810895E6
:10242000CF92DF92EF92FF92CF93DF930E94FC1145
:10243000811520E8920791F4809171008D7F80933F
:102440007100109291004698479810929A02DF917D
:10245000CF91FF90EF90DF90CF90089521E02093EF
:102460009A02813020E8920751F48091980290916D
:10247000990290939C0280939B020E94FC1197FD0D
:1024800005C020919702222309F454C0209196029E
:10249000211150C021E020939E02EC01DF772097AC
:1024A00009F04BC081E080939F0246983FE9C32E1C
:1024B0003FE0D32EE12CF12CCAEFD0E0E0912D07C4
:1024C000F0912E070995811103C081E080939F024E
:1024D00080919E02882329F080919F02882309F42D
:1024E0003FC047980E94FC110097F1F19C01DE016A
:1024F0000E94592EDC01CB0129E0B595A79597954F
:1025000087952A95D1F7109290002AE020939100A8
:10251000D0929900C09298008093A0029093A1025B
:10252000A093A202B093A302809171008260809375
:1025300071008DCF10929E02B0CF9E0150E040E01E
:1025400060E472E48FE090E00E94052E69017A0158
:1025500081E0C81AD108E108F10810929F02AECFBD
:102560004699BFCF479ABECF8FEF9FEFDC01CBCF0D
:102570009C01E1E7F0E090819D7F908310929D02A5
:10258000EFE1F7E0F0939C02E0939B02F093990255
:10259000E0939802318320837383628380E090E824
:1025A000958384830C9410124F925F926F927F9266
:1025B0008F929F92AF92BF92CF92DF92EF92FF9253
:1025C0000F931F93CF93DF934C015901FC2DC02F24
:1025D000D0E0CE01880D991D181619060CF06CC0BC
:1025E00020E8821691040CF067C09B012E0D311D6E
:1025F000121613060CF060C0603471050CF05CC05C
:102600004115510509F458C0E62FE770FE2EDB0195
:1026100077FD179633E0B595A7953A95E1F73A2FF0
:1026200077FF04C0FF2011F03FEF3A0F66277727AE
:102630006819790997FC02C070E060E08038910564
:102640000CF44BC090E89819961BA32F032E000C96
:10265000BB0B1A2F10953F3F0CF010E021E08E2DA0
:10266000877009F420E0E694E694E694E20EAE0D5D
:10267000B11D19971CF028E0E22EE31AE11A310F80
:1026800020E83203D0011124A80DB91DA60FB71FF1
:10269000019F600D711D1124460F571F0F2D0F2C28
:1026A000000C110BF33009F41CC1C8F4F13009F42B
:1026B000D0C0F23009F47CC0DF91CF911F910F910F
:1026C000FF90EF90DF90CF90BF90AF909F908F9052
:1026D0007F906F905F904F900895902FB5CFFA3F05
:1026E000B1F1232F2E0DFB3F39F7321729F3BD012E
:1026F0006E547D4FD12CC12CC91608F0A4C0FA012C
:10270000EC0DFD1DE491F0E04F01002E02C0880C9D
:10271000991C0A94E2F737FD06C0FB018081E82C82
:10272000E0948E218083FF2061F0373054F45B0108
:10273000F0E8AF0EB11CE92CE094F50180818E2108
:102740008083FFEFCF1ADF0A6F5F7F4FD5CF232F34
:102750002E0D321709F4B0CFBD016E547D4FD12C30
:10276000C12CC91608F069C0FA01EC0DFD1DE491F9
:10277000F0E04F01002E02C0880C991C0A94E2F789
:1027800037FD04C0FB01808188298083FF2051F040
:10279000373044F45B01F0E8AF0EB11CF5018081E5
:1027A00089298083FFEFCF1ADF0A6F5F7F4FD9CF70
:1027B0006FEF70E00F2C02C0660F771F0A94E2F7EC
:1027C00060957095772E232F2E0D321709F474CF54
:1027D000FD01EE54FD4F6F01B12CA12CA91638F567
:1027E000FA01EA0DFB1DE491F0E02F01002E02C07A
:1027F000440C551C0A94E2F737FD05C0F6018081B0
:10280000862384298083FF2059F037304CF4460119
:10281000F0E88F0E911CF401808187218529808347
:10282000FFEFAF1ABF0A8FEFC81AD80AD7CF3F5FA2
:102830004C0F5D1FA058BF4FC8CF3F5F4C0F5D1FAF
:10284000A058BF4F86CF3F5F4C0F5D1FA058BF4FB2
:102850004CCF6A0D7B1D232F2E0D321709F42CCF80
:10286000FD01EE54FD4F6F01B12CA12CA91688F586
:10287000FB01EA0DFB1D8490912C002E02C0880CF8
:10288000991C0A94E2F780949094FA01EA0DFB1DDA
:102890006490712C002E02C0660C771C0A94E2F73B
:1028A00037FD05C0F6018081882186298083FF20BD
:1028B00049F037303CF4F601E058FF4F8081892120
:1028C00087298083FFEFAF1ABF0A8FEFC81AD80A93
:1028D000CDCF3F5F4C0F5D1F6C0F7D1FA058BF4FCA
:1028E000BCCFC92ED12CFA01E60FF71FAE54BD4F55
:1028F00000E810E00C191D09CC19DD09BE01660FB6
:10290000771F41E050E06A010F2C01C0CC0C0A9403
:10291000EAF7592F2E2D792ECF93DF93ED01EF9605
:10292000EF9622968590A590FF2059F08C9C40014F
:10293000AC9C500137302CF4E880B094EB20E928AF
:10294000E99233233AF0EC90A094EA20E828ED9243
:102950000C94AB1411965A9529F72A9551F0572DDE
:1029600033951124E60FF11DA00FB11DC00FD11D2D
:10297000D9CFDF91CF9111249FCECF92EF920F93B9
:10298000FA0104913196E4904E5F5F4F22E0C22E2F
:1029900030E020E00E94D4120F91EF90CF90089584
:1029A000CF92EF920F934115510541F1FA01049135
:1029B0003196E4904E5F5F4F2223D1F0A1E0B0E06A
:1029C0003E2D377011F4B0E0A0E0EE2DE695E695CF
:1029D000E695EA0FFB2FF11D0E9FD0010F9FB00D62
:1029E00011242A9FF0012B9FF00D11244E0F5F1F21
:1029F0002AEFC22E30E020E00E94D4120F91EF9017
:102A0000CF900895109295023E983F9808953E9A6F
:102A10003F9A81E0809395020895AF92BF92CF9242
:102A2000DF92EF92FF920F931F93CF93DF936D305E
:102A300079F0C091B406D091B5066A30B1F4109225
:102A4000B3061092B2062896D093B506C093B4068A
:102A500081E090E0DF91CF911F910F91FF90EF9077
:102A6000DF90CF90BF90AF9008954091B206509103
:102A7000B30685E0689FF0011124E459F74E9A01EE
:102A8000C12C80E1E82EA5E070E0CA1621F0CF014C
:102A900001967491FC0110E000E0B72FB170DB2EBD
:102AA00020383105D0F4CE01800F911F803491057C
:102AB000A0F461E081FD64E080FD660F82FD629517
:102AC000887FE89ED0011124A20FF62EAE54BD4F90
:102AD0008C91DD20A9F0862B8C9376950F5F1F4F8C
:102AE00008301105D1F6C3942F5F3F4F86E0C8121E
:102AF000CACF4A5F5F4F5093B3064093B206A8CF48
:102B0000F0948F21E9CF9091B002982329F490910D
:102B1000B102982381E009F480E00895089590E0DF
:102B200080E00895CF93DF93EC0188E00E94831545
:102B3000882351F068E270E08BE092E00E94B812C6
:102B4000EA81FB8181E0099584E00E948315882356
:102B500091F080919502882321F0DF91CF910C9420
:102B600002150E94071568E270E081E290E0DF91B3
:102B7000CF910C94B812DF91CF91089581E08093AA
:102B80001C012FB7F8948091B9069091BA06A091D4
:102B9000BB06B091BC062FBF809391029093920226
:102BA000A0939302B093940208950895CF93DF9376
:102BB000EC018C819D81009749F0DC01ED91FC9145
:102BC0000280F381E02D09951D821C822C853D85B4
:102BD000FE01369690E080E08217930754F441910D
:102BE0005191452B21F0DF0112971D921C92019605
:102BF000F3CF1D861C86DF91CF91089580918202CC
:102C000090918302009759F0DC01ED91FC910280D4
:102C1000F381E02D099510928302109282020895AB
:102C2000FC01738362830895CF92DF92EF92FF924B
:102C30000F931F93CF93DF93EC010BA51CA5F80115
:102C400084898823F1F06A857B85072E000C880B28
:102C5000990B0E94842F6B017C01F80165897689AC
:102C6000072E000C880B990B0E94842F9B01AC014E
:102C7000C701B6010E94692E0E944C2FF80173878C
:102C800062870DA51EA5F80184898823F1F06A8565
:102C90007B85072E000C880B990B0E94842F6B01FB
:102CA0007C01F80165897689072E000C880B990B49
:102CB0000E94842F9B01AC01C701B6010E94692EBE
:102CC0000E944C2FF80173876287FE01BF969E0118
:102CD000275C3F4FA191B1911E968C911E9788233E
:102CE00051F08A859B851C964D915C911D97840FB0
:102CF000951F8D939C932E173F0761F7DF91CF911E
:102D00001F910F91FF90EF90DF90CF900895CF9398
:102D1000DF93EC019B01FA0167E170E00E94A630AD
:102D200040E555E1892B21F1CE0161E170E00E947F
:102D3000A63048E455E1892BD9F0CE016CE070E073
:102D40000E94A63040E455E1892B91F0CE018770B6
:102D5000992748E355E1892B59F0CE0167E070E0EF
:102D60000E94A63040E355E1892B11F042E755E17E
:102D7000BF01C901DF91CF910C94BD14AF92BF92F6
:102D8000CF92DF92EF92FF920F931F93CF93DF9337
:102D9000EC016C01B12CA12C10E000E0EA84FB8472
:102DA000EA0CFB1C0115110519F00731110539F466
:102DB0006C857D8542E755E1C7010E94BD14F6018F
:102DC00083898130C1F46C857D850115110549F039
:102DD00082894AE655E1882359F00731110509F443
:102DE00049C0D60154968C91811144C042E655E108
:102DF000C7010E94BD140F5F1F4FB6E0AB0EB11CA0
:102E0000EFEFCE1ADE0A0831110541F68BA59CA51D
:102E1000DC01ED91FC910680F781E02D09958DA5EF
:102E20009EA5DC01ED91FC910680F781E02D0995CE
:102E30008E01015D1F4FE996D801ED91FD918D0145
:102E40008685882349F06281738120E048E555E159
:102E5000808191810E94D014C017D10769F7DF915A
:102E6000CF911F910F91FF90EF90DF90CF90BF9087
:102E7000AF900895AB01B701C8010E948716BBCF80
:102E80000895FC0184898823A1F08389813049F465
:102E90006485758520E046E854E1828593850C942D
:102EA000D014823031F46485758520E04EEA54E117
:102EB000F4CF0895CF92DF92EF92FF920F931F937A
:102EC000CF93DF937B01FC0106811781EC0130E099
:102ED00020E086E0C82ED12C20173107DCF4E991E0
:102EE000F9913097A1F08289811111C08285938573
:102EF000A701481B590BCA01B6010E94A6306831D0
:102F0000710528F4E60FF71F8389813069F02F5F80
:102F10003F4FE2CF80E0DF91CF911F910F91FF9063
:102F2000EF90DF90CF90089581E0F5CF08958F92D4
:102F30009F92AF92BF92CF92DF92EF92FF92CF9388
:102F4000DF93EC0120912A0130912B0140912C015B
:102F500050912D0168A179A18AA19BA10E94692E9F
:102F60006B017C01C8A2D9A2EAA2FBA26EA17FA13B
:102F7000072E000C880B990B0E94842F4B015C01DB
:102F8000AC019B01C701B6010E94343087FD16C019
:102F90008CA19DA101969DA38CA32A893B898217B0
:102FA000930714F01DA21CA2A5019401C701B6014C
:102FB0000E94682E68A379A38AA39BA3EE80FF805A
:102FC000E114F104E9F068AD79AD8AAD9BAD0E94E2
:102FD0004C2F4B016CA97DA98EA99FA90E944C2F53
:102FE000CB012CA1A701B401DF91CF91FF90EF900D
:102FF000DF90CF90BF90AF909F908F900C94D014A3
:10300000DF91CF91FF90EF90DF90CF90BF90AF9086
:103010009F908F9008950895009769F0FC010190AA
:103020000020E9F73197AF01481B590BBC0185E33C
:1030300097E00C94C91090E080E008950F931F93DF
:1030400040E558E170E060E085E090E00E94BD144A
:1030500044E657E167E070E085E090E00E94BD142F
:1030600046EA55E16BE170E086E090E00E94BD1415
:1030700048E855E166E170E08CE590E00E94BD14FF
:103080008FB7F8944091B9065091BA066091BB068B
:103090007091BC068FBF8091910290919202A09195
:1030A0009302B09194028A019B01081B190B2A0B11
:1030B0003B0BD901C801843F9140A105B10570F0D7
:1030C00080911C0191E0892780931C01409391021B
:1030D00050939202609393027093940280911C012A
:1030E000882381F081E190E09093B3068093B2064B
:1030F00089E390E09093B5068093B40689EB91E064
:103100000E940C1880919502811110C01092B30694
:103110001092B2068AE390E09093B5068093B406CD
:103120008AEC91E01F910F910C940C181F910F9154
:103130000895DC01FC0101900020E9F73197E81BBC
:10314000F90B9E2F990FE90FEF7780E490E08E1B2B
:1031500091099093B3068093B20670E07093B50620
:103160006093B406CD010C940C184F925F926F924D
:103170007F928F929F92AF92BF92EF92FF920F93A6
:103180001F93CF93DF9300D0CDB7DEB78C01F62E1F
:10319000FC0162ABF5E06F9F30011124430120E593
:1031A000820E911CC4010E94EF2DB82E8983C301A9
:1031B0008F5A9F4F0E94EF2DE82E8A83C4010296FA
:1031C0000E94EF2DEB24E81611F01A8219828981F2
:1031D0009A81F801E05CFF4F9183808382E090E068
:1031E000F801958B848B28E030E0378B268B21E02B
:1031F00030E0318F208F338F228F358F248F4AE03C
:1032000050E051A740A746E050E053A742A735A79A
:1032100024A737A726A731AB20AB6AE9862E69E938
:10322000962EA92C6EE3B62E809208019092090189
:10323000A0920A01B0920B01412C512C70EA672E2A
:1032400070EC772E409210015092110160921201A1
:103250007092130140920C0150920D0160920E0188
:1032600070920F01412C512C612CAFE37A2E4092C9
:1032700000015092010160920201709203013093AB
:103280001701209316013093150120931401412C4E
:10329000512C612CB1E47B2E44AE55AE66AE77AEB8
:1032A00010928502F2E0FF1609F46FC1FF1550F18C
:1032B000FF2009F489C0F21609F4C9C0F80183A9F6
:1032C00015A214A210A211A212A213A2823009F414
:1032D00040C208F00AC2882309F40FC2813009F401
:1032E00021C20F900F90DF91CF911F910F91FF900E
:1032F000EF90BF90AF909F908F907F906F905F9076
:103300004F900895E4E0FE1609F4DFC0FE1608F4BD
:1033100090C1F5E0FF12D2CF2FE432E0F801EC5B70
:10332000FF4F3183208324E532E0329631832083BE
:1033300024EB33E0F8013187208722EB31E033873B
:10334000228720E731E0358724872EEE30E0318B6D
:10335000208B2CEA30E03787268723E030E0358B5E
:10336000248B938F828F85E090E097A786A780E0DB
:1033700090E0A0E4B0EC8093100190931101A09331
:103380001201B09313018CEE91E5A8E3BEE38093A4
:10339000080190930901A0930A01B0930B013093A7
:1033A000170120931601309315012093140180E03A
:1033B00090E0A0E1B0EC80930C0190930D01A093FC
:1033C0000E01B0930F017ACF8CEC91E0F801EC5B29
:1033D000FF4F9183808382ED91E0329691838083C9
:1033E0008CE593E1F801918780878AE591E19387E5
:1033F000828788E191E195878487918B808B86ED28
:1034000090E19787868783E393E3A3E5B0EC80930D
:10341000100190931101A0931201B09313018DEC50
:103420009CECACE4BEE38093080190930901A09367
:103430000A01B0930B018092000190920101A092C9
:103440000201B092030181E08093850237CF21EE23
:1034500031E0F801EC5BFF4F3183208327EE31E050
:10346000329631832083F801578B468B24E530E177
:103470003187208722ED3EE03387228720E93EE036
:1034800035872487318B208B2EE43EE037872687D3
:1034900040E050E060E870EC40931001509311015F
:1034A000609312017093130190931701809316019A
:1034B000909315018093140140930C0150930D01DA
:1034C00060930E0170930F01F9CE2DEF31E0F801FA
:1034D000EC5BFF4F3183208323E032E0329631836F
:1034E000208324E030E0F801358B248B20E130E0AC
:1034F00031A720A72CE43DE0318720872AE43BE078
:103500003387228728E03BE035872487318B208B67
:1035100026EC3AE03787268743E353E363E970EC10
:1035200040931001509311016093120170931301A5
:103530004EEA57E461E67EE34093080150930901A7
:1035400060930A0170930B01909317018093160109
:10355000909315018093140180E090E0A0E1B1E424
:1035600080930C0190930D01A0930E01B0930F0175
:103570008DEC9CECACECBDE38093000190930101D9
:10358000A0930201B093030199CE27E132E0F80144
:10359000EC5BFF4F318320832DE132E032963183A3
:1035A000208324E43AE0F8013187208722E438E0E0
:1035B0003387228720E038E035872487318B208BC2
:1035C0002EEB37E03787268746E656E666E070EC56
:1035D00040931001509311016093120170931301F5
:1035E00046E656E666E470EC40930C0150930D01FC
:1035F00060930E0170930F014CEE51E568E37EE39A
:10360000409308015093090160930A0170930B01E4
:1036100090931701809316019093150180931401E4
:1036200080E090E0A0EAB0E484AF95AFA6AFB7AF7A
:1036300045CE22E332E0F801EC5BFF4F318320837B
:1036400029E332E03296318320832CE337E0F8011E
:10365000318720872AEF34E03387228728EB34E054
:1036600035872487318B208B26E734E03787268700
:1036700024E130E031A720A740E050E060E870ECA2
:103680004093100150931101609312017093130144
:1036900043E353E363E170EC40930C0150930D015D
:1036A00060930E0170930F0140E050E060E87EE30C
:1036B000409308015093090160930A0170930B0134
:1036C0004DEC5CEC6CE47EE340930001509301010F
:1036D0006093020170930301909317018093160188
:1036E0009093150180931401E9CD8330D9F1843092
:1036F00009F0F7CD868597852EC0808591859783C3
:10370000868384899589938B828B80A591A597A3C5
:1037100086A38091160190911701909315018093D3
:103720001401DFCD80E090E0A0E0B0E480A391A39D
:10373000A2A3B3A382E090E095A384A3828593859E
:103740009783868386899789938B828B86E090E026
:10375000DECF848595859783868381E090E0938B87
:10376000828B0AC08089918997838683828D938D0D
:10377000938B828B86A597A597A386A3B2CDCF9373
:10378000DF93EC0188E00E948315882351F0EA81E1
:10379000FB8182E0099568E270E08BE092E00E9494
:1037A000B81280E40E9483158823B9F080918402C6
:1037B00090E0019666E070E00E94A630809384025B
:1037C000682F80918202909183020E94B51868E26E
:1037D00070E08BE790E00E94B81280E20E948315AF
:1037E0008823C9F08091840290E0059666E070E03D
:1037F0000E94A63080938402682F8091820290916B
:1038000083020E94B51868E270E08BE790E0DF91D8
:10381000CF910C94B812DF91CF910895CF93DF939D
:1038200088E490E00E94D430EC01609184028CE343
:1038300091E0998388831A821B821C821D8280E01A
:1038400090E0A0E6B2E48CAB9DABAEABBFAB80E04A
:1038500090E0A0EEB1E488AF99AFAAAFBBAF8CE126
:1038600090E09F8F8E8F1DA21CA2FE01E05CFF4F97
:1038700011821082329683E090E091838083CE01A2
:103880000E94B5181DA21CA218A219A21AA21BA25E
:103890001BAA888599859F838E838C899D899B8BA4
:1038A0008A8B88A599A59FA38EA3809116019091DC
:1038B00017019093150180931401D0938302C09354
:1038C0008202DF91CF910895CF92DF92EF92FF9223
:1038D0000F931F93CF93DF9300D000D000D0CDB7CC
:1038E000DEB78C016C0186E0C80ED11CF12CE12CF6
:1038F000D8011C968D919C91E816F9068CF4F6017E
:10390000819191916F01009739F0DC01ED91FC916B
:103910000680F781E02D0995BFEFEB1AFB0AE8CF8F
:10392000F801848195810E949717809190028823E5
:1039300081F082E290E09093B3068093B20680E239
:1039400090E09093B5068093B40689E692E00E94D9
:103950000C1880918F028F9380918E028F9383E752
:1039600092E09F938F938E010F5F1F4F1F930F93D2
:103970000E94F931F80101900020E9F73197E01B2E
:10398000F10B8E2F880FE80FEE0F80E890E08E1B72
:1039900091099093B3068093B2061092B5061092E7
:1039A000B406C8010E940C180F900F900F900F9052
:1039B0000F900F9026960FB6F894DEBF0FBECDBFC6
:1039C000DF91CF911F910F91FF90EF90DF90CF90FB
:1039D0000895EF92FF920F931F93CF93DF93CDB78C
:1039E000DEB72C970FB6F894DEBF0FBECDBFE091C7
:1039F0008202F0918302E05CFF4F81818F9380818E
:103A00008F9388E792E09F938F938E010F5F1F4FF4
:103A10001F930F930E94F931E0918202F09183028B
:103A2000EC5BFF4F60E0808191810E949918E091EA
:103A30008202F0918302EA5BFF4F6BE0808191810B
:103A40000E94991865E1C8010E949918809182022C
:103A5000909183020E9497170F900F900F900F90F4
:103A60000F900F90F12CE12C10E000E04CE350E0BF
:103A7000B801C7010E9487160A5F1F4F8FEFE81A2F
:103A8000F80A0E37110591F72C960FB6F894DEBFA1
:103A90000FBECDBFDF91CF911F910F91FF90EF909F
:103AA0000895CF92DF92EF92FF920F931F93CF93DF
:103AB000DF93EC01EC81FD8115A214A210A211A2EA
:103AC00012A213A284E083AB8685978597838683B1
:103AD000848D958D938B828B80A991A997A386A3C2
:103AE000109218011092190110921A0110921B01E4
:103AF0008DEC9CECACE4BFE380932A0190932B0106
:103B0000A0932C01B0932D016AEF70E088E891E05A
:103B10000E94B81281E080939002EC81FD810091B7
:103B20008E0210918F02DF01A05CBF4F8D919C919E
:103B30008017910764F5C2A985E0C89FE0011124B0
:103B40007E0180E5E80EF11CC12EC026C7010E944F
:103B5000EF2D801721F0602FC7010E94F72DCF5A5B
:103B6000DF4FCE010E94EF2D181721F0612FCE01FB
:103B70000E94F72D6C2DC7010296DF91CF911F9106
:103B80000F91FF90EF90DF90CF900C94F72DDF9185
:103B9000CF911F910F91FF90EF90DF90CF900895FC
:103BA0000F931F93CF93DF93EC0181EB91E0998307
:103BB00088838BA59CA5009739F0DC01ED91FC91E1
:103BC0000280F381E02D09958DA59EA5009739F01F
:103BD000DC01ED91FC910280F381E02D09958E01CD
:103BE000015D1F4FE996F801819191918F010E942B
:103BF0007031C017D107B9F7DF91CF911F910F91A5
:103C00000895CF93DF93EC010E94D01DCE01DF9188
:103C1000CF910C9470310C9470310C9470312F92C0
:103C20003F924F925F926F927F928F929F92AF924C
:103C3000BF92CF92DF92EF92FF920F931F93CF9399
:103C4000DF93CDB7DEB72A970FB6F894DEBF0FBE6D
:103C5000CDBF1C016B01AC014D5E5F4F90E080E079
:103C6000FC01EC0DFD1DE491DA0130E020E0F0E014
:103C7000BF01022E02C0759567950A94E2F7617044
:103C80006D932F5F3F4F2830310591F70196485FC4
:103C90005F4F8330910521F7560123E0A20EB11C3E
:103CA000A1014C5F5F4F5C834B83710142E050E0A8
:103CB000B501CE0101960E94E62D8980D7018820AA
:103CC00009F4FCC09B960D911C91F10162857385EE
:103CD000072E000C880B990B0E94842F2B013C01AE
:103CE000D80153968C925397E2E05296EC935297F8
:103CF000912C6A8170E056967C936E935597072EAF
:103D0000000C880B990B0E94842FA30192010E9442
:103D1000692E0E944C2FD8011B967C936E931A97A4
:103D2000072E000C880B990B0E94842FF8016283E8
:103D3000738384839583F6E0F89DC001F99D900D0F
:103D400011249C01205C3E4F4901D9016C9170E027
:103D5000F80175876487072E000C880B990B0E9469
:103D6000842FD80116966D937D938D939C9319970C
:103D7000F401818190E01F969C938E931E9782811F
:103D800090E051969C938E935097D7019B96ED911E
:103D9000FC91B1E0B48BB2E0AB0EB11CE2E0EE0EF0
:103DA000F11C2B813C81E216F30609F07FCFD10193
:103DB0009F96ED91FC91D0971686D196ED91FC914E
:103DC000D2971686D396ED91FC91D4971686D59608
:103DD000ED91FC91D6971686D796ED91FC911686BB
:103DE000F6013796FE83ED839601235F3F4F3887B8
:103DF0002F83A101495C5F4F5A8749878AE0E82EEB
:103E0000F12C412C512C90E2692E91E4792E42E064
:103E100050E06D817E81CE0101960E94E62DD98011
:103E200051E0D51250C0D1019F960D911C91D097B1
:103E30006A8170E01A968D919C91F801758764876C
:103E4000860F971F91838083072E000C880B990B98
:103E50000E94842FD80114966D937D938D939C932B
:103E600017971396FC92EE921297F80140865186AE
:103E700062867386D6868D819E8102969E838D830F
:103E8000AF81B885A817B90711F62A960FB6F8942E
:103E9000DEBF0FBECDBFDF91CF911F910F91FF907D
:103EA000EF90DF90CF90BF90AF909F908F907F90DA
:103EB0006F905F904F903F902F9008959B96ED915B
:103EC000FC91148A68CFF2E0DF1255C0D1019F96B1
:103ED000CD90DC90D0970A8110E01A968D919C913C
:103EE000F60115870487800F911F91838083B801A5
:103EF000012E000C880B990B0E94842FD60114967A
:103F00006D937D938D939C9317971396FC92EE92ED
:103F10001297F601408651866286738621E02687D5
:103F2000D101D196CD90DC90D297B801665F7F4FDA
:103F30001A968D919C91F60175876487860F971F5D
:103F400091838083072E000C880B990B0E94842F8D
:103F5000D60114966D937D938D939C93179713962A
:103F6000FC92EE921297F601408651866286738625
:103F700021E0268780CF33E0D3129CC0D1019F96E9
:103F80000D911C91D097CA80D12C1A968D919C913D
:103F9000F801D586C4868C0D9D1D91838083B60162
:103FA0000D2C000C880B990B0E94842F4B015C0197
:103FB000D80114968D929D92AD92BC92179713964C
:103FC000FC92EE921297F8014086518662867386C3
:103FD00021E02687D101D1960D90BC91A02DBC8304
:103FE000AB838601065F1F4FF101828593851D9685
:103FF0001C930E931C97800F911F8D939C93B80177
:10400000012E000C880B990B0E94842FAB81BC8180
:1040100014966D937D938D939C9317971396FC92B2
:10402000EE921297FD01408651866286738621E0EA
:104030002687D101D396ED91FC91D4971A962D91B4
:104040003C911B97D586C486C20ED31ED182C082F6
:1040500084829582A682B78224E130E03383228372
:1040600020E030E040EA51E42087318742875387DF
:1040700031E03687D596ED91FC91D6971A962D9121
:104080003C9115870487200F311F3183208364837F
:1040900075838683978344E150E05383428380E0B5
:1040A00090E0A0EAB1E480879187A287B38791E08E
:1040B0009687E1CEA4E0DA12DECE5101BFE2AB0E6C
:1040C000B11C0A8110E0F501C190D1905F01D101CE
:1040D0001A968D919C91F60115870487800F911F88
:1040E00091838083B801012E000C880B990B0E94EC
:1040F000842FD60114966D937D938D939C9317977F
:104100001396FC92EE921297F601408651866286D3
:10411000738621E02687065F1F4F49855A85A416BE
:10412000B50689F6A8CECF92DF92EF92FF920F9359
:104130001F93CF93DF93CDB7DEB768970FB6F89490
:10414000DEBF0FBECDBF23E333E343E75FE3609100
:104150002A0170912B0180912C0190912D010E94D8
:10416000682E20E030E040EA5FE30E94DA2E6B0127
:104170007C0126E636E646E65FE30E9434301816F8
:104180000CF478C023E333E343E35FE3C701B601F4
:104190000E94343018160CF470C020E030E040E08B
:1041A0005FE3C701B6010E94343018160CF462C0F8
:1041B0002DEC3CEC4CEC5EE3C701B6010E943430C0
:1041C00018160CF45AC001E010E02DEC3CEC4CE465
:1041D0005EE3C701B6010E94343018160CF000E00F
:1041E000C801EBEEF3E130E020E010E000E04491A4
:1041F0004817190609F06CF4D801AA0FBB1F41E05B
:1042000050E04C0F5D1FA40FB51F2D933C930F5F23
:104210001F4F2F5F3F4F3E962C30310541F78AE705
:1042200095E101151105B9F00E948E2D9801110F2D
:10423000440B550B0E94052E660F771F6C0F7D1FD8
:10424000FB01218132814EE0429FC001439F900DCE
:10425000112482529C4E68960FB6F894DEBF0FBEB2
:10426000CDBFDF91CF911F910F91FF90EF90DF9025
:10427000CF90089583E090E0B4CF82E090E0B1CF9A
:104280002F923F924F925F926F927F928F929F9266
:10429000AF92BF92CF92DF92EF92FF920F931F9354
:1042A000CF93DF93CDB7DEB72A970FB6F894DEBF72
:1042B0000FBECDBF1C012091390730913A074091C4
:1042C0003B0750913C0760912A0170912B0180912E
:1042D0002C0190912D010E94692E6B017C012DEC27
:1042E0003CEC4CE050E40E94343018160CF4E2C070
:1042F000C0922A01D0922B01E0922C01F0922D0164
:1043000084E00E948315882361F0D1011296ED911B
:10431000FC9180E0099560E570E087EF90E00E94F5
:10432000B812609118017091190180911A01909151
:104330001B01905820912A0130912B0140912C01B2
:1043400050912D010E94393060938A0270938B0244
:1043500080938C0290938D0281010A5F1F4F71013F
:10436000D12CC12CF1010484F585E02DFA83E98379
:10437000CE16DF060CF0ABC0D70116960D90BC919F
:10438000A02DBC83AB83109709F48DC052968C91FD
:104390005297811188C012962D913D914D915C915B
:1043A000159760918A0270918B0280918C02909196
:1043B0008D020E94692E4B015C01EB81FC8182829F
:1043C0009382A482B58220E030E0A90166817781E2
:1043D000808591850E94692E2B013C01AB81BC81B7
:1043E00016964D925D926D927C921997C501B4011B
:1043F0000E944C2F4B01EB81FC8173876287C301C4
:10440000B2010E944C2FAB81BC811D967C936E93B0
:104410001C971E968D919C91880E991E97FE38C010
:10442000F80170E060E030E020E0A191B1911097D8
:1044300071F052968C915297811109C01A968D9104
:104440009C9180579F4F681779070CF4BC012F5F30
:104450003F4F89819A818217930739F7AB81BC81DD
:104460001B967C936E931A97072E000C880B990B62
:104470000E94842FEB81FC81628373838483958304
:10448000C8010E949320BC018B819C810E940F1E59
:10449000D70116968D919C91DC01ED91FC910480E1
:1044A000F581E02D0995BFEFCB1ADB0AE2E0EE0EB5
:1044B000F11C58CF8DEC9CECACE0B0E480932A0169
:1044C00090932B01A0932C01B0932D0119CFD10112
:1044D00014960D90BC91A02DBA83A983D8966D91A6
:1044E0007D918D919C91DB970E944C2F6C317105D1
:1044F00009F520E030E040E051E4E981FA8164A967
:1045000075A986A997A90E94692E0E944C2F6B015C
:1045100063507109C8010E945A1781110BC0B6017E
:104520006D5F7F4FC8010E945A17811103C0C101FE
:104530000E94511DD10114960D90BC91A02DBA87F7
:10454000A987D3968C91D397843009F4A7C020E033
:1045500030E040E051E4D4966D917D918D919C9135
:10456000D7970E94692E0E944C2F4B01F101448580
:104570005585D80130E020E0241735070CF08EC0B7
:10458000ED91FD91309709F428C2828593858816B4
:1045900099060CF422C266857785860F971F8815C9
:1045A00099050CF41AC2A985BA85DC964D905D90E8
:1045B0006D907C90DF97D8968D919D910D90BC91D8
:1045C000A02D8B839C83AD83BE836F01BBE2CB0E9A
:1045D000D11CCF018F9698878F83D6010D911D91A5
:1045E0006D01F8018489882309F452C0E38996E0BB
:1045F0009E9FC00111249A838983805C9E4F7C0119
:10460000DC0113962C91F80182859385820F911D10
:104610005401A81AB90A20E030E040E851E46B8167
:104620007C818D819E810E94692E0E944C2FD70132
:1046300014962C91F80144855585240F352F311D92
:104640007B01E21AF30AC301B2010E944C2FE981F7
:10465000FA81E05CFE4F258130E0A901460F571F2B
:10466000AA9CC001AB9C900D900D1124EE9C900172
:10467000EF9C300D300D1124820F931F449F900149
:10468000459F300D300D1124821793070CF4A8C1FB
:104690008F8198858C159D0509F09FCFD1011496C7
:1046A000ED90FC90F70183A9843009F487C020E0E5
:1046B00030E040E051E464A975A986A997A90E9459
:1046C000692E0E944C2F8B01D1011C964D915C915B
:1046D000F101369630E020E0241735070CF06EC06B
:1046E000819191919A838983009709F48AC1DC01B1
:1046F0001A968D919C911B97081719070CF481C18C
:104700001E966D917C91860F971F801791070CF470
:1047100078C1F70180AC91ACA2ACB3AC64AD75AD1F
:1047200086AD97AD0E944C2F6C5F7F4F669F300126
:10473000679F700C700C1124E980FA80FFE2EF0E85
:10474000F11C49805A8089E3480E511CD701ED9134
:10475000FD917D01FA83E9838685882361F180815B
:10476000918104966801C81AD90A20E030E040E837
:1047700051E4C501B4010E94692E0E944C2FA98109
:10478000BA8112962D913C912C5F3F4FAB01421B99
:10479000530BCC9CC001CD9C900D900D1124449FD7
:1047A0009001459F300D300D1124820F931F861507
:1047B00097050CF429C14E145F0441F6D1011496FB
:1047C0000D90BC91A02DBA83A98388E00E94831527
:1047D000182F8091B00283FF64C28091B10283FDE3
:1047E00060C2112309F42BC1012F80E090E0A0EFFB
:1047F000B1E48093860290938702A0938802B093DD
:104800008902E0901401F09015011E141F040CF0B1
:104810009AC1E981FA8183A99EEF980F923008F43A
:1048200018C1843081F020E030E0A9016091860257
:104830007091870280918802909189020E943430A1
:1048400018160CF409C1A981BA81D3961C91D3978B
:104850008EEF810F823008F0A4C11296CD90DD90CA
:10486000ED90FC90159720E030E0A901C701B6015A
:104870000E94D52E87FF14C0002391F0A701960156
:1048800060910001709101018091020190910301FA
:104890000E943930E981FA8162837383848395832E
:1048A000A981BA811296CD90DD90ED90FC9015977C
:1048B00040902A0150902B0160902C0170902D01A6
:1048C000A3019201C701B6010E943930E981FA8142
:1048D00020AD31AD42AD53AD0E94692E4B015C015C
:1048E000A981BA81D8968D929D92AD92BC92DB97A8
:1048F000209104013091050140910601509107017A
:10490000C301B2010E943930A70196010E94692EAD
:104910006B017C01E981FA81C282D382E482F58253
:10492000668D778D072E000C880B990B0E94842FC3
:104930002B013C01AC019B01C501B4010E94343044
:1049400087FD4BC1A981BA81D8964D925D926D9237
:104950007C92DB9781E0D3968C9380E090E0A0E09E
:10496000B0E4E981FA8180A391A3A2A3B3A382E07A
:1049700090E095A384A38285938597838683868917
:104980009789938B828B82A593A597A386A3809109
:10499000160190911701909315018093140168E21C
:1049A00070E081E390E02A960FB6F894DEBF0FBE68
:1049B000CDBFDF91CF911F910F91FF90EF90DF90CE
:1049C000CF90BF90AF909F908F907F906F905F90AF
:1049D0004F903F902F900C94B8122F5F3F4FCCCD4B
:1049E000012B09F45BCE86E696E6A6E6B0ECE985F7
:1049F000FA8582839383A483B583C1010E94511DEC
:104A00004DCE2F5F3F4F68CEE981FA81309709F490
:104A1000D5CE168680918E0290918F02019690934A
:104A20008F0280938E0280FD07C08FE69FE068E2D0
:104A300070E00E94B812C2CE81E99EE0F8CF1092D9
:104A4000860210928702109288021092890201E079
:104A5000D8CE112309F4F7CE809116019091170159
:104A60008E199F0909F056C064E670E08EE690E06A
:104A70000E94B81210928602109287021092880249
:104A800010928902809114019091150120911601D4
:104A9000309117018217930709F04CC04091100123
:104AA000509111016091120170911301A981BA8195
:104AB00012964D935D936D937C9315970197909308
:104AC0001501809314018091080190910901A09132
:104AD0000A01B0910B018093040190930501A0930A
:104AE0000601B0930701E981FA8115A214A210A270
:104AF00011A212A213A282E083AB848595859783CD
:104B00008683808D918D938B828B84A595A597A3A9
:104B100086A399CE8130910529F464E670E083E99B
:104B200090E0A6CF029709F0A5CF64E670E08FEA87
:104B300090E09ECF40910C0150910D0160910E01CB
:104B400070910F01B3CF80918502882309F47BCE49
:104B5000112399F0109204011092050110920601A0
:104B60001092070183EC95EFA8EABEE3E981FA8190
:104B700082839383A483B58366CE002309F463CE36
:104B80008091080190910901A0910A01B0910B0157
:104B90008093040190930501A0930601B09307014F
:104BA00052CE143009F43EC02A960FB6F894DEBFF8
:104BB0000FBECDBFDF91CF911F910F91FF90EF906E
:104BC000DF90CF90BF90AF909F908F907F906F902D
:104BD0005F904F903F902F90089520E030E0A90122
:104BE000C701B6010E9434301816F4F61330E1F212
:104BF000A981BA8195961C921E929497FD0110A2EC
:104C000011A212A213A283E083AB808991899783BA
:104C10008683828D938D938B828B86A597A597A390
:104C200086A3C2CFA981BA811296CD90DD90ED9076
:104C3000FC90159780902A0190902B01A0902C0158
:104C4000B0902D01A5019401C701B6010E94393031
:104C50009B01AC01E981FA8160AD71AD82AD93AD8C
:104C60000E94692EA981BA81D8966D937D938D9308
:104C70009C93DB97209108013091090140910A0132
:104C800050910B01C501B4010E943930A701960172
:104C90000E94692EE981FA816283738384839583FC
:104CA00083CF00E01111A1CD20912A0130912B0179
:104CB00040912C0150912D016091860270918702E4
:104CC00080918802909189020E94682E60938602EA
:104CD00070938702809388029093890200E091CDBF
:104CE0002F923F924F925F926F927F928F929F92FC
:104CF000AF92BF92CF92DF92EF92FF920F931F93EA
:104D0000CF93DF938C0183E393E3A3E7BFE3809327
:104D10002A0190932B01A0932C01B0932D011092A6
:104D20008A0210928B0210928C0210928D02C12C7A
:104D3000D12CE12C30E4F32EC0921801D09219014D
:104D4000E0921A01F0921B011092900210928F02D1
:104D500010928E029090840288E490E00E94D430F9
:104D6000EC018CE391E0998388831A821B821C8278
:104D70001D821CAA1DAA1EAA1FAA412C512C40EE5E
:104D8000642E41E4742E48AE59AE6AAE7BAE5CE14F
:104D9000A52EB12CBF8EAE8E1DA21CA2FE01E05C22
:104DA000FF4F11821082329683E090E091838083DE
:104DB000692DCE010E94B5188091160190911701BE
:104DC0009093150180931401F801D583C4831CAA24
:104DD0001DAA1EAA1FAA48AE59AE6AAE7BAEBF8EF0
:104DE000AE8E81E08BABC8A2D9A2EAA2FBA282E080
:104DF00090E09DA38CA38A859B859F838E838E895B
:104E00009F899B8B8A8B8AA59BA59FA38EA3380124
:104E1000F6E06F0E711C6AE770E080E090E00E949F
:104E2000DD2DF801178216821186108613861286F0
:104E300015861486CDE3D7E0F12CE12CD12CC12CC2
:104E40006CE3262E312C812C912C70E7A72E72E476
:104E5000B72EE0E94E2E512CFB86EA86B7010F2CC7
:104E6000000C880B990B0E94842F6A837B838C83B0
:104E70009D833D862C868E829F82A886B9865F861A
:104E80004E8681E090E0998B888BF801848595852A
:104E9000833091055CF4FC01EE0FFF1FE00FF11F62
:104EA000D783C6830196F80195878487F0E9EF0ED2
:104EB000F11C6AE775E18DE397E0C114D10429F094
:104EC000C3010E949320BC01CE010E940F1E8FEFF0
:104ED000C81AD80AE99690EBE91691E0F90609F0AC
:104EE000BBCFDF91CF911F910F91FF90EF90DF909B
:104EF000CF90BF90AF909F908F907F906F905F907A
:104F00004F903F902F9008951F920F920FB60F92DF
:104F100011242F933F938F939F93AF93BF938091CF
:104F2000B9069091BA06A091BB06B091BC0630912B
:104F3000B80623E0230F2D3758F50196A11DB11DAA
:104F40002093B8068093B9069093BA06A093BB0647
:104F5000B093BC068091BD069091BE06A091BF069D
:104F6000B091C0060196A11DB11D8093BD0690931E
:104F7000BE06A093BF06B093C006BF91AF919F91AC
:104F80008F913F912F910F900FBE0F901F9018950A
:104F900026E8230F0296A11DB11DD2CF1F920F92BA
:104FA0000FB60F9211248F939F938091E1009091FF
:104FB000E100937F9093E10083FF0FC01092E9001E
:104FC00091E09093EB001092EC0092E39093ED004F
:104FD0001092CE0698E09093F00082FF22C093E0FA
:104FE0009093E9009091F200992319F09AE390933D
:104FF000E8009091A902992341F09091A902915063
:105000009093A902911101C05D9A9091CD069923C8
:1050100041F09091CD0691509093CD06911101C031
:10502000289A84FF18C08091E2008E7E8160809370
:10503000E2008091E1008F7E8093E1008091AA02DE
:105040008E7E80618093AA029F918F910F900FBEF8
:105050000F901F90189580FFF7CF8091E2008E7E11
:1050600080618093E2008091E1008E7E8093E10078
:105070008091AA028E7E8160E5CF1F920F920FB6BB
:105080000F921124CF92DF92EF92FF920F931F9312
:105090002F933F934F935F936F937F938F939F9340
:1050A000AF93BF93EF93FF93CF93DF93CDB7DEB76B
:1050B0006C97DEBFCDBF1092E9008091E80083FFBE
:1050C00025C068E0CE0145960E94BC1082EF809317
:1050D000E8008D8987FF39C09091E80090FFFCCFF0
:1050E000982F907609F034C19E894F89588D2F8969
:1050F000F88C911131C0803861F58091AB028093BA
:10510000F1001092F1008EEF8093E8006C960FB6DC
:10511000F894DEBF0FBECDBFDF91CF91FF91EF912D
:10512000BF91AF919F918F917F916F915F914F91BF
:105130003F912F911F910F91FF90EF90DF90CF90B3
:105140000F900FBE0F901F9018959EEF9093E80060
:10515000C7CF1092F100D5CF913059F48111D3CF40
:105160004130510581F68091AB028D7F8093AB0277
:10517000CACF933049F48111C6CF4130510519F699
:105180008091AB028260F2CF953041F48091E800CB
:1051900080FFFCCF20682093E300B5CF963009F064
:1051A000A9C00B8D1C8D22E01092E9001092A7027D
:1051B0001092A602F2122EC01092A5021092A40222
:1051C0000E948B101F8299E09983FA8291E09E835E
:1051D00090EA98879AEF99872091A6023091A702CA
:1051E000275F3F4F3C832B838D831092E900109201
:1051F000A7021092A6021093A5020093A40249E010
:1052000050E0BE016F5F7F4F80E00E9465100E94FA
:105210008B1079CF1093A5020093A4020E94610F16
:10522000DC0112960D911C910115110509F451C173
:10523000D801ED91FC910480F581E02DBE016B5EFB
:105240007F4FC8010995009709F03EC1F80100851C
:105250001185EACFF3E0FF120EC08F89882309F48D
:1052600040C0823061F440E860E180ED9DE10E9441
:105270003210811148CF81E28093EB0047CF81301B
:1052800029F440E86BE084EC9DE1F1CF833099F79D
:105290000E94610FDC011296ED90FC908E010F5F71
:1052A0001F4F6801E114F10479F0D701ED91FC91F1
:1052B0000680F781E02DB801C7010995080F111D7F
:1052C000F701E084F184EECFD8011C92F601019041
:1052D0000020E9F73197BF016C197D0940E0C60154
:1052E000C6CF6EEA7DE1FB01449150E080E80E9468
:1052F000651009CF973009F4BECF983021F481E0D2
:105300008093F10000CF993009F0FDCE837009F051
:10531000B2CFE3E5F1E081E031E096E32191222391
:1053200071F08093E9003093EB00DF0111972C912D
:105330002093EC009093ED008F5F873079F78EE734
:105340008093EA001092EA008F898093CE06DBCE2C
:105350008B8D9C8D1092E9001092A7021092A602EC
:105360009093A5028093A402898D811192C08E89A9
:105370009D89913A49F4813209F07DCF47E050E0B0
:1053800061E271E080E0B3CF913209F074CF8332F3
:1053900069F48F89988DB0E0A0E080931D0190930F
:1053A0001E01A0931F01B0932001ADCE803269F49D
:1053B0008091E80082FFFCCF67E081E291E00E94EB
:1053C000BC108BEF8093E8009ECE823209F09BCE1A
:1053D0008F8980932801EEEFFFE7859194918B3FB1
:1053E0009C4D51F1E0E0F8E0809121019091220183
:1053F000A0912301B0912401803B9440A105B10507
:10540000F1F48091280180FD1AC0EE3F8AE0F80790
:1054100089F587E797E79183808380916000809387
:10542000A80288E19BE00FB6F894A89580936000ED
:105430000FBE9093600067CEEEEFFAE0D5CF80818B
:1054400091818737974709F05ECEA89580916000DB
:105450008861809360008091A80280936000EE3F95
:105460002AE0F20789F08091FE0A9091FF0A918369
:10547000808349CE808191818737980751F290933C
:10548000FF0A8093FE0AC5CF1092FF0A1092FE0A0F
:105490003ACE0E94610FDC0112960D911C9101150C
:1054A000110509F4E8CED801ED91FC910190F0814D
:1054B000E02DBE016B5E7F4FC8010995811123CE9F
:1054C000F80100851185EBCF181619060CF41BCED8
:1054D000D2CEF1E0FF12BECE62EB7DE104CF1F928F
:1054E0000F920FB60F9211242F933F934F935F9318
:1054F0006F937F938F939F93AF93BF93EF93FF939C
:105500008091A0029091A102A091A202B091A30269
:10551000892B8A2B8B2B09F440C080919F0281112B
:105520000BC088B190E4892788B980919E028823B6
:1055300019F088B1805888B98091A0029091A10299
:10554000A091A202B091A302181619061A061B0612
:105550009CF48091A0029091A102A091A202B0912E
:10556000A3020197A109B1098093A0029093A1021F
:10557000A093A202B093A302FF91EF91BF91AF91CC
:105580009F918F917F916F915F914F913F912F915B
:105590000F900FBE0F901F9018950E941012ECCF25
:1055A000CF92DF92EF92FF920F931F93CF93DF93EF
:1055B0001092D2061092D10688EE93E0A0E0B0E0FF
:1055C0008093D3069093D406A093D506B093D606C5
:1055D0008DE591E09093D0068093CF068FEF9FEFFB
:1055E0009093DC068093DB06109238071092370701
:1055F00089E991E0909336078093350783E29FE035
:1056000090932E0780932D0780E090E890932C07CD
:1056100080932B0746983E9A47983F9A84E090E003
:105620000E94D430FC01138212822BE831E03183D6
:105630002083909334078093330784E090E00E94A6
:10564000D430FC01138212822DE731E031832083B4
:1056500090933207809331078EE090E00E94D4301F
:105660002EE0FC0111922A95E9F72FE631E0FC01CA
:10567000318320839093300780932F0720912A0154
:1056800030912B0140912C0150912D016DEC7CEC5F
:105690008CE090E40E94682E20E030E046E955E47A
:1056A0000E94DA2E6093390770933A0780933B0784
:1056B00090933C07CDE3D7E081EBC82E81E0D82E54
:1056C00095EAE92E91E0F92ED982C8821A8A87E1FB
:1056D00090E00E94D430FC01F182E0829CA78BA76D
:1056E00087E190E00E94D430FC01F182E0829EA725
:1056F0008DA78E01075C1F4FAF968FE090E00E9450
:10570000D430899399930C171D07B9F7085E174099
:10571000D9F6DF91CF911F910F91FF90EF90DF901D
:10572000CF900895789484B5826084BD84B58160FB
:1057300084BD85B5826085BD85B5816085BD80915C
:105740006E00816080936E001092810080918100D4
:1057500082608093810080918100816080938100CC
:1057600080918000816080938000809191008260B0
:10577000809391008091910081608093910080914D
:1057800090008160809390008091C100846080933C
:10579000C1008091C10082608093C1008091C100EE
:1057A00081608093C1008091C30081608093C300B9
:1057B0008091C00082608093C0008091C2008160AF
:1057C0008093C20080917A00846080937A008091F7
:1057D0007A00826080937A0080917A008160809361
:1057E0007A0080917A00806880937A001092CE06C9
:1057F0001092AB021092AA028091D7008160809330
:10580000D70080EA8093D80089B5806189BD89B5C9
:10581000826089BD09B400FEFDCF61E070E080E0E8
:1058200090E00E949A0F8091D8008F7C80618093D5
:10583000D8008091E000807F8093E0008091E100BB
:105840008E7E8093E1008DE08093E200559A209A4D
:105850008FEF9FEF9093DC068093DB0681EC8093C3
:105860007C0085B1806F85B984B1877E84B984B1AD
:10587000876E84B95E9A5F988AB1806D8AB9769A8C
:105880006E9881B3806F81BB899880B38D7080BB27
:1058900080E58CBD81E08DBD0E94CD0F5F9A0E9496
:1058A000CD0F5E985C98E1EEFDE184918EBD000025
:1058B0000DB407FEFDCF31962DE1EE3EF207A9F7BC
:1058C0005C9A81E880936400809165008160809398
:1058D000650082E090E00E94EF2D882309F45BC010
:1058E0000E94071580E180932901809133079091F0
:1058F0003407DC01ED91FC910680F781E02D63ED2A
:105900007FE009958091310790913207DC01ED919C
:10591000FC910680F781E02D63ED7FE00995809191
:105920002F0790913007DC01ED91FC910680F78103
:10593000E02D63ED7FE00995809133079091340766
:105940009093B7068093B606DC01ED91FC9101902F
:10595000F081E02D0995EE24E394C2EBD2E0F12C26
:1059600000E010E0DD24D3948FB7F8944091B9069D
:105970005091BA066091BB067091BC068FBF8091B2
:10598000AE02882359F01092AE020115110561F3A1
:105990000E940000E9CF0E940215A4CF9091AF02AF
:1059A000B42FB91B9B2F20912901B21738F49F5FA8
:1059B000921758F7E3BE889513BEE7CFD092AE0298
:1059C0004093AF022091AC023091AD022F5F3F4F68
:1059D0003093AD022093AC02FE0181118FEF0024C1
:1059E00081938193819381930394D1F71092B506AB
:1059F0001092B4061092B3061092B2068091B102D2
:105A00008093B0028FB18095807F669B88601C9BDD
:105A100084608093B1028091B6069091B706DC0154
:105A2000ED91FC910280F381E02D09958091B606FD
:105A30009091B706DC01ED91FC910480F581E02D99
:105A40000995FE0180E098E000800EBCF110012C69
:105A5000019780FDFDCF0192B9F70DB496CFCF939A
:105A6000DF93C8EED7E0E997E881F9810190F081F2
:105A7000E02DCE01099587E0CD33D807A1F7DF915E
:105A8000CF9108958F929F92AF92BF92CF92DF9263
:105A9000EF92FF92CF93DF93EC01688179818A8145
:105AA0009B81611571058105910521F464E279ED11
:105AB0008BE597E02DE133EF41E050E00E94052EA9
:105AC00049015A019B01AC01A7EAB1E40E94242ECE
:105AD0006B017C01ACEEB4EFA50194010E94322E63
