:100000000C94790B0C94A10B0C94A10B0C94A10BE8
:100010000C94A10B0C94A10B0C94A10B0C94A10BB0
:100020000C94A10B0C94A10B0C9456170C94C517AF
:100030000C94A10B0C94A10B0C94A10B0C94A10B90
:100040000C94A10B0C94A10B0C94A10B0C94A10B80
:100050000C94A10B0C94A10B0C94A10B0C940C17F9
:100060000C94A10B0C94A10B0C94A10B0C94A10B60
:100070000C94A10B0C94A10B0C94A10B0C94A10B50
:100080000C94F7190C94A10B0C94A10B0C94A10BDC
:100090000C94A10B0C94A10B0C94A10B0C94A10B30
:1000A0000C94A10B0C94A10B0C94A10B202000002C
:1000B0000000000000000000000000000000000040
:1000C0000000000000000000000000000000000030
:1000D00000000000000000000000E0F070F8189838
:1000E0001C9CE00000000000000000000000000078
:1000F0000000000000000060B018017BFAF4F4F486
:1001000074044340200000000000000000000000D4
:10011000000000000000000000080C0602000202BF
:100120000408102040000000000000000000000053
:1001300000000000000000000000000000000000BF
:1001400000000000000000000000000000000000AF
:1001500000000000000000000000C0E0E0F03030CF
:100160003838C0000000000000000000000000005F
:10017000000000000000000000E00377F4E9E8E977
:10018000E8098700000000000000000000000000F7
:100190000000000000000000000009111D01057DA5
:1001A000000000000000000000000000000000004F
:1001B000000000000000000000000000000000003F
:1001C000000000000000000000000000000000002F
:1001D00000000000000000000000C0E0E0F030304F
:1001E0003838C000000000000000000000000000DF
:1001F00000000000000000000000E3F7B4A968E977
:10020000E809870000000000000000000000000076
:1002100000000000000000000000000109710F054F
:1002200000000000000000000000000000000000CE
:1002300000000000000000000000000000000000BE
:1002400000000000000000000000000000000000AE
:1002500000000000000000000000E0F070F81898B6
:100260001C9CE000000000000000000000000000F6
:1002700000000000000000000060016BDAB4B4B4BC
:10028000B4040300000000000000000000000000B3
:10029000000000000000000000000040380E0210C6
:1002A0000A0600000000000000000000000000003E
:1002B000000000000000000000000000000000003E
:1002C000000000000000000000000000000000002E
:1002D00000000000000000000000F0F8387C0C4C2A
:1002E0000E4EF000000000000000000000000000C2
:1002F00000000000000000001028001D356A6A6A36
:100300006A22210000000000000000000000000040
:1003100000000000000000040404040404030100C1
:100320000101030C000000000000000000000000BC
:1003300000000000000000000000000000000000BD
:1003400000000000000000000000000000000000AD
:1003500000000000000000000000E0F070F81898B5
:100360001C9CE000000000000000000000000000F5
:1003700000000000000000000060017BDAB4B4B4AB
:10038000B4040300000000000000000000000000B2
:10039000000000000000000000080C06020200023D
:1003A000061870400000000000000000000000007F
:1003B000000000000000000000000000000000003D
:1003C000000000000000000000000000000000002D
:1003D00000000000000000000000C0E0E0F030304D
:1003E0003838C000000000000000000000000000DD
:1003F00000000000000000000000E3F77469E8E975
:10040000E8090700000000000000000000000000F4
:100410000000000000000000000008111D01047D24
:1004200000010000000000000000000000000000CB
:1004300000000000000000000000000000000000BC
:1004400000000000000000000000000000000000AC
:1004500000000000000000000000C0E0E0F03030CC
:100460003838C0000000000000000000000000005C
:10047000000000000000000000E003F7F4E9E8E9F4
:10048000E809070000000000000000000000000074
:1004900000000000000000000000010011711F05B5
:1004A000000100000000000000000000000000004B
:1004B000000000000000000000000000000000003C
:1004C000000000000000000000000000000000002C
:1004D00000000000000000000000E0F070F8189834
:1004E0001C9CE00000000000000000000000000074
:1004F00000000000000000609008013B7AF4F4F472
:100500007484830000000000000000000000000070
:10051000000000000000000000004020180E021043
:100520000A060000000000000000000000000000BB
:1005300000000000000000000000000000000000BB
:1005400000000000000000000000000000000000AB
:1005500000000000000000000000F0F8387C0C4CA7
:100560000E4EF0000000000000000000000000003F
:1005700000000000000000180404001D3D7A7A7A93
:100580007A021118000000000000000000000000C6
:100590000000000000000000000206040403010047
:1005A0000101030C000000000000000000002020FA
:1005B000000000000000000000000000000000003B
:1005C000000000000000000000000000000000002B
:1005D000000000000000000000000000C0E0E0F0AB
:1005E00030303838C000000000000000000000007B
:1005F000000000000000000000C0600073F7E4E9A4
:10060000E8E9E809C780C0400000000000000000E1
:100610000000000000000000014362100805050111
:1006200005050404040870400000000000000000FC
:1006300000000000000000000000000000000000BA
:1006400000000000000000000000000000000000AA
:100650000000000000000000000000E0F070F8184A
:10066000981C9CE00000000000000000000000005A
:10067000000000000000000080E030013BFAF4F4CC
:10068000F4F47403604060200000000000000000EB
:100690000000000000000000004161180402020098
:1006A0000202020204087040000000000000000086
:1006B00020200000000000000000000000000000FA
:1006C000000000000000000000000000000000002A
:1006D0000000000000000000000000000000E0F04A
:1006E00070F818981C9CE00000000000000000005A
:1006F000000000000000000000000060B018017B56
:10070000FAF4F4F4740443402000000000000000F8
:1007100000000000000000000000000000080C06BF
:100720000200020204081020400000000000000047
:1007300000000000000000000000000000000000B9
:1007400000000000000000000000000000000000A9
:100750000000000000000000000000000000C0E0F9
:10076000E0F030303838C000000000000000000029
:1007700000000000000000000000000000E003771F
:10078000F4E9E8E9E8098700000000000000000043
:10079000000000000000000000000000000009113F
:1007A0001D01057D000000000000000000000000A9
:1007B0000000000000000000000000000000000039
:1007C0000000000000000000000000000000000029
:1007D0000000000000000000000000000000C0E079
:1007E000E0F030303838C0000000000000000000A9
:1007F0000000000000000000000000000000E3F71F
:10080000B4A968E9E80987000000000000000000C2
:1008100000000000000000000000000000000001D7
:1008200009710F050000000000000000000000003A
:1008300000000000000000000000000000000000B8
:1008400000000000000000000000000000000000A8
:100850000000000000000000000000000000E0F0C8
:1008600070F818981C9CE0000000000000000000D8
:100870000000000000000000000000000060016BAC
:10088000DAB4B4B4B40403000000000000000000B7
:100890000000000000000000000000000000004018
:1008A000380E02100A0600000000000000000000E0
:1008B0000000000000000000000000000000000038
:1008C0000000000000000000000000000000000028
:1008D0000000000000000000000000000000F0F830
:1008E000387C0C4C0E4EF0000000000000000000B0
:1008F0000000000000000000000000001028001DA3
:10090000356A6A6A6A2221000000000000000000C7
:1009100000000000000000000000000404040404C3
:10092000040301000101030C0000000000000000AE
:1009300000000000000000000000000000000000B7
:1009400000000000000000000000000000000000A7
:100950000000000000000000000000000000E0F0C7
:1009600070F818981C9CE0000000000000000000D7
:100970000000000000000000000000000060017B9B
:10098000DAB4B4B4B40403000000000000000000B6
:1009900000000000000000000000000000080C063D
:1009A0000202000206187040000000000000000073
:1009B0000000000000000000000000000000000037
:1009C0000000000000000000000000000000000027
:1009D0000000000000000000000000000000C0E077
:1009E000E0F030303838C0000000000000000000A7
:1009F0000000000000000000000000000000E3F71D
:100A00007469E8E9E8090700000000000000000040
:100A100000000000000000000000000000000811BD
:100A20001D01047D00010000000000000000000026
:100A300000000000000000000000000000000000B6
:100A400000000000000000000000000000000000A6
:100A50000000000000000000000000000000C0E0F6
:100A6000E0F030303838C000000000000000000026
:100A700000000000000000000000000000E003F79C
:100A8000F4E9E8E9E80907000000000000000000C0
:100A90000000000000000000000000000000010055
:100AA00011711F050001000000000000000000009F
:100AB0000000000000000000000000000000000036
:100AC0000000000000000000000000000000000026
:100AD0000000000000000000000000000000E0F046
:100AE00070F818981C9CE000000000000000000056
:100AF0000000000000000000000000609008013BC2
:100B00007AF4F4F474848300000000000000000014
:100B10000000000000000000000000000000402075
:100B2000180E02100A06000000000000000000007D
:100B300000000000000000000000000000000000B5
:100B400000000000000000000000000000000000A5
:100B50000000000000000000000000000000F0F8AD
:100B6000387C0C4C0E4EF00000000000000000002D
:100B70000000000000000000000000180404001D38
:100B80003D7A7A7A7A021118000000000000000015
:100B90000000000000000000000000000002060449
:100BA000040301000101030C00000000000000002C
:100BB00000002020000000000000000000000000F5
:100BC0000000000000000000000000000000000025
:100BD0000000000000000000000000000000000015
:100BE000C0E0E0F030303838C00000000000000005
:100BF00000000000000000000000000000C06000D5
:100C000073F7E4E9E8E9E809C780C04000000000A4
:100C1000000000000000000000000000014362101E
:100C200008050501050504040408704000000000E3
:100C300000000000000000000000000000000000B4
:100C400000000000000000000000000000000000A4
:100C5000000000000000000000000000000000E0B4
:100C6000F070F818981C9CE00000000000000000E4
:100C700000000000000000000000000080E03001E3
:100C80003BFAF4F4F4F474036040602000000000C8
:100C9000000000000000000000000000004161189A
:100CA0000402020002020202040870400000000078
:100CB0000000000006060603010501038040000055
:100CC0000000000000000000000000000000000024
:100CD0000000000000000000000078DC7CFC5CFCF0
:100CE0007C7800000000000C18307C70E0E0C0FF51
:100CF000818080FC86B2A2BE8080C37E000000029C
:100D000001000030693A6F3810303DCE0A0A720295
:100D100004180000000078DC7CFC5CFC7C7800009F
:100D200000000000000000000000000000000000C3
:100D300000000000000000000000000000001C1C7B
:100D40001C1C1C1C1C1C1C9C1C1C9C9C1C1C9C9C63
:100D50009C1C1C1C9C9C1C1C1C9C9C9C1C9C1C1C53
:100D60001C1C1C1C1C1C1C1C1C1C1C1C1C1C1C1CC3
:100D70001C1C1C1C1C1C1C1C1C1C1C1C1C1C1C1CB3
:100D80001C1C1C1C1C1C1C1C1C1C1C1F1C1C1C1CA0
:100D90001C1C1C1C1C1C1C1C1C1C1C1C1C1C1C1C93
:100DA0001C1C1C1C1C1C1C1C1C1C1C1C1C1C1C1C83
:100DB0001C1C1C1C1C1C1C1C1C1C1C1C1C1C0000AB
:100DC0000000000084C8C8C7C0C78808C7C0CFC01B
:100DD00000CFC00FC4C4CFC0CBCA8A04C0C1C0C03A
:100DE000C0C0C000C0C0C0C0C0C0C0800000000003
:100DF000000000C0C0C0C0C0C0C0800080C0E0C053
:100E00008000C0C0C0C0C0C0C08000C0C0C0C0C0E2
:100E1000C0C0C0C0C000C0C0C0C000C0C0C000C012
:100E2000C0C0C0C0C0C0800080C0C0C0C0C0C08042
:100E300000C0C0C0C000C0C0C00000000000000072
:100E4000000000001F3F3F3F38F9F100FFFFFFFFA8
:100E500000FFFF00FFFFFFFF383F1F00FFFFFFFF06
:100E600038383800FFFFFFFF38FFFFEF00000000B9
:100E7000000000FFFFFFFF38FFFFEF00D9EB73BB5F
:100E8000D900FFFFFFFF18FFFFEF00000000FFFF8A
:100E9000FFFF00000000FFFFFFFF18FFFFFF00FF44
:100EA000FFFFFF00FFFFFF00FFFFFFFF18FFFFFF37
:100EB000001F1FFFFFF8FF1F1F00000000000000C1
:100EC00000000000030707060607030003070707E3
:100ED00006070300070707070000000007070707CA
:100EE00006060600070707070007070700000000BF
:100EF00000000007070707060707030005060703AA
:100F0000050007070707000707070000000007079D
:100F100007070000000007070707000787E7A0A7EB
:100F2000A7E70706C7670380E70787E7A0A72707A4
:100F300000C020070787E700000000000000C0C0D5
:100F4000C0C0C0C0C0C0C0C0C0C0C0C0C0C0C0C0A1
:100F5000C0C0C0C0C0C0C0C0C0C0C0C0C0C0C0C091
:100F6000C0C0C0C0C0C0C0C0C0C0C0C0C0C0C0C081
:100F7000C0C0C0C0C0C0C0C0C0C0C0C0C0C0C0C071
:100F8000C0C0C0C0C0C0C0C0C0C0C0C0C0C0C0C061
:100F9000C0C0C0C0C0C0C0C0C0C0C0C6C3C0C0C048
:100FA000C7C4C4C0C7C4C6C3C0C4C4C4C4C7C3C004
:100FB000C6C3C1C1CFC3C0C0C0C0C0C0C0C0010192
:100FC0000101010101010101010101010101010111
:100FD00001010101010101010101E111D1F9090939
:100FE0004909F1010101010101010101010101E1D1
:100FF000F179F93999191991E10101010101010111
:101000000101010101E1F1F91919090911E10101D8
:101010000101010101010101C1E1E1F13131393980
:10102000C1010101010101010101010101010101F0
:1010300001010101010101010101010101010000A2
:1010400000000000000000000000000000000000A0
:101050000000000000000080E030017AFAF7F4049C
:10106000F5740360407828000000000000E01003E1
:101070003B7AF4F4F4F47404434040400000000070
:101080000080804000376968E8E9E86904030000EF
:10109000000000000000C0600377F4E9E8E9E8E937
:1010A00007C080C0400000000000000000000000F9
:1010B0000000000000000000000000000000000030
:1010C0000000003E5B4F5B3E3E6B4F6B3E1C3E7C28
:1010D0003E1C183C7E3C181C577D571C1C5E7F5ED6
:1010E0001C00183C1800FFE7C3E7FF001824180095
:1010F000FFE7DBE7FF30483A060E2629792926402C
:101100007F050507407F05253F5A3CE73C5A7F3E57
:101110001C1C08081C1C3E7F14227F22145F5F00E9
:101120005F5F06097F017F006689956A6060606085
:101130006094A2FFA29408047E040810207E201070
:1011400008082A1C08081C2A08081E101010100C79
:101150001E0C1E0C30383E3830060E3E0E060000C7
:1011600000000000005F00000007000700147F146B
:101170007F14242A7F2A12231308646236495620DA
:10118000500008070300001C2241000041221C00FF
:101190002A1C7F1C2A08083E0808008070300008BE
:1011A00008080808000060600020100804023E5192
:1011B00049453E00427F4000724949494621414924
:1011C0004D331814127F1027454545393C4A49498B
:1011D0003141211109073649494936464949291EF5
:1011E00000001400000040340000000814224114E4
:1011F00014141414004122140802015909063E4136
:101200005D594E7C1211127C7F494949363E41415D
:1012100041227F4141413E7F494949417F090909B6
:10122000013E414151737F0808087F00417F410022
:101230002040413F017F081422417F404040407FD1
:10124000021C027F7F0408107F3E4141413E7F091E
:101250000909063E4151215E7F091929462649495F
:10126000493203017F01033F4040403F1F2040209F
:101270001F3F4038403F631408146303047804039D
:101280006159494D43007F4141410204081020004B
:101290004141417F040201020440404040400003BC
:1012A00007080020545478407F2844443838444488
:1012B0004428384444287F385454541800087E0980
:1012C0000218A4A49C787F0804047800447D4000A0
:1012D0002040403D007F1028440000417F40007CBA
:1012E000047804787C080404783844444438FC18B2
:1012F00024241818242418FC7C0804040848545496
:10130000542404043F44243C4040207C1C204020C2
:101310001C3C4030403C44281028444C9090907C29
:101320004464544C4400083641000000770000003B
:101330004136080002010204023C2623263C1EA17D
:10134000A161123A4040207A3854545559215555DC
:10135000794121545478412155547840205455798D
:10136000400C1E527212395555555939545454591E
:1013700039555454580000457C410002457D4200D7
:1013800001457C40F0292429F0F0282528F07C54E0
:101390005545002054547C547C0A097F4932494900
:1013A00049323248484832324A4848303A4141216D
:1013B0007A3A42402078009DA0A07D3944444439C7
:1013C0003D4040403D3C24FF2424487E4943662B59
:1013D0002FFC2F2BFF0929F620C0887E09032054FB
:1013E0005479410000447D413048484A32384040F9
:1013F000227A007A0A0A727D0D19317D2629292F59
:1014000028262929292630484D4020380808080870
:1014100008080808382F10C8ACBA2F102834FA0072
:10142000007B000008142A142222142A14089500B4
:10143000220095AA005500AAAA55AA55AA000000A4
:10144000FF00101010FF00141414FF001010FF0014
:10145000FF1010F010F0141414FC001414F700FF27
:101460000000FF00FF1414F404FC141417101F10E4
:10147000101F101F1414141F00101010F000000093
:10148000001F101010101F10101010F0100000009E
:10149000FF101010101010101010FF10000000FFAF
:1014A000140000FF00FF00001F10170000FC04F4F0
:1014B00014141710171414F404F40000FF00F714A8
:1014C000141414141414F700F7141414171410102F
:1014D0001F101F141414F4141010F010F000001F4B
:1014E000101F0000001F14000000FC140000F0108A
:1014F000F01010FF10FF141414FF141010101F0030
:10150000000000F010FFFFFFFFFFF0F0F0F0F0FF31
:10151000FFFF0000000000FFFF0F0F0F0F0F384408
:101520004438447C2A2A3E147E02020606027E02C9
:101530007E0263554941633844443C04407E201E8A
:101540002006027E020299A5E7A5991C2A492A1CB9
:101550004C7201724C304A4D4D303048784830BCA6
:10156000625A463D3E494949007E0101017E2A2AD0
:101570002A2A2A44445F444440514A444040444A51
:1015800051400000FF0103E080FF000008086B6B82
:10159000083612362436060F090F06000018180008
:1015A00000001010003040FF0101001F01011E006B
:1015B000191D1712003C3C3C3C0000000000080BC9
:1015C00000020202000009040000010202000005FE
:1015D000240010010524010101042402060524064B
:1015E00000010705810310004009040100020A0000
:1015F00000000705020240000007058302400000CA
:101600000403090412010002EF0201404123368065
:1016100000010102030141726475696E6F204C4C38
:10162000430041726475696E6F204C656F6E617224
:10163000646F00F0F89C8E8783878E9CF8F0000022
:10164000FEFF0303030303070EFCF80000FEFF0385
:1016500003030303070EFCF80000FFFF0000000077
:10166000000000FFFF0000FEFF8383838383C7EE3B
:101670007C380000F8FC0E07030303070EFCF8009B
:10168000003F7FE0C08080C0E07F3FFFFF0101019D
:1016900001010101FFFF0000FFFF0C0C0C0C1C3EC0
:1016A00077E3C100007FFFC0C0C0C0C0E0703F1F33
:1016B00000001F3F70E0C0C0C0E0703F1F00007F0F
:1016C000FFC1C1C1C1C1E3773E1C00001F3F70E0F4
:1016D000C0C0C0E0703F1F000000000001FFFF011C
:1016E000000000D5F08D14A1C881CFD9F1AF200042
:1016F0002C1B11241FBECFEFDAE0DEBFCDBF11E0FF
:10170000A0E0B1E0E6E3F2E402C005900D92AE3B4A
:10171000B107D9F726E0AEEBB1E001C01D92A13AC6
:10172000B207E1F71BE0C9E7DBE004C02197FE0147
:101730000E94EE1FC837D107C9F70E948E1B0C9478
:1017400019210C9400008091DC010895FC01868928
:101750009789009729F00397D0F030E020E002C08D
:1017600026813781808991890196918B808B44896C
:1017700055898417950754F08289938901968217B9
:10178000930744F4938B828B118A108A08952085E5
:101790003185E8CF138A128AF7CF480F592F511D90
:1017A0001416150684F5803891056CF597FF02C074
:1017B00090E080E04138510514F040E850E0481BCB
:1017C000FB01E770FF2721E001C0220FEA95EAF74D
:1017D00077FF02C0695F7F4FFB0133E0F595E79526
:1017E0003A95E1F7F695FE2FEE27F795E795E80F86
:1017F000F91FE050FE4F415030F08191DF01119709
:10180000822B8C93F8CF0895E0E0F2E0A0E0B8E0FE
:1018100000800EBC8111012C1197A0FDFDCF01921B
:10182000B9F70DB40895FC018091FF01882311F1EF
:101830003FB7F89482E08093E9002091F200822F74
:1018400090E01816190614F481E090E0882339F02E
:10185000289844E64093FE014091F1004083222302
:1018600039F02091F200211103C02BE62093E8000B
:101870003FBF08958FEF9FEF08952FB7F89483E04F
:101880008093E9009091E800892F807295FF04C051
:101890009091F20080E4891B2FBF08958091F6019A
:1018A00081110DC082E08093F20184E08093F30106
:1018B0001092F5011092F40181E08093F60182EF1D
:1018C00091E008953FB7F8948091EE019091EF0177
:1018D000A091F001B091F10126B5A89B05C02F3F62
:1018E00019F00196A11DB11D3FBFBA2FA92F982F46
:1018F0008827BC01CD01620F711D811D911D42E041
:10190000660F771F881F991F4A95D1F708958F9208
:101910009F92AF92BF92CF92DF92EF92FF926B01B4
:101920007C010E94620C4B015C01C114D104E104F2
:10193000F104B9F00E94620C681979098A099B09BF
:10194000683E73408105910580F321E0C21AD108F9
:10195000E108F10888EE880E83E0981EA11CB11CF6
:10196000E4CFFF90EF90DF90CF90BF90AF909F902B
:101970008F9008954091D6015091D7012091D401C4
:101980003091D50142175307B4F49091E800957057
:10199000E1F39091E80092FD19C08093F1008091ED
:1019A000D6019091D70101968F739927892B19F44D
:1019B0008EEF8093E8008091D6019091D701019637
:1019C0009093D7018093D60181E0089580E0089537
:1019D000DF92EF92FF920F931F93CF93DF93D82E56
:1019E0008A01EB017B01E40EF51ECE15DF0559F0EF
:1019F000D7FE12C0FE0184910E94BA0C219681117B
:101A0000F4CF0FEF1FEFC801DF91CF911F910F911E
:101A1000FF90EF90DF9008958881EECF0F931F9392
:101A2000CF93DF931F92CDB7DEB782E0898342E484
:101A300050E06EEB75E180E80E94E80C0E944E0CCD
:101A4000DC0112960D911C910115110589F0D80148
:101A5000ED91FC910280F381E02DBE016F5F7F4F1D
:101A6000C801099597FD04C0F80100851185ECCFE8
:101A700089810F90DF91CF911F910F91089561504F
:101A800030F02091F100FC0120830196F8CF2898D6
:101A900084E68093FE010895AF92BF92CF92DF92C9
:101AA000EF92FF920F931F93CF93DF936C017B0113
:101AB0008B01040F151FEB015E01AE18BF08C017A4
:101AC000D10759F06991D601ED91FC910190F08117
:101AD000E02DC6010995892B79F7C501DF91CF91DA
:101AE0001F910F91FF90EF90DF90CF90BF90AF903C
:101AF00008958F929F92AF92BF92CF92DF92EF9212
:101B0000FF920F931F93CF93DF936C017B018A01A8
:101B100080910C01882309F45CC08091FF01882327
:101B200009F457C08091DA0180FF05C08091E00080
:101B300082608093E000E801B12C8AEFA82E93E048
:101B4000892E2AE3922E209711F4BB20D9F10E940E
:101B50003D0C81110AC0AA94AA20D9F161E070E07D
:101B600080E090E00E94870CEECF8C171D0611F0EC
:101B70000CF08C2F9FB7F8948092E9002091E80038
:101B800025FD02C09FBFDFCF282F30E0C21BD30B43
:101B9000F701815020F041914093F100FACFE20E1D
:101BA000F31EBB2021F09092E800B12CEBCF809186
:101BB000E80085FDE7CF9092E800BB24B39420971E
:101BC00009F3F3CF5D9884E68093D90110161106CE
:101BD0003CF081E090E0F6019383828310E000E026
:101BE000C801DF91CF911F910F91FF90EF90DF908F
:101BF000CF90BF90AF909F908F900895CF93DF9339
:101C00001F92CDB7DEB76983DC01ED91FC910280B4
:101C1000F381E02D41E050E0BE016F5F7F4F0995F9
:101C20000F90DF91CF91089583E08093E900809138
:101C3000F200882319F08AE38093E80008950E9457
:101C40003D0C90E00895CF93DF931F92CDB7DEB7A0
:101C5000FC018485958597FD08C02FEF3FEF358700
:101C600024870F90DF91CF910895CE0101960E94B5
:101C7000130C019719F4898190E0F3CF8FEF9FEF58
:101C8000F0CF0F931F93CF93DF931F92CDB7DEB7A3
:101C90008C01FC018485958597FF0BC0CE010196D0
:101CA0000E94130C019771F4898190E0F8019587E7
:101CB0008487F801848595850F90DF91CF911F91DE
:101CC0000F9108958FEF9FEFF1CFFC0184859585EB
:101CD00097FD0BC09FB7F89482E08093E900809154
:101CE000F2009FBF90E0019608959FB7F89482E0BC
:101CF0008093E9008091F2009FBF90E008952091C9
:101D0000C801E091CB01F091CC01CF0102969093F4
:101D1000CC018093CB01222319F0859194910895F1
:101D20008081918108954F925F926F927F928F92FE
:101D30009F92AF92BF92CF92DF92EF92FF920F935A
:101D40001F93CF93DF934C015901FC2DC02FD0E09E
:101D5000CE01880D991D181619060CF06CC020E8EC
:101D6000821691040CF067C09B012E0D311D1216D6
:101D700013060CF060C0603471050CF05CC04115B6
:101D8000510509F458C0E62FE770FE2EDB0177FD00
:101D9000179633E0B595A7953A95E1F73A2F77FF77
:101DA00004C0FF2011F03FEF3A0F6627772768192C
:101DB000790997FC02C070E060E0803891050CF46E
:101DC0004BC090E89819961BA32F032E000CBB0B59
:101DD0001A2F10953F3F0CF010E021E08E2D8770F8
:101DE00009F420E0E694E694E694E20EAE0DB11D0F
:101DF00019971CF028E0E22EE31AE11A310F20E8CF
:101E00003203D0011124A80DB91DA60FB71F019FE1
:101E1000600D711D1124460F571F0F2D0F2C000C44
:101E2000110BF33009F41CC1C8F4F13009F4D0C02F
:101E3000F23009F47CC0DF91CF911F910F91FF9098
:101E4000EF90DF90CF90BF90AF909F908F907F905A
:101E50006F905F904F900895902FB5CFFA3FB1F1FA
:101E6000232F2E0DFB3F39F7321729F3BD016050A8
:101E70007E4FD12CC12CC91608F0A4C0FA01EC0D7C
:101E8000FD1DE491F0E04F01002E02C0880C991C6A
:101E90000A94E2F737FD06C0FB018081E82CE0944C
:101EA0008E218083FF2061F0373054F45B01F0E82D
:101EB000AF0EB11CE92CE094F50180818E21808366
:101EC000FFEFCF1ADF0A6F5F7F4FD5CF232F2E0D85
:101ED000321709F4B0CFBD0160507E4FD12CC12C18
:101EE000C91608F069C0FA01EC0DFD1DE491F0E09F
:101EF0004F01002E02C0880C991C0A94E2F737FDAE
:101F000004C0FB01808188298083FF2051F0373095
:101F100044F45B01F0E8AF0EB11CF5018081892922
:101F20008083FFEFCF1ADF0A6F5F7F4FD9CF6FEF4C
:101F300070E00F2C02C0660F771F0A94E2F76095DD
:101F40007095772E232F2E0D321709F474CFFD01D3
:101F5000E050FE4F6F01B12CA12CA91638F5FA0103
:101F6000EA0DFB1DE491F0E02F01002E02C0440CAD
:101F7000551C0A94E2F737FD05C0F60180818623DF
:101F800084298083FF2059F037304CF44601F0E873
:101F90008F0E911CF4018081872185298083FFEFBA
:101FA000AF1ABF0A8FEFC81AD80AD7CF3F5F4C0FBE
:101FB0005D1FA058BF4FC8CF3F5F4C0F5D1FA0589B
:101FC000BF4F86CF3F5F4C0F5D1FA058BF4F4CCF18
:101FD0006A0D7B1D232F2E0D321709F42CCFFD0126
:101FE000E050FE4F6F01B12CA12CA91688F5FB0122
:101FF000EA0DFB1D8490912C002E02C0880C991CC8
:102000000A94E2F780949094FA01EA0DFB1D649023
:10201000712C002E02C0660C771C0A94E2F737FD83
:1020200005C0F6018081882186298083FF2049F040
:1020300037303CF4F601E058FF4F80818921872931
:102040008083FFEFAF1ABF0A8FEFC81AD80ACDCF2F
:102050003F5F4C0F5D1F6C0F7D1FA058BF4FBCCF63
:10206000C92ED12CFA01E60FF71FA050BE4F00E891
:1020700010E00C191D09CC19DD09BE01660F771F90
:1020800041E050E06A010F2C01C0CC0C0A94EAF741
:10209000592F2E2D792ECF93DF93ED01EF96EF96EA
:1020A00022968590A590FF2059F08C9C4001AC9C15
:1020B000500137302CF4E880B094EB20E928E99205
:1020C00033233AF0EC90A094EA20E828ED920C94A7
:1020D0006A1011965A9529F72A9551F0572D339584
:1020E0001124E60FF11DA00FB11DC00FD11DD9CFD6
:1020F000DF91CF9111249FCE8F929F92AF92BF928A
:10210000CF92DF92EF920F931F93CF93DF93EC0167
:102110008E899F898130910509F444C078F0029737
:1021200009F443C0DF91CF911F910F91EF90DF90A1
:10213000CF90BF90AF909F908F900895CA80DB8022
:10214000C114D10479F32A89F60104913196E490FF
:10215000A6014E5F5F4F2223D1F061E070E09E2D1B
:10216000977011F470E060E08E2D869586958695C7
:10217000860F972F911D089FB001099F700D1124A4
:10218000269FC001279F900D1124480F591F6A8D6B
:102190007B8D8AEFC82E30E020E0888D998D0E94DB
:1021A000930EC0CFCC80DD80CBCFCC80DD808C8403
:1021B0009D84AE84BF846A8D7B8D072E000C880BB6
:1021C000990B0E94621FA50194010E94BE1E0E94ED
:1021D0002A1F8B017B8F6A8F2AE939E949E95EE37F
:1021E000C501B4010E94BE1E6C877D878E879F87C4
:1021F0008A859B85081719070CF4A2CF9B8F8A8FBD
:102200001B8A1A8A198A188A81E090E09F8B8E8B2C
:1022100097CF2D9A0895BC0190E080E00C94870C34
:102220008FB18095807F669B88601C9B8460089539
:102230009091E101982329F49091E201982381E0A3
:1022400009F480E0089580E00C94040C8038910536
:10225000B8F460347105A0F420E191E061FD94E0F0
:1022600060FD990F62FD9295687F269FD001112431
:10227000A80FA050BE4F8C9140FF03C0892B8C93B8
:10228000089590958923FBCF8F929F92AF92BF9232
:10229000CF92DF92EF92FF920F931F93CF93DF9332
:1022A0007C016B01C1E0D0E002E010E0842F84707B
:1022B000A82E842F8270982E842F8870882E4170CB
:1022C000B42EAA2091F041E0B8016C0D7D1DCE0125
:1022D0008E0D9F1D0E94261141E0BE016C0D7D1DDB
:1022E000C701800F911F0E942611992091F041E0B3
:1022F000B601601B710BCE018E0D9F1D0E94261131
:1023000041E0B6016C1B7D0BC8018E0D9F1D0E9424
:102310002611882091F041E0BE016C0D7D1DC701A2
:10232000801B910B0E94261141E0B8016C0D7D1DB0
:10233000C7018C1B9D0B0E942611BB2091F041E030
:10234000B6016C1B7D0BC701801B910B0E942611EF
:1023500041E0B601601B710BC7018C1B9D0B0E94F5
:10236000261121960130110519F001E010E0A9CFE6
:10237000DF91CF911F910F91FF90EF90DF90CF9061
:10238000BF90AF909F908F9008958F929F92AF9241
:10239000BF92CF92DF92EF92FF920F931F93CF9352
:1023A000DF936D3089F0C090E501D090E6016A308E
:1023B000D1F41092E4011092E30188E0C80ED11C20
:1023C000D092E601C092E50181E090E0DF91CF91EB
:1023D0001F910F91FF90EF90DF90CF90BF90AF9043
:1023E0009F908F9008950091E3011091E401E5E042
:1023F0006E9FE0011124C254DF4E4801F12CF5E03C
:10240000E12CFF1629F0CE010196FE01E490EC01CB
:10241000B12CA12C4E2D4170B6016A0D7B1DC4015B
:102420000E942611E694FFEFAF1ABF0A88E0A816B3
:10243000B10481F7F394EFEF8E1A9E0AF6E0FF12D3
:10244000DECF0A5F1F4F1093E4010093E301BCCF7E
:10245000DF92EF92FF920F931F93CF93DF937C0154
:10246000D22E8B01040F111DEB0177FF02C0D0E0CB
:10247000C0E0C8010134110514F080E490E0C817F1
:10248000D9073CF44D2DBE01C7010E9426112196AB
:10249000F0CFDF91CF911F910F91FF90EF90DF90E0
:1024A00008956F927F928F929F92AF92BF92CF9238
:1024B000DF92EF92FF920F931F93CF93DF937C01F4
:1024C0004B01642ED22EC22E01E010E0C2E0D0E01B
:1024D00045E04D0DB4016C1B7D0B83E0782E7C0C28
:1024E0005401A01AB10A81E020E0681218C0C801A6
:1024F0008E0D9F1D0E94281220E0472DB501CE01B0
:102500008E0D9F1D0E9428120F5F1F4FDA94DA94E0
:10251000C394C394219779F0C1E0D0E0D9CFC7012B
:10252000801B910B0E94281220E0472DB501C701A6
:102530008C1B9D0BE7CFDF91CF911F910F91FF90E7
:10254000EF90DF90CF90BF90AF909F908F907F9053
:102550006F900895089590E080E0089581E0809361
:1025600000012FB7F8948091EA019091EB01A091BE
:10257000EC01B091ED012FBF8093C4019093C50190
:10258000A093C601B093C701089508950895EF92EE
:10259000FF920F931F93CF93DF93FC010681E4809A
:1025A000F580C281D3810C0F1D2F111DC017D107DB
:1025B00044F421E040E4B701CE010E9428122196A4
:1025C000F5CFDF91CF911F910F91FF90EF9008957C
:1025D0000895CF92DF92EF92FF920F931F93CF93C4
:1025E000DF93EC016B017C0187E0E80EF11C10E049
:1025F00000E08B8D9C8D081719078CF4D7018D9105
:102600009D917D01009741F0DC01ED91FC910680E8
:10261000F781E02DB60109950F5F1F4FEACF8D813D
:102620009E81DF91CF911F910F91FF90EF90DF90EE
:10263000CF900C947C10CF93DF93EC0188E00E9444
:1026400018118823E9F0EA81FB813097C9F0809165
:10265000BE019091BF01880F991FA091C001B09158
:10266000C101A80FB91F8D919C91A0919B06B091BB
:102670009C0615969C938E93149782E090E00995A2
:1026800080E40E941811882361F08091BE0190912E
:10269000BF018430910544F501969093BF0180936A
:1026A000BE0180E20E941811882361F08091BE0172
:1026B0009091BF0118161906E4F401979093BF0199
:1026C0008093BE018091BE019091BF01880F991F38
:1026D000E091C001F091C101E80FF91F8081918163
:1026E000DF91CF910C94A60B1092BF011092BE0106
:1026F000D8CF84E090E0E2CFFC0173836283089539
:102700000895089508950C94571EFB010190002030
:10271000E9F73197AF01461B570BDC01ED91FC91B6
:102720000280F381E02D0994AF92BF92CF92EF9295
:102730000F931F93CF93DF935B01ECEBFCE00491CD
:10274000EDEBFCE0E49082E0C82E30E020E04EEBC0
:102750005CE070E060E090E080E00E94930E8FB754
:10276000F8944091EA015091EB016091EC01709175
:10277000ED018FBF8091C4019091C501A091C60168
:10278000B091C7018A019B01081B190B2A0B3B0B57
:10279000D901C801843F9140A105B10570F0809135
:1027A000000191E08927809300014093C401509378
:1027B000C5016093C6017093C701C0E1D0E020E07D
:1027C0004CE065E370E0CE010E9428122196C037EC
:1027D000D105A9F727E030E041E067E370E08FE63C
:1027E00090E00E94511227E030E042E067E370E0A1
:1027F00080E190E00E94511240E665E370E080E1E4
:1028000090E00E94CD0B21E048E067E370E08EE0AD
:1028100090E00E94281221E048E067E370E081E741
:1028200090E00E94281241E067E370E080E190E0D0
:102830000E94441142E067E370E08FE690E00E945E
:10284000441144E06EE370E08FE690E00E94441192
:1028500048E06EE370E080E190E00E9444118091D6
:1028600000018823C9F081E190E09093E401809316
:10287000E30187E390E09093E6018093E50165E84A
:1028800071E0C501DF91CF911F910F91EF90CF9033
:10289000BF90AF900C948513DF91CF911F910F9152
:1028A000EF90CF90BF90AF900895CF93DF93EC015E
:1028B00088E00E9418118823A9F066E971E080E0A1
:1028C00096E00E94851367EA71E080E096E00E943E
:1028D0008513EA81FB81309729F081E090E0DF9158
:1028E000CF910994DF91CF9108954F925F926F92AB
:1028F0007F92AF92BF92CF92DF92EF92FF920F93AF
:102900001F93CF93DF93CDB7DEB7A1970FB6F8949F
:10291000DEBF0FBECDBF8C017B0184E00E94181189
:10292000882349F0D8011296ED91FC91309719F067
:1029300090E080E0099588E00E9418118823C1F09A
:10294000D8011596ED91FC9186899789029781F0BF
:1029500080E090E0A0E4B0EC84879587A687B787F5
:10296000138A128A118A108A82E090E0978B868BF4
:102970008EEF9FEF9093C3018093C201D701ED9139
:10298000FC910190F081E02D6DE2C701099519A23B
:1029900082E388A3BE01605E7F4FC7010E9485135A
:1029A00067EA71E0C7010E948513C090C201D09010
:1029B000C3018FB7F8944090EA015090EB0160900A
:1029C000EC017090ED018FBF5801B7E0AB0EB11C68
:1029D000F12CE12CF801838D948DE816F9065CF555
:1029E000F501A191B1915F01109709F112962D9116
:1029F0003C9113972C0D3D1D13963C932E931297EB
:102A000016968D919C911797280F391F37FF07C095
:102A10008C0D9D1D0A9613969C938E931297ED91A3
:102A2000FC9111970480F581E02DCD010995FFEF10
:102A3000EF1AFF0ACFCF458E568E678E70A2858122
:102A400096810E94A60BA1960FB6F894DEBF0FBE2A
:102A5000CDBFDF91CF911F910F91FF90EF90DF904D
:102A6000CF90BF90AF907F906F905F904F90089500
:102A70008F929F92AF92BF92CF92EF920F93CF938C
:102A8000DF93CB012091BE013091BF01220F331F94
:102A9000E091C001F091C101E20FF31F0190F081BC
:102AA000E02D648D758DFB0101900020E9F73197D1
:102AB000E61BF70B46E04E9F90014F9F300D11240F
:102AC00037FF02C02F5F3F4F3595279531952195F0
:102AD0003109205C3F4F3093E4012093E3011092D1
:102AE000E6011092E5016115710511F00E94851350
:102AF0008091BE019091BF01880F991FE091C001A4
:102B0000F091C101E80FF91F808191810E947C1032
:102B1000D0E0C0E034EB832E3CE0932E45EBA42EB6
:102B20004CE0B42EF4010491F501E49082E0C82E4B
:102B300030E020E046EB5CE06CE370E0CE010E9408
:102B4000930E2696CE37D10569F7DF91CF910F917D
:102B5000EF90CF90BF90AF909F908F9008950C947E
:102B60009020CF93DF93D0E0C0E0E091C001F091DE
:102B7000C101EC0FFD1F80819181009739F0DC01CC
:102B8000ED91FC910280F381E02D09952296CA30E7
:102B9000D10559F78091C0019091C101009721F0B2
:102BA000DF91CF910C949020DF91CF9108950C94F8
:102BB00090200C9490200C949020CF93DF93EC0104
:102BC0001092C3011092C201A0919B06B0919C0685
:102BD0001496ED91FC911597FE83ED83118E108E66
:102BE000138A128A118A108A81E090E0978B868B73
:102BF000868D978D13969C938E931297FE01379630
:102C0000CE014B96119211928E179F07D9F78CE047
:102C100090E00E94F41FFC01138212828CE390E08A
:102C20009583848388EC90E09783868381E090E0AD
:102C30009187808728E231E0318320832AEA31E0DE
:102C400033872287F887EF839C8F8B8FDF91CF911B
:102C500008952F923F924F925F926F927F928F9240
:102C60009F92AF92BF92CF92DF92EF92FF920F931B
:102C70001F93CF93DF938AE090E00E94F41F90931C
:102C8000C1018093C001512C412C30E3632E712C83
:102C9000CEE1D0E043E0842E912C52E0E52EF12CE1
:102CA00069E0C62ED12C76E0A72EB12CE1EB2E2EBA
:102CB000E1E03E2E0091C0011091C10180E290E060
:102CC0004114510409F044C00E94F41FFC01148611
:102CD000158616861786718E608ED38FC28FD38726
:102CE000C287138A128A978E868E88E191E091833B
:102CF0008083358E248EAEEAB5E0B383A283F7825B
:102D0000E6828CEA90E095838483D186C086B58A7A
:102D1000A48A178A168AD801ED93FC93BFEF4B1A49
:102D20005B0A85E04816510429F6DF91CF911F9187
:102D30000F91FF90EF90DF90CF90BF90AF909F905A
:102D40008F907F906F905F904F903F902F9008955D
:102D50000E94F41FFC011486158616861786718E54
:102D6000608ED38FC28FD387C287138A128A978EC1
:102D7000868E80E291E091838083A7EBB1E0B58FEE
:102D8000A48F82EB9BE093838283F782E682A0EBA1
:102D9000B6E0B583A483D186C086B58AA48A178A93
:102DA000168AC201880F991F080F191FB4CFCF933D
:102DB000DF93EC018091E7019091E801DC01ED9156
:102DC000FC910084F185E02D0995C130D10581F099
:102DD00028F02297B9F0DF91CF91089585E896E029
:102DE0009093E8018093E701DF91CF910C94AE12AC
:102DF00081E896E09093E8018093E701DF91CF911D
:102E00000C94291680E696E09093E8018093E70100
:102E1000DF91CF910C94DD151F920F920FB60F9298
:102E200011242F933F938F939F93AF93BF938091E0
:102E3000EA019091EB01A091EC01B091ED0130918C
:102E4000E90123E0230F2D3758F50196A11DB11D8F
:102E50002093E9018093EA019093EB01A093EC01A8
:102E6000B093ED018091EE019091EF01A091F001FE
:102E7000B091F1010196A11DB11D8093EE019093D7
:102E8000EF01A093F001B093F101BF91AF919F9139
:102E90008F913F912F910F900FBE0F901F9018951B
:102EA00026E8230F0296A11DB11DD2CF1F920F92CB
:102EB0000FB60F9211248F939F938091E100909110
:102EC000E100937F9093E10083FF0FC01092E9002F
:102ED00091E09093EB001092EC0092E39093ED0060
:102EE0001092FF0198E09093F00082FF22C093E0DF
:102EF0009093E9009091F200992319F09AE390934E
:102F0000E8009091D901992341F09091D901915015
:102F10009093D901911101C05D9A9091FE0199237E
:102F200041F09091FE0191509093FE01911101C0EA
:102F3000289A84FF18C08091E2008E7E8160809381
:102F4000E2008091E1008F7E8093E1008091DA01C0
:102F50008E7E80618093DA019F918F910F900FBEDA
:102F60000F901F90189580FFF7CF8091E2008E7E22
:102F700080618093E2008091E1008E7E8093E10089
:102F80008091DA018E7E8160E5CF1F920F920FB69D
:102F90000F921124CF92DF92EF92FF920F931F9323
:102FA0002F933F934F935F936F937F938F939F9351
:102FB000AF93BF93EF93FF93CF93DF93CDB7DEB77C
:102FC0006C97DEBFCDBF1092E9008091E80083FFCF
:102FD00025C068E0CE0145960E943F0D82EF8093A8
:102FE000E8008D8987FF39C09091E80090FFFCCF01
:102FF000982F907609F034C19E894F89588D2F897A
:10300000F88C911131C0803861F58091DB0180939B
:10301000F1001092F1008EEF8093E8006C960FB6ED
:10302000F894DEBF0FBECDBFDF91CF91FF91EF913E
:10303000BF91AF919F918F917F916F915F914F91D0
:103040003F912F911F910F91FF90EF90DF90CF90C4
:103050000F900FBE0F901F9018959EEF9093E80071
:10306000C7CF1092F100D5CF913059F48111D3CF51
:103070004130510581F68091DB018D7F8093DB012A
:10308000CACF933049F48111C6CF4130510519F6AA
:103090008091DB018260F2CF953041F48091E800AD
:1030A00080FFFCCF20682093E300B5CF963009F075
:1030B000A9C00B8D1C8D22E01092E9001092D7015F
:1030C0001092D601F2122EC01092D5011092D401A6
:1030D0000E940E0D1F8299E09983FA8291E09E83EF
:1030E00090EA98879AEF99872091D6013091D7017D
:1030F000275F3F4F3C832B838D831092E900109212
:10310000D7011092D6011093D5010093D40149E064
:1031100050E0BE016F5F7F4F80E00E94E80C0E948C
:103120000E0D79CF1093D5010093D4010E944E0C5F
:10313000DC0112960D911C910115110509F451C184
:10314000D801ED91FC910480F581E02DBE016B5E0C
:103150007F4FC8010995009709F03EC1F80100852D
:103160001185EACFF3E0FF120EC08F89882309F49E
:1031700040C0823061F440E860E182E296E10E9462
:10318000F91A811148CF81E28093EB0047CF81305B
:1031900029F440E86BE086E196E1F1CF833099F7BE
:1031A0000E944E0CDC011296ED90FC908E010F5F98
:1031B0001F4F6801E114F10479F0D701ED91FC9102
:1031C0000680F781E02DB801C7010995080F111D90
:1031D000F701E084F184EECFD8011C92F601019052
:1031E0000020E9F73197BF016C197D0940E0C60165
:1031F000C6CF60E076E1FB01449150E080E80E9498
:10320000E80C09CF973009F4BECF983021F481E063
:103210008093F10000CF993009F0FDCE837009F062
:10322000B2CFE1E3F1E081E031E096E321912223A6
:1032300071F08093E9003093EB00DF0111972C913E
:103240002093EC009093ED008F5F873079F78EE745
:103250008093EA001092EA008F898093FF01DBCE11
:103260008B8D9C8D1092E9001092D7011092D6019F
:103270009093D5018093D401898D811192C08E895C
:103280009D89913A49F4813209F07DCF47E050E0C1
:1032900065E071E080E0B3CF913209F074CF833202
:1032A00069F48F89988DB0E0A0E08093010190933C
:1032B0000201A0930301B0930401ADCE803269F402
:1032C0008091E80082FFFCCF67E085E091E00E94FA
:1032D0003F0D8BEF8093E8009ECE823209F09BCEAB
:1032E0008F8980930C01EEEFFFE7859194918B3FDE
:1032F0009C4D51F1E0E0F8E08091050190910601CC
:10330000A0910701B0910801803B9440A105B1054F
:10331000F1F480910C0180FD1AC0EE3F8AE0F807BD
:1033200089F587E797E79183808380916000809398
:10333000D80188E19BE00FB6F894A89580936000CF
:103340000FBE9093600067CEEEEFFAE0D5CF80819C
:1033500091818737974709F05ECEA89580916000EC
:103360008861809360008091D80180936000EE3F77
:103370002AE0F20789F08091FE0A9091FF0A91837A
:10338000808349CE808191818737980751F290934D
:10339000FF0A8093FE0AC5CF1092FF0A1092FE0A20
:1033A0003ACE0E944E0CDC0112960D911C91011533
:1033B000110509F4E8CED801ED91FC910190F0815E
:1033C000E02DBE016B5E7F4FC8010995811123CEB0
:1033D000F80100851185EBCF181619060CF41BCEE9
:1033E000D2CEF1E0FF12BECE64E076E104CF1F92B0
:1033F0000F920FB60F921124CF92DF92EF92FF92AD
:103400002F933F934F935F936F937F938F939F93EC
:10341000AF93BF93CF93DF93EF93FF938091D0014E
:103420009091D101A091D201B091D301892B8A2B27
:103430008B2B09F446C08091CF0181110BC088B15C
:1034400090E4892788B98091CE01882319F088B14A
:10345000805888B98091D0019091D101A091D2017A
:10346000B091D301181619061A061B069CF4809118
:10347000D0019091D101A091D201B091D3010197D7
:10348000A109B1098093D0019093D101A093D201F9
:10349000B093D301FF91EF91DF91CF91BF91AF91A5
:1034A0009F918F917F916F915F914F913F912F915C
:1034B000FF90EF90DF90CF900F900FBE0F901F9076
:1034C00018950E947F0E811520E8920761F4809183
:1034D00071008D7F809371001092910046984798FB
:1034E0001092CD01D7CF21E02093CD01813020E88B
:1034F000920731F41092CC011092CB010E947F0E02
:1035000097FD05C02091CA01222309F454C02091DF
:10351000C901211150C021E02093CE01EC01DF77D9
:10352000209709F04BC081E08093CF0146983FE996
:10353000C32E3FE0D32EE12CF12CCAEFD0E0E09176
:103540005E06F0915F060995811103C081E08093CA
:10355000CF018091CE01882329F08091CF0188236B
:1035600009F43FC047980E947F0E0097F1F19C013B
:10357000DE010E94AE1EDC01CB0129E0B595A795C6
:10358000979587952A95D1F7109290002AE020937D
:103590009100D0929900C09298008093D0019093AE
:1035A000D101A093D201B093D301809171008260C8
:1035B000809371006FCF1092CE01B0CF9E0150E08A
:1035C00040E060E472E48FE090E00E946D1E6901CB
:1035D0007A0181E0C81AD108E108F1081092CF0100
:1035E000AECF4699BFCF479ABECF8FEF9FEFDC019A
:1035F000CBCFEF92FF920F931F93CF93DF93F82ED1
:10360000192FE62E042F81E0860F880F0E94BA0C36
:1036100083E00E94BA0CCF2DD12FEC0EFD2EF11CB1
:10362000CE15DF05B9F007FF13C0FE0184910E949B
:10363000BA0C182F80E00E94BA0C812321968111C8
:10364000EFCFDF91CF911F910F91FF90EF900895F1
:103650008881EDCF81E0F5CF10920306109202062B
:1036600088EE93E0A0E0B0E0809304069093050616
:10367000A0930606B093070681E491E090930106BB
:10368000809300068FEF9FEF90930D0680930C06BA
:1036900010928C0610928B068DE791E090938A062B
:1036A0008093890683EA9BE090935F0680935E0691
:1036B00080E090E890935D0680935C0646983E9A81
:1036C00047983F9A8FE691E090938606809385060F
:1036D00081E691E0909382068093810683E591E0F4
:1036E0009093610680936006E7E6F6E011921192EE
:1036F00086E0EB37F807D1F710927C0610927B0634
:1037000080919306811103C081E0809393068DE838
:1037100096E090939C0680939B060895789484B5D8
:10372000826084BD84B5816084BD85B5826085BDBD
:1037300085B5816085BD80916E00816080936E004B
:10374000109281008091810082608093810080913D
:1037500081008160809381008091800081608093EE
:10376000800080919100826080939100809191000F
:10377000816080939100809190008160809390009F
:103780008091C10084608093C1008091C1008260FB
:103790008093C1008091C10081608093C1008091BD
:1037A000C30081608093C3008091C00082608093D9
:1037B000C0008091C20081608093C20080917A0035
:1037C000846080937A0080917A00826080937A008E
:1037D00080917A00816080937A0080917A0080687D
:1037E00080937A001092FF011092DB011092DA01AF
:1037F0008091D70081608093D70080EA8093D800C1
:1038000089B5806189BD89B5826089BD09B400FE32
:10381000FDCF61E070E080E090E00E94870C809135
:10382000D8008F7C80618093D8008091E000807FF9
:103830008093E0008091E1008E7E8093E1008DE036
:103840008093E200559A209A8FEF9FEF90930D0698
:1038500080930C0681EC80937C0085B1806F85B9E4
:1038600084B1877E84B984B1876E84B95E9A5F988B
:103870008AB1806D8AB9769A6E9881B3806F81BB68
:10388000899880B38D7080BB80E58CBD81E08DBD53
:1038900085E090E00E940B115F9A85E090E00E9425
:1038A0000B115E985C98E3EEF6E180EF96E12491CF
:1038B0002EBD00000DB407FEFDCF31968E179F0779
:1038C000B1F75C9A81E88093640080916500816023
:1038D000809365000E9423110E94101187FF15C07C
:1038E0005C9885EA8EBD00000DB407FEFDCF5C9AA2
:1038F0002E982F982D9880916400806280936400A8
:1039000081E083BF889513BEFCCF0E94101182FF17
:1039100048C02D980E94101184788438E1F40E94E8
:10392000091188EC90E00E940B112F9882E090E042
:103930000E94571E8F3F29F06FEF82E090E00E94B7
:103940005F1E84EF91E00E940B112F9A0E941011CC
:1039500084788438D9F30E94101184718431E1F4A1
:103960000E94091188EC90E00E940B112E9882E0D1
:1039700090E00E94571E882329F060E082E090E0EA
:103980000E945F1E84EF91E00E940B112E9A0E940C
:10399000101184718431D9F388EC90E00E940B11EE
:1039A000B4CF0E94091182E090E00E948313882323
:1039B00009F461C03E9A3F9A81E08093DC0181E086
:1039C00090E00E948313282F2470922E81FF10C054
:1039D00021112E98C1EFDFEF08E010E078E5872E87
:1039E0000E94101186FF4CC02E9A2F9A0E94091136
:1039F00082E390E00E940B110E9410118111F8CF18
:103A000080E180930D01C7E3D1E089919991DC01B8
:103A1000ED91FC910680F781E02D67ED76E1099547
:103A2000B1E0CD33DB0789F785E896E09093E801B4
:103A30008093E7010E94AE12FF24F39400E012E0AD
:103A4000C0E0D0E0EE24E3948FB7F8944091EA010F
:103A50005091EB016091EC017091ED018FBF80916D
:103A6000DF01882309F4CDC01092DF01209761F3B4
:103A70000E940000E9CF1092DC013E983F989FCF52
:103A8000992029F0C430D10511F42E9A2F9881E0A5
:103A90000E94040C9E01D7FF04C0222733272C1B51
:103AA0003D0B27703327CE01D7FD079663E0959530
:103AB00087956A95E1F7D7FF05C00197A801421BDA
:103AC000530B9A01BC017695762F662777956795FB
:103AD00060507E4FF12CE12C3801621A730A8E3F40
:103AE0005FEF950709F43DC08E9CD0018F9CB00D0F
:103AF000112450E040E0AD5CB94E5B01E0E8AE0E51
:103B0000B11C8F3F980791F0FD01E40FF51FE49180
:103B10006B01C40ED51EF0E02F01022E01C0440C33
:103B20000A94EAF7F60154884528448A211531059C
:103B300099F0FD01E40FF51FE4916501C40ED51E57
:103B4000F0E02F01062C02C0559447940A94E2F746
:103B5000F60154884528448A4F5F5F4F4835510528
:103B600081F6019660587F4FEA94EF2809F045C02E
:103B70000E9423118FE090E00E940B112196C93121
:103B8000D10509F02DCF992011F02F9A2D9880E9B9
:103B900091E00E940B110E94091181E090E00E94C7
:103BA000831380FF25CF8AE090E00E9483139FEF6C
:103BB000980F9E3F08F01CCF22E330E03093E401E1
:103BC0002093E30128E330E03093E6012093E50100
:103BD000CBE0D0E0682F89E896E00E94C511CE01C5
:103BE0000E9483132196C131D105A1F70E942311B0
:103BF00088EE93E00E940B11FBCEEE24E394F12CAF
:103C00006ECF9091E001E42FE91B9E2F20910D01D2
:103C1000E21740F49F5F921708F028CFF3BE889513
:103C200013BE24CFE092DF014093E0012091DD013B
:103C30003091DE012F5F3F4F3093DE012093DD0195
:103C4000F80181118FEF00248193819381938193F7
:103C50000394D1F71092E6011092E5011092E4016D
:103C60001092E3018091E2018093E1010E94101122
:103C70008093E2018091E7019091E801DC01ED91F0
:103C8000FC910280F381E02D69E876E0099580914E
:103C9000E7019091E801DC01ED91FC910480F58150
:103CA000E02D69E876E009950E942311DFCEF999AD
:103CB000FECF92BD81BDF89A992780B50895262F31
:103CC000F999FECF1FBA92BD81BD20BD0FB6F89401
:103CD000FA9AF99A0FBE01960895052E97FB1EF4E5
:103CE00000940E94841E57FD07D00E948C1E07FC82
:103CF00003D04EF40C94841E509540953095219538
:103D00003F4F4F4F5F4F0895909580957095619507
:103D10007F4F8F4F9F4F0895A1E21A2EAA1BBB1B06
:103D2000FD010DC0AA1FBB1FEE1FFF1FA217B30787
:103D3000E407F50720F0A21BB30BE40BF50B661F9D
:103D4000771F881F991F1A9469F760957095809561
:103D500090959B01AC01BD01CF010895A29FB001D8
:103D6000B39FC001A39F700D811D1124911DB29FAF
:103D7000700D811D1124911D08955058BB27AA274D
:103D80000E94D51E0C94B41F0E94A61F38F00E94FA
:103D9000AD1F20F039F49F3F19F426F40C94A31FB3
:103DA0000EF4E095E7FB0C949D1FE92F0E94C51FC0
:103DB00058F3BA17620773078407950720F079F460
:103DC000A6F50C94E71F0EF4E0950B2EBA2FA02D4C
:103DD0000B01B90190010C01CA01A0011124FF27B8
:103DE000591B99F0593F50F4503E68F11A16F040B3
:103DF000A22F232F342F4427585FF3CF46953795B2
:103E00002795A795F0405395C9F77EF41F16BA0B76
:103E1000620B730B840BBAF09150A1F0FF0FBB1F24
:103E2000661F771F881FC2F70EC0BA0F621F731F6D
:103E3000841F48F4879577956795B795F7959E3FCA
:103E400008F0B0CF9395880F08F09927EE0F97955B
:103E5000879508950E94311F6894B1110C94E81F52
:103E600008950E94CD1F88F09F5798F0B92F992789
:103E7000B751B0F0E1F0660F771F881F991F1AF055
:103E8000BA95C9F714C0B13091F00E94E71FB1E0B4
:103E900008950C94E71F672F782F8827B85F39F0B3
:103EA000B93FCCF3869577956795B395D9F73EF4EE
:103EB00090958095709561957F4F8F4F9F4F089596
:103EC000E89409C097FB3EF49095809570956195B4
:103ED0007F4F8F4F9F4F9923A9F0F92F96E9BB276A
:103EE0009395F695879577956795B795F111F8CFE6
:103EF000FAF4BB0F11F460FF1BC06F5F7F4F8F4F51
:103F00009F4F16C0882311F096E911C0772321F046
:103F10009EE8872F762F05C0662371F096E8862FDE
:103F200070E060E02AF09A95660F771F881FDAF735
:103F3000880F9695879597F9089597F99F6780E878
:103F400070E060E008959FEF80EC089500240A94EB
:103F50001616170618060906089500240A94121664
:103F60001306140605060895092E0394000C11F497
:103F7000882352F0BB0F40F4BF2B11F460FF04C044
:103F80006F5F7F4F8F4F9F4F089557FD9058440F9D
:103F9000551F59F05F3F71F04795880F97FB991FA8
:103FA00061F09F3F79F08795089512161306140665
:103FB000551FF2CF4695F1DF08C0161617061806F2
:103FC000991FF1CF86957105610508940895E894CD
:103FD000BB2766277727CB0197F90895EE0FFF1FC0
:103FE0000590F491E02D09940F931F93CF93DF93E5
:103FF0008230910510F482E090E0E0919F06F0910C
:10400000A00630E020E0B0E0A0E0309799F4211560
:10401000310509F44AC0281B390B24303105D8F585
:104020008A819B816115710589F1FB0193838283EC
:10403000FE0111C040815181028113814817590747
:10404000E0F04817590799F4109761F012960C9315
:10405000129713961C933296CF01DF91CF911F9147
:104060000F91089500939F061093A006F4CF211599
:10407000310551F04217530738F0A901DB019A01CD
:10408000BD01DF01F801C1CFEF01F9CF9093A00688
:1040900080939F06CDCFFE01E20FF31F8193919392
:1040A0002250310939832883D7CF20919D06309142
:1040B0009E06232B41F42091100130911101309381
:1040C0009E0620939D0620910E0130910F0121152F
:1040D000310541F42DB73EB74091120150911301C3
:1040E000241B350BE0919D06F0919E06E217F30725
:1040F000A0F42E1B3F0B2817390778F0AC014E5F58
:104100005F4F2417350748F04E0F5F1F50939E06F0
:1041100040939D06819391939FCFF0E0E0E09CCF88
:10412000CF93DF930097E9F0FC013297138212825C
:10413000A0919F06B091A006ED0130E020E010971D
:10414000A1F420813181820F931F20919D0630912F
:104150009E062817390709F061C0F0939E06E09388
:104160009D06DF91CF910895EA01CE17DF07E8F5AC
:104170004A815B819E0141155105B1F7E901FB833D
:10418000EA8349915991C40FD51FEC17FD0761F4DB
:10419000808191810296840F951FE901998388831C
:1041A000828193819B838A83F0E0E0E012968D9177
:1041B0009C9113970097B9F52D913C911197CD01E2
:1041C0000296820F931F20919D0630919E0628171C
:1041D000390739F6309751F51092A00610929F06D4
:1041E000B0939E06A0939D06BCCFD383C28340812B
:1041F0005181840F951FC817D90761F44E5F5F4F37
:1042000088819981480F591F518340838A819B81FE
:10421000938382832115310509F0B0CFF093A00676
:10422000E0939F069ECFFD01DC01C0CF1382128276
:06423000D7CFF894FFCF88
:1042360001FFFFFFFF00E10000000000001000008A
:10424600A1068000000000008213D91500000000BE
:104256008113D71500000000C612AF15E812C71269
:1042660000C180810000008506810660060000000E
:1042760000FE0D790D1F0E140E650E230E410E0065
:10428600000000DD157514E9127C13E81200000029
:104296000029161B1338157C13B11500000000AE5B
:1042A60012551494137C13C51200000000C5114C5E
:1042B6000DAB12AA125052455353204120544F20A1
:1042C6005354415254004120427574746F6E20500D
:1042D600726573736564000D0A0067726F756E64AC
:0E42E600004A4F4E41530048454E52590000C9
:00000001FF
