:100000000C948D0B0C94B50B0C94B50B0C94B50B98
:100010000C94B50B0C94B50B0C94B50B0C94B50B60
:100020000C94B50B0C94B50B0C9486170C94F51727
:100030000C94B50B0C94B50B0C94B50B0C94B50B40
:100040000C94B50B0C94B50B0C94B50B0C94B50B30
:100050000C94B50B0C94B50B0C94B50B0C943C178D
:100060000C94B50B0C94B50B0C94B50B0C94B50B10
:100070000C94B50B0C94B50B0C94B50B0C94B50B00
:100080000C94271A0C94B50B0C94B50B0C94B50B6F
:100090000C94B50B0C94B50B0C94B50B0C94B50BE0
:1000A0000C94B50B0C94B50B0C94B50B20200000F0
:1000B0000000000000000000000000000000000040
:1000C0000000000000000000000000000000000030
:1000D00000000000000000000000E0F070F8189838
:1000E0001C9CE00000000000000000000000000078
:1000F0000000000000000060B018017BFAF4F4F486
:1001000074044340200000000000000000000000D4
:10011000000000000000000000080C0602000202BF
:100120000408102040000000000000000000000053
:1001300000000000000000000000000000000000BF
:1001400000000000000000000000000000000000AF
:1001500000000000000000000000C0E0E0F03030CF
:100160003838C0000000000000000000000000005F
:10017000000000000000000000E00377F4E9E8E977
:10018000E8098700000000000000000000000000F7
:100190000000000000000000000009111D01057DA5
:1001A000000000000000000000000000000000004F
:1001B000000000000000000000000000000000003F
:1001C000000000000000000000000000000000002F
:1001D00000000000000000000000C0E0E0F030304F
:1001E0003838C000000000000000000000000000DF
:1001F00000000000000000000000E3F7B4A968E977
:10020000E809870000000000000000000000000076
:1002100000000000000000000000000109710F054F
:1002200000000000000000000000000000000000CE
:1002300000000000000000000000000000000000BE
:1002400000000000000000000000000000000000AE
:1002500000000000000000000000E0F070F81898B6
:100260001C9CE000000000000000000000000000F6
:1002700000000000000000000060016BDAB4B4B4BC
:10028000B4040300000000000000000000000000B3
:10029000000000000000000000000040380E0210C6
:1002A0000A0600000000000000000000000000003E
:1002B000000000000000000000000000000000003E
:1002C000000000000000000000000000000000002E
:1002D00000000000000000000000F0F8387C0C4C2A
:1002E0000E4EF000000000000000000000000000C2
:1002F00000000000000000001028001D356A6A6A36
:100300006A22210000000000000000000000000040
:1003100000000000000000040404040404030100C1
:100320000101030C000000000000000000000000BC
:1003300000000000000000000000000000000000BD
:1003400000000000000000000000000000000000AD
:1003500000000000000000000000E0F070F81898B5
:100360001C9CE000000000000000000000000000F5
:1003700000000000000000000060017BDAB4B4B4AB
:10038000B4040300000000000000000000000000B2
:10039000000000000000000000080C06020200023D
:1003A000061870400000000000000000000000007F
:1003B000000000000000000000000000000000003D
:1003C000000000000000000000000000000000002D
:1003D00000000000000000000000C0E0E0F030304D
:1003E0003838C000000000000000000000000000DD
:1003F00000000000000000000000E3F77469E8E975
:10040000E8090700000000000000000000000000F4
:100410000000000000000000000008111D01047D24
:1004200000010000000000000000000000000000CB
:1004300000000000000000000000000000000000BC
:1004400000000000000000000000000000000000AC
:1004500000000000000000000000C0E0E0F03030CC
:100460003838C0000000000000000000000000005C
:10047000000000000000000000E003F7F4E9E8E9F4
:10048000E809070000000000000000000000000074
:1004900000000000000000000000010011711F05B5
:1004A000000100000000000000000000000000004B
:1004B000000000000000000000000000000000003C
:1004C000000000000000000000000000000000002C
:1004D00000000000000000000000E0F070F8189834
:1004E0001C9CE00000000000000000000000000074
:1004F00000000000000000609008013B7AF4F4F472
:100500007484830000000000000000000000000070
:10051000000000000000000000004020180E021043
:100520000A060000000000000000000000000000BB
:1005300000000000000000000000000000000000BB
:1005400000000000000000000000000000000000AB
:1005500000000000000000000000F0F8387C0C4CA7
:100560000E4EF0000000000000000000000000003F
:1005700000000000000000180404001D3D7A7A7A93
:100580007A021118000000000000000000000000C6
:100590000000000000000000000206040403010047
:1005A0000101030C000000000000000000002020FA
:1005B000000000000000000000000000000000003B
:1005C000000000000000000000000000000000002B
:1005D000000000000000000000000000C0E0E0F0AB
:1005E00030303838C000000000000000000000007B
:1005F000000000000000000000C0600073F7E4E9A4
:10060000E8E9E809C780C0400000000000000000E1
:100610000000000000000000014362100805050111
:1006200005050404040870400000000000000000FC
:1006300000000000000000000000000000000000BA
:1006400000000000000000000000000000000000AA
:100650000000000000000000000000E0F070F8184A
:10066000981C9CE00000000000000000000000005A
:10067000000000000000000080E030013BFAF4F4CC
:10068000F4F47403604060200000000000000000EB
:100690000000000000000000004161180402020098
:1006A0000202020204087040000000000000000086
:1006B00020200000000000000000000000000000FA
:1006C000000000000000000000000000000000002A
:1006D0000000000000000000000000000000E0F04A
:1006E00070F818981C9CE00000000000000000005A
:1006F000000000000000000000000060B018017B56
:10070000FAF4F4F4740443402000000000000000F8
:1007100000000000000000000000000000080C06BF
:100720000200020204081020400000000000000047
:1007300000000000000000000000000000000000B9
:1007400000000000000000000000000000000000A9
:100750000000000000000000000000000000C0E0F9
:10076000E0F030303838C000000000000000000029
:1007700000000000000000000000000000E003771F
:10078000F4E9E8E9E8098700000000000000000043
:10079000000000000000000000000000000009113F
:1007A0001D01057D000000000000000000000000A9
:1007B0000000000000000000000000000000000039
:1007C0000000000000000000000000000000000029
:1007D0000000000000000000000000000000C0E079
:1007E000E0F030303838C0000000000000000000A9
:1007F0000000000000000000000000000000E3F71F
:10080000B4A968E9E80987000000000000000000C2
:1008100000000000000000000000000000000001D7
:1008200009710F050000000000000000000000003A
:1008300000000000000000000000000000000000B8
:1008400000000000000000000000000000000000A8
:100850000000000000000000000000000000E0F0C8
:1008600070F818981C9CE0000000000000000000D8
:100870000000000000000000000000000060016BAC
:10088000DAB4B4B4B40403000000000000000000B7
:100890000000000000000000000000000000004018
:1008A000380E02100A0600000000000000000000E0
:1008B0000000000000000000000000000000000038
:1008C0000000000000000000000000000000000028
:1008D0000000000000000000000000000000F0F830
:1008E000387C0C4C0E4EF0000000000000000000B0
:1008F0000000000000000000000000001028001DA3
:10090000356A6A6A6A2221000000000000000000C7
:1009100000000000000000000000000404040404C3
:10092000040301000101030C0000000000000000AE
:1009300000000000000000000000000000000000B7
:1009400000000000000000000000000000000000A7
:100950000000000000000000000000000000E0F0C7
:1009600070F818981C9CE0000000000000000000D7
:100970000000000000000000000000000060017B9B
:10098000DAB4B4B4B40403000000000000000000B6
:1009900000000000000000000000000000080C063D
:1009A0000202000206187040000000000000000073
:1009B0000000000000000000000000000000000037
:1009C0000000000000000000000000000000000027
:1009D0000000000000000000000000000000C0E077
:1009E000E0F030303838C0000000000000000000A7
:1009F0000000000000000000000000000000E3F71D
:100A00007469E8E9E8090700000000000000000040
:100A100000000000000000000000000000000811BD
:100A20001D01047D00010000000000000000000026
:100A300000000000000000000000000000000000B6
:100A400000000000000000000000000000000000A6
:100A50000000000000000000000000000000C0E0F6
:100A6000E0F030303838C000000000000000000026
:100A700000000000000000000000000000E003F79C
:100A8000F4E9E8E9E80907000000000000000000C0
:100A90000000000000000000000000000000010055
:100AA00011711F050001000000000000000000009F
:100AB0000000000000000000000000000000000036
:100AC0000000000000000000000000000000000026
:100AD0000000000000000000000000000000E0F046
:100AE00070F818981C9CE000000000000000000056
:100AF0000000000000000000000000609008013BC2
:100B00007AF4F4F474848300000000000000000014
:100B10000000000000000000000000000000402075
:100B2000180E02100A06000000000000000000007D
:100B300000000000000000000000000000000000B5
:100B400000000000000000000000000000000000A5
:100B50000000000000000000000000000000F0F8AD
:100B6000387C0C4C0E4EF00000000000000000002D
:100B70000000000000000000000000180404001D38
:100B80003D7A7A7A7A021118000000000000000015
:100B90000000000000000000000000000002060449
:100BA000040301000101030C00000000000000002C
:100BB00000002020000000000000000000000000F5
:100BC0000000000000000000000000000000000025
:100BD0000000000000000000000000000000000015
:100BE000C0E0E0F030303838C00000000000000005
:100BF00000000000000000000000000000C06000D5
:100C000073F7E4E9E8E9E809C780C04000000000A4
:100C1000000000000000000000000000014362101E
:100C200008050501050504040408704000000000E3
:100C300000000000000000000000000000000000B4
:100C400000000000000000000000000000000000A4
:100C5000000000000000000000000000000000E0B4
:100C6000F070F818981C9CE00000000000000000E4
:100C700000000000000000000000000080E03001E3
:100C80003BFAF4F4F4F474036040602000000000C8
:100C9000000000000000000000000000004161189A
:100CA0000402020002020202040870400000000078
:100CB00000000000060606030105010306060609FA
:100CC000120906000606060F1E0F0600060606039A
:100CD0000105010306061E000000000006061E03B3
:100CE0000105010380400000000000004080807882
:100CF000007088887000F80808F000F04848F0009C
:100D0000B0A8A84800180000000000000000000083
:100D100000000000000000000000000000000000D3
:100D200000000000000000000000000000000000C3
:100D300000000000000000000000000000000000B3
:100D400000000000000000000000000000000000A3
:100D50000000000000000000000000000000000093
:100D6000000000000000000000000000F8FCFCFC97
:100D70008C9C1800FCFCFCFC00FCFC00FCFCFCFC5B
:100D80008CFCF800FCFCFCFC8C8C8C00FCFCFCFC5F
:100D90008CFCFCF800000000000000FCFCFCFC8C5B
:100DA000FCFCF80098BC3EBC9800FCFCFCFC8CFCF5
:100DB000FCF8000C0C0CFCFCFCFC0C0C0C00FCFC0F
:100DC000FCFC80FCFCFC00FCFCFCFC0CFCFCF800CB
:100DD000F8FCFCFC8CFCFCF800FCFCFCFC80FCFC43
:100DE000FC0000000000000000000000317373638D
:100DF000637F3F003F7F7F7F607F3F007F7F7F7FFC
:100E0000030301007FBFBFBF23A3A3007F7F7F7FBA
:100E1000037F7F7E00000000008080BFBF3F7F63B4
:100E20007F7F3E005D6E773B5D007F7F7F7F017F30
:100E30007F7E00008080BFBF3F7F000000007F7F7B
:100E40007F7F017F7F7F007F7F7F7F607F7F3F008D
:100E50007F7F7F7F017F7F7F0001017F7F7F7F0119
:100E600001000000000000000010E09800007E81FA
:100E7000A98181FF5A423C0000D8601000000000A8
:100E80000000080C3F574753434F271F0400000042
:100E9000000000007CC000017F8B838B83875E7E17
:100EA0001C00000000000000000000000000000026
:100EB000007E7F4F9F81898181897E000000000034
:100EC00000000060380E0A3ACA8E00007C46603886
:100ED0000E40484E4A7A3200603C1210F0380E0044
:100EE000000000000000000000000003068480866F
:100EF000CE50068E9F8FA0929B090C040C10000010
:100F0000000040C080402046595F5FCF80090181CA
:100F100001020000000103060054C0D4D45C5E0F3F
:100F20000081C77C000000000000000000003008C5
:100F30000440470F9E9E9E5E4E404830300000C0E9
:100F4000E0E0F034BC3CB8C0000101000000000843
:100F50000C1C3C7CFCFE3E06260426F8000000002B
:100F6000000000000000000000000000030B04006F
:100F7000007E85A08084804040AD261C00008080DB
:100F8000C0706060210000000000E090098191982D
:100F900039F0E00000000C0E1B70000000000F385C
:100FA000E0C00000001C204080BC5E878313030368
:100FB0000316FC8160380000000001010000C0033E
:100FC00077F4E9E8E8E8E807C000000080C0C0E086
:100FD000ECE466C2C8183C1D0D052120000000008D
:100FE0000000000000000000000000000000000001
:100FF00000000409031D3E3FBFBF3F3F9E80A1A1EB
:10100000B0B090808080808080B0839494949494D9
:10101000AA81B3A080808080808080808080808052
:1010200080818080809CB48C8B878F8E8E8D8D8DFF
:101030008D8581A4B49C808080808080808F80801A
:1010400080BD8181BD81808E8180A080B7A7AB28C3
:101050001054D0140F000000000000000000000039
:101060000000000000000000000000000000000080
:101070000000000000000000000100FF0000000070
:101080000000000000000000000000000000000060
:101090000000000000000000000000000000000050
:1010A0000000000000000000000000000000000040
:1010B0000000000000000000000000000000000030
:1010C000000000000000000000000000000000FF21
:1010D000000100000000000000000000000000000F
:1010E00000000000000000000000003E5B4F5B3E7F
:1010F0003E6B4F6B3E1C3E7C3E1C183C7E3C181CDD
:10110000577D571C1C5E7F5E1C00183C1800FFE7D3
:10111000C3E7FF0018241800FFE7DBE7FF30483A79
:10112000060E2629792926407F050507407F0525DB
:101130003F5A3CE73C5A7F3E1C1C08081C1C3E7F63
:1011400014227F22145F5F005F5F06097F017F002A
:101150006689956A606060606094A2FFA29408044A
:101160007E040810207E201008082A1C08081C2A6B
:1011700008081E101010100C1E0C1E0C30383E38C3
:1011800030060E3E0E06000000000000005F00006A
:101190000007000700147F147F14242A7F2A1223DB
:1011A0001308646236495620500008070300001CEB
:1011B0002241000041221C002A1C7F1C2A08083EF4
:1011C0000808008070300008080808080000606007
:1011D0000020100804023E5149453E00427F400075
:1011E00072494949462141494D331814127F10274D
:1011F000454545393C4A494931412111090736499C
:10120000494936464949291E00001400000040346F
:101210000000000814224114141414140041221474
:101220000802015909063E415D594E7C1211127C9B
:101230007F494949363E414141227F4141413E7FFC
:10124000494949417F090909013E414151737F08DC
:1012500008087F00417F41002040413F017F081482
:1012600022417F404040407F021C027F7F040810E3
:101270007F3E4141413E7F090909063E4151215EC1
:101280007F09192946264949493203017F01033F55
:101290004040403F1F2040201F3F4038403F6314E4
:1012A00008146303047804036159494D43007F41E6
:1012B00041410204081020004141417F0402010223
:1012C0000440404040400003070800205454784048
:1012D0007F284444383844444428384444287F38DC
:1012E0005454541800087E090218A4A49C787F085E
:1012F00004047800447D40002040403D007F1028D9
:10130000440000417F40007C047804787C08040499
:10131000783844444438FC1824241818242418FC31
:101320007C08040408485454542404043F44243CD6
:101330004040207C1C2040201C3C4030403C442845
:101340001028444C9090907C4464544C44000836DF
:10135000410000007700000041360800020102044D
:10136000023C2623263C1EA1A161123A4040207A6D
:1013700038545455592155557941215454784121B7
:101380005554784020545579400C1E5272123955EC
:1013900055555939545454593955545458000045E9
:1013A0007C410002457D420001457C40F029242912
:1013B000F0F0282528F07C545545002054547C54E6
:1013C0007C0A097F49324949493232484848323219
:1013D0004A4848303A4141217A3A42402078009DBB
:1013E000A0A07D39444444393D4040403D3C24FF69
:1013F0002424487E4943662B2FFC2F2BFF0929F616
:1014000020C0887E090320545479410000447D4166
:101410003048484A32384040227A007A0A0A727DBF
:101420000D19317D2629292F2826292929263048DA
:101430004D4020380808080808080808382F10C848
:10144000ACBA2F102834FA00007B000008142A14CC
:101450002222142A14089500220095AA005500AAF9
:10146000AA55AA55AA000000FF00101010FF001492
:101470001414FF001010FF00FF1010F010F01414EF
:1014800014FC001414F700FF0000FF00FF1414F414
:1014900004FC141417101F10101F101F1414141F15
:1014A00000101010F0000000001F101010101F108E
:1014B000101010F010000000FF101010101010108D
:1014C0001010FF10000000FF140000FF00FF0000DC
:1014D0001F10170000FC04F414141710171414F450
:1014E00004F40000FF00F714141414141414F7008B
:1014F000F7141414171410101F101F141414F414DC
:101500001010F010F000001F101F0000001F14004A
:101510000000FC140000F010F01010FF10FF141475
:1015200014FF141010101F00000000F010FFFFFF48
:10153000FFFFF0F0F0F0F0FFFFFF0000000000FF01
:10154000FF0F0F0F0F0F38444438447C2A2A3E14F3
:101550007E02020606027E027E026355494163381E
:1015600044443C04407E201E2006027E020299A5CF
:10157000E7A5991C2A492A1C4C7201724C304A4D2D
:101580004D303048784830BC625A463D3E49494962
:10159000007E0101017E2A2A2A2A2A44445F44440B
:1015A00040514A444040444A51400000FF0103E09A
:1015B00080FF000008086B6B083612362436060FD1
:1015C000090F06000018180000001010003040FF3E
:1015D0000101001F01011E00191D1712003C3C3CB7
:1015E0003C0000000000080B000202020000090499
:1015F0000000010202000005240010010524010181
:1016000001042402060524060001070581031000D9
:101610004009040100020A00000007050202400020
:1016200000070583024000000403090412010002C0
:10163000EF020140412336800001010203014172A3
:101640006475696E6F204C4C430041726475696E1D
:101650006F204C656F6E6172646F00F0F89C8E872E
:1016600083878E9CF8F00000FEFF0303030303074B
:101670000EFCF80000FEFF0303030303070EFCF853
:101680000000FFFF00000000000000FFFF0000FE60
:10169000FF8383838383C7EE7C380000F8FC0E074A
:1016A000030303070EFCF800003F7FE0C08080C00A
:1016B000E07F3FFFFF01010101010101FFFF000089
:1016C000FFFF0C0C0C0C1C3E77E3C100007FFFC039
:1016D000C0C0C0C0E0703F1F00001F3F70E0C0C02E
:1016E000C0E0703F1F00007FFFC1C1C1C1C1E377EF
:1016F0003E1C00001F3F70E0C0C0C0E0703F1F00F4
:101700000000000001FFFF01000000D5F08D14A1D2
:10171000C881CFD9F1AF20005C1B11241FBECFEFD1
:10172000DAE0DEBFCDBF11E0A0E0B1E0E6EEF2E42A
:1017300002C005900D92AE3BB107D9F726E0AEEBA3
:10174000B1E001C01D92AF39B207E1F71BE0CDE86F
:10175000DBE004C02197FE010E944620CC38D1076F
:10176000C9F70E94BE1B0C9471210C94000080915B
:10177000DA010895FC0186899789009729F003977B
:10178000D0F030E020E002C0268137818089918945
:101790000196918B808B448955898417950754F065
:1017A0008289938901968217930744F4938B828BE5
:1017B000118A108A089520853185E8CF138A128A0C
:1017C000F7CF480F592F511D1416150684F5803890
:1017D00091056CF597FF02C090E080E0413851051B
:1017E00014F040E850E0481BFB01E770FF2721E0C0
:1017F00001C0220FEA95EAF777FF02C0695F7F4FC9
:10180000FB0133E0F595E7953A95E1F7F695FE2F64
:10181000EE27F795E795E80FF91FE250FE4F41508C
:1018200030F08191DF011197822B8C93F8CF0895CE
:10183000EEEFF1E0A0E0B8E000800EBC8111012CD9
:101840001197A0FDFDCF0192B9F70DB40895FC01E9
:101850008091FD01882311F13FB7F89482E08093D5
:10186000E9002091F200822F90E01816190614F476
:1018700081E090E0882339F0289844E64093FC0109
:101880004091F1004083222339F02091F200211190
:1018900003C02BE62093E8003FBF08958FEF9FEF32
:1018A00008952FB7F89483E08093E9009091E800C1
:1018B000892F807295FF04C09091F20080E4891B0B
:1018C0002FBF08958091F40181110DC082E08093B3
:1018D000F00184E08093F1011092F3011092F20183
:1018E00081E08093F40180EF91E008953FB7F89490
:1018F0008091EC019091ED01A091EE01B091EF018A
:1019000026B5A89B05C02F3F19F00196A11DB11D5A
:101910003FBFBA2FA92F982F8827BC01CD01620F96
:10192000711D811D911D42E0660F771F881F991F51
:101930004A95D1F708958F929F92AF92BF92CF921E
:10194000DF92EF92FF926B017C010E94760C4B01BB
:101950005C01C114D104E104F104B9F00E94760CD9
:10196000681979098A099B09683E734081059105C8
:1019700080F321E0C21AD108E108F10888EE880E50
:1019800083E0981EA11CB11CE4CFFF90EF90DF9084
:10199000CF90BF90AF909F908F9008954091D401C9
:1019A0005091D5012091D2013091D30142175307B4
:1019B000B4F49091E8009570E1F39091E80092FD05
:1019C00019C08093F1008091D4019091D5010196C6
:1019D0008F739927892B19F48EEF8093E8008091FB
:1019E000D4019091D50101969093D5018093D401B3
:1019F00081E0089580E00895DF92EF92FF920F93C7
:101A00001F93CF93DF93D82E8A01EB017B01E40E65
:101A1000F51ECE15DF0559F0D7FE12C0FE018491E8
:101A20000E94CE0C21968111F4CF0FEF1FEFC80159
:101A3000DF91CF911F910F91FF90EF90DF9008956C
:101A40008881EECF0F931F93CF93DF931F92CDB773
:101A5000DEB782E0898342E450E066EE75E180E81B
:101A60000E94FC0C0E94620CDC0112960D911C91EC
:101A70000115110589F0D801ED91FC910280F381E7
:101A8000E02DBE016F5F7F4FC801099597FD04C02F
:101A9000F80100851185ECCF89810F90DF91CF91FE
:101AA0001F910F910895615030F02091F100FC01D9
:101AB00020830196F8CF289884E68093FC0108954E
:101AC000AF92BF92CF92DF92EF92FF920F931F934C
:101AD000CF93DF936C017B018B01040F151FEB018A
:101AE0005E01AE18BF08C017D10759F06991D60141
:101AF000ED91FC910190F081E02DC6010995892BB3
:101B000079F7C501DF91CF911F910F91FF90EF9071
:101B1000DF90CF90BF90AF9008958F929F92AF9239
:101B2000BF92CF92DF92EF92FF920F931F93CF93CA
:101B3000DF936C017B018A0180910C01882309F4F9
:101B40005CC08091FD01882309F457C08091D801C1
:101B500080FF05C08091E00082608093E000E80192
:101B6000B12C8AEFA82E93E0892E2AE3922E20979B
:101B700011F4BB20D9F10E94510C81110AC0AA9422
:101B8000AA20D9F161E070E080E090E00E949B0C17
:101B9000EECF8C171D0611F00CF08C2F9FB7F89428
:101BA0008092E9002091E80025FD02C09FBFDFCFB1
:101BB000282F30E0C21BD30BF701815020F0419158
:101BC0004093F100FACFE20EF31EBB2021F0909279
:101BD000E800B12CEBCF8091E80085FDE7CF909233
:101BE000E800BB24B394209709F3F3CF5D9884E613
:101BF0008093D701101611063CF081E090E0F601C9
:101C00009383828310E000E0C801DF91CF911F91A0
:101C10000F91FF90EF90DF90CF90BF90AF909F908B
:101C20008F900895CF93DF931F92CDB7DEB769836E
:101C3000DC01ED91FC910280F381E02D41E050E068
:101C4000BE016F5F7F4F09950F90DF91CF9108958F
:101C500083E08093E9008091F200882319F08AE301
:101C60008093E80008950E94510C90E00895CF936E
:101C7000DF931F92CDB7DEB7FC018485958597FD74
:101C800008C02FEF3FEF358724870F90DF91CF916A
:101C90000895CE0101960E94270C019719F48981BD
:101CA00090E0F3CF8FEF9FEFF0CF0F931F93CF9381
:101CB000DF931F92CDB7DEB78C01FC01848595853B
:101CC00097FF0BC0CE0101960E94270C019771F47B
:101CD000898190E0F80195878487F801848595854E
:101CE0000F90DF91CF911F910F9108958FEF9FEF8C
:101CF000F1CFFC018485958597FD0BC09FB7F894C3
:101D000082E08093E9008091F2009FBF90E001960D
:101D100008959FB7F89482E08093E9008091F200E3
:101D20009FBF90E008952091C601E091C901F09114
:101D3000CA01CF0102969093CA018093C901222360
:101D400019F08591949108958081918108954F9221
:101D50005F926F927F928F929F92AF92BF92CF923B
:101D6000DF92EF92FF920F931F93CF93DF934C017B
:101D70005901FC2DC02FD0E0CE01880D991D1816F9
:101D800019060CF06CC020E8821691040CF067C0B4
:101D90009B012E0D311D121613060CF060C060342D
:101DA00071050CF05CC04115510509F458C0E62FCF
:101DB000E770FE2EDB0177FD179633E0B595A7950A
:101DC0003A95E1F73A2F77FF04C0FF2011F03FEF7B
:101DD0003A0F662777276819790997FC02C070E0E7
:101DE00060E0803891050CF44BC090E89819961B80
:101DF000A32F032E000CBB0B1A2F10953F3F0CF0A6
:101E000010E021E08E2D877009F420E0E694E6943E
:101E1000E694E20EAE0DB11D19971CF028E0E22EFB
:101E2000E31AE11A310F20E83203D0011124A80D82
:101E3000B91DA60FB71F019F600D711D1124460F1C
:101E4000571F0F2D0F2C000C110BF33009F41CC180
:101E5000C8F4F13009F4D0C0F23009F47CC0DF914D
:101E6000CF911F910F91FF90EF90DF90CF90BF9097
:101E7000AF909F908F907F906F905F904F9008955C
:101E8000902FB5CFFA3FB1F1232F2E0DFB3F39F73D
:101E9000321729F3BD0162507E4FD12CC12CC916D7
:101EA00008F0A4C0FA01EC0DFD1DE491F0E04F0133
:101EB000002E02C0880C991C0A94E2F737FD06C078
:101EC000FB018081E82CE0948E218083FF2061F06B
:101ED000373054F45B01F0E8AF0EB11CE92CE0940C
:101EE000F50180818E218083FFEFCF1ADF0A6F5FBB
:101EF0007F4FD5CF232F2E0D321709F4B0CFBD0160
:101F000062507E4FD12CC12CC91608F069C0FA016D
:101F1000EC0DFD1DE491F0E04F01002E02C0880C95
:101F2000991C0A94E2F737FD04C0FB0180818829DF
:101F30008083FF2051F0373044F45B01F0E8AF0EAE
:101F4000B11CF501808189298083FFEFCF1ADF0A58
:101F50006F5F7F4FD9CF6FEF70E00F2C02C0660F1D
:101F6000771F0A94E2F760957095772E232F2E0D38
:101F7000321709F474CFFD01E250FE4F6F01B12C0E
:101F8000A12CA91638F5FA01EA0DFB1DE491F0E049
:101F90002F01002E02C0440C551C0A94E2F737FDB5
:101FA00005C0F6018081862384298083FF2059F0B3
:101FB00037304CF44601F0E88F0E911CF40180811B
:101FC000872185298083FFEFAF1ABF0A8FEFC81AD8
:101FD000D80AD7CF3F5F4C0F5D1FA058BF4FC8CF67
:101FE0003F5F4C0F5D1FA058BF4F86CF3F5F4C0F28
:101FF0005D1FA058BF4F4CCF6A0D7B1D232F2E0DA8
:10200000321709F42CCFFD01E250FE4F6F01B12CC5
:10201000A12CA91688F5FB01EA0DFB1D8490912CDB
:10202000002E02C0880C991C0A94E2F780949094C8
:10203000FA01EA0DFB1D6490712C002E02C0660CA3
:10204000771C0A94E2F737FD05C0F60180818821EC
:1020500086298083FF2049F037303CF4F601E058B0
:10206000FF4F8081892187298083FFEFAF1ABF0A44
:102070008FEFC81AD80ACDCF3F5F4C0F5D1F6C0F92
:102080007D1FA058BF4FBCCFC92ED12CFA01E60F3F
:10209000F71FA250BE4F00E810E00C191D09CC1923
:1020A000DD09BE01660F771F41E050E06A010F2C89
:1020B00001C0CC0C0A94EAF7592F2E2D792ECF931C
:1020C000DF93ED01EF96EF9622968590A590FF2085
:1020D00059F08C9C4001AC9C500137302CF4E880C6
:1020E000B094EB20E928E99233233AF0EC90A094E5
:1020F000EA20E828ED920C947E1011965A9529F763
:102100002A9551F0572D33951124E60FF11DA00F9C
:10211000B11DC00FD11DD9CFDF91CF9111249FCE1A
:102120008F929F92AF92BF92CF92DF92EF920F93D6
:102130001F93CF93DF93EC018E899F8981309105A6
:1021400009F448C098F08230910509F446C003971D
:1021500009F477C0DF91CF911F910F91EF90DF903D
:10216000CF90BF90AF909F908F900895CA80DB80F2
:10217000C114D10479F32A89F60104913196E490CF
:10218000A6014E5F5F4F2223D1F061E070E09E2DEB
:10219000977011F470E060E08E2D86958695869597
:1021A000860F972F911D089FB001099F700D112474
:1021B000269FC001279F900D1124480F591F6A8D3B
:1021C0007B8D8AEFC82E30E020E0888D998D0E94AB
:1021D000A70EC0CFCC80DD80CBCFCC80DD808C84BF
:1021E0009D84AE84BF846A8D7B8D072E000C880B86
:1021F000990B0E94921FA50194010E94EE1E0E945D
:102200005A1F8B017B8F6A8F2AE939E949E95EE31E
:10221000C501B4010E94EE1E6C877D878E879F8763
:102220008A859B85081719070CF4A2CF9B8F8A8F8C
:102230001B8A1A8A198A188A81E090E09F8B8E8BFC
:1022400097CF6A8D7B8D072E000C880B990B0E940F
:10225000921F2AE939E949E95EE30E94EE1E0E94D5
:102260005A1F7B8F6A8F76CFCF92EF920F93FA012E
:1022700004913196E4904E5F5F4F22E0C22E30E031
:1022800020E00E94A70E0F91EF90CF9008952D9A15
:102290000895BC0190E080E00C949B0C8FB1809578
:1022A000807F669B88601C9B846008959091DF010D
:1022B000982329F49091E001982381E009F480E0CB
:1022C000089580E00C94180C80389105B8F46034BF
:1022D0007105A0F420E191E061FD94E060FD990FAB
:1022E00062FD9295687F269FD0011124A80FA2500D
:1022F000BE4F8C9140FF03C0892B8C93089590951D
:102300008923FBCF8F929F92AF92BF92CF92DF92A1
:10231000EF92FF920F931F93CF93DF937C016B019A
:10232000C1E0D0E002E010E0842F8470A82E842F5A
:102330008270982E842F8870882E4170B42EAA2027
:1023400091F041E0B8016C0D7D1DCE018E0D9F1DF9
:102350000E94641141E0BE016C0D7D1DC701800F1C
:10236000911F0E946411992091F041E0B601601B19
:10237000710BCE018E0D9F1D0E94641141E0B601CC
:102380006C1B7D0BC8018E0D9F1D0E94641188205F
:1023900091F041E0BE016C0D7D1DC701801B910BCA
:1023A0000E94641141E0B8016C0D7D1DC7018C1BBA
:1023B0009D0B0E946411BB2091F041E0B6016C1BA3
:1023C0007D0BC701801B910B0E94641141E0B60197
:1023D000601B710BC7018C1B9D0B0E946411219621
:1023E0000130110519F001E010E0A9CFDF91CF9184
:1023F0001F910F91FF90EF90DF90CF90BF90AF9023
:102400009F908F9008958F929F92AF92BF92CF929C
:10241000DF92EF92FF920F931F93CF93DF936D3074
:1024200089F0C090E301D090E4016A30D1F41092B9
:10243000E2011092E10188E0C80ED11CD092E401C3
:10244000C092E30181E090E0DF91CF911F910F9165
:10245000FF90EF90DF90CF90BF90AF909F908F90C4
:1024600008950091E1011091E201E5E06E9FE00125
:102470001124CA51DF4E4801F12CF5E0E12CFF1682
:1024800029F0CE010196FE01E490EC01B12CA12CC3
:102490004E2D4170B6016A0D7B1DC4010E9464116E
:1024A000E694FFEFAF1ABF0A88E0A816B10481F7DF
:1024B000F394EFEF8E1A9E0AF6E0FF12DECF0A5F6A
:1024C0001F4F1093E2010093E101BCCFDF92EF9226
:1024D000FF920F931F93CF93DF937C01D22E8B013A
:1024E000040F111DEB0177FF02C0D0E0C0E0C8016E
:1024F0000134110514F080E490E0C817D9073CF4CA
:102500004D2DBE01C7010E9464112196F0CFDF91CD
:10251000CF911F910F91FF90EF90DF9008956F92F0
:102520007F928F929F92AF92BF92CF92DF92EF9263
:10253000FF920F931F93CF93DF937C014B01642E87
:10254000D22EC22E01E010E0C2E0D0E045E04D0DF9
:10255000B4016C1B7D0B83E0782E7C0C5401A01A17
:10256000B10A81E020E0681218C0C8018E0D9F1DDD
:102570000E94661220E0472DB501CE018E0D9F1DF1
:102580000E9466120F5F1F4FDA94DA94C394C394CB
:10259000219779F0C1E0D0E0D9CFC701801B910B22
:1025A0000E94661220E0472DB501C7018C1B9D0BD0
:1025B000E7CFDF91CF911F910F91FF90EF90DF90C8
:1025C000CF90BF90AF909F908F907F906F90089525
:1025D000089590E080E0089581E0809300012FB796
:1025E000F8948091E8019091E901A091EA01B091FD
:1025F000EB012FBF8093C2019093C301A093C4014C
:10260000B093C501089508950895EF92FF920F9336
:102610001F93CF93DF938C01FC018681978166E045
:1026200070E00E941E2086E0869F7001879FF00C5C
:102630001124D0E0C0E0F80186819781C817D9073E
:10264000ACF464817581828193814CED5CE02097CC
:1026500049F08C0F9D1F44ED5CE0EC16FD0611F077
:102660004CEC5CE00E9434112696E5CFDF91CF91CF
:102670001F910F91FF90EF90089508958F929F9270
:10268000AF92BF92EF92FF920F931F93CF93DF937E
:10269000EC0184E00E945611882339F0EA81FB8125
:1026A000309719F090E080E0099588E00E9456117B
:1026B0008823B1F0ED81FE8186899789029781F0A8
:1026C00080E090E0A0EAB0EC84879587A687B78782
:1026D000138A128A118A108A82E090E0978B868B87
:1026E0008FB7F8948090E8019090E901A090EA01FA
:1026F000B090EB018FBF7E0187E0E80EF11C10E087
:1027000000E08B8D9C8D081719074CF5F701A191FE
:10271000B1917F01109701F112962D913C91139781
:102720002250310913963C932E93129716968D9151
:102730009C911797280F391F37FF06C020583F4F2D
:1027400013963C932E931297ED91FC911197048070
:10275000F581E02DCD0109950F5F1F4FD2CF8D8EF2
:102760009E8EAF8EB8A28D819E81DF91CF911F91F9
:102770000F91FF90EF90BF90AF909F908F900C942F
:10278000BA0BCF93DF93EC0188E00E9456118823A7
:10279000E9F0EA81FB813097C9F08091BE01909108
:1027A000BF01880F991FA091C001B091C101A80F6E
:1027B000B91F8D919C91A0919906B0919A0615969A
:1027C0009C938E93149782E090E0099580E40E9498
:1027D0005611882361F08091BE019091BF01843031
:1027E000910544F501969093BF018093BE0180E26C
:1027F0000E945611882361F08091BE019091BF0123
:1028000018161906E4F401979093BF018093BE0156
:102810008091BE019091BF01880F991FE091C00186
:10282000F091C101E80FF91F80819181DF91CF9173
:102830000C94BA0B1092BF011092BE01D8CF84E065
:1028400090E0E2CFFC0173836283089508950895B8
:1028500008950C94871EFB0101900020E9F7319741
:10286000AF01461B570BDC01ED91FC910280F38117
:10287000E02D0994CF92DF92EF92FF920F931F9376
:10288000CF93DF938B0144EE5CE070E060E090E07A
:1028900080E00E9434118FB7F8944091E801509184
:1028A000E9016091EA017091EB018FBF8091C20153
:1028B0009091C301A091C401B091C5016A017B014F
:1028C000C81AD90AEA0AFB0AD701C601843F914017
:1028D000A105B10570F08091000191E089278093F6
:1028E00000014093C2015093C3016093C4017093EF
:1028F000C501C0E1D0E020E04CE065E370E0CE012E
:102900000E9466122196C037D105A9F727E030E072
:1029100041E067E370E08FE690E00E948F1227E0CD
:1029200030E042E067E370E080E190E00E948F12C7
:1029300040E665E370E080E190E00E94E10B21E079
:1029400048E067E370E08EE090E00E94661221E0CC
:1029500048E067E370E081E790E00E94661241E0A2
:1029600067E370E080E190E00E94821142E067E35B
:1029700070E08FE690E00E94821144E06EE370E028
:102980008FE690E00E94821148E06EE370E080E103
:1029900090E00E948211809100018823C9F081E1BA
:1029A00090E09093E2018093E10187E390E09093BF
:1029B000E4018093E30165E871E0C801DF91CF9104
:1029C0001F910F91FF90EF90DF90CF900C942B14FC
:1029D000DF91CF911F910F91FF90EF90DF90CF90FB
:1029E0000895CF93DF93EC0188E00E94561188236D
:1029F000A9F066E971E08EEF95E00E942B1467EA7A
:102A000071E08EEF95E00E942B14EA81FB813097F4
:102A100029F081E090E0DF91CF910994DF91CF918F
:102A20000895CF92DF92EF92FF920F931F93CF936F
:102A3000DF93EC017B016C0187E0C80ED11C10E034
:102A400000E08B8D9C8D081719078CF4D6018D91B1
:102A50009D916D01009741F0DC01ED91FC910680A4
:102A6000F781E02DB70109950F5F1F4FEACF8D81E8
:102A70009E810E949010E0919906F0919A06048040
:102A8000F581E02D648D758D6115710519F0C70113
:102A90000E942B14A0919906B0919A061496CD919C
:102AA000DC9115978C8D9D8DFC0101900020E9F73C
:102AB0003197E81BF90B86E08E9F80018F9F100DE8
:102AC0001124EE8CFF8C1296CD90DC90D0E0C0E00B
:102AD000CE15DF0584F444EC5CE0CC15DD0514F084
:102AE0004CEB5CE070E060E0C8010E9434110A5FCA
:102AF0001F4F2196EDCFDF91CF911F910F91FF9046
:102B0000EF90DF90CF900895CF93DF93CB0120918A
:102B1000BE013091BF01220F331FE091C001F0913F
:102B2000C101E20FF31F0190F081E02D648D758DDE
:102B3000FB0101900020E9F73197E61BF70B46E017
:102B40004E9F90014F9F300D112437FF02C02F5F21
:102B50003F4F35952795319521953109205C3F4FA1
:102B60003093E2012093E1011092E4011092E3011D
:102B70006115710511F00E942B148091BE01909196
:102B8000BF01880F991FE091C001F091C101E80FCA
:102B9000F91F808191810E949010D0E0C0E044EB49
:102BA0005CE06CE370E0CE010E9434112696CE37D3
:102BB000D105A9F7DF91CF9108950C94E8200C94EA
:102BC000E820CF93DF93D0E0C0E0E091C001F09126
:102BD000C101EC0FFD1F80819181009739F0DC016C
:102BE000ED91FC910280F381E02D09952296CA3087
:102BF000D10559F78091C0019091C101009721F052
:102C0000DF91CF910C94E820DF91CF9108950C943F
:102C1000E8200C94E820CF93DF93EC01A091990673
:102C2000B0919A061496ED91FC911597FE83ED8371
:102C3000118E108E8EE190E0938F828F9387828722
:102C4000138A128A118A108A81E090E0978B868B12
:102C5000868D978D13969C938E931297FE013796CF
:102C6000CE014B96119211928E179F07D9F78CE0E7
:102C700090E00E944C20FC01138212828CE390E0D1
:102C80009583848388EC90E09783868381E090E04D
:102C90009187808728E231E0318320832AEA31E07E
:102CA00033872287F887EF839C8F8B8FDF91CF91BB
:102CB00008952F923F924F925F926F927F928F92E0
:102CC0009F92AF92BF92CF92DF92EF92FF920F93BB
:102CD0001F93CF93DF938AE090E00E944C20909363
:102CE000C1018093C001512C412C30E3632E712C23
:102CF000CEE1D0E043E0842E912C52E0E52EF12C81
:102D000069E0C62ED12C76E0A72EB12CE1EB2E2E59
:102D1000E1E03E2E0091C0011091C10180E290E0FF
:102D20004114510409F044C00E944C20FC01148657
:102D3000158616861786718E608ED38FC28FD387C5
:102D4000C287138A128A978E868E88E191E09183DA
:102D50008083358E248EAEEAB5E0B383A283F782FA
:102D6000E6828CEA90E095838483D186C086B58A1A
:102D7000A48A178A168AD801ED93FC93BFEF4B1AE9
:102D80005B0A85E04816510429F6DF91CF911F9127
:102D90000F91FF90EF90DF90CF90BF90AF909F90FA
:102DA0008F907F906F905F904F903F902F900895FD
:102DB0000E944C20FC011486158616861786718E9B
:102DC000608ED38FC28FD387C287138A128A978E61
:102DD000868E80E291E091838083A7EBB1E0B58F8E
:102DE000A48F82EB9BE093838283F782E682A0EB41
:102DF000B6E0B583A483D186C086B58AA48A178A33
:102E0000168AC201880F991F080F191FB4CFCF93DC
:102E1000DF93EC018091E5019091E601DC01ED91F9
:102E2000FC910084F185E02D0995C130D10581F038
:102E300028F02297B9F0DF91CF91089583E896E0CA
:102E40009093E6018093E501DF91CF910C94EC1211
:102E50008FE796E09093E6018093E501DF91CF91B3
:102E60000C9459168EE596E09093E6018093E50167
:102E7000DF91CF910C940B161F920F920FB60F9209
:102E800011242F933F938F939F93AF93BF93809180
:102E9000E8019091E901A091EA01B091EB01309134
:102EA000E70123E0230F2D3758F50196A11DB11D31
:102EB0002093E7018093E8019093E901A093EA0150
:102EC000B093EB018091EC019091ED01A091EE01A6
:102ED000B091EF010196A11DB11D8093EC0190937B
:102EE000ED01A093EE01B093EF01BF91AF919F91DF
:102EF0008F913F912F910F900FBE0F901F901895BB
:102F000026E8230F0296A11DB11DD2CF1F920F926A
:102F10000FB60F9211248F939F938091E1009091AF
:102F2000E100937F9093E10083FF0FC01092E900CE
:102F300091E09093EB001092EC0092E39093ED00FF
:102F40001092FD0198E09093F00082FF22C093E080
:102F50009093E9009091F200992319F09AE39093ED
:102F6000E8009091D701992341F09091D7019150B9
:102F70009093D701911101C05D9A9091FC01992322
:102F800041F09091FC0191509093FC01911101C08E
:102F9000289A84FF18C08091E2008E7E8160809321
:102FA000E2008091E1008F7E8093E1008091D80162
:102FB0008E7E80618093D8019F918F910F900FBE7C
:102FC0000F901F90189580FFF7CF8091E2008E7EC2
:102FD00080618093E2008091E1008E7E8093E10029
:102FE0008091D8018E7E8160E5CF1F920F920FB63F
:102FF0000F921124CF92DF92EF92FF920F931F93C3
:103000002F933F934F935F936F937F938F939F93F0
:10301000AF93BF93EF93FF93CF93DF93CDB7DEB71B
:103020006C97DEBFCDBF1092E9008091E80083FF6E
:1030300025C068E0CE0145960E94530D82EF809333
:10304000E8008D8987FF39C09091E80090FFFCCFA0
:10305000982F907609F034C19E894F89588D2F8919
:10306000F88C911131C0803861F58091D90180933D
:10307000F1001092F1008EEF8093E8006C960FB68D
:10308000F894DEBF0FBECDBFDF91CF91FF91EF91DE
:10309000BF91AF919F918F917F916F915F914F9170
:1030A0003F912F911F910F91FF90EF90DF90CF9064
:1030B0000F900FBE0F901F9018959EEF9093E80011
:1030C000C7CF1092F100D5CF913059F48111D3CFF1
:1030D0004130510581F68091D9018D7F8093D901CE
:1030E000CACF933049F48111C6CF4130510519F64A
:1030F0008091D9018260F2CF953041F48091E8004F
:1031000080FFFCCF20682093E300B5CF963009F014
:10311000A9C00B8D1C8D22E01092E9001092D50100
:103120001092D401F2122EC01092D3011092D2014B
:103130000E94220D1F8299E09983FA8291E09E837A
:1031400090EA98879AEF99872091D4013091D50120
:10315000275F3F4F3C832B838D831092E9001092B1
:10316000D5011092D4011093D3010093D20149E00C
:1031700050E0BE016F5F7F4F80E00E94FC0C0E9418
:10318000220D79CF1093D3010093D2010E94620CDB
:10319000DC0112960D911C910115110509F451C124
:1031A000D801ED91FC910480F581E02DBE016B5EAC
:1031B0007F4FC8010995009709F03EC1F8010085CD
:1031C0001185EACFF3E0FF120EC08F89882309F43E
:1031D00040C0823061F440E860E18AE496E10E94F8
:1031E000291B811148CF81E28093EB0047CF8130CA
:1031F00029F440E86BE08EE396E1F1CF833099F754
:103200000E94620CDC011296ED90FC908E010F5F23
:103210001F4F6801E114F10479F0D701ED91FC91A1
:103220000680F781E02DB801C7010995080F111D2F
:10323000F701E084F184EECFD8011C92F6010190F1
:103240000020E9F73197BF016C197D0940E0C60104
:10325000C6CF68E276E1FB01449150E080E80E942D
:10326000FC0C09CF973009F4BECF983021F481E0EF
:103270008093F10000CF993009F0FDCE837009F002
:10328000B2CFE1E3F1E081E031E096E32191222346
:1032900071F08093E9003093EB00DF0111972C91DE
:1032A0002093EC009093ED008F5F873079F78EE7E5
:1032B0008093EA001092EA008F898093FD01DBCEB3
:1032C0008B8D9C8D1092E9001092D5011092D40143
:1032D0009093D3018093D201898D811192C08E8900
:1032E0009D89913A49F4813209F07DCF47E050E061
:1032F00065E071E080E0B3CF913209F074CF8332A2
:1033000069F48F89988DB0E0A0E0809301019093DB
:103310000201A0930301B0930401ADCE803269F4A1
:103320008091E80082FFFCCF67E085E091E00E9499
:10333000530D8BEF8093E8009ECE823209F09BCE36
:103340008F8980930C01EEEFFFE7859194918B3F7D
:103350009C4D51F1E0E0F8E080910501909106016B
:10336000A0910701B0910801803B9440A105B105EF
:10337000F1F480910C0180FD1AC0EE3F8AE0F8075D
:1033800089F587E797E79183808380916000809338
:10339000D60188E19BE00FB6F894A8958093600071
:1033A0000FBE9093600067CEEEEFFAE0D5CF80813C
:1033B00091818737974709F05ECEA895809160008C
:1033C0008861809360008091D60180936000EE3F19
:1033D0002AE0F20789F08091FE0A9091FF0A91831A
:1033E000808349CE808191818737980751F29093ED
:1033F000FF0A8093FE0AC5CF1092FF0A1092FE0AC0
:103400003ACE0E94620CDC0112960D911C910115BE
:10341000110509F4E8CED801ED91FC910190F081FD
:10342000E02DBE016B5E7F4FC8010995811123CE4F
:10343000F80100851185EBCF181619060CF41BCE88
:10344000D2CEF1E0FF12BECE6CE276E104CF1F9245
:103450000F920FB60F921124CF92DF92EF92FF924C
:103460002F933F934F935F936F937F938F939F938C
:10347000AF93BF93CF93DF93EF93FF938091CE01F0
:103480009091CF01A091D001B091D101892B8A2BCD
:103490008B2B09F446C08091CD0181110BC088B1FE
:1034A00090E4892788B98091CC01882319F088B1EC
:1034B000805888B98091CE019091CF01A091D00120
:1034C000B091D101181619061A061B069CF48091BA
:1034D000CE019091CF01A091D001B091D10101977F
:1034E000A109B1098093CE019093CF01A093D0019F
:1034F000B093D101FF91EF91DF91CF91BF91AF9147
:103500009F918F917F916F915F914F913F912F91FB
:10351000FF90EF90DF90CF900F900FBE0F901F9015
:1035200018950E94930E811520E8920761F480910E
:1035300071008D7F8093710010929100469847989A
:103540001092CB01D7CF21E02093CB01813020E82E
:10355000920731F41092CA011092C9010E94930E91
:1035600097FD05C02091C801222309F454C0209181
:10357000C701211150C021E02093CC01EC01DF777D
:10358000209709F04BC081E08093CD0146983FE938
:10359000C32E3FE0D32EE12CF12CCAEFD0E0E09116
:1035A0005C06F0915D060995811103C081E080936E
:1035B000CD018091CC01882329F08091CD01882311
:1035C00009F43FC047980E94930E0097F1F19C01C7
:1035D000DE010E94DE1EDC01CB0129E0B595A79536
:1035E000979587952A95D1F7109290002AE020931D
:1035F0009100D0929900C09298008093CE01909350
:10360000CF01A093D001B093D1018091710082606D
:10361000809371006FCF1092CC01B0CF9E0150E02B
:1036200040E060E472E48FE090E00E949D1E69013A
:103630007A0181E0C81AD108E108F1081092CD01A1
:10364000AECF4699BFCF479ABECF8FEF9FEFDC0139
:10365000CBCFEF92FF920F931F93CF93DF93F82E70
:10366000192FE62E042F81E0860F880F0E94CE0CC2
:1036700083E00E94CE0CCF2DD12FEC0EFD2EF11C3D
:10368000CE15DF05B9F007FF13C0FE0184910E943B
:10369000CE0C182F80E00E94CE0C81232196811140
:1036A000EFCFDF91CF911F910F91FF90EF90089591
:1036B0008881EDCF81E0F5CF1092010610920006CF
:1036C00088EE93E0A0E0B0E08093020690930306BA
:1036D000A0930406B093050681E491E09093FF0562
:1036E0008093FE058FEF9FEF90930B0680930A0661
:1036F00010928A06109289068DE791E090938806D1
:103700008093870687EB9BE090935D0680935C0631
:1037100080E090E890935B0680935A0646983E9A24
:1037200047983F9A8FE691E09093840680938306B2
:1037300081E691E09093800680937F0683E591E097
:1037400090935F0680935E06E5E6F6E01192119293
:1037500086E0E937F807D1F710927A0610927906D9
:1037600080919106811103C081E0809391068BE8DE
:1037700096E090939A06809399060895789484B57C
:10378000826084BD84B5816084BD85B5826085BD5D
:1037900085B5816085BD80916E00816080936E00EB
:1037A00010928100809181008260809381008091DD
:1037B000810081608093810080918000816080938E
:1037C00080008091910082608093910080919100AF
:1037D000816080939100809190008160809390003F
:1037E0008091C10084608093C1008091C10082609B
:1037F0008093C1008091C10081608093C10080915D
:10380000C30081608093C3008091C0008260809378
:10381000C0008091C20081608093C20080917A00D4
:10382000846080937A0080917A00826080937A002D
:1038300080917A00816080937A0080917A0080681C
:1038400080937A001092FD011092D9011092D80154
:103850008091D70081608093D70080EA8093D80060
:1038600089B5806189BD89B5826089BD09B400FED2
:10387000FDCF61E070E080E090E00E949B0C8091C1
:10388000D8008F7C80618093D8008091E000807F99
:103890008093E0008091E1008E7E8093E1008DE0D6
:1038A0008093E200559A209A8FEF9FEF90930B063A
:1038B00080930A0681EC80937C0085B1806F85B986
:1038C00084B1877E84B984B1876E84B95E9A5F982B
:1038D0008AB1806D8AB9769A6E9881B3806F81BB08
:1038E000899880B38D7080BB80E58CBD81E08DBDF3
:1038F00085E090E00E9449115F9A85E090E00E9487
:1039000049115E985C98EBE0F7E188E197E124913A
:103910002EBD00000DB407FEFDCF31968E179F0718
:10392000B1F75C9A81E880936400809165008160C2
:10393000809365000E9461110E944E1187FF15C09F
:103940005C9885EA8EBD00000DB407FEFDCF5C9A41
:103950002E982F982D988091640080628093640047
:1039600081E083BF889513BEFCCF0E944E1182FF79
:1039700048C02D980E944E1184788438E1F40E944A
:10398000471188EC90E00E9449112F9882E090E066
:103990000E94871E8F3F29F06FEF82E090E00E9427
:1039A0008F1E84EF91E00E9449112F9A0E944E11C0
:1039B00084788438D9F30E944E1184718431E1F403
:1039C0000E94471188EC90E00E9449112E9882E0F5
:1039D00090E00E94871E882329F060E082E090E05A
:1039E0000E948F1E84EF91E00E9449112E9A0E943E
:1039F0004E1184718431D9F388EC90E00E94491112
:103A0000B4CF0E94471182E090E00E9429148823DD
:103A100009F461C03E9A3F9A81E08093DA0181E027
:103A200090E00E942914282F2470922E81FF10C04C
:103A300021112E98C1EFDFEF08E010E078E5872E26
:103A40000E944E1186FF4CC02E9A2F9A0E94471159
:103A500082E390E00E9449110E944E118111F8CF3B
:103A600080E180930D01C7E3D1E089919991DC0158
:103A7000ED91FC910680F781E02D67E077E10995F3
:103A8000B1E0CD33DB0789F783E896E09093E60158
:103A90008093E5010E94EC12FF24F3940EEF11E0F5
:103AA000C0E0D0E0EE24E3948FB7F8944091E801B1
:103AB0005091E9016091EA017091EB018FBF809113
:103AC000DD01882309F4CDC01092DD01209761F358
:103AD0000E940000E9CF1092DA013E983F989FCFF4
:103AE000992029F0C430D10511F42E9A2F9881E045
:103AF0000E94180C9E01D7FF04C0222733272C1BDD
:103B00003D0B27703327CE01D7FD079663E09595CF
:103B100087956A95E1F7D7FF05C00197A801421B79
:103B2000530B9A01BC017695762F6627779567959A
:103B300062507E4FF12CE12C3801621A730A8E3FDD
:103B40005FEF950709F43DC08E9CD0018F9CB00DAE
:103B5000112450E040E0A55AB94E5B01E0E8AE0EFA
:103B6000B11C8F3F980791F0FD01E40FF51FE49120
:103B70006B01C40ED51EF0E02F01022E01C0440CD3
:103B80000A94EAF7F60154884528448A211531053C
:103B900099F0FD01E40FF51FE4916501C40ED51EF7
:103BA000F0E02F01062C02C0559447940A94E2F7E6
:103BB000F60154884528448A4F5F5F4F48355105C8
:103BC00081F6019660587F4FEA94EF2809F045C0CE
:103BD0000E9461118FE090E00E9449112196C93145
:103BE000D10509F02DCF992011F02F9A2D9880E959
:103BF00091E00E9449110E94471181E090E00E94EB
:103C0000291480FF25CF8AE090E00E9429149FEFBD
:103C1000980F9E3F08F01CCF22E330E03093E20182
:103C20002093E10128E330E03093E4012093E301A5
:103C3000CBE0D0E0682F87E896E00E940312CE0127
:103C40000E9429142196C131D105A1F70E9461116A
:103C500088EE93E00E944911FBCEEE24E394F12C10
:103C60006ECF9091DE01E42FE91B9E2F20910D0174
:103C7000E21740F49F5F921708F028CFF3BE8895B3
:103C800013BE24CFE092DD014093DE012091DB01E1
:103C90003091DC012F5F3F4F3093DC012093DB013B
:103CA000F80181118FEF0024819381938193819397
:103CB0000394D1F71092E4011092E3011092E20113
:103CC0001092E1018091E0018093DF010E944E118A
:103CD0008093E0018091E5019091E601DC01ED9196
:103CE000FC910280F381E02D67E876E009958091F0
:103CF000E5019091E601DC01ED91FC910480F581F4
:103D0000E02D67E876E009950E946111DFCEF99910
:103D1000FECF92BD81BDF89A992780B50895262FD0
:103D2000F999FECF1FBA92BD81BD20BD0FB6F894A0
:103D3000FA9AF99A0FBE01960895052E97FB1EF484
:103D400000940E94B41E57FD07D00E94BC1E07FCC1
:103D500003D04EF40C94B41E5095409530952195A7
:103D60003F4F4F4F5F4F08959095809570956195A7
:103D70007F4F8F4F9F4F0895A1E21A2EAA1BBB1BA6
:103D8000FD010DC0AA1FBB1FEE1FFF1FA217B30727
:103D9000E407F50720F0A21BB30BE40BF50B661F3D
:103DA000771F881F991F1A9469F760957095809501
:103DB00090959B01AC01BD01CF010895A29FB00178
:103DC000B39FC001A39F700D811D1124911DB29F4F
:103DD000700D811D1124911D08955058BB27AA27ED
:103DE0000E94051F0C94E41F0E94D61F38F00E9409
:103DF000DD1F20F039F49F3F19F426F40C94D31FF3
:103E00000EF4E095E7FB0C94CD1FE92F0E94F51FFF
:103E100058F3BA17620773078407950720F079F4FF
:103E2000A6F50C9417200EF4E0950B2EBA2FA02DBA
:103E30000B01B90190010C01CA01A0011124FF2757
:103E4000591B99F0593F50F4503E68F11A16F04052
:103E5000A22F232F342F4427585FF3CF4695379551
:103E60002795A795F0405395C9F77EF41F16BA0B16
:103E7000620B730B840BBAF09150A1F0FF0FBB1FC4
:103E8000661F771F881FC2F70EC0BA0F621F731F0D
:103E9000841F48F4879577956795B795F7959E3F6A
:103EA00008F0B0CF9395880F08F09927EE0F9795FB
:103EB000879508950E94611F6894B1110C94182091
:103EC00008950E94FD1F88F09F5798F0B92F9927F9
:103ED000B751B0F0E1F0660F771F881F991F1AF0F5
:103EE000BA95C9F714C0B13091F00E941720B1E023
:103EF00008950C941720672F782F8827B85F39F022
:103F0000B93FCCF3869577956795B395D9F73EF48D
:103F100090958095709561957F4F8F4F9F4F089535
:103F2000E89409C097FB3EF4909580957095619553
:103F30007F4F8F4F9F4F9923A9F0F92F96E9BB2709
:103F40009395F695879577956795B795F111F8CF85
:103F5000FAF4BB0F11F460FF1BC06F5F7F4F8F4FF0
:103F60009F4F16C0882311F096E911C0772321F0E6
:103F70009EE8872F762F05C0662371F096E8862F7E
:103F800070E060E02AF09A95660F771F881FDAF7D5
:103F9000880F9695879597F9089597F99F6780E818
:103FA00070E060E008959FEF80EC089500240A948B
:103FB0001616170618060906089500240A94121604
:103FC0001306140605060895092E0394000C11F437
:103FD000882352F0BB0F40F4BF2B11F460FF04C0E4
:103FE0006F5F7F4F8F4F9F4F089557FD9058440F3D
:103FF000551F59F05F3F71F04795880F97FB991F48
:1040000061F09F3F79F08795089512161306140604
:10401000551FF2CF4695F1DF08C016161706180691
:10402000991FF1CF86957105610508940895E8946C
:10403000BB2766277727CB0197F9089597FB072EB3
:1040400016F4009407D077FD09D00E94322007FCB7
:1040500005D03EF4909581959F4F08957095619598
:104060007F4F0895AA1BBB1B51E107C0AA1FBB1FAE
:10407000A617B70710F0A61BB70B881F991F5A95F4
:10408000A9F780959095BC01CD010895EE0FFF1F13
:104090000590F491E02D09940F931F93CF93DF9334
:1040A0008230910510F482E090E0E0919D06F0915D
:1040B0009E0630E020E0B0E0A0E0309799F42115B2
:1040C000310509F44AC0281B390B24303105D8F5D5
:1040D0008A819B816115710589F1FB01938382833C
:1040E000FE0111C040815181028113814817590797
:1040F000E0F04817590799F4109761F012960C9365
:10410000129713961C933296CF01DF91CF911F9196
:104110000F91089500939D0610939E06F4CF2115EC
:10412000310551F04217530738F0A901DB019A011C
:10413000BD01DF01F801C1CFEF01F9CF90939E06D9
:1041400080939D06CDCFFE01E20FF31F81939193E3
:104150002250310939832883D7CF20919B06309193
:104160009C06232B41F420911001309111013093D2
:104170009C0620939B0620910E0130910F01211582
:10418000310541F42DB73EB7409112015091130112
:10419000241B350BE0919B06F0919C06E217F30778
:1041A000A0F42E1B3F0B2817390778F0AC014E5FA7
:1041B0005F4F2417350748F04E0F5F1F50939C0642
:1041C00040939B06819391939FCFF0E0E0E09CCFDA
:1041D000CF93DF930097E9F0FC01329713821282AC
:1041E000A0919D06B0919E06ED0130E020E0109771
:1041F000A1F420813181820F931F20919B06309181
:104200009C062817390709F061C0F0939C06E093DB
:104210009B06DF91CF910895EA01CE17DF07E8F5FD
:104220004A815B819E0141155105B1F7E901FB838C
:10423000EA8349915991C40FD51FEC17FD0761F42A
:10424000808191810296840F951FE901998388836B
:10425000828193819B838A83F0E0E0E012968D91C6
:104260009C9113970097B9F52D913C911197CD0131
:104270000296820F931F20919B0630919C0628176F
:10428000390739F6309751F510929E0610929D0627
:10429000B0939C06A0939B06BCCFD383C28340817E
:1042A0005181840F951FC817D90761F44E5F5F4F86
:1042B00088819981480F591F518340838A819B814E
:1042C000938382832115310509F0B0CFF0939E06C8
:1042D000E0939D069ECFFD01DC01C0CF13821282C8
:0642E000D7CFF894FFCFD8
:1042E60001FFFFFFFF00E1000000000000100000DA
:1042F6009F068000000000002814DD150000000065
:1043060027140716000000000413DF153D130513DC
:1043160000C1808100000083067F065E0600000063
:1043260000120E8D0D330E280E790E370E550E0027
:104336000000000B163E13111522143D1300000059
:10434600005916C11384152214E11500000000EC73
:1043560012F1143A14221403130000000003126031
:104366000DE912E8125052455353204120544F2074
:104376005354415254004120427574746F6E20505C
:10438600726573736564000D0A0067726F756E64FB
:0E439600004A4F4E41530048454E5259000018
:00000001FF
