:100000000C9437150C945F150C945F150C945F15C8
:100010000C945F150C945F150C945F150C945F1590
:100020000C945F150C945F150C94C7260C9436271E
:100030000C945F150C945F150C945F150C945F1570
:100040000C945F150C945F150C945F150C945F1560
:100050000C945F150C945F150C945F150C947D2621
:100060000C945F150C945F150C945F150C945F1540
:100070000C945F150C945F150C945F150C945F1530
:100080000C9468290C945F150C945F150C945F1503
:100090000C945F150C945F150C945F150C945F1510
:1000A0000C945F150C945F150C945F151020546030
:1000B0000000600080800318080804C30B030000E0
:1000C0001030020400000010004280010000010016
:1000D00008080020006801004006400002000248B5
:1000E000110100600040000040006002800010200C
:1000F0002000000004005000080404004400C00B6D
:100100000EB028000000000004008000080040003D
:1001100000500000000000010008114800442100C8
:1001200050100000448882210000083000000C11AB
:100130001020040000000000000004000000000087
:1001400000000000040100000000000000000000AA
:10015000000000000000000000000000000000049B
:100160000001000000000800004000040000000042
:10017000000000000000000000000004000000007B
:1001800000000080000000000000000000000000EF
:10019000000000000000000000000000000000005F
:1001A0000000000020000000000000080000000027
:1001B0000100000000040000000000000800000032
:1001C0000008000000000000000000000000000027
:1001D000000000800000000000000020010000007E
:1001E000000000000000000000000000000000000F
:1001F000800000000000000000000000000000007F
:1002000002000000000000000000000001000000EB
:1002100000000000000002000000040000000000D8
:10022000000000000000000000000000004000008E
:1002300000000000000000000000040000000000BA
:10024000000000002000000004000000000000107A
:100250000000000000000000000000000000280076
:100260000000000000010000000000000004000089
:10027000000000000000000000000000000000007E
:10028000000000000000010000000000000000006D
:10029000000000000000100000000000001000003E
:1002A000000000400000000000000000000000000E
:1002B000000000000000000000000000000000003E
:1002C00000001004020010200100000000000100E6
:1002D00000080200000000000000000000000040D4
:1002E000000200000000000000000000000000000C
:1002F00000000000000000000000000000000000FE
:100300000000000000800000000000000000000865
:10031000000000000000000000000000008000005D
:1003200000000000000000000000000000000000CD
:1003300000000A00000000000000000000000000B3
:1003400040000080000000000000000000000020CD
:10035000000000000000000000000000000000009D
:100360000000000000000800000000000000000085
:10037000000000000000000000002001000000005C
:10038000000000000000000000000000000000006D
:10039000000000000000000000400000020080009B
:1003A000000000000000020000000000000000004B
:1003B00000001020000008000040000000000000C5
:1003C0000004040480000000010100080004000093
:1003D00000000000000000000020000004001040A9
:1003E00000000080201004850002000000000000D2
:1003F0000800010004004000020000000000088026
:100400004000000000000900000000100080000013
:1004100008100000100828800503000140000004B7
:10042000800600800000000000000080082000C25C
:1004300060080800102000202004800000C0000494
:100440000040000000200010C2188400300800089E
:10045000440000800005140060000C008012400081
:10046000240041401000065040001004000112001A
:10047000010800440044102008A0902404200364D4
:100480000003208000209320400008000C09086031
:100490000000001000020000000250084000C000F0
:1004A0000028010002008040000008044100408054
:1004B00040040000052000021020000000000000A1
:1004C0000000000000000000000008000000000024
:1004D0000200000004000000020000000000000014
:1004E00000000002000000000000004000000000CA
:1004F00008008000000080000020000000000000D4
:1005000000000202010000000000000000000000E6
:1005100000000000000000000000000000000000DB
:1005200002000008000002000000000000000000BF
:1005300000000000000000000000000000000000BB
:1005400000000000000000010400000000000000A6
:100550000000000000100000000800000000000083
:10056000000000000000000000000000000000008B
:10057000001000000000000000000000000000006B
:10058000000000000000000000000000000000006B
:100590000000000040000000080000000000000013
:1005A00080000000000000200000000000000200A9
:1005B000000000000000000000000000000000003B
:1005C000000000000000000000000000000000002B
:1005D000000000000000000000000000000000001B
:1005E00020000000000000000000000000000000EB
:1005F00000000000080000000000000000000020D3
:1006000000000000000000000000000000000000EA
:100610000000400100000000000000000000000099
:100620000000000000104200000000000000000078
:100630000000000000000000002001000000800019
:100640000000008100000000000000000000000029
:100650000000000400000000000000400000100046
:10066000000000000000000000000000000000008A
:100670000000000004000000000000000000000076
:100680000001000000000000010000000000000068
:10069000000000000000002000000000000000003A
:1006A0000000000200000000000000000000010047
:1006B000000000000000000000000000000010002A
:1006C00000000000000000000000000002004000E8
:1006D0000000000000000000000000000004000016
:1006E000000000000000000000000000000000000A
:1006F00000000800000000000000002000000000D2
:100700000000000000000000000000000000820067
:1007100000000201000000000000000000000000D6
:100720008000010000000000000000000000000048
:10073000100000000080000000881020000000036E
:100740002000800810001400000800480440001039
:10075000000020000020000040000000020881008E
:100760000020000300000020A00000021000040090
:100770000000400000010000001000200200000006
:1007800000200000000200000020000200A105106F
:100790002000000000000080080400008008200005
:1007A00018000000200000080000000044000400C1
:1007B00020000000020020008000020010200450F1
:1007C00000430088008B000820000000400000006B
:1007D000102361882400000804680820006002409B
:1007E0000080414040244008000001040100000452
:1007F00010441240800000108000A0003000102043
:10080000800880002B000340840000402480008486
:100810000002A00200000A040000000000010180A4
:100820000C000002800010002004000802200000DC
:1008300004488104400800020A000D1A0300002049
:100840001020000000000000000040000000002018
:100850000000000000800000000000000000000117
:1008600000001200000100000080000004000000F1
:100870000000000000000000000000000000400038
:10088000000000000000000000000001080000005F
:100890000000000000000002000000000000000056
:1008A0000000001000608000000000000000000058
:1008B0000000000000000000000000000000000038
:1008C0000000040000400000000000000000800064
:1008D0000000000000080000000000000080000090
:1008E0000000010000000000000000000000000007
:1008F00000000000000000000000000000000000F8
:1009000000000000010000000000000000000000E6
:1009100000000000000000000000000000000000D7
:10092000000000000048000000000000000000007F
:100930000000000000000001000080000000000036
:10094000002000000008000000000000000001007E
:100950000000044000000000002000000000000033
:1009600000000000000000000090000020000000D7
:10097000000000000000200800000000000000004F
:1009800000000000000000000000000080000000E7
:100990000000000000000000000000000000000057
:1009A0000000000000000000000010000000000037
:1009B00040000000000000000000000000200000D7
:1009C000004000000000000000800000080000005F
:1009D000080000000000000000000400000000000B
:1009E00000000000000000000008000000000000FF
:1009F00000000000000000000000000000000000F7
:100A000000000000000000080000000000000000DE
:100A100000000000000000000000000000000000D6
:100A200000000000001000000000020000000000B4
:100A300000000000000000000000000000000000B6
:100A400000000000000100000400000000000000A1
:100A50000000004000000000000000000000000056
:100A60000000000000000000000000100001000075
:100A7000000020000000000800000000000020002E
:100A80000000000000000000000000000000000066
:100A90000000000000000004000000000000000052
:100AA0000000000000000000000000000000000046
:100AB0002000000100000100000000000000000014
:100AC00000001020000400000000200004000000CE
:100AD0000300000401018200004004100002000134
:100AE00008280050000208000880000000002000D4
:100AF00014000000000008000008100000000C00B6
:100B0000A800800000000000100408000400000499
:100B1000002000000A8000000010000040001010BB
:100B2000200100000000010010C0000100000010C2
:100B300000000004000000000000000008000300A6
:100B40009000000010200000000000000080000065
:100B500000000000000000C00000C0F0FCFF3FBE2D
:100B600038B0E000800000030E100103C7E8E8E899
:100B7000680827100F00000007040406002030104A
:100B80001E00000000001020000000000000000017
:100B9000000000000000000000000000E0F0F0F0A5
:100BA00030302030E0000000607016170F1FDFE8C3
:100BB000E8E96809272060400000101F01030200D7
:100BC0000000020202061C101020000000000000BD
:100BD000000000000000000000000000000080C0D5
:100BE000F8FCFC7C0C4C084CF00000000078CB0DAD
:100BF000051171783A1A2A4241300000001808089D
:100C000004010302021C10000000000000000000AC
:100C10000000000000000000000000000080C0C0D4
:100C2000F0F0F8F818981098E000000000007099B3
:100C30000B23E3F074349484430000000000003080
:100C4000101A0604081020404000000000000000B8
:100C50000000000000000000000000004060E0E034
:100C6000E0E0F0F030302030C0000000000000C1B3
:100C70002347C7E1E869A809070000000000000059
:100C80001901645D1801010000000000000000006F
:100C9000000000000000000000000000008080C094
:100CA000E0F0F8F818981098E00000000000010348
:100CB000B767435044240404030000000040605818
:100CC0000C0602001A0E06000000000000000000E2
:100CD000000000000000000000000000000080E0B4
:100CE000F8F8FC7C0C4C084CF00000000001635745
:100CF000033329282A2A2212010000000C040404CC
:100D000006030100010106080000000000000000C9
:100D1000000000000000000000000000203070F023
:100D2000F0F0F8F818981098E0000000000000E0DB
:100D30000133235054642404030000000000180809
:100D4000080C0700030E18604000000000000000BF
:100D5000000000000000000000000000000070E043
:100D6000E0E0F0F030302030C0000000000000E192
:100D7000B38777E1E86928890700000000000000D8
:100D800018090D46605C0000000000000000000033
:100D900000000000000000000000000000000080D3
:100DA000E0F0F8F818981098E0000000000163F3F4
:100DB00093237BF0F47414444300000000000060AF
:100DC00071580802122E06000000102000000000DA
:100DD0000000000000000000000000000000008093
:100DE000F0F8F87C0C4C084CF00000000000F31BFD
:100DF000071777787A7A0AE2810000000000004144
:100E0000780E030000037E40030000000000000095
:100E1000000000000000000000000000000080F062
:100E2000F8F87C0C4C084CF0000000000003F31FA5
:100E30000717707A7A7A0AE180000000000000410A
:100E4000780E030000037E40030000001020000025
:100E500000000000008000008000000000003EC094
:100E6000000039FFBF0F07470747FE00F8000001E9
:100E700002000F5E5CDDDDD95D01040701000000AA
:100E8000403C0201000000000001011E2000102073
:100E90000000000000000080808080000000000052
:100EA0000000001C7E5E87838B838B7F0100C07CEB
:100EB000007CC781000F5E5CDCDCD85C00010100B7
:100EC0000000000060180F00000000300B0E000052
:100ED00010200000000000000000000000000000E2
:100EE000000000000000E0F0F83810B838B8F0203A
:100EF000000070D80808007BF2E4E4E4C4E4036076
:100F000040200000006020201A020A0A0A3A20004D
:100F100000000000000000000000000000000000D1
:100F2000000000000000E0F0F83810B838B8F020F9
:100F3000000000304888007BF2E4E4E4C4E40320CD
:100F4000201000000000201012120A1A3662C08021
:100F50004000000000000000000000000000000051
:100F6000000000000000C0E0F07020707070E040F1
:100F70000000000040A01177E5C8C8C988C9070073
:100F80008000000000000101341515CDB5050001F9
:100F90000000000000000000000000000000000051
:100FA000000000000000E0F0F83810B838B8F02079
:100FB0000000000000C0B00BB264446444E443008D
:100FC00000000000000081C0A21A0A026632180068
:100FD0000000000000000000000000000000000011
:100FE00000000000000070F87C1C085C1C5CF8101D
:100FF000000000003058083D695A525252521110F8
:1010000008000000180810100D05050303050C3832
:1010100020000000000000000000000000000000B0
:10102000000000000000E0F0F83810B838B8F020F8
:10103000000000000030006BD2B4A444442423001C
:101040000000000000100818121A0206060230C044
:1010500080400000000000000000000000000000D0
:10106000000000000000C0E0F07020707070E040F0
:101070000000000000C0A1B75548484908490700D2
:101080000000000000000030151514D5AD0D000063
:101090000000000000000000000000000000000050
:1010A000000000000000E0F0F83810B838B8F02078
:1010B000000000007090184BFAF4E4E4C4E40380EC
:1010C000800000000041A0908A020242222A100003
:1010D0000000000000000000000000000000000010
:1010E00000000000000070F87C1C085C1C5CF8101C
:1010F00000001824040404397972727262720120AB
:101100001C0000000C0408080D0505010105043849
:10111000200010200000000000000000000000007F
:101120000000000000000000E0F0F83810B838B807
:10113000F0200000000000F8007BF2E4E4E4C4E4E6
:101140000330E0000000000F0080FA02060606FAF5
:10115000800301000000000000000000000000000B
:101160000000000000000000C0E0F070207070700F
:10117000E04000000000C07001E7E5C8C8C988C9A8
:1011800007E00000000003060CA0D5050D0D0DD5ED
:10119000A007000010200000000000000000000078
:1011A00000000000000000E00024FC381C580F0C78
:1011B000ACFE000000000000030618113AFACACB8A
:1011C0007A11180E030000000020380C06020002FD
:1011D00003010107040010200000000000000000CF
:1011E0000000000000000000000000000080E0F0AF
:1011F000F06070F0F0E08000402020202000E3E468
:10120000E928CA080A070100002010202130190B24
:101210000B0B08040830180010200000000000002C
:10122000000000000000000000000000000020F8A6
:101230003C7C189C3CBCF8604000008060101000B2
:1012400019FAFACA3A022120100000000000001822
:10125000080A020206041810000000000000000046
:10126000000000000000000000000000000040F04E
:1012700078F830387878F0C08000000060909001F5
:101280001AF4F49574052310080000000000000013
:10129000180A0A0206186040000000000000000062
:1012A000000000000000000000000000000000C07E
:1012B000E0E0C0E0E0E0C0000000000000008107C6
:1012C00069D3D054D195CF03020000000000010182
:1012D000012A0B6A5100000000000000000000001D
:1012E0000000000000000000000000000020F83CAA
:1012F0007C189C3CBCF860400000000000000061CD
:101300005AAAAAAA2A0100000000000000006030CA
:10131000180C061214080000000000000000000075
:1013200000000000000000000000000000083E4F28
:101330009F86A78FAF7E18100000000000001824C1
:101340000226AAAA08080400000000000001030207
:101350000301000001010304000000000000000080
:10136000000000000000000000000000000080E01D
:10137000F0F06070F0F0E08000000000000040A39A
:101380009469888A884A070101000000000010085B
:10139000101E020018604000000000000000000065
:1013A00000000000000000000000000000000080BD
:1013B000C0C080C0C0C08000000000000000028FDC
:1013C0005367E169E32B1F060400000000000132AF
:1013D00012100B6B41010000000000000000000033
:1013E0000000000000000000000000000020F83CA9
:1013F0007C189C3CBCF86040000000000040A0113C
:101400003AFACAFA0A3120000000000000006050D9
:1014100008021A0A0400000000000000000000009A
:1014200000000000000000000000000000083E4F27
:101430009F86A78FAF7E181000000000100C0404D8
:101440000EBEBEB28E0008040000000000060202BC
:1014500002000000010F0800000010200000000042
:1014600000000000000000000000000000000080FC
:10147000E0F0F06070F0F0E080000000000000009C
:10148000A364E9E82A28EA0701010000000000003F
:10149000074C611B0B7B40060000000000000000B1
:1014A000000000000000000000000000000000003C
:1014B00000C0E0E0C0E0E0E0C0000000000000008C
:1014C000A167E9D31014D1150F030200000000003A
:1014D000074C611B0B7B4006000000001020000041
:1014E000000000000000000000000000000000FEFE
:1014F0000030E2F478399E0C185CF00038C000012E
:101500000E007BF2F4B424A4650221201C03020E19
:10151000080C04060200C2425C70000000001020AB
:1015200000000000000000000000000000000000BB
:1015300000000000C0E0E07070703060E00000006B
:1015400040A090007BF3F5B4A8AA680A2720121CDB
:1015500000000000000606120E040006120E000035
:10156000102000000000000000000000000000004B
:10157000000000000000E0F0F03818580850F000BB
:10158000000000F098003D797A7A6A4A2A02C16028
:101590006000000101002021150509332000000032
:1015A000000000000000000000000000000000003B
:1015B000000000000000E0F0F03818580850F0007B
:1015C00000000060F0C035797A7A6A4A2A026130F8
:1015D000300000000000301111050D0B10204000FC
:1015E00000000000000000000000000000000000FB
:1015F000000000000000C0E0E07030B010A0E0008B
:101600000000000040E0B38335F4D4945484C3C098
:1016100000000000000001091012027640000000E6
:1016200000000000000000000000000000000000BA
:10163000000000000000E0F0F03818580850F000FA
:101640000000000030009D312A2A2232B20201003F
:1016500000000000006050190D0521331800000043
:10166000000000000000000000000000000000007A
:10167000000000000000787CBC8E869682947C007E
:101680000000000C0E001F524C4C48CA280C0606E5
:1016900000000004040C0C06030100000103020E0C
:1016A0000800000000000000000000000000000032
:1016B000000000000000E0F0F03818580850F0007A
:1016C000000000001038055132224242323201003F
:1016D0000000000018081811190D010B1830606087
:1016E00000000000000000000000000000000000FA
:1016F000000000000000C0E0E07030B010A0E0008A
:1017000000000000C0E03343F5F4D49414C4C300D7
:101710000000000000013111101A027640000000A4
:1017200000000000000000000000000000000000B9
:10173000000000000000E0F0F03818580850F000F9
:1017400000000060F09015417A7A6A0A42626100F6
:1017500000000000016170590501251B0800000010
:101760000000000000000000000000000000000079
:10177000000000000000787CBC8E869682947C007D
:101780000000001C1A030D2CAF2E2C68000C080E54
:1017900006000000060202030100000001030E081B
:1017A0000000102000000000000000000000000009
:1017B0000000000000000000C0E0E07030B010A0A9
:1017C000E000000000E030007BF3F5D494D4740412
:1017D0000300000000070C00601A0206060600095C
:1017E0007302000000000000000000000000000084
:1017F00000000000000000C0E0E07030B010A0E089
:1018000000000000E030007BF3F5D494D4740403AE
:1018100000000000070C00007A020606060009130B
:101820006200000000000000000000000000000056
:101830000000000000000000E0F0F03818580850E8
:10184000F000000000E0380801397A7A6A4A6A3A02
:10185000810000000001070060100D010303030078
:101860007D000000000000000000000000000000FB
:1018700000000000000000E0F0F03818580850F0B8
:101880000000000000F80801397A7A6A4A6A3A8151
:10189000C000000000030600700D010303030004F4
:1018A0007800000010208000004090E050606070E0
:1018B000604060800000001F204000DFE0A2A0A880
:1018C000A0A2209F8060000040700809030707075E
:1018D000030024241800000314240808080810102A
:1018E0005090A020201010200000000000000000F8
:1018F000000000000000000000000000F8FC3C7E3A
:101900000626060424F8000000C02010011D3D7AC0
:101910007A7A7A3A0221C0C0040808041715040232
:101920000202010101050400102000000000000077
:1019300000000000000000000000000000F8FC9E15
:101940003E0E26060624F8000000003804008E1E15
:101950003D3D3D3D9D81101010100408282F0808C2
:101960000808080808082F280804000000000000E4
:1019700000000000000000000000000000E0F0781F
:10198000F83898181890E000000000E010033B7A47
:10199000F4F4F4F47404434040400810505C121016
:1019A0001010101012125C5010080000000000000F
:1019B0000000000000000000000000000000F0F83F
:1019C0003C7C1C4C0C0C48F00000007008001D3DD5
:1019D000797A7A7A3A02222120200810505E11107A
:1019E0001010101011115E501008000000000000CF
:1019F0000000000000000000000000000000E0F017
:101A000078F83898181890E0000000E010003B7B50
:101A1000F2F4F4F47404444340400810505C121093
:101A20001010101012125C5010080000000000008E
:101A300000000000000000000000000000F8FC9E14
:101A40003E0E26060624F8000000003804008E1E14
:101A50003D3D3D3D9D81101010100408282F0808C1
:101A60000808080808082F280804000000000000E3
:101A700000000000000000000000000000E0F0781E
:101A8000F83898181890E000000000E010033B7A46
:101A9000F4F4F4F47404434040400810505C121015
:101AA0001010101012125C501008102000000000DE
:101AB000000000000000000000000000000000F036
:101AC000F83C7C1C4C0C0C48F00000000070080135
:101AD0001D3D7A7A7A7A3A02212020200810505E41
:101AE00011101010101011115E50100800000000AD
:101AF00000000000000000000000000000000000E6
:101B0000E0F078F83898181890E0000000E0100035
:101B10003B7BF2F4F4F47404444340400810505CFE
:101B200012101010101012125C501008102000003B
:101B3000000000000000808080000000000000FC29
:101B4000000078FC9C3E06470747F800E03E000195
:101B50000304000EBE3D3D3DBD1D000F0100000011
:101B600000001E010000000000011E000000102007
:101B700000000000000000000080808000000000E5
:101B8000000000000078FC9C3E06170717F80000D4
:101B9000000000E018000EBE3D3DBD3D1DC03800F8
:101BA000000000010040300F20100F000001000075
:101BB00010200000000000000000000000000000F5
:101BC000000000000000C0E0E0F030303838C00015
:101BD000000000C0603003F7F4E9E8E9E809878015
:101BE000400000000110180C0501050508102040F8
:101BF0008000000000000000000000000000000065
:101C000000000000000080C0C0E0606070708000D4
:101C10000000000000C007EFE9D3D0D2D0120F00BF
:101C200000000000000112223B030BFB0100010039
:101C300000000000000000000000000000000000A4
:101C400000000000000080C0C0E060607070800094
:101C5000000000000000C7EF6953D0D2D0120F007F
:101C6000000000000000010313E31E0B010001004F
:101C70000000000000000000000000000000000064
:101C8000000000000000C0E0E0F030303838C00054
:101C90000000000000C003D7B46968696809070044
:101CA0000000000000000080711D0521150C0000DF
:101CB0000000000000000000000000000000000024
:101CC000000000000000E0F070F818981C9CE00094
:101CD000000000002050013B6AD4D4D4D444430017
:101CE000000000080808080808060200020206189A
:101CF00000000000000000000000000000000000E4
:101D0000000000000000C0E0E0F030303838C000D3
:101D10000000000000C003F7B469686968090700A3
:101D2000000000000010180C050501050D30E080D2
:101D300000000000000000000000000000000000A3
:101D400000000000000080C0C0E060607070800093
:101D5000000000000000C7EFE9D3D0D2D0120F007E
:101D600000000000000011233A0209FB01020000FC
:101D70000000000000000000000000000000000063
:101D800000000000000080C0C0E060607070800053
:101D90000000000000C007EFE9D3D0D2D0120F003E
:101DA000000000000001020123E33F0B01020000DC
:101DB0000000000000000000000000000000000023
:101DC000000000000000C0E0E0F030303838C00013
:101DD000000000C020100377F4E9E8E9E8090700F3
:101DE0000000000001008040301D0521140D01009D
:101DF00000000000000000000000000000000000E3
:101E0000000000000000E0F070F818981C9CE00052
:101E1000000000300808013B7AF4F4F4F4042330A5
:101E20000000000000040C08080602000202061868
:101E30000000102000000000000000000000000072
:101E4000000000000000000080C0C0E06060707012
:101E5000800000000080C000E7EFC9D3D0D2D012CC
:101E60008F0080800287C420100B0B030B0B090826
:101E70000911E180000000000000000000000000E7
:101E800000000000000000C0E0E0F030303838C052
:101E90000000000000C0600377F4E9E8E9E8E90722
:101EA000C080C0400183C230080505010505040457
:101EB0000810E08006060609090909090606060356
:101EC000030F0703060606070F01010306060607B0
:101ED0000F1F0F0706060603011D0F0706061E004B
:101EE0000000000006061E030105010306060603A6
:101EF000010501030606060301050103060606099E
:101F00000909090906060603030F07030606060763
:101F10000F010103060606070F1F0F07060606033B
:101F2000011D0F0701010101010101010101010171
:101F30000001010100010001010101010000000A8E
:101F40000A00000000000000000000000000000087
:101F500000000000000A0A0000000000000000006D
:101F6000000000000000000000010101010101016A
:101F70000101010100000001010101010101010154
:101F8000010000000A0A000000000000000000003C
:101F9000000000000000000000000A0A000000002D
:101FA000000000000000000000000000000001012F
:101FB0000101010101010101010101010101010111
:101FC0000101010101010000000A0A0000000000F7
:101FD0000000000000000000000000000000000AF7
:101FE0000A000000000000000000000000000000E7
:101FF00000000001010101010100000001010101D7
:1020000001010000000101010101010000000A0AB4
:1020100000000000000000000000000000000000C0
:10202000000000000A0A000000000000000000009C
:1020300000000000000000008040000000000000E0
:1020400040808078007088887000F80808F000F000
:102050004848F000B0A8A8480018000000000000A0
:102060000000000000000000000000000000000070
:102070000000000000000000000000000000000060
:102080000000000000000000000000000000000050
:102090000000000000000000000000000000000040
:1020A0000000000000000000000000000000000030
:1020B0000000000000000000000000000000000020
:1020C000F8FCFCFC8C9C1800FCFCFCFC00FCFC00FC
:1020D000FCFCFCFC8CFCF800FCFCFCFC8C8C8C00FC
:1020E000FCFCFCFC8CFCFCF800000000000000FC88
:1020F000FCFCFC8CFCFCF80098BC3EBC9800FCFC92
:10210000FCFC8CFCFCF8000C0C0CFCFCFCFC0C0C2F
:102110000C00FCFCFCFC80FCFCFC00FCFCFCFC0C53
:10212000FCFCF800F8FCFCFC8CFCFCF800FCFCFC63
:10213000FC80FCFCFC00000000000000000000002F
:1021400031737363637F3F003F7F7F7F607F3F001A
:102150007F7F7F7F030301007FBFBFBF23A3A30057
:102160007F7F7F7F037F7F7E00000000008080BF35
:10217000BF3F7F637F7F3E005D6E773B5D007F7F6B
:102180007F7F017F7F7E00008080BFBF3F7F000098
:1021900000007F7F7F7F017F7F7F007F7F7F7F6069
:1021A0007F7F3F007F7F7F7F017F7F7F0001017FF7
:1021B0007F7F7F0101000000000000000010E09818
:1021C00000007E81A98181FF5A423C0000D8601046
:1021D000000000000000080C3F574753434F271FE3
:1021E00004000000000000007CC000017F8B838B96
:1021F00083875E7E1C0000000000000000000000DD
:1022000000000000007E7F4F9F81898181897E00D0
:102210000000000000000060380E0A3ACA8E00007C
:102220007C4660380E40484E4A7A3200603C1210BC
:10223000F0380E0000000000000000000000000365
:1022400006848086CE50068E9F8FA0929B090C0438
:102250000C100000000040C080402046595F5FCF56
:102260008009018101020000000103060054C0D46E
:10227000D45C5E0F0081C77C0000000000000000FD
:10228000000030080440470F9E9E9E5E4E4048303E
:10229000300000C0E0E0F034BC3CB8C000010100F8
:1022A000000000080C1C3C7CFCFE3E06260426F8C0
:1022B000000000000000000000000000000000001E
:1022C000030B0400007E85A08084804040AD261C66
:1022D00000008080C0706060210000000000E0907D
:1022E0000981919839F0E00000000C0E1B7000008D
:1022F00000000F38E0C00000001C204080BC5E875A
:10230000831303030316FC81603800000000010101
:102310000000C00377F4E9E8E8E8E807C00000003F
:1023200080C0C0E0ECE466C2C8183C1D0D05212049
:10233000000000000000000000000000000000009D
:102340000000000000000409031D3E3FBFBF3F3FE7
:102350009E80A1A1B0B090808080808080B0839466
:1023600094949494AA81B3A080808080808080809F
:102370008080808080818080809CB48C8B878F8ED1
:102380008E8D8D8D8D8581A4B49C80808080808091
:10239000808F808080BD8181BD81808E8180A08082
:1023A000B7A7AB281054D0140F00000000000000A5
:1023B000000000000000000000000000000000001D
:1023C000000000000000000000000000000100FF0D
:1023D00000000000000000000000000000000000FD
:1023E00000000000000000000000000000000000ED
:1023F00000000000000000000000000000000000DD
:1024000000000000000000000000000000000000CC
:1024100000000000000000000000000000000000BC
:10242000000000FF000100000000000000000000AC
:102430000000000000000000000000000000003E5E
:102440005B4F5B3E3E6B4F6B3E1C3E7C3E1C183C24
:102450007E3C181C577D571C1C5E7F5E1C00183C80
:102460001800FFE7C3E7FF0018241800FFE7DBE7C9
:10247000FF30483A060E2629792926407F050507B0
:10248000407F05253F5A3CE73C5A7F3E1C1C08080C
:102490001C1C3E7F14227F22145F5F005F5F0609D1
:1024A0007F017F006689956A606060606094A2FF2A
:1024B000A29408047E040810207E201008082A1C1C
:1024C00008081C2A08081E101010100C1E0C1E0CE8
:1024D00030383E3830060E3E0E0600000000000088
:1024E000005F00000007000700147F147F14242AF7
:1024F0007F2A1223130864623649562050000807C9
:102500000300001C2241000041221C002A1C7F1CE9
:102510002A08083E080800807030000808080808EB
:10252000000060600020100804023E5149453E0052
:10253000427F400072494949462141494D331814B0
:10254000127F1027454545393C4A494931412111FF
:1025500009073649494936464949291E00001400F1
:102560000000403400000008142241141414141414
:10257000004122140802015909063E415D594E7C72
:102580001211127C7F494949363E414141227F4127
:1025900041413E7F494949417F090909013E414185
:1025A00051737F0808087F00417F41002040413F70
:1025B000017F081422417F404040407F021C027F7F
:1025C0007F0408107F3E4141413E7F090909063ED4
:1025D0004151215E7F0919294626494949320301A3
:1025E0007F01033F4040403F1F2040201F3F4038B5
:1025F000403F631408146303047804036159494D90
:1026000043007F4141410204081020004141417FC5
:10261000040201020440404040400003070800203B
:10262000545478407F28444438384444442838443B
:1026300044287F385454541800087E090218A4A472
:102640009C787F0804047800447D40002040403D91
:10265000007F1028440000417F40007C047804780B
:102660007C080404783844444438FC18242418189E
:10267000242418FC7C0804040848545454240404FA
:102680003F44243C4040207C1C2040201C3C4030E7
:10269000403C44281028444C9090907C4464544C16
:1026A0004400083641000000770000004136080071
:1026B00002010204023C2623263C1EA1A161123A1B
:1026C0004040207A38545455592155557941215468
:1026D000547841215554784020545579400C1E526D
:1026E0007212395555555939545454593955545411
:1026F000580000457C410002457D420001457C4078
:10270000F0292429F0F0282528F07C545545002094
:1027100054547C547C0A097F493249494932324831
:10272000484832324A4848303A4141217A3A424098
:102730002078009DA0A07D39444444393D4040406C
:102740003D3C24FF2424487E4943662B2FFC2F2B3D
:10275000FF0929F620C0887E0903205454794100DE
:1027600000447D413048484A32384040227A007A5D
:102770000A0A727D0D19317D2629292F282629293B
:10278000292630484D40203808080808080808085D
:10279000382F10C8ACBA2F102834FA00007B000084
:1027A00008142A142222142A14089500220095AA3B
:1027B000005500AAAA55AA55AA000000FF00101053
:1027C00010FF00141414FF001010FF00FF1010F091
:1027D00010F0141414FC001414F700FF0000FF00A4
:1027E000FF1414F404FC141417101F10101F101FF2
:1027F0001414141F00101010F0000000001F10101F
:1028000010101F10101010F010000000FF1010101A
:10281000101010101010FF10000000FF140000FF37
:1028200000FF00001F10170000FC04F41414171020
:10283000171414F404F40000FF00F7141414141413
:102840001414F700F7141414171410101F101F1489
:102850001414F4141010F010F000001F101F0000EA
:10286000001F14000000FC140000F010F01010FF16
:1028700010FF141414FF141010101F00000000F0BB
:1028800010FFFFFFFFFFF0F0F0F0F0FFFFFF000090
:10289000000000FFFF0F0F0F0F0F38444438447C37
:1028A0002A2A3E147E02020606027E027E0263553A
:1028B0004941633844443C04407E201E2006027E89
:1028C000020299A5E7A5991C2A492A1C4C7201729B
:1028D0004C304A4D4D303048784830BC625A463D05
:1028E0003E494949007E0101017E2A2A2A2A2A44BA
:1028F000445F444440514A444040444A51400000EF
:10290000FF0103E080FF000008086B6B08361236F9
:102910002436060F090F06000018180000001010DA
:10292000003040FF0101001F01011E00191D171298
:10293000003C3C3C3C0000000000080B000202028E
:10294000000009040000010202000005240010013B
:1029500005240101010424020605240600010705DF
:10296000810310004009040100020A00000007056D
:10297000020240000007058302400000040309042E
:1029800012010002EF0201404123368000010102E2
:10299000030141726475696E6F204C4C43004172B3
:1029A0006475696E6F204C656F6E6172646F00F0C4
:1029B000F89C8E8783878E9CF8F00000FEFF03034F
:1029C000030303070EFCF80000FEFF0303030303E9
:1029D000070EFCF80000FFFF00000000000000FFF1
:1029E000FF0000FEFF8383838383C7EE7C380000F3
:1029F000F8FC0E07030303070EFCF800003F7FE01E
:102A0000C08080C0E07F3FFFFF01010101010101A3
:102A1000FFFF0000FFFF0C0C0C0C1C3E77E3C10015
:102A2000007FFFC0C0C0C0C0E0703F1F00001F3F5C
:102A300070E0C0C0C0E0703F1F00007FFFC1C1C197
:102A4000C1C1E3773E1C00001F3F70E0C0C0C0E082
:102A5000703F1F000000000001FFFF01000000D5D3
:102A6000F08D14A1C881CFD9F1AF20009D2A112487
:102A70001FBECFEFDAE0DEBFCDBF12E0A0E0B1E0D5
:102A8000E2EAF2E602C005900D92A837B107D9F745
:102A900027E0A8E7B2E001C01D92AE35B207E1F72A
:102AA00015E1C7E3D5E104C02197FE010E94103073
:102AB000C633D107C9F70E94062B0C944F310C94F2
:102AC00000008091960208958091B90683FF08C0A6
:102AD0008091B80683FB882780F991E089270895C3
:102AE00080E00895480F592F511D1416150684F5DE
:102AF000803891056CF597FF02C090E080E0413886
:102B0000510514F040E850E0481BFB01E770FF2737
:102B100021E001C0220FEA95EAF777FF02C0695F62
:102B20007F4FFB0133E0F595E7953A95E1F7F69590
:102B3000FE2FEE27F795E795E80FF91FE854FD4FB4
:102B4000415030F08191DF011197822B8C93F8CFA7
:102B50000895E8EBF2E0A0E0B8E000800EBC81113F
:102B6000012C1197A0FDFDCF0192B9F70DB4089586
:102B7000FC018091B702882311F13FB7F89482E0FD
:102B80008093E9002091F200822F90E01816190638
:102B900014F481E090E0882339F0289844E64093CB
:102BA000B6024091F1004083222339F02091F200D7
:102BB000211103C02BE62093E8003FBF08958FEF5B
:102BC0009FEF08952FB7F89483E08093E9009091E8
:102BD000E800892F807295FF04C09091F20080E494
:102BE000891B2FBF08958091AE0281110DC082E034
:102BF0008093AA0284E08093AB021092AD021092FF
:102C0000AC0281E08093AE028AEA92E008953FB779
:102C1000F8948091A6029091A702A091A802B09189
:102C2000A90226B5A89B05C02F3F19F00196A11D4A
:102C3000B11D3FBFBA2FA92F982F8827BC01CD0106
:102C4000620F711D811D911D42E0660F771F881F65
:102C5000991F4A95D1F708958F929F92AF92BF9294
:102C6000CF92DF92EF92FF926B017C010E940716D8
:102C70004B015C01C114D104E104F104B9F00E94DC
:102C80000716681979098A099B09683E734081050E
:102C9000910580F321E0C21AD108E108F10888EE1D
:102CA000880E83E0981EA11CB11CE4CFFF90EF902A
:102CB000DF90CF90BF90AF909F908F9008954091FC
:102CC00090025091910220918E0230918F02421712
:102CD0005307B4F49091E8009570E1F39091E80007
:102CE00092FD19C08093F100809190029091910221
:102CF00001968F739927892B19F48EEF8093E80042
:102D0000809190029091910201969093910280930C
:102D1000900281E0089580E00895DF92EF92FF92A3
:102D20000F931F93CF93DF93D82E8A01EB017B0182
:102D3000E40EF51ECE15DF0559F0D7FE12C0FE01D8
:102D400084910E945F1621968111F4CF0FEF1FEF3F
:102D5000C801DF91CF911F910F91FF90EF90DF900D
:102D600008958881EECF0F931F93CF93DF931F9227
:102D7000CDB7DEB782E0898342E450E06AE379E2CE
:102D800080E80E948D160E94F315DC0112960D91C9
:102D90001C910115110589F0D801ED91FC9102807B
:102DA000F381E02DBE016F5F7F4FC801099597FD4C
:102DB00004C0F80100851185ECCF89810F90DF9167
:102DC000CF911F910F910895615030F02091F10043
:102DD000FC0120830196F8CF289884E68093B60200
:102DE0000895AF92BF92CF92DF92EF92FF920F932E
:102DF0001F93CF93DF936C017B018B01040F151F91
:102E0000EB015E01AE18BF08C017D10759F06991F8
:102E1000D601ED91FC910190F081E02DC60109955C
:102E2000892B79F7C501DF91CF911F910F91FF9009
:102E3000EF90DF90CF90BF90AF9008958F929F92C8
:102E4000AF92BF92CF92DF92EF92FF920F931F93B8
:102E5000CF93DF936C017B018A0180912401882349
:102E600009F45CC08091B702882309F457C08091AF
:102E7000940280FF05C08091E00082608093E000B2
:102E8000E801B12C8AEFA82E93E0892E2AE3922E36
:102E9000209711F4BB20D9F10E94E21581110AC0DC
:102EA000AA94AA20D9F161E070E080E090E00E944D
:102EB0002C16EECF8C171D0611F00CF08C2F9FB73F
:102EC000F8948092E9002091E80025FD02C09FBFA0
:102ED000DFCF282F30E0C21BD30BF701815020F049
:102EE00041914093F100FACFE20EF31EBB2021F096
:102EF0009092E800B12CEBCF8091E80085FDE7CF00
:102F00009092E800BB24B394209709F3F3CF5D9827
:102F100084E680939302101611063CF081E090E065
:102F2000F6019383828310E000E0C801DF91CF9126
:102F30001F910F91FF90EF90DF90CF90BF90AF90D7
:102F40009F908F900895CF93DF931F92CDB7DEB7F8
:102F50006983DC01ED91FC910280F381E02D41E079
:102F600050E0BE016F5F7F4F09950F90DF91CF91C9
:102F7000089583E08093E9008091F200882319F09E
:102F80008AE38093E80008950E94E21590E0089596
:102F9000CF93DF931F92CDB7DEB7FC018485958573
:102FA00097FD08C02FEF3FEF358724870F90DF9103
:102FB000CF910895CE0101960E94B815019719F49A
:102FC000898190E0F3CF8FEF9FEFF0CF0F931F93A6
:102FD000CF93DF931F92CDB7DEB78C01FC018485C0
:102FE000958597FF0BC0CE0101960E94B8150197F9
:102FF00071F4898190E0F80195878487F8018485D0
:1030000095850F90DF91CF911F910F9108958FEFCC
:103010009FEFF1CFFC018485958597FD0BC09FB78D
:10302000F89482E08093E9008091F2009FBF90E0E5
:10303000019608959FB7F89482E08093E90080910B
:10304000F2009FBF90E0089520918202E0918502F6
:10305000F0918602CF0102969093860280938502BA
:10306000222319F08591949108958081918108958A
:103070004F925F926F927F928F929F92AF92BF9288
:10308000CF92DF92EF92FF920F931F93CF93DF9334
:103090004C015901FC2DC02FD0E0CE01880D991DA7
:1030A000181619060CF06CC020E8821691040CF07A
:1030B00067C09B012E0D311D121613060CF060C067
:1030C000603471050CF05CC04115510509F458C01D
:1030D000E62FE770FE2EDB0177FD179633E0B595FE
:1030E000A7953A95E1F73A2F77FF04C0FF2011F03A
:1030F0003FEF3A0F662777276819790997FC02C0D6
:1031000070E060E0803891050CF44BC090E89819AD
:10311000961BA32F032E000CBB0B1A2F10953F3FBD
:103120000CF010E021E08E2D877009F420E0E69489
:10313000E694E694E20EAE0DB11D19971CF028E05E
:10314000E22EE31AE11A310F20E83203D0011124F4
:10315000A80DB91DA60FB71F019F600D711D112489
:10316000460F571F0F2D0F2C000C110BF33009F4D5
:103170001CC1C8F4F13009F4D0C0F23009F47CC0AD
:10318000DF91CF911F910F91FF90EF90DF90CF9043
:10319000BF90AF909F908F907F906F905F904F9077
:1031A0000895902FB5CFFA3FB1F1232F2E0DFB3F9D
:1031B00039F7321729F3BD0168547D4FD12CC12C4A
:1031C000C91608F0A4C0FA01EC0DFD1DE491F0E071
:1031D0004F01002E02C0880C991C0A94E2F737FDBB
:1031E00006C0FB018081E82CE0948E218083FF20C3
:1031F00061F0373054F45B01F0E8AF0EB11CE92CFC
:10320000E094F50180818E218083FFEFCF1ADF0AE1
:103210006F5F7F4FD5CF232F2E0D321709F4B0CF1C
:10322000BD0168547D4FD12CC12CC91608F069C06E
:10323000FA01EC0DFD1DE491F0E04F01002E02C0FB
:10324000880C991C0A94E2F737FD04C0FB018081C9
:1032500088298083FF2051F0373044F45B01F0E887
:10326000AF0EB11CF501808189298083FFEFCF1A51
:10327000DF0A6F5F7F4FD9CF6FEF70E00F2C02C076
:10328000660F771F0A94E2F760957095772E232FCB
:103290002E0D321709F474CFFD01E854FD4F6F0174
:1032A000B12CA12CA91638F5FA01EA0DFB1DE49109
:1032B000F0E02F01002E02C0440C551C0A94E2F7E6
:1032C00037FD05C0F6018081862384298083FF2095
:1032D00059F037304CF44601F0E88F0E911CF401A0
:1032E0008081872185298083FFEFAF1ABF0A8FEF86
:1032F000C81AD80AD7CF3F5F4C0F5D1FA058BF4FE9
:10330000C8CF3F5F4C0F5D1FA058BF4F86CF3F5FB8
:103310004C0F5D1FA058BF4F4CCF6A0D7B1D232F54
:103320002E0D321709F42CCFFD01E854FD4F6F012B
:10333000B12CA12CA91688F5FB01EA0DFB1D849088
:10334000912C002E02C0880C991C0A94E2F78094FC
:103350009094FA01EA0DFB1D6490712C002E02C0BE
:10336000660C771C0A94E2F737FD05C0F6018081F0
:10337000882186298083FF2049F037303CF4F6010C
:10338000E058FF4F8081892187298083FFEFAF1AA2
:10339000BF0A8FEFC81AD80ACDCF3F5F4C0F5D1F11
:1033A0006C0F7D1FA058BF4FBCCFC92ED12CFA0186
:1033B000E60FF71FA854BD4F00E810E00C191D09D7
:1033C000CC19DD09BE01660F771F41E050E06A01AC
:1033D0000F2C01C0CC0C0A94EAF7592F2E2D792E10
:1033E000CF93DF93ED01EF96EF9622968590A5900F
:1033F000FF2059F08C9C4001AC9C500137302CF4DC
:10340000E880B094EB20E928E99233233AF0EC907D
:10341000A094EA20E828ED920C940F1A11965A9580
:1034200029F72A9551F0572D33951124E60FF11DF8
:10343000A00FB11DC00FD11DD9CFDF91CF911124A5
:103440009FCECF92EF920F93DC015C968D919C9171
:103450005D9701965D969C938E935C9790962D91C7
:103460003C91919782179307C4F05E968D919C9141
:103470005F9701965F969C938E935E971C962D9115
:103480003C911D978217930724F05F961C921E9221
:103490005E975D961C921E925C9712964D915C9180
:1034A00013974115510591F15E962C915E97FA01A3
:1034B00004913196E4904E5F5F4F2223D1F061E09A
:1034C00070E09E2D977011F470E060E08E2D86956F
:1034D00086958695860F972F911D089FB001099FAD
:1034E000700D1124269FC001279F900D1124480FB5
:1034F000591FD0966D917C91D1978AEFC82E30E0FC
:1035000020E09E968D919C910E9438180F91EF902B
:10351000CF900895CF92EF920F93FA0104913196D4
:10352000E4904E5F5F4F22E0C22E30E020E00E9428
:1035300038180F91EF90CF9008952D9A0895BC01FF
:1035400090E080E00C942C168FB18095807F669B74
:1035500088601C9B846008959091B906982329F493
:103560009091B806982381E009F480E0089580E006
:103570000C94A91580389105B8F460347105A0F455
:1035800020E191E061FD94E060FD990F62FD92956C
:10359000687F269FD0011124A80FA854BD4F8C919D
:1035A00040FF03C0892B8C93089590958923FBCF0E
:1035B0008F929F92AF92BF92CF92DF92EF92FF9243
:1035C0000F931F93CF93DF937C016B01C1E0D0E099
:1035D00002E010E0842F8470A82E842F8270982E31
:1035E000842F8870882E4170B42EAA2091F041E07B
:1035F000B8016C0D7D1DCE018E0D9F1D0E94BA1A63
:1036000041E0BE016C0D7D1DC701800F911F0E941E
:10361000BA1A992091F041E0B601601B710BCE01FE
:103620008E0D9F1D0E94BA1A41E0B6016C1B7D0BE6
:10363000C8018E0D9F1D0E94BA1A882091F041E0AA
:10364000BE016C0D7D1DC701801B910B0E94BA1A33
:1036500041E0B8016C0D7D1DC7018C1B9D0B0E94C4
:10366000BA1ABB2091F041E0B6016C1B7D0BC7017B
:10367000801B910B0E94BA1A41E0B601601B710BCE
:10368000C7018C1B9D0B0E94BA1A219601301105AF
:1036900019F001E010E0A9CFDF91CF911F910F91B8
:1036A000FF90EF90DF90CF90BF90AF909F908F9062
:1036B00008958F929F92AF92BF92CF92DF92EF9236
:1036C000FF920F931F93CF93DF936D3089F0C090DB
:1036D0009D02D0909E026A30D1F410929C0210920A
:1036E0009B0288E0C80ED11CD0929E02C0929D021F
:1036F00081E090E0DF91CF911F910F91FF90EF90CB
:10370000DF90CF90BF90AF909F908F9008950091E1
:103710009B0210919C02E5E06E9FE0011124C65CC3
:10372000DB4D4801F12CF5E0E12CFF1629F0CE012C
:103730000196FE01E490EC01B12CA12C4E2D4170BC
:10374000B6016A0D7B1DC4010E94BA1AE694FFEF10
:10375000AF1ABF0A88E0A816B10481F7F394EFEF1F
:103760008E1A9E0AF6E0FF12DECF0A5F1F4F1093FB
:103770009C0200939B02BCCFDF92EF92FF920F93CB
:103780001F93CF93DF937C01D22E8B01040F111D69
:10379000EB0177FF02C0D0E0C0E0C80101341105A1
:1037A00014F080E490E0C817D9073CF44D2DBE0119
:1037B000C7010E94BA1A2196F0CFDF91CF911F91D5
:1037C0000F91FF90EF90DF9008956F927F928F920C
:1037D0009F92AF92BF92CF92DF92EF92FF920F93A0
:1037E0001F93CF93DF937C014B01642ED22EC22E08
:1037F00001E010E0C2E0D0E045E04D0DB4016C1BEB
:103800007D0B83E0782E7C0C5401A01AB10A81E074
:1038100020E0681218C0C8018E0D9F1D0E94BC1BBD
:1038200020E0472DB501CE018E0D9F1D0E94BC1BCF
:103830000F5F1F4FDA94DA94C394C394219779F001
:10384000C1E0D0E0D9CFC701801B910B0E94BC1B07
:1038500020E0472DB501C7018C1B9D0BE7CFDF9101
:10386000CF911F910F91FF90EF90DF90CF90BF907D
:10387000AF909F908F907F906F900895089590E003
:1038800080E00895CF93DF93EC010E9464158823B4
:1038900049F0EA81FB81309729F081E090E0DF91E7
:1038A000CF910994DF91CF91089581E08093180121
:1038B0002FB7F8948091A2029091A302A091A40244
:1038C000B091A5022FBF80937E0290937F02A093B8
:1038D0008002B093810208950895EF92FF920F93B2
:1038E0001F93CF93DF93EC018A859B85009749F066
:1038F000DC01ED91FC910280F381E02D09951B869E
:103900001A867E01BEE0EB0EF11C10E000E08AA1F9
:103910009BA108171907A4F4F701819191917F01E8
:10392000009759F0DC01ED91FC910280F381E02DCC
:103930000995F7013297118210820F5F1F4FE7CF71
:103940001BA21AA2DF91CF911F910F91FF90EF90D0
:10395000089580917A0290917B02009759F0DC01E2
:10396000ED91FC910280F381E02D099510927B028C
:1039700010927A020895FC0173836283089508957A
:103980002F923F924F925F926F927F928F929F926F
:10399000AF92BF92CF92DF92EF92FF920F931F935D
:1039A000CF93DF937C018C01D12CC12CD0E0C0E0FF
:1039B00087E1482E512C91E1692E712C2CE0822E4A
:1039C000912C37E0A32EB12CF701228033802C0CF0
:1039D0003D1C209719F0C731D10541F4F7016481EE
:1039E00075814CEE5EE1C1010E948A1AF80184855E
:1039F000813009F041C0F70124813581209749F0D9
:103A0000F801838544EE5EE1882391F1C731D10549
:103A100031F0F80185854CED5EE1882349F1CE0156
:103A2000B2010E94FC2F44ED5EE1892B09F1CE0129
:103A3000B3010E94FC2F4CEC5EE1892BC9F0CE0152
:103A4000B4010E94FC2F44EC5EE1892B89F0CE0189
:103A5000877099274CEB5EE1892B51F0CE01B501BF
:103A60000E94FC2F44EB5EE1892B11F04CEE5EE1ED
:103A7000B901C1010E948A1A2196F6E0CF0ED11C2D
:103A80000F5F1F4FC831D10509F09ECFDF91CF9155
:103A90001F910F91FF90EF90DF90CF90BF90AF906C
:103AA0009F908F907F906F905F904F903F902F905E
:103AB00008950895CF92DF92EF92FF920F931F9394
:103AC000CF93DF937B01FC0106891789EC012296D5
:103AD00030E020E086E0C82ED12C20173107E4F436
:103AE000E991F9913097A9F082859385892B89F422
:103AF00082819381A701481B590BCA01B6010E941C
:103B0000FC2F6831710528F4E60FF71F848581309A
:103B100069F02F5F3F4FE1CF80E0DF91CF911F91A0
:103B20000F91FF90EF90DF90CF90089581E0F5CF57
:103B30006F927F928F929F92AF92BF92CF92DF92BD
:103B4000EF92FF920F931F93CF93DF937C014A0173
:103B50005C0182E0A80EB11C8501D0E0C0E0F70155
:103B600046895789C417D5070CF04CC0F801A191BC
:103B7000B1918F01109709F443C01A968D919C91D1
:103B80001B97892BE9F512968D919C911397880DBF
:103B9000991D13969C938E93129716962D913C9196
:103BA0001797820F931F97FF23C0B50190E080E025
:103BB00030E020E0FB0161907190BF01611471045D
:103BC00071F0F301C284D384CD2849F4C280D3803C
:103BD000F601E057FF4F8E179F070CF4CF012F5FC0
:103BE0003F4F4217530731F713969C938E931297CA
:103BF000ED91FC9111970480F581E02DCD0109959F
:103C00002196ADCFDF91CF911F910F91FF90EF9053
:103C1000DF90CF90BF90AF909F908F907F906F90EC
:103C20000895CF92DF92EF92FF920F931F93CF935D
:103C3000DF937C016A018C010E5F1F4FD0E0C0E072
:103C4000F70186899789C817D907D4F4F801A1919B
:103C5000B1918F01109791F012968D919C911397CD
:103C60008C0D9D1D13969C938E931297ED91FC9154
:103C700011970480F581E02DCD0109952196E0CFC3
:103C8000DF91CF911F910F91FF90EF90DF90CF9038
:103C900008950F931F93DC019B967C936E939A97E4
:103CA00082E090E01F969C938E931E9789E090E0AF
:103CB00051969C938E93509781E090E053969C93FD
:103CC0008E93529755969C938E9354972AE030E0AA
:103CD00093963C932E93929726E030E095963C93F2
:103CE0002E93949797969C938E93969799969C93E0
:103CF0008E9398970AE919E929E93EE300930001B8
:103D000010930101209302013093030100E010E0C1
:103D100020EA30EC00930C0110930D0120930E016A
:103D200030930F01009308011093090120930A01B9
:103D300030930B0100E010E020E03FE3009304012A
:103D40001093050120930601309307019093110110
:103D500080931001909313018093120169307105D3
:103D600008F0BFC06954714EFB010C941030C01EA6
:103D7000251FF81F39208D1F80201121D120F6200A
:103D80008BE991E0D5969C938E93D49781EA91E04C
:103D9000D7969C938E93D6978AE090E051969C9309
:103DA0008E93509782E39EE115969C938E93149781
:103DB00080EB9BE117969C938E9316978EE69BE182
:103DC00019969C938E9318978CE29BE11B969C937B
:103DD0008E931A9740E050E060E870EC40930C013D
:103DE00050930D0160930E0170930F014DEC5CEC4C
:103DF0006CE47EE340930001509301016093020163
:103E0000709303014AE959E969E97EE340930401AB
:103E100050930501609306017093070188E090E0DC
:103E200090931101809310019093130180931201DC
:103E300040E050E060E07FEB4093080150930901BF
:103E400060930A0170930B014CC080EB91E0D59612
:103E50009C938E93D49786EB91E0D7969C938E9308
:103E6000D69786E090E051969C938E9350978AEA7D
:103E70009AE115969C938E93149788E299E1179690
:103E80009C938E93169786EE98E119969C938E9349
:103E9000189784EA98E11B969C938E931A9740E0BA
:103EA00050E060E870EC40930C0150930D0160937A
:103EB0000E0170930F0143E353E363EB7EE3409302
:103EC000000150930101609302017093030182E0AD
:103ED00090E09093110180931001909313018093CF
:103EE00012019C968D919C919D975F961C921E92BB
:103EF0005E975D961C921E925C978130910509F445
:103F0000CCC108F4A9C18230910509F4D9C1039745
:103F100009F4E9C11F910F9108958CEC91E0D596B9
:103F20009C938E93D49782ED91E0D7969C938E9339
:103F3000D69784E090E01F969C938E931E9780E125
:103F400090E093969C938E93929782EA97E11596D0
:103F50009C938E93149780E695E117969C938E938D
:103F600016978EE195E119969C938E9318978CED98
:103F700094E11B969C938E931A974DEC5CEC6CE944
:103F800070EC40930C0150930D0160930E017093FF
:103F90000F014EEA57E461E67EE34093000150933F
:103FA0000101609302017093030182E090E090931D
:103FB000110180931001909313018093120140E04E
:103FC00050E060E171E4409308015093090160936F
:103FD0000A0170930B014DEC5CEC6CEC7DE34093BB
:103FE000040150930501609306017093070179CF96
:103FF00086EE91E0D5969C938E93D4978CEE91E0CB
:10400000D7969C938E93D6978AE594E115969C93C8
:104010008E93149788E192E117969C938E9316974E
:1040200086ED91E119969C938E93189784E991E11E
:104030001B969C938E931A974AE959E969ED7FEB99
:1040400040930C0150930D0160930E0170930F018A
:104050004DEC5CEC6CE470EC40930801509309016A
:1040600060930A0170930B014CEE51E568E37EE327
:1040700026CF81E092E0D5969C938E93D49788E0EA
:1040800092E0D7969C938E93D69782E191E1159614
:104090009C938E93149780ED9EE017969C938E933D
:1040A00016978EE89EE019969C938E9318978CE451
:1040B0009EE01B969C938E931A9784E190E09396D2
:1040C0009C938E93929740E050E060E870EC4093B0
:1040D0000C0150930D0160930E0170930F0140E0AD
:1040E00050E060E87EE3409300015093010160934B
:1040F0000201709303014DEC5CEC6CE47EE36FCF46
:104100008EE192E0D5969C938E93D49783E292E0D1
:10411000D7969C938E93D6978AEC9DE015969C93A8
:104120008E93149788EC9BE017969C938E9316972A
:1041300086E89BE019969C938E93189784E49BE005
:104140001B969C938E931A9788E090E051969C93CF
:104150008E93509740E050E060E670EC40930C0185
:1041600050930D0160930E0170930F014CEE51E5D9
:1041700068E37EE3409300015093010160930201E4
:104180007093030183E090E09093110180931001FC
:10419000909313018093120140E050E060E270ECD4
:1041A0004BCE88E392E0D5969C938E93D49789E486
:1041B00092E0D7969C938E93D69782EC9AE01596D0
:1041C0009C938E93149780E498E017969C938E931B
:1041D00016978EEF97E019969C938E9318978CEB19
:1041E00097E01B969C938E931A977BCE86E592E080
:1041F000D5969C938E93D4978AE397E015969C93DB
:104200008E93149788EB94E017969C938E93169751
:1042100086E794E019969C938E93189784E394E034
:10422000E0CF8AE592E0D5969C938E93D49782EB6B
:1042300093E015969C938E93149780E391E01796E4
:104240009C938E9316978EEE90E019969C938E9386
:1042500018978CEA90E0C5CF14968D919C91159794
:1042600013969C938E9312971E968D919C911F97F7
:104270001D969C938E931C9792968D919C919397EB
:1042800091969C938E93909780911001909111013B
:1042900090931301809312013DCE16968D919C91BF
:1042A000179713969C938E93129750968D919C918D
:1042B00051971D969C938E931C9786E090E0E0CFDB
:1042C00018968D919C91199713969C938E931297A3
:1042D00081E090E01D969C938E931C9791969C9301
:1042E0008E93909717CE1A968D919C911B97ECCF39
:1042F000CF93DF93EC010E946415882399F0EA8143
:10430000FB81309779F0A0915807B09159078091BF
:1043100078029091790215969C938E93149782E07F
:1043200090E0099580E40E94AC1A8823B1F0809156
:104330007802909179028530910564F50196909309
:10434000790280937802609178027091790280916D
:104350007A0290917B020E94491E80E20E94AC1A70
:10436000882301F18091780290917902181619063C
:10437000B4F4019790937902809378026091780267
:104380007091790280917A0290917B02DF91CF91B6
:104390000C94491E1092790210927802D4CF85E0D5
:1043A00090E0E8CFDF91CF91089508958F929F928A
:1043B000AF92BF92CF92DF92EF92FF920F931F9333
:1043C000CF93DF93EC018B0184E00E94AC1A882329
:1043D00039F0EA81FB81309719F090E080E009958F
:1043E0006E018CE0C80ED11C609114017091150112
:1043F000809116019091170190580E94A72EAB0151
:10440000B801C6010E94981D0A84DB85C02D08A949
:1044100019A90C31110571F5EEA4FFA4B7016B5F6A
:104420007F4FC6010E945A1D811124C0B701655FEC
:104430007F4FC6010E945A1D81111CC01F8E1E8E07
:104440001D8E1C8E83E090E09DA78CA78A859B859E
:104450009B838A838C899D899D878C8788A599A554
:1044600099A388A3109214011092150110921601BD
:104470001092170188E00E94AC1AE82E0E94641581
:10448000F82E8EE190E0E11091C0FF2009F489C080
:1044900010927D0210927C02809112019091130182
:1044A000181619068CF42CA53DA5A90142505109F6
:1044B0004230510508F47FC020917C0230917D028A
:1044C000121613060CF47EC08CA59DA582309105B2
:1044D00009F0B2C0888C998CAA8CBB8C20E030E0AB
:1044E000A901C501B4010E94A22E87FF12C0FF20BE
:1044F00081F0A50194016091040170910501809102
:104500000601909107010E948F2F688F798F8A8F03
:104510009B8FC88CD98CEA8CFB8CB801110F880B4F
:10452000990B0E94DF2EA70196010E94362E0E9451
:10453000A72E8B0179AB68ABA701960160910001B2
:104540007091010180910201909103010E94362E29
:10455000688F798F8A8F9B8F8E899F89081719079B
:104560000CF46CC099AB88AB1F8E1E8E1D8E1C8EFA
:1045700081E090E09DA78CA78E819F819B838A8399
:10458000888999899D878C878CA19DA199A388A3EF
:104590008091100190911101909313018093120169
:1045A0004DC080917C0290917D02019790937D0295
:1045B00080937C0271CF2230310509F085CFEE2047
:1045C00009F482CF10927D0210927C02209110019A
:1045D000309111018217930731F540910C015091F0
:1045E0000D0160910E0170910F01488F598F6A8FF4
:1045F0007B8F019790931301809312011F8E1E8E63
:104600001D8E1C8E82E090E09DA78CA788859985E1
:104610009B838A838A899B899D878C878EA19FA192
:1046200099A388A351CF409108015091090160914D
:104630000A0170910B01D9CF039769F0DF91CF91F7
:104640001F910F91FF90EF90DF90CF90BF90AF90B0
:104650009F908F900895C88CD98CEA8CFB8CB80100
:10466000110F880B990B0E94DF2EA70196010E9463
:10467000362E0E94A72E79AB68ABA70196016091F8
:1046800000017091010180910201909103010E944B
:10469000362E688F798F8A8F9B8FD0CF0C94CF2D39
:1046A0006115710579F0FB0101900020E9F7319760
:1046B000AF01461B570BDC01ED91FC910280F381A9
:1046C000E02D099490E080E00895CF92DF92EF9280
:1046D000FF920F931F93CF93DF938B0148E350E238
:1046E00070E060E090E080E00E948A1A8FB7F89452
:1046F0004091A2025091A3026091A4027091A50280
:104700008FBF80917E0290917F02A0918002B09134
:1047100081026A017B01C81AD90AEA0AFB0AD70199
:10472000C601843F9140A105B10570F08091180148
:1047300091E089278093180140937E0250937F0275
:104740006093800270938102C0E1D0E020E04CE0F1
:1047500067E370E0CE010E94BC1B2196C037D105F3
:10476000A9F727E030E041E069E370E08FE690E0F0
:104770000E94E51B27E030E042E069E370E080E161
:1047800090E00E94E51B40E667E370E080E190E086
:104790000E94721521E048E069E370E08EE090E04D
:1047A0000E94BC1B21E048E069E370E081E790E0F3
:1047B0000E94BC1B41E069E370E080E190E00E9450
:1047C000D81A42E069E370E08FE690E00E94D81AC0
:1047D00044E060E470E08FE690E00E94D81A48E080
:1047E00060E470E080E190E00E94D81A80911801A6
:1047F0008823C9F081E190E090939C0280939B0212
:1048000089E390E090939E0280939D0266E672E0B9
:10481000C801DF91CF911F910F91FF90EF90DF9032
:10482000CF900C945023DF91CF911F910F91FF9067
:10483000EF90DF90CF900895CF92DF92EF92FF92AA
:104840000F931F93CF93DF93EC018B016C817D81DC
:10485000FB0101900020E9F73197E61BF70B8E2F43
:10486000880FE80FEE0F80E890E08E1B910990937F
:104870009C0280939B0210929E0210929D02C8019E
:104880000E9450236E018EE0C80ED11CF12CE12C49
:104890008AA19BA1E816F90694F4D6018D919D9109
:1048A0006D01009741F0DC01ED91FC910680F781EC
:1048B000E02DB8010995BFEFEB1AFB0AE9CF8A8515
:1048C0009B85DF91CF911F910F91FF90EF90DF902B
:1048D000CF900C94211AAF92BF92CF92DF92EF92B9
:1048E000FF920F931F93CF93DF93EB01E0917A0236
:1048F000F0917B0264A975A9FB0101900020E9F702
:104900003197E61BF70B26E02E9FC0012F9F900DDD
:10491000112497FD0196959587959195819591091B
:10492000805C9F4F90939C0280939B0210929E020A
:1049300010929D02CE010E945023E0917A02F091E4
:104940007B0266A977A9FB0101900020E9F7319766
:10495000E61BF70B26E02E9FC0012F9F900D112420
:1049600097FD019695958795919581959109805C24
:104970009F4F90939C0280939B028BE090E09093DA
:104980009E0280939D02CE010E94502380917A0264
:1049900090917B020E94211A10E000E0D0E0C0E07C
:1049A00031E1E32EF12C4CE0C42ED12C57E0A52EA2
:1049B000B12C4CE15FE10115110509F1C801B70106
:1049C0000E94FC2F44E15FE1892BC9F0C801B601C8
:1049D0000E94FC2F4CE05FE1892B89F0C8018770B1
:1049E000992744E05FE1892B51F0C801B5010E948D
:1049F000FC2F4CEF5EE1892B11F044EF5EE16CE39C
:104A000070E0CE010E948A1A26960F5F1F4FCE37A4
:104A1000D10579F6DF91CF911F910F91FF90EF9023
:104A2000DF90CF90BF90AF9008956F927F928F925A
:104A30009F92AF92BF92CF92DF92EF92FF920F932D
:104A40001F93CF93DF93EC0180E090E0A0E0B0E40F
:104A50008093140190931501A0931601B093170150
:104A6000C0905807D0905907F601A480B58088E31C
:104A700090E00E942A308C0180E391E0F80191835C
:104A80008083108E118E128E138E17A616A67CE1CF
:104A9000E72EF12CF1AAE0AAF78AE68A178E168E85
:104AA00083E090E093AB82ABB501C8010E94491E40
:104AB000F801178E168E158E148E8091100190912C
:104AC000110190931301809312011B870A8724A977
:104AD00035A982A993A917A616A6F1AAE0AAF78A72
:104AE000E68A41E050E055A744A7468157815383A9
:104AF0004283408951895587448744A155A151A3D8
:104B000040A3F601938382833D832C839F838E830E
:104B100099878887FE013E96CE0182961192119266
:104B2000E817F907D9F71BA21AA2F12CE12C10E023
:104B300000E03CE3632E712C40E9842E912CCC24C0
:104B4000C394D12C68E3A62E61E0B62E84E290E0F7
:104B50000E942A30DC0113961C930E93129715962F
:104B60007C926E92149717969C928E921697199635
:104B7000DC92CE9218971196BC92AE921B961C9224
:104B80001E921A979C01245F3F4F90E080E0A7019E
:104B90004C5D504EFA01E80FF91F6491F9016193E1
:104BA0009F01019688319105A9F78AA19BA18A30BE
:104BB000910554F40196FC01EE0FFF1FEC0FFD1F51
:104BC000B587A4879BA38AA300571F4FF5E4EF0E78
:104BD000F11C003482E0180709F0B8CFDF91CF91C3
:104BE0001F910F91FF90EF90DF90CF90BF90AF900B
:104BF0009F908F907F906F900895CF93DF9388E37D
:104C000090E00E942A30EC01609178027091790264
:104C100080E391E099838883188E198E1A8E1B8EFB
:104C200088E390E09FA78EA78CE190E099AB88ABDA
:104C30009F8B8E8B1F8E1E8E83E090E09BAB8AAB8A
:104C4000CE010E94491E1F8E1E8E1D8E1C8E1DA61B
:104C50001CA68C819D819B838A838E859F859D87E1
:104C60008C878AA19BA199A388A380911001909120
:104C700011019093130180931201D0937B02C09392
:104C80007A02DF91CF910895CF93DF93EC01809169
:104C90009F029091A002DC01ED91FC910084F185CE
:104CA000E02D0995C130D10581F028F02297B9F0A7
:104CB000DF91CF91089582E497E09093A0028093D2
:104CC0009F02DF91CF910C94551C8EE397E0909357
:104CD000A00280939F02DF91CF910C94FD258AE181
:104CE00097E09093A00280939F02DF91CF910C9464
:104CF00015250C94C6300C94C6301F920F920FB637
:104D00000F9211242F933F938F939F93AF93BF9351
:104D10008091A2029091A302A091A402B091A50259
:104D20003091A10223E0230F2D3758F50196A11DE4
:104D3000B11D2093A1028093A2029093A302A0939D
:104D4000A402B093A5028091A6029091A702A0911F
:104D5000A802B091A9020196A11DB11D8093A602DF
:104D60009093A702A093A802B093A902BF91AF911C
:104D70009F918F913F912F910F900FBE0F901F9099
:104D8000189526E8230F0296A11DB11DD2CF1F92C0
:104D90000F920FB60F9211248F939F938091E10091
:104DA0009091E100937F9093E10083FF0FC01092F8
:104DB000E90091E09093EB001092EC0092E3909365
:104DC000ED001092B70298E09093F00082FF22C0AD
:104DD00093E09093E9009091F200992319F09AE3FF
:104DE0009093E80090919302992341F0909193025F
:104DF000915090939302911101C05D9A9091B602E7
:104E0000992341F09091B60291509093B60291117E
:104E100001C0289A84FF18C08091E2008E7E8160D4
:104E20008093E2008091E1008F7E8093E100809189
:104E300094028E7E8061809394029F918F910F9057
:104E40000FBE0F901F90189580FFF7CF8091E20062
:104E50008E7E80618093E2008091E1008E7E80935F
:104E6000E100809194028E7E8160E5CF1F920F92C7
:104E70000FB60F921124CF92DF92EF92FF920F9311
:104E80001F932F933F934F935F936F937F938F93D2
:104E90009F93AF93BF93EF93FF93CF93DF93CDB7E0
:104EA000DEB76C97DEBFCDBF1092E9008091E800BD
:104EB00083FF25C068E0CE0145960E94E41682EF8C
:104EC0008093E8008D8987FF39C09091E80090FFBA
:104ED000FCCF982F907609F034C19E894F89588D68
:104EE0002F89F88C911131C0803861F5809195023D
:104EF0008093F1001092F1008EEF8093E8006C96A1
:104F00000FB6F894DEBF0FBECDBFDF91CF91FF91FA
:104F1000EF91BF91AF919F918F917F916F915F9131
:104F20004F913F912F911F910F91FF90EF90DF9044
:104F3000CF900F900FBE0F901F9018959EEF9093FB
:104F4000E800C7CF1092F100D5CF913059F481110C
:104F5000D3CF4130510581F6809195028D7F8093AA
:104F60009502CACF933049F48111C6CF4130510523
:104F700019F6809195028260F2CF953041F48091CC
:104F8000E80080FFFCCF20682093E300B5CF963087
:104F900009F0A9C00B8D1C8D22E01092E90010923F
:104FA000910210929002F2122EC010928F02109273
:104FB0008E020E94B3161F8299E09983FA8291E0D3
:104FC0009E8390EA98879AEF99872091900230917A
:104FD0009102275F3F4F3C832B838D831092E90022
:104FE000109291021092900210938F0200938E0201
:104FF00049E050E0BE016F5F7F4F80E00E948D1658
:105000000E94B31679CF10938F0200938E020E94F4
:10501000F315DC0112960D911C910115110509F48F
:1050200051C1D801ED91FC910480F581E02DBE01C4
:105030006B5E7F4FC8010995009709F03EC1F801EA
:1050400000851185EACFF3E0FF120EC08F89882317
:1050500009F440C0823061F440E860E18EE999E2F1
:105060000E946A2A811148CF81E28093EB0047CFEA
:10507000813029F440E86BE082E999E2F1CF833096
:1050800099F70E94F315DC011296ED90FC908E01C9
:105090000F5F1F4F6801E114F10479F0D701ED9122
:1050A000FC910680F781E02DB801C7010995080F32
:1050B000111DF701E084F184EECFD8011C92F601B6
:1050C00001900020E9F73197BF016C197D0940E09C
:1050D000C601C6CF6CE779E2FB01449150E080E85D
:1050E0000E948D1609CF973009F4BECF983021F475
:1050F00081E08093F10000CF993009F0FDCE8370FC
:1051000009F0B2CFE1E4F1E081E031E096E32191F2
:10511000222371F08093E9003093EB00DF011197B7
:105120002C912093EC009093ED008F5F873079F7FE
:105130008EE78093EA001092EA008F898093B7028D
:10514000DBCE8B8D9C8D1092E90010929102109213
:10515000900290938F0280938E02898D811192C06C
:105160008E899D89913A49F4813209F07DCF47E0DB
:1051700050E06DE171E080E0B3CF913209F074CF7F
:10518000833269F48F89988DB0E0A0E08093190193
:1051900090931A01A0931B01B0931C01ADCE8032F5
:1051A00069F48091E80082FFFCCF67E08DE191E037
:1051B0000E94E4168BEF8093E8009ECE823209F0C5
:1051C0009BCE8F8980932401EEEFFFE78591949128
:1051D0008B3F9C4D51F1E0E0F8E080911D019091F2
:1051E0001E01A0911F01B0912001803B9440A105B8
:1051F000B105F1F48091240180FD1AC0EE3F8AE0F0
:10520000F80789F587E797E79183808380916000AD
:105210008093920288E19BE00FB6F894A895809362
:1052200060000FBE9093600067CEEEEFFAE0D5CF3E
:10523000808191818737974709F05ECEA89580914C
:10524000600088618093600080919202809360008A
:10525000EE3F2AE0F20789F08091FE0A9091FF0A62
:105260009183808349CE808191818737980751F25D
:105270009093FF0A8093FE0AC5CF1092FF0A109206
:10528000FE0A3ACE0E94F315DC0112960D911C9194
:105290000115110509F4E8CED801ED91FC910190BA
:1052A000F081E02DBE016B5E7F4FC8010995811131
:1052B00023CEF80100851185EBCF181619060CF4E2
:1052C0001BCED2CEF1E0FF12BECE60E879E204CF71
:1052D0001F920F920FB60F921124CF92DF92EF928E
:1052E000FF922F933F934F935F936F937F938F938F
:1052F0009F93AF93BF93CF93DF93EF93FF938091EF
:105300008A0290918B02A0918C02B0918D02892B20
:105310008A2B8B2B09F446C08091890281110BC026
:1053200088B190E4892788B980918802882319F090
:1053300088B1805888B980918A0290918B02A0919F
:105340008C02B0918D02181619061A061B069CF4E1
:1053500080918A0290918B02A0918C02B0918D0273
:105360000197A109B10980938A0290938B02A093BF
:105370008C02B0938D02FF91EF91DF91CF91BF919D
:10538000AF919F918F917F916F915F914F913F91DD
:105390002F91FF90EF90DF90CF900F900FBE0F9066
:1053A0001F9018950E942418811520E8920761F437
:1053B000809171008D7F80937100109291004698CA
:1053C000479810928702D7CF21E02093870281303F
:1053D00020E8920731F410928602109285020E9412
:1053E000241897FD05C020918402222309F454C09B
:1053F00020918302211150C021E020938802EC010A
:10540000DF77209709F04BC081E0809389024698AE
:105410003FE9C32E3FE0D32EE12CF12CCAEFD0E0C0
:10542000E0911807F09119070995811103C081E0F7
:105430008093890280918802882329F080918902D3
:10544000882309F43FC047980E9424180097F1F17F
:105450009C01DE010E94262EDC01CB0129E0B595DE
:10546000A795979587952A95D1F7109290002AE0F5
:1054700020939100D0929900C092980080938A0264
:1054800090938B02A0938C02B0938D028091710057
:105490008260809371006FCF10928802B0CF9E011E
:1054A00050E040E060E472E48FE090E00E94E52D7F
:1054B00069017A0181E0C81AD108E108F108109267
:1054C0008902AECF4699BFCF479ABECF8FEF9FEFED
:1054D000DC01CBCFEF92FF920F931F93CF93DF931B
:1054E000F82E192FE62E042F81E0860F880F0E94D8
:1054F0005F1683E00E945F16CF2DD12FEC0EFD2E9C
:10550000F11CCE15DF05B9F007FF13C0FE01849131
:105510000E945F16182F80E00E945F16812321965B
:105520008111EFCFDF91CF911F910F91FF90EF90FD
:1055300008958881EDCF81E0F5CF1092BD061092DD
:10554000BC0688EE93E0A0E0B0E08093BE069093A6
:10555000BF06A093C006B093C10681E591E0909389
:10556000BB068093BA068FEF9FEF9093C706809398
:10557000C606109249071092480783E991E090937C
:1055800047078093460781E695E19093190780933A
:10559000180780E090E890931707809316074698C5
:1055A0003E9A47983F9A85E891E09093430780930D
:1055B000420787E791E090933F0780933E0789E693
:1055C00091E090931B0780931A07E8E2F7E08CE3E1
:1055D00097E0119211928E179F07D9F710923D070D
:1055E00010923C0783E691E090932707809326076B
:1055F00080915007811103C081E0809350078AE4B5
:1056000097E090935907809358070895789484B54C
:10561000826084BD84B5816084BD85B5826085BDAE
:1056200085B5816085BD80916E00816080936E003C
:10563000109281008091810082608093810080912E
:1056400081008160809381008091800081608093DF
:105650008000809191008260809391008091910000
:105660008160809391008091900081608093900090
:105670008091C10084608093C1008091C1008260EC
:105680008093C1008091C10081608093C1008091AE
:10569000C30081608093C3008091C00082608093CA
:1056A000C0008091C20081608093C20080917A0026
:1056B000846080937A0080917A00826080937A007F
:1056C00080917A00816080937A0080917A0080686E
:1056D00080937A001092B702109295021092940271
:1056E0008091D70081608093D70080EA8093D800B2
:1056F00089B5806189BD89B5826089BD09B400FE24
:10570000FDCF61E070E080E090E00E942C16809177
:10571000D8008F7C80618093D8008091E000807FEA
:105720008093E0008091E1008E7E8093E1008DE027
:105730008093E200559A209A8FEF9FEF9093C706CF
:105740008093C60681EC80937C0085B1806F85B91B
:1057500084B1877E84B984B1876E84B95E9A5F987C
:105760008AB1806D8AB9769A6E9881B3806F81BB59
:10577000899880B38D7080BB80E58CBD81E08DBD44
:1057800085E090E00E949F1A5F9A85E090E00E9479
:105790009F1A5E985C98EFE5FAE28CE69AE2249113
:1057A0002EBD00000DB407FEFDCF31968E179F076A
:1057B000B1F75C9A81E88093640080916500816014
:1057C000809365000E94B71A0E94A41A87FF15C033
:1057D0005C9885EA8EBD00000DB407FEFDCF5C9A93
:1057E0002E982F982D988091640080628093640099
:1057F00081E083BF889513BEFCCF0E94A41A82FF6C
:1058000048C02D980E94A41A84788438E1F40E943C
:105810009D1A88EC90E00E949F1A2F9882E090E0F9
:105820000E94CF2D8F3F29F06FEF82E090E00E9421
:10583000D72D84EF91E00E949F1A2F9A0E94A41AFC
:1058400084788438D9F30E94A41A84718431E1F4F5
:105850000E949D1A88EC90E00E949F1A2E9882E088
:1058600090E00E94CF2D882329F060E082E090E054
:105870000E94D72D84EF91E00E949F1A2E9A0E94D9
:10588000A41A84718431D9F388EC90E00E949F1AA5
:10589000B4CF0E949D1A82E090E00E944E2388239C
:1058A00009F461C03E9A3F9A81E08093960281E0BC
:1058B00090E00E944E23282F2470922E81FF10C06A
:1058C00021112E98C1EFDFEF08E010E078E5872E78
:1058D0000E94A41A86FF4CC02E9A2F9A0E949D1AED
:1058E00082E390E00E949F1A0E94A41A8111F8CFCF
:1058F00080E180932501C7E4D1E089919991DC0191
:10590000ED91FC910680F781E02D64E476E2099543
:10591000B1E0CD34DB0789F782E497E09093A002F1
:1059200080939F020E94551CFF24F39408EB12E021
:10593000C0E0D0E0EE24E3948FB7F8944091A20247
:105940005091A3026091A4027091A5028FBF809133
:105950009902882309F4CDC010929902209761F32F
:105960000E940000E9CF109296023E983F989FCF88
:10597000992029F0C430D10511F42E9A2F9881E096
:105980000E94A9159E01D7FF04C0222733272C1B94
:105990003D0B27703327CE01D7FD079663E0959521
:1059A00087956A95E1F7D7FF05C00197A801421BCB
:1059B000530B9A01BC017695762F662777956795EC
:1059C00068547D4FF12CE12C3801621A730A8E3F26
:1059D0005FEF950709F43DC08E9CD0018F9CB00D00
:1059E000112450E040E0A155B64D5B01E0E8AE0E59
:1059F000B11C8F3F980791F0FD01E40FF51FE49172
:105A00006B01C40ED51EF0E02F01022E01C0440C24
:105A10000A94EAF7F60154884528448A211531058D
:105A200099F0FD01E40FF51FE4916501C40ED51E48
:105A3000F0E02F01062C02C0559447940A94E2F737
:105A4000F60154884528448A4F5F5F4F4835510519
:105A500081F6019660587F4FEA94EF2809F045C01F
:105A60000E94B71A8FE090E00E949F1A2196C931D8
:105A7000D10509F02DCF992011F02F9A2D9880E9AA
:105A800091E00E949F1A0E949D1A81E090E00E947E
:105A90004E2380FF25CF8AE090E00E944E239FEFA7
:105AA000980F9E3F08F01CCF22E330E030939C0219
:105AB00020939B0228E330E030939E0220939D02C6
:105AC000CBE0D0E0682F86E497E00E94591BCE011E
:105AD0000E944E232196C131D105A1F70E94B71A29
