:100000000C941F0F0C94470F0C94470F0C94470F40
:100010000C94470F0C94470F0C94470F0C94470F08
:100020000C94470F0C94470F0C9434260C94A32681
:100030000C94470F0C94470F0C94470F0C94470FE8
:100040000C94470F0C94470F0C94470F0C94470FD8
:100050000C94470F0C94470F0C94470F0C94EA250F
:100060000C94470F0C94470F0C94470F0C94470FB8
:100070000C94470F0C94470F0C94470F0C94470FA8
:100080000C94D5280C94470F0C94470F0C94470FF1
:100090000C94470F0C94470F0C94470F0C94470F88
:1000A0000C94470F0C94470F0C94470F102000003E
:1000B000000000000080000000000000000000C000
:1000C0000000C0F0FCFF3FBE38B0E000800000033D
:1000D0000E100103C7E8E8E8680827100F000000C9
:1000E00007040406002030101E000000000010204D
:1000F0000000000000000000000000000000000000
:1001000000003EFEFCFCFCF838383030E000000017
:10011000607010110307CFE8E8E968092720604004
:100120000000101F010302000000020202061C1062
:1001300000000000000000000000000000000000BF
:10014000000000F0FEFFFEFC3C383030E000000014
:10015000303818100307CFE8E8E968092730106045
:100160000000101F010302000000020202061C1022
:10017000102000000000000000000000000000004F
:100180000000000080C0F8FCFC3C0C2C082CF8009F
:100190000000000081C13307B73A3ABA9A02010061
:1001A0000000000001003806010000080403000000
:1001B000000010200000000000000000000000000F
:1001C000000000000000000080C0F8FCFC7C0C4C2B
:1001D000084CF00000000078CB0D051171783A1A38
:1001E0002A42413000000018080804010302021CE2
:1001F00010000000000000000000000000000000EF
:100200000000000000000080C0C0F0F0F8F818986E
:100210001098E0000000000070990B23E3F07434A4
:1002200094844300000000000030101A06040810F7
:10023000204040000000000000000000000000001E
:100240000000000000004060E0E0E0E0F0F030304E
:100250002030C0000000000000C12347C7E1E8696A
:10026000A80907000000000000001901645D1801E2
:10027000010000000000000000000000000000007D
:10028000000000000000008080C0E0F0F8F818983E
:100290001098E000000000000103B76743504424B9
:1002A000040403000000004060580C0602001A0E0F
:1002B0000600000000000000000000000000000038
:1002C000000000000000000080E0F8F8FC7C0C4C0E
:1002D000084CF000000000016357033329282A2A44
:1002E0002212010000000C040404060301000101B5
:1002F00006080000000000000000000000000000F0
:10030000000000000000203070F0F0F0F8F81898BD
:100310001098E0000000000000E001332350546416
:1003200024040300000000001808080C0700030E56
:100330001860400000000000000000000000000005
:10034000000000000000000070E0E0E0F0F030305D
:100350002030C0000000000000E1B38777E1E869C9
:100360002889070000000000000018090D46605CA5
:10037000000000000000000000000000000000007D
:1003800000000000000000000080E0F0F8F818987D
:100390001098E0000000000163F393237BF0F474F5
:1003A0001444430000000000006071580802122E3F
:1003B0000600000010200000000000000000000007
:1003C0000000000000004060E0F0F8FC7C0C4C08ED
:1003D0004CF0000000000000F0190111707A7A7AE8
:1003E0000AE18000000000000041780E03000003D5
:1003F0007E4003000000000000000000000000003C
:10040000000000000000103070F8F8FC7C0C4C0874
:100410004CF0000000000000F0180111707A7A7AA8
:100420000AE18000000000000041780E0300000394
:100430007E400300000000000000000000000000FB
:1004400000000000000040C0E0F0F8FC7C0C4C080C
:100450004CF0000000000000F1190111707A7A7A66
:100460000AE18000000000000041780E0300000354
:100470007E4003000000102000000000000000800B
:1004800000008000000000003EC0000039FFBF0FE8
:1004900007470747FE00F800000102000F5E5CDD21
:1004A000DDD95D01040701000000403C02010000AD
:1004B00000000001011E20001020000000000000CC
:1004C000008080808000000000000000001C7E5E34
:1004D00087838B838B7F0100C07C007CC781000FEA
:1004E0005E5CDCDCD85C00010100000000006018EC
:1004F0000F00000000300B0E000010200000000074
:1005000000000000000000000000000000000000EB
:10051000E0F0F83810B838B8F020000070D80808BB
:10052000007BF2E4E4E4C4E40360402000000060E7
:1005300020201A020A0A0A3A2000000000000000E7
:1005400000000000000000000000000000000000AB
:10055000E0F0F83810B838B8F020000000304888D3
:10056000007BF2E4E4E4C4E4032020100000000077
:10057000201012120A1A3662C080400000000000EB
:10058000000000000000000000000000000000006B
:10059000C0E0F07020707070E0400000000040A0EB
:1005A0001177E5C8C8C988C90700800000000000AD
:1005B0000101341515CDB505000100000000000053
:1005C000000000000000000000000000000000002B
:1005D000E0F0F83810B838B8F0200000000000C093
:1005E000B00BB264446444E4430000000000000027
:1005F00081C0A21A0A026632180000000000000042
:1006000000000000000000000000000000000000EA
:1006100070F87C1C085C1C5CF8100000000030586E
:10062000083D695A52525252111008000000180831
:1006300010100D05050303050C3820000000000014
:1006400000000000000000000000000000000000AA
:10065000E0F0F83810B838B8F020000000000030A2
:10066000006BD2B4A4444424230000000000001016
:100670000818121A0206060230C08040000000006E
:10068000000000000000000000000000000000006A
:10069000C0E0F07020707070E0400000000000C00A
:1006A000A1B755484849084907000000000000006C
:1006B0000030151514D5AD0D00000000000000003D
:1006C000000000000000000000000000000000002A
:1006D000E0F0F83810B838B8F02000000000709052
:1006E000184BFAF4E4E4C4E4038080000000004105
:1006F000A0908A020242222A10000000000000009E
:1007000000000000000000000000000000000000E9
:1007100070F87C1C085C1C5CF810000018240404B1
:10072000043979727272627201201C0000000C049C
:1007300008080D05050101050438200010200000FF
:1007400000000000000000000000000000000000A9
:100750000000E0F0F83810B838B8F02000000000D1
:1007600000F8007BF2E4E4E4C4E40330E0000000BD
:10077000000F0080FA02060606FA8003010000005E
:100780000000000000000000000000000000000069
:100790000000C0E0F07020707070E04000000000C9
:1007A000C07001E7E5C8C8C988C907E000000000BB
:1007B00003060CA0D5050D0D0DD5A00700001020D7
:1007C0000000000000000000000000000000000029
:1007D00000E00024FC381C580F0CACFE00000000A8
:1007E0000000030618113AFACACB7A11180E03005A
:1007F00000000020380C060200020301010704007B
:1008000010200000000000000000000000000000B8
:100810000000000000000080E0F0F06070F0F0E008
:100820008000402020202000E3E4E928CA080A07CD
:100830000100002010202130190B0B0B0804083098
:100840001800102000000000000000000000000060
:10085000000000000000000020F83C7C189C3CBC1C
:10086000F860400000806010100019FAFACA3A02DD
:1008700021201000000000000018080A02020604EF
:100880001810000000000000000000000000000040
:10089000000000000000000040F078F83038787860
:1008A000F0C080000000609090011AF4F495740587
:1008B00023100800000000000000180A0A020618B1
:1008C0006040000000000000000000000000000088
:1008D000000000000000000000C0E0E0C0E0E0E038
:1008E000C000000000000000810769D3D054D195FA
:1008F000CF030200000000000101012A0B6A510031
:1009000000000000000000000000000000000000E7
:100910000000000000000020F83C7C189C3CBCF863
:10092000604000000000000000615AAAAAAA2A0143
:1009300000000000000000006030180C06121408CF
:1009400000000000000000000000000000000000A7
:1009500000000000000000083E4F9F86A78FAF7E7A
:10096000181000000000000018240226AAAA080897
:100970000400000000000001030203010000010167
:100980000304000000000000000000000000000060
:10099000000000000000000080E0F0F06070F0F067
:1009A000E08000000000000040A39469888A884A23
:1009B00007010100000000001008101E020018606E
:1009C00040000000000000000000000000000000E7
:1009D00000000000000000000080C0C080C0C0C057
:1009E0008000000000000000028F5367E169E32BE4
:1009F0001F06040000000000013212100B6B4101C1
:100A000000000000000000000000000000000000E6
:100A10000000000000000020F83C7C189C3CBCF862
:100A20006040000000000040A0113AFACAFA0A3102
:100A30002000000000000000605008021A0A0400B4
:100A40000000000010200000000000000000000076
:100A500000000000000000000080E0F0F06070F096
:100A6000F0E08000000000000000A364E9E82A280C
:100A7000EA070101000000000000074C611B0B7B2E
:100A80004006000000000000000000000000000020
:100A90000000000000000000000000C0E0E0C0E036
:100AA000E0E0C000000000000000A167E9D31014DE
:100AB000D1150F03020000000000074C611B0B7BE7
:100AC00040060000000010200000000000000000B0
:100AD000000000000000000000FE0030E2F4783961
:100AE0009E0C185CF00038C000010E007BF2F4B4DC
:100AF00024A4650221201C03020E080C0406020037
:100B0000C2425C70000000001020000000000000E5
:100B10000000000000000000000000000000C0E035
:100B2000E07070703060E000000040A090007BF347
:100B3000F5B4A8AA680A2720121C000000000006CD
:100B400006120E040006120E000010200000000025
:100B50000000000000000000000000000000000095
:100B6000E0F0F03818580850F00000000060F0C0C5
:100B700035797A7A6A4A2A02613030000000000032
:100B8000301111050D0B1020400000000000000086
:100B90000000000000000000000000000000000055
:100BA000C0E0E07030B010A0E0000000000040E0C5
:100BB000B38335F4D4945484C3C000000000000013
:100BC0000109101202764000000000000000000041
:100BD0000000000000000000000000000000000015
:100BE000E0F0F03818580850F00000000000300025
:100BF0009D312A2A2232B20201000000000000606A
:100C000050190D05213318000000000000000000FD
:100C100000000000000000000000000000000000D4
:100C2000787CBC8E869682947C000000000C0E00BE
:100C30001F524C4C48CA280C060600000004040C45
:100C40000C06030100000103020E08000000000072
:100C50000000000000000000000000000000000094
:100C6000E0F0F03818580850F0000000000010388C
:100C700005513222424232320100000000001808C1
:100C80001811190D010B1830606000000000000001
:100C90000000000000000000000000000000000054
:100CA000C0E0E07030B010A0E00000000000C0E044
:100CB0003343F5F4D49414C4C300000000000001D1
:100CC0003111101A02764000000000000000000000
:100CD0000000000000000000000000000000000014
:100CE000E0F0F03818580850F00000000060F09074
:100CF00015417A7A6A0A42626100000000000161CF
:100D000070590501251B08000000000000000000CC
:100D100000000000000000000000000000000000D3
:100D2000787CBC8E869682947C000000001C1A039E
:100D30000D2CAF2E2C68000C080E060000000602D9
:100D400002030100000001030E0800001020000053
:100D50000000000000000000000000000000000093
:100D60000000C0E0E07030B010A0E000000000E043
:100D700030007BF3F5D494D4740403000000000722
:100D80000C00601A0206060600097302000000004B
:100D90000000000000000000000000000000000053
:100DA00000C0E0E07030B010A0E000000000E030D3
:100DB000007BF3F5D494D474040300000000070C06
:100DC00000007A0206060600091362000000000017
:100DD0000000000000000000000000000000000013
:100DE0000000E0F0F03818580850F000000000E073
:100DF000380801397A7A6A4A6A3A810000000001AB
:100E0000070060100D01030303007D0000000000D7
:100E100000000000000000000000000000000000D2
:100E200000E0F0F03818580850F00000000000F81A
:100E30000801397A7A6A4A6A3A81C00000000003E0
:100E40000600700D01030303000478000000102069
:100E50008000004090E05060607060406080000062
:100E6000001F204000DFE0A2A0A8A0A2209F806079
:100E70000000407008090307070703002424180036
:100E8000000314240808080810105090A020201017
:100E90001020000000000000000000000000000022
:100EA000000000000000F8FC3C7E0626060424F842
:100EB000000000C02010011D3D7A7A7A7A3A0221A2
:100EC000C0C004080804171504020202010101054C
:100ED00004001020000000000000000000000000DE
:100EE00000000000000000F8FC9E3E0E26060624CE
:100EF000F8000000003804008E1E3D3D3D3D9D8100
:100F0000101010100408282F0808080808080808FE
:100F10002F2808040000000000000000000000006E
:100F200000000000000000E0F078F83898181890F1
:100F3000E000000000E010033B7AF4F4F4F47404E1
:100F4000434040400810505C121010101010121254
:100F50005C501008000000000000000000000000CD
:100F60000000000000000000F0F83C7C1C4C0C0C61
:100F700048F00000007008001D3D797A7A7A3A0244
:100F8000222120200810505E111010101010111195
:100F90005E5010080000000000000000000000008B
:100FA0000000000000000000E0F078F83898181801
:100FB00090E0000000E010003B7BF2F4F4F47404D5
:100FC000444340400810505C1210101010101212D0
:100FD0005C5010080000000000000000000000004D
:100FE00000000000000000F8FC9E3E0E26060624CD
:100FF000F8000000003804008E1E3D3D3D3D9D81FF
:10100000101010100408282F0808080808080808FD
:101010002F2808040000000000000000000000006D
:1010200000000000000000E0F078F83898181890F0
:10103000E000000000E010033B7AF4F4F4F47404E0
:10104000434040400810505C121010101010121253
:101050005C5010081020000000000000000000009C
:10106000000000000000000000F0F83C7C1C4C0C6C
:101070000C48F0000000007008011D3D7A7A7A7A71
:101080003A02212020200810505E1110101010107C
:1010900011115E5010080000000000000000000068
:1010A00000000000000000000000E0F078F8389830
:1010B000181890E0000000E010003B7BF2F4F4F41C
:1010C0007404444340400810505C1210101010107B
:1010D00012125C50100810200000000000000000F8
:1010E000808080000000000000FC000078FC9C3E36
:1010F00006470747F800E03E00010304000EBE3D2E
:101100003D3DBD1D000F0100000000001E0100005C
:10111000000000011E000000102000000000000080
:1011200000000080808000000000000000000078C7
:10113000FC9C3E06170717F80000000000E01800AE
:101140000EBE3D3DBD3D1DC0380000000001004009
:10115000300F20100F0000010000102000000000E0
:10116000000000000000000000000000000000007F
:10117000C0E0E0F030303838C000000000C060301F
:1011800003F7F4E9E8E9E80987804000000001106E
:10119000180801010505081020408000000000002B
:1011A000000000000000000000000000000000003F
:1011B00080C0C0E06060707080000000000000C06F
:1011C00007EFE9D3D0D2D0120F00000000000001D9
:1011D000122233030BFB010001000000000000009D
:1011E00000000000000000000000000000000000FF
:1011F000C0E0E0F030303838C0000000000000C02F
:1012000003D7B4696869680907000000000000009E
:101210000080711D0521110C00000000000000007D
:1012200000000000000000000000000000000000BE
:10123000E0F070F818981C9CE000000000002050BE
:10124000013B6AD4D4D4D444430000000008080809
:10125000080808060200000206180000000000004E
:10126000000000000000000000000000000000007E
:10127000C0E0E0F030303838C0000000000000C0AE
:1012800003F7B469686968090700000000000010EE
:10129000180C050501010930E08000000000000085
:1012A000000000000000000000000000000000003E
:1012B00080C0C0E06060707080000000000000002E
:1012C000C7EFE9D3D0D2D0120F0000000000000019
:1012D00011233A0201F301020000000000000000A7
:1012E00000000000000000000000000000000000FE
:1012F000C0E0E0F030303838C000000000C02010FE
:101300000377F4E9E8E9E8090700000000000100BC
:10131000804030190121140D010000000000000080
:1013200000000000000000000000000000000000BD
:10133000E0F070F818981C9CE000000000300808ED
:10134000013B7AF4F4F4F4042330000000000004BC
:101350000C0808040000020206180000102000001B
:10136000000000000000000000000000000000007D
:10137000000080C0C0E060607070800000000080ED
:10138000C000E7EFC9D3D0D2D0128F00808002878F
:10139000C420100B0B030B0B09080911E18000009E
:1013A000000000000000000000000000000000003D
:1013B00000C0E0E0F030303838C00000000000C06D
:1013C000600377F4E9E8E9E8E907C080C0400183F9
:1013D000C23008050501050504040810E08020203E
:1013E00000000000000000000000000000000000FD
:1013F000FF000000000000000000000000000000EE
:10140000000000000000000000808080000000005C
:10141000FF000000000000000000000000000000CD
:101420000000000000100804048448D07FC48282B9
:10143000EF705050901020C000000000000000002D
:101440000000000000000000000103010301002172
:10145000211E00000300000000000000000000004A
:101460000808007E81BDBD817E0013100000F018C9
:10147000CC2424242424CC081830E0800000007CF4
:10148000023F60C7898B89898987808080603F029D
:101490001E70060606090909090906060603030F58
:1014A0000703060606070F010103060606070F1FBE
:1014B0000F0706060603011D0F070808007E81BD01
:1014C000BD817E0006061E000000000006061E0309
:1014D000010501030606060301050103FFFFFF00E6
:1014E00000000000000000000000000000000007F5
:1014F000FFFF01680000000003150000000000006D
:101500000000FFFFFF0000000000000417045D0062
:101510000000000000FF7FF0020600000000035DF5
:1015200000000000000000003FFEF8000000000086
:101530000002260262000000000000FFFFFF0142DF
:101540000000000003460000000000000000FFFF54
:10155000FF00000000000004380000000000000050
:101560000007FFFF016800000000031500000000F5
:1015700000000000FFFFFF0000000000000417044F
:101580005D000000000000FF7FF002060000000088
:10159000035D00000000000000003FFEF8000000B6
:1015A00000000002260262000000000000FFFFFFB2
:1015B000014200000000034600000000000000009F
:1015C000FFFFFF00000000000004380000000000E2
:1015D0000000001C08301C07051D65C780003E2365
:1015E000301C07202427253D1900301E0908781CCF
:1015F000076F1BF0000004FC2E0E2E0E1C78F870F6
:101600000000000000000080C0F078783830F878E2
:10161000F0400000000000000000000000F0F8387A
:101620007C0D2F0F2EF000000000000000000000D5
:1016300000F8FC3C7E0626060424F80000000000AA
:10164000000000000000008080808000000000009A
:101650000000000000008080808080C0C0C0C0808A
:10166000C00001070C18017272727272793D000499
:101670001CF00000000000000305046594F4F2F182
:1016800000901010102000000000C030001D7D7A76
:101690007A7A7A3A817000000000000000C02010C1
:1016A000011D3D7A7A7A7A3A0221C0C0000000001A
:1016B000008000DE9FAFA3435341533F0080E00012
:1016C00000000000018183C74F1F1F87A0A4A02432
:1016D0001F000030386CC1030303013DE0800203AA
:1016E0000100000000040C180402040505050C1894
:1016F000101008100000000000030080601F402050
:101700001F00000300000000000000040808041788
:101710001504020202010101050400000000020597
:10172000040003B73715154543408101010000004F
:1017300000008080070C80C0113707232160C4841B
:10174000000000000001000000000000030700008E
:101750000000000000000000000000000000000089
:101760000000000000000000000000000000000079
:101770000000000000000000000000000000000069
:101780000000000000000000000000000000000059
:10179000000403000000000003000000000000003F
:1017A00000000001010100000000000000000375BE
:1017B0000D7EFFFFFFE3E7C600FFFFFFFF00FFFF17
:1017C00000FFFFFFFFE3FF7E00FFFFFFFFE3E3E318
:1017D00000FFFFFFFFE3FFFFBE000000000000006E
:1017E000FFFFFFFFE3FFFFBE0066AFCFEF6600FF26
:1017F000FFFFFF63FFFFBE00030303FFFFFFFF03C5
:10180000030300FFFFFFFF60FFFFFF00FFFFFFFF7D
:1018100003FFFFFE00FEFFFFFF63FFFFFE007F7F71
:10182000FFFFE0FF7F7F0C1C1C18181F0F000F1F0D
:101830001F1F181F0F001F1F1F1F000000001F1F6A
:101840001F1F181818001F1F1F1F001F1F1F000039
:1018500000000000001F1F1F1F181F1F0F00171B75
:101860001D0E17001F1F1F1F001F1F1F000000005D
:101870001F1F1F1F000000001F1F1F1F001F1F1F13
:10188000001F1F1F1F181F1F0F001F1F1F1F001FDC
:101890001F1F0000001F1F1F1F00001A0508101047
:1018A0000F000E11110E001F01011E001E09091E5E
:1018B0000016151509000300000000003E5B4F5B99
:1018C0003E3E6B4F6B3E1C3E7C3E1C183C7E3C18E3
:1018D0001C577D571C1C5E7F5E1C00183C1800FFC7
:1018E000E7C3E7FF0018241800FFE7DBE7FF3048F5
:1018F0003A060E2629792926407F050507407F05EF
:10190000253F5A3CE73C5A7F3E1C1C08081C1C3EE5
:101910007F14227F22145F5F005F5F06097F017FD3
:10192000006689956A606060606094A2FFA2940876
:10193000047E040810207E201008082A1C08081CB9
:101940002A08081E101010100C1E0C1E0C30383EF9
:101950003830060E3E0E06000000000000005F005A
:10196000000007000700147F147F14242A7F2A1226
:10197000231308646236495620500008070300000C
:101980001C2241000041221C002A1C7F1C2A08083E
:101990003E08080080703000080808080800006051
:1019A000600020100804023E5149453E00427F403D
:1019B0000072494949462141494D331814127F109C
:1019C00027454545393C4A494931412111090736E6
:1019D00049494936464949291E0000140000004083
:1019E000340000000814224114141414140041227D
:1019F000140802015909063E415D594E7C1211122C
:101A00007C7F494949363E414141227F4141413E27
:101A10007F494949417F090909013E414151737F8D
:101A20000808087F00417F41002040413F017F08B6
:101A30001422417F404040407F021C027F7F040807
:101A4000107F3E4141413E7F090909063E41512137
:101A50005E7F09192946264949493203017F01035E
:101A60003F4040403F1F2040201F3F4038403F63E1
:101A70001408146303047804036159494D43007F3B
:101A80004141410204081020004141417F0402010C
:101A900002044040404040000307080020545478AE
:101AA000407F284444383844444428384444287FFC
:101AB000385454541800087E090218A4A49C787F56
:101AC0000804047800447D40002040403D007F1021
:101AD00028440000417F40007C047804787C08049E
:101AE00004783844444438FC182424181824241852
:101AF000FC7C08040408485454542404043F44243F
:101B00003C4040207C1C2040201C3C4030403C4459
:101B1000281028444C9090907C4464544C44000815
:101B20003641000000770000004136080002010243
:101B300004023C2623263C1EA1A161123A4040200B
:101B40007A38545455592155557941215454784186
:101B5000215554784020545579400C1E5272123948
:101B60005555555939545454593955545458000001
:101B7000457C410002457D420001457C40F029241E
:101B800029F0F0282528F07C545545002054547C39
:101B9000547C0A097F49324949493232484848321F
:101BA000324A4848303A4141217A3A42402078004E
:101BB0009DA0A07D39444444393D4040403D3C24F3
:101BC000FF2424487E4943662B2FFC2F2BFF092935
:101BD000F620C0887E090320545479410000447DDA
:101BE000413048484A32384040227A007A0A0A7224
:101BF0007D0D19317D2629292F28262929292630CE
:101C0000484D4020380808080808080808382F10F0
:101C1000C8ACBA2F102834FA00007B000008142A40
:101C2000142222142A14089500220095AA005500B7
:101C3000AAAA55AA55AA000000FF00101010FF0024
:101C4000141414FF001010FF00FF1010F010F01417
:101C50001414FC001414F700FF0000FF00FF14141C
:101C6000F404FC141417101F10101F101F14141468
:101C70001F00101010F0000000001F101010101FA7
:101C800010101010F010000000FF101010101010B5
:101C9000101010FF10000000FF140000FF00FF00F4
:101CA000001F10170000FC04F4141417101714146C
:101CB000F404F40000FF00F714141414141414F7BF
:101CC00000F7141414171410101F101F141414F418
:101CD000141010F010F000001F101F0000001F145F
:101CE000000000FC140000F010F01010FF10FF14B2
:101CF0001414FF141010101F00000000F010FFFF5C
:101D0000FFFFFFF0F0F0F0F0FFFFFF000000000029
:101D1000FFFF0F0F0F0F0F38444438447C2A2A3E30
:101D2000147E02020606027E027E0263554941636A
:101D30003844443C04407E201E2006027E02029964
:101D4000A5E7A5991C2A492A1C4C7201724C304AFD
:101D50004D4D303048784830BC625A463D3E494986
:101D600049007E0101017E2A2A2A2A2A44445F442E
:101D70004440514A444040444A51400000FF01035E
:101D8000E080FF000008086B6B0836123624360628
:101D90000F090F0600001818000000101000304056
:101DA000FF0101001F01011E00191D1712003C3C1C
:101DB0003C3C0000000000080B0002020200000989
:101DC00004000001020200000524001001052401A6
:101DD0000101042402060524060001070581031001
:101DE000004009040100020A000000070502024049
:101DF00000000705830240000004030904120100EB
:101E000002EF02014041233680000101020301413B
:101E1000726475696E6F204C4C4300417264756941
:101E20006E6F204C656F6E6172646F00D5F08D141B
:101E3000A1C881CFD9F1AF200000D729792C112476
:101E40001FBECFEFDAE0DEBFCDBF12E0A0E0B1E011
:101E5000EEE7F2E602C005900D92AC37B107D9F774
:101E600027E0ACE7B2E001C01D92A83EB207E1F75F
:101E70001FE0CEE1DFE004C02197FE010E940730A1
:101E8000CD31D107C9F70E94AE2A0C9432310C949F
:101E9000000080E00895FC018091C406882311F1C0
:101EA0003FB7F89482E08093E9002091F200822FFE
:101EB00090E01816190614F481E090E0882339F0B8
:101EC000289844E64093C3064091F10040832223C2
:101ED00039F02091F200211103C02BE62093E80095
:101EE0003FBF08958FEF9FEF08952FB7F89483E0D9
:101EF0008093E9009091E800892F807295FF04C0DB
:101F00009091F20080E4891B2FBF08958091BB0659
:101F100081110DC082E08093B70684E08093B806FB
:101F20001092BA061092B90681E08093BB0687EB47
:101F300096E008953FB7F8948091B3069091B40667
:101F4000A091B506B091B60626B5A89B05C02F3F57
:101F500019F00196A11DB11D3FBFBA2FA92F982FCF
:101F60008827BC01CD01620F711D811D911D42E0CA
:101F7000660F771F881F991F4A95D1F708958F9292
:101F80009F92AF92BF92CF92DF92EF92FF926B013E
:101F90007C010E949A0F4B015C01C114D104E10441
:101FA000F104B9F00E949A0F681979098A099B090E
:101FB000683E73408105910580F321E0C21AD10883
:101FC000E108F10888EE880E83E0981EA11CB11C80
:101FD000E4CFFF90EF90DF90CF90BF90AF909F90B5
:101FE0008F90089565E070E080E090E00C94BF0F62
:101FF000CF93C82F8091AA069091AB06DC01ED919A
:10200000FC910084F185E02D0995C130C1F070F09C
:10201000C230D1F08091AA069091AB06DC01ED911F
:10202000FC910190F081E02DCF91099480912907D6
:1020300090912A079093AB068093AA06EBCF8091EC
:10204000270790912807F6CF8091250790912607C2
:10205000F1CF40919A0250919B02209198023091C9
:10206000990242175307B4F49091E8009570E1F398
:102070009091E80092FD19C08093F10080919A023E
:1020800090919B0201968F739927892B19F48EEFFB
:102090008093E80080919A0290919B020196909320
:1020A0009B0280939A0281E0089580E00895EF9268
:1020B000FF920F931F93CF93DF93F82E192FE62EE5
:1020C000042F81E0860F880F0E94291083E00E9470
:1020D0002910CF2DD12FEC0EFD2EF11CCE15DF05D2
:1020E000B9F007FF13C0FE0184910E942910182F38
:1020F00080E00E942910812321968111EFCFDF918A
:10210000CF911F910F91FF90EF9008958881EDCFAF
:1021100081E0F5CFDF92EF92FF920F931F93CF9361
:10212000DF93D82E8A01EB017B01E40EF51ECE155C
:10213000DF0559F0D7FE12C0FE0184910E942910DC
:1021400021968111F4CF0FEF1FEFC801DF91CF91DE
:102150001F910F91FF90EF90DF9008958881EECF4F
:102160000F931F93CF93DF931F92CDB7DEB782E01B
:10217000898342E450E067EB7DE180E80E948A10A9
:102180000E94860FDC0112960D911C91011511051C
:1021900089F0D801ED91FC910280F381E02DBE0120
:1021A0006F5F7F4FC801099597FD04C0F801008556
:1021B0001185ECCF89810F90DF91CF911F910F9105
:1021C0000895615030F02091F100FC0120830196C8
:1021D000F8CF289884E68093C3060895AF92BF9203
:1021E000CF92DF92EF92FF920F931F93CF93DF93E3
:1021F0006C017B018B01040F151FEB015E01AE1812
:10220000BF08C017D10759F06991D601ED91FC9133
:102210000190F081E02DC6010995892B79F7C50160
:10222000DF91CF911F910F91FF90EF90DF90CF90B2
:10223000BF90AF9008958F929F92AF92BF92CF922E
:10224000DF92EF92FF920F931F93CF93DF936C0176
:102250007B018A0180912901882309F45CC0809167
:10226000C406882309F457C080919E0280FF05C0F0
:102270008091E00082608093E000E801B12C8AEF59
:10228000A82E93E0892E2AE3922E209711F4BB20EA
:10229000D9F10E94750F81110AC0AA94AA20D9F120
:1022A00061E070E080E090E00E94BF0FEECF8C17FD
:1022B0001D0611F00CF08C2F9FB7F8948092E90066
:1022C0002091E80025FD02C09FBFDFCF282F30E01E
:1022D000C21BD30BF701815020F041914093F100D4
:1022E000FACFE20EF31EBB2021F09092E800B12C51
:1022F000EBCF8091E80085FDE7CF9092E800BB240A
:10230000B394209709F3F3CF5D9884E680939D0200
:10231000101611063CF081E090E0F6019383828371
:1023200010E000E0C801DF91CF911F910F91FF9065
:10233000EF90DF90CF90BF90AF909F908F900895D7
:10234000CF93DF931F92CDB7DEB76983DC01ED91A8
:10235000FC910280F381E02D41E050E0BE016F5F0F
:102360007F4F09950F90DF91CF91089583E080937F
:10237000E9008091F200882319F08AE38093E80055
:1023800008950E94750F90E00895CF93DF931F92F8
:10239000CDB7DEB7FC018485958597FD08C02FEF8A
:1023A0003FEF358724870F90DF91CF910895CE01BD
:1023B00001960E944B0F019719F4898190E0F3CFA9
:1023C0008FEF9FEFF0CF0F931F93CF93DF931F9269
:1023D000CDB7DEB78C01FC018485958597FF0BC0D6
:1023E000CE0101960E944B0F019771F4898190E014
:1023F000F80195878487F801848595850F90DF9192
:10240000CF911F910F9108958FEF9FEFF1CFFC01B6
:102410008485958597FD0BC09FB7F89482E08093E3
:10242000E9008091F2009FBF90E0019608959FB768
:10243000F89482E08093E9008091F2009FBF90E0E1
:10244000089520918C02E0918F02F0919002CF01CB
:1024500002969093900280938F02222319F0859127
:10246000949108958081918108954F925F926F9227
:102470007F928F929F92AF92BF92CF92DF92EF9214
:10248000FF920F931F93CF93DF934C015901FC2DC3
:10249000C02FD0E0CE01880D991D181619060CF03A
:1024A0006CC020E8821691040CF067C09B012E0DD1
:1024B000311D121613060CF060C0603471050CF06B
:1024C0005CC04115510509F458C0E62FE770FE2E97
:1024D000DB0177FD179633E0B595A7953A95E1F7BF
:1024E0003A2F77FF04C0FF2011F03FEF3A0F662725
:1024F00077276819790997FC02C070E060E080389E
:1025000091050CF44BC090E89819961BA32F032E4D
:10251000000CBB0B1A2F10953F3F0CF010E021E090
:102520008E2D877009F420E0E694E694E694E20E9E
:10253000AE0DB11D19971CF028E0E22EE31AE11A46
:10254000310F20E83203D0011124A80DB91DA60FC8
:10255000B71F019F600D711D1124460F571F0F2DCE
:102560000F2C000C110BF33009F41CC1C8F4F1302E
:1025700009F4D0C0F23009F47CC0DF91CF911F91F3
:102580000F91FF90EF90DF90CF90BF90AF909F9012
:102590008F907F906F905F904F900895902FB5CF60
:1025A000FA3FB1F1232F2E0DFB3F39F7321729F3F4
:1025B000BD016A557D4FD12CC12CC91608F0A4C0AD
:1025C000FA01EC0DFD1DE491F0E04F01002E02C078
:1025D000880C991C0A94E2F737FD06C0FB01808144
:1025E000E82CE0948E218083FF2061F0373054F492
:1025F0005B01F0E8AF0EB11CE92CE094F50180819D
:102600008E218083FFEFCF1ADF0A6F5F7F4FD5CF18
:10261000232F2E0D321709F4B0CFBD016A557D4F1F
:10262000D12CC12CC91608F069C0FA01EC0DFD1DB2
:10263000E491F0E04F01002E02C0880C991C0A942E
:10264000E2F737FD04C0FB01808188298083FF20E9
:1026500051F0373044F45B01F0E8AF0EB11CF501E6
:10266000808189298083FFEFCF1ADF0A6F5F7F4F58
:10267000D9CF6FEF70E00F2C02C0660F771F0A945E
:10268000E2F760957095772E232F2E0D321709F4FF
:1026900074CFFD01EA55FD4F6F01B12CA12CA91695
:1026A00038F5FA01EA0DFB1DE491F0E02F01002E50
:1026B00002C0440C551C0A94E2F737FD05C0F60130
:1026C0008081862384298083FF2059F037304CF4A1
:1026D0004601F0E88F0E911CF40180818721852945
:1026E0008083FFEFAF1ABF0A8FEFC81AD80AD7CF7F
:1026F0003F5F4C0F5D1FA058BF4FC8CF3F5F4C0FCF
:102700005D1FA058BF4F86CF3F5F4C0F5D1FA05885
:10271000BF4F4CCF6A0D7B1D232F2E0D321709F4AE
:102720002CCFFD01EA55FD4F6F01B12CA12CA9164C
:1027300088F5FB01EA0DFB1D8490912C002E02C050
:10274000880C991C0A94E2F780949094FA01EA0D9F
:10275000FB1D6490712C002E02C0660C771C0A943D
:10276000E2F737FD05C0F601808188218629808344
:10277000FF2049F037303CF4F601E058FF4F8081EC
:10278000892187298083FFEFAF1ABF0A8FEFC81A0C
:10279000D80ACDCF3F5F4C0F5D1F6C0F7D1FA05837
:1027A000BF4FBCCFC92ED12CFA01E60FF71FAA5597
:1027B000BD4F00E810E00C191D09CC19DD09BE0160
:1027C000660F771F41E050E06A010F2C01C0CC0C6E
:1027D0000A94EAF7592F2E2D792ECF93DF93ED012E
:1027E000EF96EF9622968590A590FF2059F08C9C4D
:1027F0004001AC9C500137302CF4E880B094EB20C1
:10280000E928E99233233AF0EC90A094EA20E828F2
:10281000ED920C940C1411965A9529F72A9551F0C3
:10282000572D33951124E60FF11DA00FB11DC00FD8
:10283000D11DD9CFDF91CF9111249FCECF92EF92AE
:102840000F93FA0104913196E4904E5F5F4F22E0BE
:10285000C22E30E020E00E9435120F91EF90CF9011
:102860000895CF92EF920F934115510541F1FA016E
:1028700004913196E4904E5F5F4F2223D1F0A1E0A6
:10288000B0E03E2D377011F4B0E0A0E0EE2DE695FB
:10289000E695E695EA0FFB2FF11D0E9FD0010F9FE5
:1028A000B00D11242A9FF0012B9FF00D11244E0F23
:1028B0005F1F2AEFC22E30E020E00E9435120F91F8
:1028C000EF90CF9008958F929F92AF92BF92CF9248
:1028D000DF92EF92FF92CF93DF93EC0120912B01D7
:1028E00030912C0140912D0150912E0168A179A1C8
:1028F0008AA19BA10E949D2D6B017C01C8A2D9A237
:10290000EAA2FBA26EA17FA1072E000C880B990BF7
:102910000E94B82E4B015C01AC019B01C701B601BE
:102920000E94682F87FD16C08CA19DA101969DA3D2
:102930008CA32A893B898217930714F01DA21CA23D
:10294000A5019401C701B6010E949C2D68A379A33B
:102950008AA39BA3EE80FF80E114F104E9F068AD47
:1029600079AD8AAD9BAD0E94802E4B016CA97DA9EB
:102970008EA99FA90E94802ECB012CA1A701B40192
:10298000DF91CF91FF90EF90DF90CF90BF90AF900D
:102990009F908F900C943114DF91CF91FF90EF9026
:1029A000DF90CF90BF90AF909F908F900895AF929F
:1029B000BF92CF92DF92EF92FF920F931F93CF932C
:1029C000DF936D3079F0C091A806D091A9066A30E6
:1029D000B1F41092A7061092A6062896D093A906E5
:1029E000C093A80681E090E0DF91CF911F910F91F5
:1029F000FF90EF90DF90CF90BF90AF9008954091FF
:102A0000A6065091A70685E0689FF0011124E954BD
:102A1000F74E9A01C12C80E1E82EA5E070E0CA16BD
:102A200021F0CF0101967491FC0110E000E0B72F76
:102A3000B170DB2E20383105D0F4CE01800F911F0C
:102A400080349105A0F461E081FD64E080FD660FB3
:102A500082FD6295887FE89ED0011124A20FF62E98
:102A6000AA55BD4F8C91DD20A9F0862B8C937695CD
:102A70000F5F1F4F08301105D1F6C3942F5F3F4FF2
:102A800086E0C812CACF4A5F5F4F5093A7064093B3
:102A9000A606A8CFF0948F21E9CF9091A4029823A5
:102AA00029F49091A502982381E009F480E008952B
:102AB000089590E080E00895CF93DF93EC0188E0E3
:102AC0000E944D15882331F0EA81FB8181E0DF917E
:102AD000CF910994DF91CF91089581E080931D01FA
:102AE0002FB7F8948091AF069091B006A091B106EF
:102AF000B091B2062FBF8093880290938902A09371
:102B00008A02B0938B0208950895CF93DF93EC016E
:102B10008A859B85009749F0DC01ED91FC9102804C
:102B2000F381E02D09951B861A8628A139A1FE01A3
:102B300090E080E0821793074CF444855585452B3F
:102B400011F01586148601963296F4CF19A218A2B8
:102B5000DF91CF91089580917C0290917D02009742
:102B600059F0DC01ED91FC910280F381E02D099593
:102B700010927D0210927C020895FC01738362839F
:102B800008958F929F92AF92BF92CF92DF92EF9271
:102B9000FF920F931F93CF93DF938C01EC01AB96C1
:102BA0006C0181E3C80ED11CE990F990D7015496CD
:102BB0008C91882301F1F80162857385072E000C42
:102BC000880B990B0E94B82E4B015C01D7015596DA
:102BD0006D917C91072E000C880B990B0E94B82EEA
:102BE0009B01AC01C501B4010E949D2D0E94802E65
:102BF000F70173876287CC15DD05B1F69801255C76
:102C00003F4FE991F9918685882351F0D8011A96B2
:102C10008D919C9144855585840F951F9183808368
:102C2000C217D30771F7DF91CF911F910F91FF90DA
:102C3000EF90DF90CF90BF90AF909F908F900895CE
:102C4000CF93DF93EC019B01FA0167E170E00E94F2
:102C5000DF2F42EB54E1892B21F1CE0161E170E0DD
:102C60000E94DF2F4AEA54E1892BD9F0CE016CE0B3
:102C700070E00E94DF2F42EA54E1892B91F0CE01EF
:102C8000877099274AE954E1892B59F0CE0167E012
:102C900070E00E94DF2F42E954E1892B11F044EDEE
:102CA00054E1BF01C901DF91CF910C941E148F92A2
:102CB0009F92AF92BF92CF92DF92EF92FF920F93CB
:102CC0001F93CF93DF93EC015B017C01D12CC12CCE
:102CD00010E000E08A849B848C0C9D1C011511057A
:102CE00019F00731110539F46C857D8544ED54E107
:102CF000C4010E941E14D70153968C9153978130C2
:102D0000C1F46C857D850115110551F052968C91A9
:102D10004CEC54E1882351F00731110509F44BC004
:102D2000F7018489811147C044EC54E1C4010E9439
:102D30001E140F5F1F4FF6E0CF0ED11C8FEFE81A65
:102D4000F80A0831110531F68E01055D1F4F7E012D
:102D5000A1E3EA0EF11CF801819191918F01DC0150
:102D6000ED91FC910680F781E02DB50109950E15D6
:102D70001F0589F7EB96D801ED91FD918D018685B0
:102D8000882349F06281738120E04AEB54E180811D
:102D900091810E943114C017D10769F7DF91CF915B
:102DA0001F910F91FF90EF90DF90CF90BF90AF9069
:102DB0009F908F900895AB01B401C8010E94201626
:102DC000B8CF0895FC0184898823E1F0838981309C
:102DD00049F46485758520E04AE654E1828593854F
:102DE0000C943114823031F46485758520E04EED09
:102DF00053E1F4CF811106C06485758520E040E67B
:102E000054E1ECCF0895CF92DF92EF92FF920F93AF
:102E10001F93CF93DF937B01FC0104891589EC019B
:102E200030E020E086E0C82ED12C20173107DCF4FA
:102E3000E991F9913097A1F08289811111C08285C1
:102E40009385A701481B590BCA01B6010E94DF2FC9
:102E50006831710528F4E60FF71F8389813069F026
:102E60002F5F3F4FE2CF80E0DF91CF911F910F9115
:102E7000FF90EF90DF90CF90089581E0F5CF089517
:102E80008F929F92AF92BF92CF92DF92EF92FF927A
:102E9000FC0162AB82E090E0958B848B28E030E00F
:102EA000378B268B21E030E0318F208F338F228FBC
:102EB000358F248F4AE050E051A740A746E050E00C
:102EC00053A742A735A724A737A726A731AB20AB26
:102ED0007AE9C72E79E9D72EED2C7EE3F72EC09242
:102EE0000801D0920901E0920A01F0920B01812CB5
:102EF000912CA0EAAA2EA0ECBA2E809210019092FA
:102F00001101A0921201B092130180920C019092D3
:102F10000D01A0920E01B0920F01812C912CA12CD9
:102F2000BFE3BB2E8092000190920101A0920201AA
:102F3000B0920301309315012093140130931701CF
:102F400020931601812C912CA12C21E4B22E84AE69
:102F500095AEA6AEB7AE10927F02623009F462C1A0
:102F600008F5662309F47DC0613009F4BDC083A96A
:102F700015A214A210A211A212A213A2823009F467
:102F800035C208F0FFC1882309F404C2813009F476
:102F900016C2FF90EF90DF90CF90BF90AF909F90C0
:102FA0008F900895643009F4DDC008F48FC1653056
:102FB000F1F62DE332E0DF01AE5BBF4F11963C939B
:102FC0002E9322E432E012962D933C9324EB33E0CF
:102FD0003187208722EB31E03387228720E731E0F9
:102FE000358724872EEE30E0318B208B2CEA30E0C1
:102FF0003787268723E030E0358B248B938F828FB1
:1030000085E090E097A786A780E090E0A0E4B0EC90
:103010008093100190931101A0931201B0931301BA
:103020008CEE91E5A8E3BEE380930801909309013B
:10303000A0930A01B0930B01309315012093140162
:10304000309317012093160180E090E0A0E1B0ECEE
:1030500080930C0190930D01A0930E01B0930F018A
:1030600086CF8AEB91E0DF01AE5BBF4F11969C9358
:103070008E9380EC91E012968D939C938CE593E176
:10308000918780878AE591E19387828788E191E142
:1030900095878487918B808B86ED90E197878687D3
:1030A00083E393E3A3E5B0EC8093100190931101C7
:1030B000A0931201B09313018DEC9CECACE4BEE341
:1030C0008093080190930901A0930A01B0930B012A
:1030D000C0920001D0920101E0920201F09203013E
:1030E00081E080937F0243CF2FEC31E0DF01AE5BC4
:1030F000BF4F11963C932E9325ED31E012962D9300
:103100003C93578B468B24E530E13187208722EDB5
:103110003EE03387228720E93EE035872487318BE4
:10312000208B2EE43EE03787268740E050E060E8C1
:1031300070EC409310015093110160931201709351
:1031400013019093150180931401909317018093BC
:10315000160140930C0150930D0160930E01709382
:103160000F0105CF2BEE31E0DF01AE5BBF4F1196B3
:103170003C932E9321EF31E012962D933C9324E063
:1031800030E0358B248B20E130E031A720A72CE400
:103190003DE0318720872AE43BE03387228728E01F
:1031A0003BE035872487318B208B26EC3AE037874C
:1031B000268743E353E363E970EC40931001509397
:1031C000110160931201709313014EEA57E461E616
:1031D0007EE3409308015093090160930A017093C4
:1031E0000B01909315018093140190931701809324
:1031F000160180E090E0A0E1B1E480930C0190938F
:103200000D01A0930E01B0930F018DEC9CECACEC82
:10321000BDE38093000190930101A0930201B0935C
:103220000301A5CE25E032E0DF01AE5BBF4F119672
:103230003C932E932BE032E012962D933C9324E4A2
:103240003AE03187208722E438E03387228720E084
:1032500038E035872487318B208B2EEB37E037879A
:10326000268746E656E666E070EC409310015093E0
:103270001101609312017093130146E656E666E46D
:1032800070EC40930C0150930D0160930E0170930C
:103290000F014CEE51E568E37EE340930801509343
:1032A000090160930A0170930B01909315018093BB
:1032B0001401909317018093160180E090E0A0EA3A
:1032C000B0E484AF95AFA6AFB7AF51CE20E232E005
:1032D000DF01AE5BBF4F11963C932E9327E232E0A5
:1032E00012962D933C932CE337E0318720872AEF09
:1032F00034E03387228728EB34E035872487318B0D
:10330000208B26E734E03787268724E130E031A799
:1033100020A740E050E060E870EC4093100150932B
:103320001101609312017093130143E353E363E1CE
:1033300070EC40930C0150930D0160930E0170935B
:103340000F0140E050E060E87EE3409308015093B5
:10335000090160930A0170930B014DEC5CEC6CE485
:103360007EE340930001509301016093020170934A
:10337000030190931501809314019093170180939A
:103380001601F5CD8330D9F1843009F002CE86855F
:1033900097852EC0808591859783868384899589BA
:1033A000938B828B80A591A597A386A3809114010E
:1033B000909115019093170180931601EACD80E05A
:1033C00090E0A0E0B0E480A391A3A2A3B3A382E025
:1033D00090E095A384A382859385978386838689CD
:1033E0009789938B828B86E090E0DECF84859585EC
:1033F0009783868381E090E0938B828B0AC08089DB
:10340000918997838683828D938D938B828B86A5FA
:1034100097A597A386A3BDCDCF93DF93EC0188E05A
:103420000E944D15882321F0EA81FB8182E00995F5
:1034300080E40E944D15882389F080917E0290E0FF
:10344000019666E070E00E94DF2F80937E02682F75
:1034500080917C0290917D020E94401780E20E9440
:103460004D15882399F080917E0290E0059666E0E4
:1034700070E00E94DF2F80937E02682F80917C0293
:1034800090917D02DF91CF910C944017DF91CF9105
:1034900008950895CF93DF9386E490E00E940D3065
:1034A000EC0160917E028DE391E0998388831A821A
:1034B0001B821C821D8280E090E0A0E6B2E48CAB0F
:1034C0009DABAEABBFAB80E090E0A0EEB1E488AFC7
:1034D00099AFAAAFBBAF8CE190E09F8F8E8F1DA2FA
:1034E0001CA2FE01E05CFF4F83E090E091838083AB
:1034F000CE010E9440171DA21CA218A219A21AA256
:103500001BA21BAA888599859F838E838C899D89A0
:103510009B8B8A8B88A599A59FA38EA3809114016C
:10352000909115019093170180931601D0937D021D
:10353000C0937C02DF91CF910895FB0101900020A0
:10354000E9F73197AF01461B570BDC01ED91FC9178
:103550000280F381E02D09948F929F92AF92BF92E7
:10356000EF92FF920F931F93CF93DF93CDB7DEB708
:10357000A1970FB6F894DEBF0FBECDBF7C01FA0154
:10358000CB0119A2223008F42AE08E010F5D1F4FF3
:10359000822E912CB12CA12CBF01A50194010E9477
:1035A0006B2DF901CA016A300CF5605DD8016E938C
:1035B0008D01232B242B252B79F790E080E01097A9
:1035C00021F0BD01C7010E949D1AA1960FB6F89483
:1035D000DEBF0FBECDBFDF91CF911F910F91FF9046
:1035E000EF90BF90AF909F908F900895695CDECF71
:1035F0006115710511F00C949D1A90E080E008951A
:103600000F931F93CF93DF93EB014BE958E170E0E9
:1036100060E085E090E00E941E144FEA57E167E009
:1036200070E085E090E00E941E1441EF55E16BE1EF
:1036300070E086E090E00E941E1443ED55E166E1E3
:1036400070E08CE590E00E941E148FB7F8944091D2
:10365000AF065091B0066091B1067091B2068FBF6F
:103660008091880290918902A0918A02B0918B0288
:103670008A019B01081B190B2A0B3B0BD901C801BE
:10368000843F9140A105B10570F080911D0191E04A
:10369000892780931D01409388025093890260938B
:1036A0008A0270938B0280911D018823A9F081E129
:1036B00090E09093A7068093A60689E390E090930C
:1036C000A9068093A80667E572E0CE01DF91CF914D
:1036D0001F910F910C94F81ADF91CF911F910F91C8
:1036E00008958F929F92AF92BF92CF92DF92EF9206
:1036F000FF920F931F93CF93DF938C01EB01DC01BB
:1037000014966D917C91FB0101900020E9F73197AF
:10371000E61BF70B8E2F880FE80FEE0F80E890E086
:103720008E1B91099093A7068093A6061092A90676
:103730001092A806CE010E94F81A1092A7061092C5
:10374000A6061092A9061092A806C0902B01D09050
:103750002C01E0902D01F0902E01A7019601C701E8
:10376000B6010E94DA2F882321F168E672E0CE01CB
:103770000E949D1A6801BCE0CB0ED11CF12CE12CFB
:10378000F80180A191A1E816F9060CF0ADC0D601B0
:103790008D919D916D01009741F0DC01ED91FC91BF
:1037A0000680F781E02DBE010995BFEFEB1AFB0AF9
:1037B000E7CF46015701E894B7F82FEF3FEF4FE707
:1037C0005FE7C501B4010E94DA2F81110CC02FEF11
:1037D0003FEF4FE75FE7C501B4010E94092E6CE699
:1037E00072E0181624F22FEF3FEF4FE75FE4C701B6
:1037F000B6010E94682F18161CF460E772E0B7CF7C
:103800002FEF3FEF4FE75FECC701B6010E94092E93
:1038100087FDF3CF20E030E0A901C701B6010E9487
:10382000092E87FF0CC0E881F9810190F081E02D1D
:103830006DE2CE010995F7FAF094F7F8F0942AE0DA
:1038400037ED43EA5BE3C701B6010E949D2D4B01B2
:103850005C010E94872E6B017C010E94B62E9B01A9
:10386000AC01C501B4010E949C2D4B015C012AE012
:10387000B701A601CE010E94AC1AE881F98101903E
:10388000F081E02D6EE2CE01099520E030E040E2CB
:1038900051E4C501B4010E946D2F4B015C010E94EF
:1038A000872E6B01F12CE12C2AE0B701A601CE0195
:1038B0000E94AC1AC701B6010E94B62E9B01AC0152
:1038C000C501B4010E949C2D20E030E040E251E4AB
:1038D0000E946D2F0E94872EAB0170E060E02AE00D
:1038E000CE010E94AC1A46CF82859385DF91CF919D
:1038F0001F910F91FF90EF90DF90CF90BF90AF900E
:103900009F908F900C946314FB0101900020E9F7C5
:103910003197E61BF70B2E2F220FE20FEF7720E4F3
:1039200030E02E1B31093093A7062093A60650E005
:103930005093A9064093A8060C94F81A0F931F936E
:10394000CF93DF93EB01E0917C02F0917D02EE5B7F
:10395000FF4F6081718140E0CE010E94841CE091A4
:103960007C02F0917D02EC5BFF4F608171814BE046
:10397000CE010E94841C80917C0290917D020E9465
:10398000631410E000E0D0E0C0E04CE350E0BE0182
:10399000C8010E94201626960F5F1F4FCE37D10513
:1039A000A1F7DF91CF911F910F910895EF92FF92B0
:1039B0000F931F93CF93DF938C0182EB91E0D8019B
:1039C0008D939C93E801AB967801B1E3EB0EF11C6B
:1039D00089919991009739F0DC01ED91FC91028079
:1039E000F381E02D0995CE15DF0591F7055C1F4F9A
:1039F000899199910E94A9300C171D07C9F7DF9191
:103A0000CF911F910F91FF90EF900895CF93DF9387
:103A1000EC010E94D61CCE01DF91CF910C94A9300D
:103A20000C94A9300C94A9302F923F924F925F9240
:103A30006F927F928F929F92AF92BF92CF92DF92BE
:103A4000EF92FF920F931F93CF93DF93CDB7DEB723
:103A500060970FB6F894DEBF0FBECDBF1C016B019F
:103A6000AC014D5E5F4F90E080E0F601E80FF91F7A
:103A7000E491DA0130E020E0F0E0BF01022E02C064
:103A8000759567950A94E2F761706D932F5F3F4FCC
:103A90002830310591F70196485F5F4F83309105DB
:103AA00021F7560123E0A20EB11CA1014A5F5F4F2E
:103AB0005C834B83710142E050E0B501CE01019679
:103AC0000E94302D8980D701882009F4EFC09B9691
:103AD0000D911C91F10162857385072E000C880BF6
:103AE000990B0E94B82E2B013C01D80153968C9261
:103AF0005397E2E05296EC935297912C6A8170E0D2
:103B000056967C936E935597072E000C880B990B55
:103B10000E94B82EA30192010E949D2D0E94802E2A
:103B2000D8011B967C936E931A97072E000C880B76
:103B3000990B0E94B82EF801628373838483958366
:103B4000F6E0F89DC001F99D900D11249C012F5BBA
:103B50003E4F4901D9016C9170E0F8017587648787
:103B6000072E000C880B990B0E94B82ED8011696D0
:103B70006D937D938D939C931997F401818190E0CF
:103B80001F969C938E931E97828190E051969C93F2
:103B90008E935097D7019B96ED91FC91B1E0B48B39
:103BA000B2E0AB0EB11CE2E0EE0EF11C2B813C81C9
:103BB000E216F30609F07FCFA1014F5C5F4F5887F3
:103BC0004F83C60109969C838B83D101DB96BE8708
:103BD000AD875E834D83F101F996F88BEF878AE01C
:103BE000882E912C412C512C90E2692E91E4792E53
:103BF000FF24F394AD81BE81ED91FD91BE83AD8331
:103C0000168642E050E06B817C81CE0101960E94D5
:103C1000302DE980B1E0EB124EC0F10101A912A9EB
:103C20006A8170E082859385D8011D967C936E939E
:103C30001C97860F971F8D939C93072E000C880B63
:103C4000990B0E94B82EF80164837583868397834D
:103C5000938282824086518662867386E6862B81B5
:103C60003C812E5F3F4F3C832B834D855E858D814C
:103C70009E814817590709F0BDCF60960FB6F8949A
:103C8000DEBF0FBECDBFDF91CF911F910F91FF908F
:103C9000EF90DF90CF90BF90AF909F908F907F90EC
:103CA0006F905F904F903F902F9008959B96ED916D
:103CB000FC91148A75CFB2E0EB1247C0F101C1A8A4
:103CC000D2A80A8110E082859385D6011D961C93A7
:103CD0000E931C97800F911F8D939C93B801012E1A
:103CE000000C880B990B0E94B82EF6016483758333
:103CF000868397839382828240865186628673860A
:103D0000F686F101C3A8D4A8B801665F7F4F82850B
:103D10009385D6011D967C936E931C97860F971FF3
:103D20008D939C93072E000C880B990B0E94B82E44
:103D3000F6016483758386839783938282824086AB
:103D4000518662867386F6868ACFB3E0EB1294C002
:103D5000F101C1A8D2A80A8110E082859385D6011D
:103D60001D961C930E931C97800F911F8D939C930F
:103D7000B801012E000C880B990B0E94B82E6987A0
:103D80007A878B879C87F601648375838683978304
:103D9000938282824086518662867386F686F1011E
:103DA000C3A8D4A85801FAE0AF0EB11CD1011A96ED
:103DB0008D919C91F601B586A4868A0D9B1D9183F9
:103DC0008083B5010B2C000C880B990B0E94B82E38
:103DD000D60114966D937D938D939C9317971396AC
:103DE0009C928E921297F601408651866286738667
:103DF000F686D101D596ED91FC91D6971A962D9124
:103E00003C911B9715870487020F131F11830083B2
:103E100029853A854B855C85248335834683578382
:103E200044E150E05383428320E030E040EA51E433
:103E30002087318742875387F686D796ED91FC918C
:103E4000D8971A962D913C91B586A486A20EB31EE2
:103E5000B182A082648375838683978344E150E0B6
:103E60005383428380E090E0A0EAB1E480879187A9
:103E7000A287B387F686F3CE94E0E912F0CE0A81EA
:103E800010E0AF80B884D501CD90DD905D01F101E7
:103E900082859385D6011D961C930E931C97800FE7
:103EA000911F8D939C93B801012E000C880B990BE8
:103EB0000E94B82EF601648375838683978393826C
:103EC00082824086518662867386F686065F1F4F21
:103ED000EF85F889AE16BF06B1F6C1CE2F923F929C
:103EE0004F925F926F927F928F929F92AF92BF920A
:103EF000CF92DF92EF92FF920F931F93CF93DF93B6
:103F0000CDB7DEB72C970FB6F894DEBF0FBECDBF8E
:103F10009A83898380E40E944D158823B1F020E0C4
:103F200030E040E85EE360912B0170912C018091BC
:103F30002D0190912E010E949D2D60932B01709375
:103F40002C0180932D0190932E0180E20E944D154B
:103F50008823B1F020E030E040E85EE360912B017F
:103F600070912C0180912D0190912E010E949C2D29
:103F700060932B0170932C0180932D0190932E015F
:103F800080E80E944D15882331F080911C0191E05A
:103F9000892780931C0180911C01882329F120919D
:103FA000E0073091E1074091E2075091E30760910B
:103FB0002B0170912C0180912D0190912E010E9476
:103FC0009D2D6B017C012DEC3CEC4CE050E40E94FB
:103FD000682F18160CF400C1C0922B01D0922C014E
:103FE000E0922D01F0922E0188E00E944D15882369
:103FF00071F0A981BA811A96ED91FC911B9783A962
:10400000843029F41296ED91FC9180E0099584E0CA
:104010000E944D15882339F0A981BA811296ED913D
:10402000FC9180E0099560911801709119018091CF
:104030001A0190911B01905820912B0130912C0175
:1040400040912D0150912E010E946D2F60938402AA
:1040500070938502809386029093870209811A816A
:10406000312C212C86E0482E512C612C712CE981B9
:10407000FA8100A0F1A1E02DFC83EB832E163F0610
:104080000CF0B7C0D8011C960D90BC91A02DBE833A
:10409000AD83109709F49AC052968C915297811172
:1040A00095C012962D913D914D915C91159760911F
:1040B00084027091850280918602909187020E940D
:1040C0009D2D6B017C01ED81FE81C282D382E48251
:1040D000F58220E030E0A9016681778180859185B5
:1040E0000E949D2D4B015C01AD81BE8116968D9283
:1040F0009D92AD92BC921997C701B6010E94802E85
:104100006B01ED81FE8173876287C501B4010E9456
:10411000802EAD81BE811D967C936E931C971E965A
:104120008D919C91C80ED91ED7FE45C0E981FA81B8
:104130003C9670E060E030E020E0A191B1911097F2
:1041400071F052968C915297811109C01A968D91F7
:104150009C9180579F4F681779070CF4BC012F5F23
:104160003F4F8B819C818217930739F7AD81BE81C8
:104170001B967C936E931A97072E000C880B990B55
:104180000E94B82EED81FE816283738384839583C0
:104190000E94D82CA30192010E94392DF3E1F69FD1
:1041A0009001F79F300D1124B9016F597A4E8D811E
:1041B0009E810E94141DD8011C968D919C91DC015A
:1041C000ED91FC910480F581E02D0995BFEF2B1A4C
:1041D0003B0A0E5F1F4F4BCF8DEC9CECACE0B0E484
:1041E00080932B0190932C01A0932D01B0932E016D
:1041F000FBCEE981FA810284F385E02DFC87EB8711
:1042000040AC51AC62AC73AC20E030E040E051E433
:1042100064A975A986A997A90E949D2D0E94802E48
:104220006B011B01C301B2010E94802E6C3171052C
:1042300009F049C08091AC069091AD0601970297B4
:1042400008F441C009811A81045F1F4FB601635011
:104250007109C8010E940317811135C0B6016D5F55
:104260007F4FC8010E94031781112DC0AB85BC850B
:1042700095961C921E929497FD0110A211A212A273
:1042800013A284E083AB8685978597838683848D8C
:10429000958D938B828B80A991A997A386A3109269
:1042A00018011092190110921A0110921B018DEC45
:1042B0009CECACE4BFE380932B0190932C01A09382
:1042C0002D01B0932E01AB85BC85D3968C918430A3
:1042D00009F499C08091AC069091AD068D7F01974D
:1042E00009F491C0A981BA811C9630E020E0EB81ED
:1042F000FC812E173F070CF086C0ED91FD913097A1
:1043000009F4DBC182859385281639060CF4D5C1E2
:1043100046855785840F951F821593050CF4CDC1F2
:10432000AB85BC85DC968D909D90AD90BC90DF9761
:104330009F01255D3F4F3E832D83CF01C1969A8714
:104340008987AD81BE81ED90FD90BE83AD83F7017D
:104350008489882309F44FC0C38836E03C9D9001CE
:10436000112438872F8389010F5B1E4FD8011396C4
:104370002C9182859385820F911D6101C81AD90AFB
:1043800020E030E040E851E4C301B2010E949D2DDD
:104390000E94802EF8012481D7011C964D915C91DA
:1043A000240F352F311D8B01021B130BC501B401E6
:1043B0000E94802EEF81F885EF5BFE4F258130E073
:1043C000A901460F571FCC9CC001CD9C900D900DAC
:1043D0001124009F9001019F300D300D1124820F98
:1043E000931F449F9001459F300D300D112482177B
:1043F00093070CF465C1E985FA852D813E81E217AA
:10440000F30709F09ECFEB85FC8583A9843009F47E
:1044100070C0E981FA813C9630E020E08B819C817C
:10442000281739070CF065C0E190F190E114F10410
:1044300009F47CC1D7011A968D919C911B9728167F
:1044400039060CF473C11E964D915C91840F951F33
:10445000821593050CF46AC1EB85FC8564AD75ADDE
:1044600086AD97AD0E94802E6C5F7F4F669F500196
:10447000679FB00CB00C11246701F1E3CF0ED11C83
:104480002BE3E20EF11CD6010D911D916D01F80197
:104490008685882359F18081918104964101881A8B
:1044A000990A20E030E040E851E4C301B2010E94E3
:1044B0009D2D0E94802ED80112962D913C912C5F4B
:1044C0003F4FAB01421B530B889CC001899C900D50
:1044D000900D1124449F9001459F300D300D112403
:1044E000820F931F8A159B050CF423C1EC14FD0465
:1044F00051F688E00E944D15182F8091A40283FF89
:104500002CC28091A50283FD28C2112309F418C191
:10451000012F80E090E0A0EFB1E4809380029093BF
:104520008102A0938202B0938302E0901601F09082
:1045300017011E141F040CF068C1AB85BC85D3960F
:104540008C919EEF980F923008F404C1843081F072
:1045500020E030E0A9016091800270918102809199
:104560008202909183020E94682F18160CF4F5C005
:10457000AB85BC85D3961C91D3978EEF810F82308B
:1045800008F071C11296CD90DD90ED90FC901597DA
:1045900020E030E0A901C701B6010E94092E87FF83
:1045A00014C0002391F0A701960160910001709161
:1045B000010180910201909103010E946D2FEB8512
:1045C000FC856283738384839583AB85BC85129657
:1045D000CD90DD90ED90FC90159780902B01909000
:1045E0002C01A0902D01B0902E01A5019401C701CE
:1045F000B6010E946D2FA30192010E949D2D2B01F7
:104600003C01EB85FC8540AE51AE62AE73AE2091AD
:104610000401309105014091060150910701C50147
:10462000B4010E946D2FA70196010E949D2D6B0180
:104630007C01AB85BC851296CD92DD92ED92FC9209
:1046400015975E966D917C91072E000C880B990B47
:104650000E94B82E4B015C01AC019B01C301B20169
:104660000E94682F87FD1BC1EB85FC8580AE91AE53
:10467000A2AEB3AE81E083AB80E090E0A0E0B0E416
:1046800080A391A3A2A3B3A382E090E095A384A307
:10469000828593859783868386899789938B828B7E
:1046A00082A593A597A386A38091140190911501EB
:1046B0009093170180931601D9C02F5F3F4F17CEFB
:1046C000EF2809F4A0CE86E696E6A6E6B0ECEB85E8
:1046D000FC8582839383A483B58315A214A210A2C0
:1046E00011A212A213A284E083AB868597859783DB
:1046F0008683848D958D938B828B80A991A997A3B6
:1047000086A3109218011092190110921A011092AA
:104710001B018DEC9CECACE4BFE380932B019093E8
:104720002C01A0932D01B0932E016DCE2F5F3F4F32
:1047300075CE0115110509F4DCCEF8011686D9CE27
:1047400010928002109281021092820210928302D3
:1047500001E0EBCE112309F40BCF109280021092EE
:104760008102109282021092830280911401909132
:104770001501E816F90609F03FC0809110019091EB
:104780001101A0911201B0911301EB85FC85828388
:104790009383A483B583F1E0EF1AF108F092170137
:1047A000E09216018091080190910901A0910A01FF
:1047B000B0910B018093040190930501A093060131
:1047C000B0930701AB85BC8595961C921E92949779
:1047D000FD0110A211A212A213A282E083AB848574
:1047E000958597838683808D918D938B828B84A50D
:1047F00095A597A386A3BCCE80910C0190910D0145
:10480000A0910E01B0910F01C0CF80917F0288234B
:1048100009F4AECE112399F0109204011092050113
:10482000109206011092070183EC95EFA8EABEE30F
:10483000EB85FC8582839383A483B58399CE002383
:1048400009F496CE8091080190910901A0910A0186
:10485000B0910B018093040190930501A093060190
:10486000B093070185CE143009F43EC02C960FB6E4
:10487000F894DEBF0FBECDBFDF91CF911F910F9196
:10488000FF90EF90DF90CF90BF90AF909F908F9070
:104890007F906F905F904F903F902F90089520E011
:1048A00030E0A901C701B6010E94682F1816F4F67E
:1048B0001330E1F2AB85BC8595961C921E929497BD
:1048C000FD0110A211A212A213A283E083AB808982
:1048D000918997838683828D938D938B828B86A516
:1048E00097A597A386A3C2CFAB85BC851296CD9022
:1048F000DD90ED90FC90159780902B0190902C010D
:10490000A0902D01B0902E01A5019401C701B60120
:104910000E946D2FA30192010E949D2DEB85FC85C5
:1049200060AF71AF82AF93AF209108013091090160
:1049300040910A0150910B01C501B4010E946D2FF5
:10494000A70196010E949D2DAB85BC8512966D93A3
:104950007D938D939C93159789CF00E01111D9CD4C
:1049600020912B0130912C0140912D0150912E016D
:104970006091800270918102809182029091830205
:104980000E949C2D6093800270938102809382022A
:104990009093830200E0C9CD2F923F924F925F9295
:1049A0006F927F928F929F92AF92BF92CF92DF923F
:1049B000EF92FF920F931F93CF93DF931C0183E33A
:1049C00093E3A3E7BFE380932B0190932C01A09383
:1049D0002D01B0932E011092840210928502109244
:1049E000860210928702C12CD12CE12C60E4F62EB5
:1049F000C0921801D0921901E0921A01F0921B01A5
:104A000090907E0286E490E00E940D30EC018DE3F0
:104A100091E0998388831A821B821C821D821CAAC2
:104A20001DAA1EAA1FAA412C512C70EE672E71E4FC
:104A3000772E48AE59AE6AAE7BAEECE1AE2EB12C0D
:104A4000BF8EAE8E1DA21CA28E01005C1F4F83E0A4
:104A500090E0F80191838083692DCE010E94401778
:104A60008091140190911501909317018093160184
:104A7000F101D387C287FE01EE5BFF4F80819181F8
:104A80001CAA1DAA1EAA1FAA48AE59AE6AAE7BAECA
:104A9000BF8EAE8E21E02BABC8A2D9A2EAA2FBA2A8
:104AA00022E030E03DA32CA32A853B853F832E8363
:104AB0002E893F893B8B2A8B2AA53BA53FA32EA39A
:104AC000F80120813181F101958384833783268326
:104AD000318720873C96C101809611921192E81788
:104AE000F907D9F7F10111A210A2CFE2D7E010E047
:104AF00000E0B12CA12C3CE3832E912CC12CD12CB5
:104B000040E7E42E42E4F42E56E0452E512C612C71
:104B1000712C1B870A87B801012E000C880B990B9A
:104B20000E94B82E6A837B838C839D839D868C86AE
:104B3000CE82DF82E886F98680E990E09F878E87C3
:104B4000E1E0F0E0F98BE88BF10180A191A18A30DE
:104B500091055CF4FC01EE0FFF1FE20DF31DD587FC
:104B6000C4870196F10191A380A300571F4F6CEDFC
:104B700074E1A114B10479F00E94D82CA301920130
:104B80000E94392DF3E1F69F9001F79F300D11241B
:104B9000B90161517B4ECE010E94141D4FEFA41A42
:104BA000B40AEB96003B81E0180709F0B2CFDF9121
:104BB000CF911F910F91FF90EF90DF90CF90BF901A
:104BC000AF909F908F907F906F905F904F903F90AD
:104BD0002F9008951F920F920FB60F9211242F93CA
:104BE0003F938F939F93AF93BF938091AF06909124
:104BF000B006A091B106B091B2063091AE0623E0A6
:104C0000230F2D3758F50196A11DB11D2093AE0637
:104C10008093AF069093B006A093B106B093B2060E
:104C20008091B3069091B406A091B506B091B606F6
:104C30000196A11DB11D8093B3069093B406A09375
:104C4000B506B093B606BF91AF919F918F913F91FA
:104C50002F910F900FBE0F901F90189526E8230FED
:104C60000296A11DB11DD2CF1F920F920FB60F92C7
:104C700011248F939F938091E1009091E100937FA5
:104C80009093E10083FF0FC01092E90091E09093B0
:104C9000EB001092EC0092E39093ED001092C406AA
:104CA00098E09093F00082FF22C093E09093E90097
:104CB0009091F200992319F09AE39093E800909173
:104CC0009D02992341F090919D02915090939D02F5
:104CD000911101C05D9A9091C306992341F0909182
:104CE000C30691509093C306911101C0289A84FF86
:104CF00018C08091E2008E7E81608093E2008091F6
:104D0000E1008F7E8093E10080919E028E7E806123
:104D100080939E029F918F910F900FBE0F901F90D6
:104D2000189580FFF7CF8091E2008E7E806180939E
:104D3000E2008091E1008E7E8093E10080919E02EE
:104D40008E7E8160E5CF1F920F920FB60F921124D5
:104D5000CF92DF92EF92FF920F931F932F933F9387
:104D60004F935F936F937F938F939F93AF93BF9373
:104D7000EF93FF93CF93DF93CDB7DEB76C97DEBF92
:104D8000CDBF1092E9008091E80083FF25C068E064
:104D9000CE0145960E94E11082EF8093E8008D8954
:104DA00087FF39C09091E80090FFFCCF982F907654
:104DB00009F034C19E894F89588D2F89F88C911143
:104DC00031C0803861F580919F028093F10010928C
:104DD000F1008EEF8093E8006C960FB6F894DEBF7A
:104DE0000FBECDBFDF91CF91FF91EF91BF91AF91FA
:104DF0009F918F917F916F915F914F913F912F91F3
:104E00001F910F91FF90EF90DF90CF900F900FBE0A
:104E10000F901F9018959EEF9093E800C7CF1092C7
:104E2000F100D5CF913059F48111D3CF41305105E4
:104E300081F680919F028D7F80939F02CACF93302D
:104E400049F48111C6CF4130510519F680919F0276
:104E50008260F2CF953041F48091E80080FFFCCF72
:104E600020682093E300B5CF963009F0A9C00B8DE0
:104E70001C8D22E01092E90010929B0210929A027F
:104E8000F2122EC010929902109298020E94B01055
:104E90001F8299E09983FA8291E09E8390EA988735
:104EA0009AEF998720919A0230919B02275F3F4F9A
:104EB0003C832B838D831092E90010929B02109209
:104EC0009A02109399020093980249E050E0BE01C3
:104ED0006F5F7F4F80E00E948A100E94B01079CFF0
:104EE00010939902009398020E94860FDC0112969B
:104EF0000D911C910115110509F451C1D801ED91D5
:104F0000FC910480F581E02DBE016B5E7F4FC801EE
:104F10000995009709F03EC1F80100851185EACF97
:104F2000F3E0FF120EC08F89882309F440C082305D
:104F300061F440E860E18BE19EE10E94571081112D
:104F400048CF81E28093EB0047CF813029F440E8DD
:104F50006BE08FE09EE1F1CF833099F70E94860FDE
:104F6000DC011296ED90FC908E010F5F1F4F6801DF
:104F7000E114F10479F0D701ED91FC910680F781FD
:104F8000E02DB801C7010995080F111DF701E08454
:104F9000F184EECFD8011C92F60101900020E9F7D0
:104FA0003197BF016C197D0940E0C601C6CF69EF9A
:104FB0007DE1FB01449150E080E80E948A1009CF16
:104FC000973009F4BECF983021F481E08093F1004E
:104FD00000CF993009F0FDCE837009F0B2CFE4E53F
:104FE000F1E081E031E096E32191222371F080939A
:104FF000E9003093EB00DF0111972C912093EC0036
:105000009093ED008F5F873079F78EE78093EA0009
:105010001092EA008F898093C406DBCE8B8D9C8D25
:105020001092E90010929B0210929A0290939902BA
:1050300080939802898D811192C08E899D89913AC1
:1050400049F4813209F07DCF47E050E062E271E03F
:1050500080E0B3CF913209F074CF833269F48F8945
:10506000988DB0E0A0E080931E0190931F01A09363
:105070002001B0932101ADCE803269F48091E80027
:1050800082FFFCCF67E082E291E00E94E1108BEFAB
:105090008093E8009ECE823209F09BCE8F89809368
:1050A0002901EEEFFFE7859194918B3F9C4D51F1E3
:1050B000E0E0F8E08091220190912301A091240189
:1050C000B0912501803B9440A105B105F1F4809198
:1050D000290180FD1AC0EE3F8AE0F80789F587E7CD
:1050E00097E7918380838091600080939C0288E1A0
:1050F0009BE00FB6F894A895809360000FBE909344
:10510000600067CEEEEFFAE0D5CF808191818737DE
:10511000974709F05ECEA8958091600088618093E2
:10512000600080919C0280936000EE3F2AE0F207CD
:1051300089F08091FE0A9091FF0A9183808349CE85
:10514000808191818737980751F29093FF0A80936D
:10515000FE0AC5CF1092FF0A1092FE0A3ACE0E94B4
:10516000860FDC0112960D911C910115110509F4B1
:10517000E8CED801ED91FC910190F081E02DBE01C7
:105180006B5E7F4FC8010995811123CEF801008520
:105190001185EBCF181619060CF41BCED2CEF1E018
:1051A000FF12BECE6DEF7DE104CF1F920F920FB6BE
:1051B0000F921124CF92DF92EF92FF922F933F93A1
:1051C0004F935F936F937F938F939F93AF93BF930F
:1051D000CF93DF93EF93FF93809194029091950288
:1051E000A0919602B0919702892B8A2B8B2B09F400
:1051F00046C08091930281110BC088B190E4892749
:1052000088B980919202882319F088B1805888B9B2
:105210008091940290919502A0919602B09197028C
:10522000181619061A061B069CF480919402909198
:105230009502A0919602B09197020197A109B10938
:105240008093940290939502A0939602B093970254
:10525000FF91EF91DF91CF91BF91AF919F918F918E
:105260007F916F915F914F913F912F91FF90EF90C0
:10527000DF90CF900F900FBE0F901F9018950E9457
:105280002112811520E8920761F4809171008D7FD1
:105290008093710010929100469847981092910265
:1052A000D7CF21E020939102813020E8920731F49A
:1052B0001092900210928F020E94211297FD05C059
:1052C00020918E02222309F454C020918D022111D5
:1052D00050C021E020939202EC01DF77209709F083
:1052E0004BC081E08093930246983FE9C32E3FE094
:1052F000D32EE12CF12CCAEFD0E0E0912307F091FE
:1053000024070995811103C081E080939302809165
:105310009202882329F080919302882309F43FC0E8
:1053200047980E9421120097F1F19C01DE010E9432
:105330008D2DDC01CB0129E0B595A7959795879533
:105340002A95D1F7109290002AE020939100D092F4
:105350009900C09298008093940290939502A09334
:105360009602B093970280917100826080937100E1
:105370006FCF10929202B0CF9E0150E040E060E407
:1053800072E48FE090E00E94392D69017A0181E09A
:10539000C81AD108E108F10810929302AECF4699DD
:1053A000BFCF479ABECF8FEF9FEFDC01CBCFAF923D
:1053B000BF92CF92DF92EF92FF920F931F93CF9302
:1053C000DF931092C8061092C70688EE93E0A0E023
:1053D000B0E08093C9069093CA06A093CB06B09321
:1053E000CC068EE591E09093C6068093C5068FEFBC
:1053F0009FEF9093D2068093D10610922E071092C1
:105400002D078AE991E090932C0780932B0789E47C
:105410009FE0909324078093230780E090E8909387
:1054200022078093210746983E9A47983F9A84E046
:1054300090E00E940D30DC0113961C921E92129790
:105440002CE831E02D933C9390932A078093290711
:1054500084E090E00E940D30FC01138212822EE75E
:1054600031E031832083909328078093270782E2DD
:1054700090E00E940D30FC0182E2DF011D928A95CE
:10548000E9F780E791E091838083DF011C96CF01EB
:1054900080961D921D92A817B907D9F711A210A2E4
:1054A000F0932607E093250720912B0130912C01E2
:1054B00040912D0150912E016DEC7CEC8CE090E43C
:1054C0000E949C2D20E030E046E955E40E940E2E1B
:1054D0006093E0077093E1078093E2079093E307FE
:1054E000CFE2D7E082EBC82E81E0D82E96EAA92E33
:1054F00091E0B92ED982C8821A8A8E01055D1F4FAC
:105500007E01B1E3EB0EF11C87E190E00E940D30CB
:10551000FC01B182A082D8018D939D938D01EA1682
:10552000FB0691F78E01055C1F4FE7018FE090E0CD
:105530000E940D3089939993C017D107B9F7B7E04E
:10554000C03EDB07B9F6DF91CF911F910F91FF901D
:10555000EF90DF90CF90BF90AF900895789484B58E
:10556000826084BD84B5816084BD85B5826085BD5F
:1055700085B5816085BD80916E00816080936E00ED
:1055800010928100809181008260809381008091DF
:105590008100816080938100809180008160809390
:1055A00080008091910082608093910080919100B1
:1055B0008160809391008091900081608093900041
:1055C0008091C10084608093C1008091C10082609D
:1055D0008093C1008091C10081608093C10080915F
:1055E000C30081608093C3008091C000826080937B
:1055F000C0008091C20081608093C20080917A00D7
:10560000846080937A0080917A00826080937A002F
:1056100080917A00816080937A0080917A0080681E
:1056200080937A001092C40610929F0210929E02FC
:105630008091D70081608093D70080EA8093D80062
:1056400089B5806189BD89B5826089BD09B400FED4
:10565000FDCF61E070E080E090E00E94BF0F80919C
:10566000D8008F7C80618093D8008091E000807F9B
:105670008093E0008091E1008E7E8093E1008DE0D8
:105680008093E200559A209A8FEF9FEF9093D20675
:105690008093D10681EC80937C0085B1806F85B9C1
:1056A00084B1877E84B984B1876E84B95E9A5F982D
:1056B0008AB1806D8AB9769A6E9881B3806F81BB0A
:1056C000899880B38D7080BB80E58CBD81E08DBDF5
:1056D0000E94F20F5F9A0E94F20F5E985C98ECE2D3
:1056E000FEE189E39EE124912EBD00000DB407FE8A
:1056F000FDCF31968E179F07B1F75C9A81E88093B2
:1057000064008091650081608093650080E18093F2
:105710002A018091290790912A07DC01ED91FC91E3
:105720000680F781E02D68EF7FE0099580912707DB
:1057300090912807DC01ED91FC910680F781E02D26
:1057400068EF7FE009958091250790912607DC019D
:10575000ED91FC910680F781E02D68EF7FE00995DF
:105760008091290790912A079093AB068093AA060F
:10577000DC01ED91FC910190F081E02D0995AA24C6
:10578000A394C6EAD2E0B12C84E0E82EF12C00E02C
:1057900010E0992493949EE1C92ED12C8FB7F894F0
:1057A0004091AF065091B0066091B1067091B2067B
:1057B0008FBF8091A202882341F01092A2020115AE
:1057C000110561F30E940000E9CF9091A302B42F6C
:1057D000B91B9B2F20912A01B21738F49F5F9217B3
:1057E00070F7A3BE889513BEEACF9092A2024093B1
:1057F000A3022091A0023091A1022F5F3F4F30936E
:10580000A1022093A002FE0181118FEF0024819359
:105810008193819381930394D1F71092A9061092FA
:10582000A8061092A7061092A6068091A502809362
:10583000A4028FB18095807F669B88601C9B8460EA
:105840008093A50280E10E944D15882361F080912C
:10585000AC069091AD060196B7010E94DF2F9093A0
:10586000AD068093AC068091AA069091AB06DC0150
:10587000ED91FC910280F381E02D6BE277E00995D8
:105880008091AA069091AB06DC01ED91FC91048019
:10589000F581E02D6BE277E00995D092A706C092E2
:1058A000A6061092A9061092A8068091AC069091C7
:1058B000AD0664E772E08130910549F066E772E079
:1058C0008330910521F0029731F469E772E08BE2B1
:1058D00097E00E94F81AFE0180E098E000800EBC7C
:1058E000B110012C019780FDFDCF0192B9F70DB4E5
:1058F00066CFCF93DF93C0EED7E0EB97E881F981D5
:105900000190F081E02DCE01099587E0CF32D807D4
:10591000A1F7DF91CF9108958F929F92AF92BF929E
:10592000CF92DF92EF92FF92CF93DF93EC016881E9
:1059300079818A819B81611571058105910521F429
:1059400064E279ED8BE597E02DE133EF41E050E043
:105950000E94392D49015A019B01AC01A7EAB1E42B
:105960000E94582D6B017C01ACEEB4EFA5019401AF
:105970000E94662DC60ED71EE81EF91EF7FE06C051
:1059800081E0C81AD108E10880E8F80AC882D98203
:10599000EA82FB82C701B6019F77DF91CF91FF902A
:1059A000EF90DF90CF90BF90AF909F908F90089531
:1059B0008F929F92AF92BF92CF92DF92EF92FF921F
:1059C00060912F01709130018091310190913201ED
:1059D000611571058105910521F464E279ED8BE58E
:1059E00097E02DE133EF41E050E00E94392D49016D
:1059F0005A019B01AC01A7EAB1E40E94582D6B014A
:105A00007C01ACEEB4EFA50194010E94662DC60E98
:105A1000D71EE81EF91EF7FE06C081E0C81AD1089D
:105A2000E10880E8F80AC0922F01D0923001E0929C
:105A30003101F0923201C701B6019F77FF90EF90DC
:105A4000DF90CF90BF90AF909F908F90089560931C
:105A50002F017093300180933101909332010895AA
:105A6000FB01DC0102C005900D9241505040D8F777
:105A70000895052E97FB1EF400940E94502D57FDAB
:105A800007D00E946B2D07FC03D04EF40C94502DD0
:105A900050954095309521953F4F4F4F5F4F08955A
:105AA00090958095709561957F4F8F4F9F4F08958A
:105AB0000E948D2DA59F900DB49F900DA49F800DE9
:105AC000911D11240895B7FF0C94582D0E94582D54
:105AD000821B930B0895A1E21A2EAA1BBB1BFD018A
