:100000000C9472070C949A070C949A070C949A0714
:100010000C949A070C949A070C949A070C949A07DC
:100020000C949A070C949A070C940F0C0C947E0C69
:100030000C949A070C949A070C949A070C949A07BC
:100040000C949A070C949A070C949A070C949A07AC
:100050000C949A070C949A070C949A070C94B00E7F
:100060000C949A070C949A070C949A070C949A078C
:100070000C949A070C949A070C949A070C949A077C
:100080000C94FA0E0C949A070C949A070C949A0705
:100090000C949A070C949A070C949A070C949A075C
:1000A0000C949A070C949A070C949A07202000004D
:1000B0000000000000000000000000000000000040
:1000C0000000000000000000000000000000000030
:1000D00000000000E0101020404040404040404000
:1000E0004040404040201010E000000000000000B0
:1000F000000000007F8000000000100000800080F1
:1001000000001000000000807F00000000000000E0
:100110000000000000010204040878884829292909
:100120004888780804040201000000000000000074
:1001300000000000000000000000000000000000BF
:1001400000000000000000000000000000000000AF
:1001500000000000E010102040404040404040407F
:100160004040404040201010E0000000000000002F
:10017000000000007F8000000000100000C0C0C030
:1001800000001000000000807F0000000000000060
:100190000000000000010204040878884829292989
:1001A00048887808040402010000000000000000F4
:1001B000000000000000000000000000000000003F
:1001C000000000000000000000000000000000002F
:1001D00000000000E01010204040404040404040FF
:1001E0004040404040201010E000000000000000AF
:1001F000000000007F8000000000000002000000FE
:1002000000000000020000807F00000000000000ED
:100210000000000000010204040878884829292908
:100220004888780804040201000000000000000073
:1002300000000000000000000000000000000000BE
:1002400000000000000000000000000000000000AE
:1002500000000000E010102040404040404040407E
:100260004040404040201010E0000000000000002E
:10027000000000007F80000000001000000000006F
:1002800000001040000000807F000000000000001F
:100290000000000000010204040878884829292988
:1002A00048887808040402010000000000000000F3
:1002B000000000000000000000000000000000003E
:1002C000000000000000000000000000000000002E
:1002D00000000000E01010204040404040404040FE
:1002E0004040404040201010E000000000000000AE
:1002F000000000007F80000000004040000000007F
:1003000000404000000000807F000000000000006E
:100310000000000000010204040878884829292907
:100320004888780804040201000000000000000072
:1003300000000000000000000000000000000000BD
:1003400000000000000000000000000000000000AD
:1003500000000000E010102040404040404040407D
:100360004040404040201010E0000000000000002D
:10037000000000007F8000000000108000000000EE
:1003800000801000000000807F008000000000005E
:1003900010000004200102040408798A4828292852
:1003A000488A7908040402010400000800000000E3
:1003B000000000000000000000000000808080803D
:1003C00080000000000000000000000000000000AD
:1003D00000000000E0101020404040434F444F44D4
:1003E0004F43404040201010E0000000000000009B
:1003F000000000007F80000000281028000000009E
:1004000000281028000000807F000000000000008D
:100410000000000000010204040878884829292906
:100420004888780804040201000000000000000071
:1004300000000000000000000000000000000000BC
:1004400000000000000000000000000000000000AC
:1004500000000000E010102040404040404040407C
:100460004040404040201010E0000000000000002C
:10047000000000007F800000001810000000000055
:1004800000001018000000807F0000000000000045
:100490000000000000010204040878884829292986
:1004A0004888780804040201000000000000804031
:1004B00000000000000000000000000080F0F010CC
:1004C000101010101010101010101010109060006C
:1004D000000000000000000000000000000000001C
:1004E000000000000000000000000000000000000C
:1004F00000000000000000000000000000000000FC
:1005000000000000000000000040000000000000AB
:1005100000000000000000000000000000000000DB
:10052000000000400000000000000000000000008B
:100530000000000000000000000080F8FF0F000035
:1005400000704E424242C202020202020201000058
:10055000000000000000000000000000000000009B
:10056000000000000000000000000000000000008B
:10057000000000000000000000000000000000007B
:10058000000000000000000400000000F008081057
:10059000202020202020202020202020202020106B
:1005A0000808F00000000400000000000000000047
:1005B000000000000000000080F8FF0F0000E01CB9
:1005C000040404040406018078060202E2FE3C06EC
:1005D00002C23A0600001C22222129C90911E503A2
:1005E0000000001C22222129C90911E5030080789E
:1005F000070101C13D0380780701018179070000EF
:10060000000000000000000000000000FF000008E3
:1006100010080000000000000000000000081008A2
:100620000000FF00000000000000000000000000CB
:1006300000000000000000000F0F0808080E010075
:10064000000000000000000304080808080808046F
:10065000020100000C0B090909090908080403003C
:10066000000C0B09090909090808040300000788A0
:1006700090909090919151200000F80700000000A8
:10068000000000000000000000000000000304085B
:10069000081010101010121212101010101008086C
:1006A0000403000000000000000000000000000043
:1006B000000000000000000000000000000000003A
:1006C000000000000000000000000000000000002A
:1006D0000000000000000000000000000000807822
:1006E00007010181F9671008068161110907038478
:1006F000642424A4640404844241407807010179FD
:1007000047C04080404040780701017947C0400021
:1007100000000000000000000000000000000000D9
:1007200000000000000000000000000000000000C9
:1007300000000000000000000000000000000000B9
:1007400000000000000000000000000000000000A9
:1007500000000000000000000000000000F00F009A
:100760000000E001000038C6010000000000F013A6
:100770001212F2030000000302F20E0000F00E025B
:100780000203000302F20E0000F00E02020300E07A
:100790001C040404F40C00E01C040404E41C000029
:1007A0000000000000000000000000000000000049
:1007B0000000000000000000000000000000000039
:1007C0000000000000000000000000000000000029
:1007D0000000000000000000000000704F4040409A
:1007E000700F07784040404F70000000704F40404D
:1007F000700F0000000000704F4040700F000000BC
:10080000000000704F4040700F00000000001E21EB
:10081000404040434444C6010000E01E0100000087
:1008200000000000000000000000000000000000C8
:1008300000000000000000000000000000000000B8
:1008400000000000000000000000000000000000A8
:100850000000000000000000000000000000000098
:100860000000000000000000000000000000000088
:100870000000000000000000000000000000000078
:100880000000000000000000000000000018242408
:100890002424222222121108080601000000000070
:1008A0000000000000000000000000000000000048
:1008B00000000000003E5B4F5B3E3E6B4F6B3E1CFA
:1008C0003E7C3E1C183C7E3C181C577D571C1C5E11
:1008D0007F5E1C00183C1800FFE7C3E7FF001824E8
:1008E0001800FFE7DBE7FF30483A060E2629792992
:1008F00026407F050507407F05253F5A3CE73C5AC7
:100900007F3E1C1C08081C1C3E7F14227F22145FA3
:100910005F005F5F06097F017F006689956A6060FE
:1009200060606094A2FFA29408047E040810207EF8
:10093000201008082A1C08081C2A08081E1010107D
:10094000100C1E0C1E0C30383E3830060E3E0E06C3
:10095000000000000000005F000000070007001416
:100960007F147F14242A7F2A1223130864623649D5
:100970005620500008070300001C224100004122BD
:100980001C002A1C7F1C2A08083E080800807030C2
:100990000008080808080000606000201008040231
:1009A0003E5149453E00427F400072494949462137
:1009B00041494D331814127F1027454545393C4AAB
:1009C00049493141211109073649494936464949C2
:1009D000291E00001400000040340000000814220A
:1009E0004114141414140041221408020159090678
:1009F0003E415D594E7C1211127C7F494949363E79
:100A0000414141227F4141413E7F494949417F095E
:100A10000909013E414151737F0808087F00417F69
:100A200041002040413F017F081422417F40404067
:100A3000407F021C027F7F0408107F3E4141413EFF
:100A40007F090909063E4151215E7F091929462681
:100A50004949493203017F01033F4040403F1F2085
:100A600040201F3F4038403F63140814630304785C
:100A700004036159494D43007F414141020408107C
:100A800020004141417F04020102044040404040B7
:100A9000000307080020545478407F284444383825
:100AA00044444428384444287F3854545418000897
:100AB0007E090218A4A49C787F0804047800447D71
:100AC00040002040403D007F1028440000417F400E
:100AD000007C047804787C08040478384444443862
:100AE000FC1824241818242418FC7C080404084842
:100AF0005454542404043F44243C4040207C1C2093
:100B000040201C3C4030403C44281028444C9090ED
:100B1000907C4464544C4400083641000000770047
:100B200000004136080002010204023C2623263C54
:100B30001EA1A161123A4040207A385454555921DF
:100B400055557941215454784121555478402054C9
:100B50005579400C1E527212395555555939545415
:100B6000545939555454580000457C410002457D84
:100B7000420001457C40F0292429F0F0282528F086
:100B80007C545545002054547C547C0A097F4932DA
:100B9000494949323248484832324A4848303A4155
:100BA00041217A3A42402078009DA0A07D394444FA
:100BB00044393D4040403D3C24FF2424487E494385
:100BC000662B2FFC2F2BFF0929F620C0887E0903F6
:100BD00020545479410000447D413048484A32381D
:100BE0004040227A007A0A0A727D0D19317D262949
:100BF000292F28262929292630484D402038080841
:100C0000080808080808382F10C8ACBA2F10283474
:100C1000FA00007B000008142A142222142A140867
:100C20009500220095AA005500AAAA55AA55AA0027
:100C30000000FF00101010FF00141414FF0010102B
:100C4000FF00FF1010F010F0141414FC001414F73F
:100C500000FF0000FF00FF1414F404FC141417102C
:100C60001F10101F101F1414141F00101010F0007C
:100C70000000001F101010101F10101010F01000B6
:100C80000000FF101010101010101010FF100000C6
:100C900000FF140000FF00FF00001F10170000FC01
:100CA00004F414141710171414F404F40000FF00D3
:100CB000F714141414141414F700F714141417145C
:100CC00010101F101F141414F4141010F010F00062
:100CD000001F101F0000001F14000000FC14000083
:100CE000F010F01010FF10FF141414FF1410101067
:100CF0001F00000000F010FFFFFFFFFFF0F0F0F01A
:100D0000F0FFFFFF0000000000FFFF0F0F0F0F0FAD
:100D100038444438447C2A2A3E147E0202060602E5
:100D20007E027E0263554941633844443C04407E60
:100D3000201E2006027E020299A5E7A5991C2A49D9
:100D40002A1C4C7201724C304A4D4D303048784864
:100D500030BC625A463D3E494949007E0101017E50
:100D60002A2A2A2A2A44445F444440514A444040A3
:100D7000444A51400000FF0103E080FF00000808E2
:100D80006B6B083612362436060F090F0600001862
:100D9000180000001010003040FF0101001F010189
:100DA0001E00191D1712003C3C3C3C0000000000D6
:100DB000F0F89C8E8783878E9CF8F00000FEFF037E
:100DC00003030303070EFCF80000FEFF0303030305
:100DD00003070EFCF80000FFFF0000000000000009
:100DE000FFFF0000FEFF8383838383C7EE7C380010
:100DF00000F8FC0E07030303070EFCF800003F7F1A
:100E0000E0C08080C0E07F3FFFFF010101010101E0
:100E100001FFFF0000FFFF0C0C0C0C1C3E77E3C130
:100E200000007FFFC0C0C0C0C0E0703F1F00001FB7
:100E30003F70E0C0C0C0E0703F1F00007FFFC1C135
:100E4000C1C1C1E3773E1C00001F3F70E0C0C0C0BD
:100E5000E0703F1F000000000001FFFF01000000E4
:100E6000D5F08D14A1C881CFD9F1AF2000080B00B7
:100E70000202020000090400000102020000052431
:100E800000100105240101010424020605240600C6
:100E9000010705810310004009040100020A000057
:100EA000000705020240000007058302400000041D
:100EB00003090412010002EF0201404123368000C1
:100EC000010102030141726475696E6F204C4C434D
:100ED0000041726475696E6F204C656F6E6172645B
:100EE0006F002F1011241FBECFEFDAE0DEBFCDBFA1
:100EF00011E0A0E0B1E0E6EFF6E202C005900D924D
:100F0000AC33B107D9F725E0ACE3B1E001C01D92E5
:100F1000AB3DB207E1F717E0C2E7D7E004C0219785
:100F2000FE010E947313C137D107C9F70E946210F6
:100F30000C9479130C9400008091480108958F92CD
:100F40009F92AF92BF92CF92DF92EF92FF920F9358
:100F50001F93CF93DF93C42FD0E0209709F1222372
:100F6000F9F00097E9F0C038D1050CF040E851E005
:100F7000322F377009F450E0269526952695250FD7
:100F8000293008F028E0033009F4A1C0B0F40130A2
:100F900009F44DC0A3E7B1E030E0023009F46EC0BF
:100FA000DF91CF911F910F91FF90EF90DF90CF9045
:100FB000BF90AF909F908F9008950A3FF1F0A3E704
:100FC000B1E030E00B3F61F7321751F370E060E0C1
:100FD000641708F06EC0FC01E60FF71FE49137FDBF
:100FE00009C08D01060F171FFE2EF094F8015081E5
:100FF0005F2150836F5F7F4FEBCFA3E7B1E030E01D
:10100000321771F270E060E0641708F04CC0FC0128
:10101000E60FF71F549137FD07C08D01060F171F0C
:10102000F801F0805F2950836F5F7F4FEDCF03E7BA
:1010300011E0D12C2D1509F4B3CFB0E0A0E0A41736
:1010400008F03DC0FB01EA0FFB1F3491FC01EA0FE1
:10105000FB1F5491D7FC0BC07801EA0EFB1EF70171
:10106000C080E32FE095EC215E2BF70150831196B1
:10107000E6CF8C0F9D1F3F5FA058BF4F321709F47A
:101080008FCF70E060E06417A0F7FC01E60FF71F58
:10109000549137FD05C08D01060F171FF8015083CD
:1010A0006F5F7F4FF0CF8C0F9D1F3F5FA058BF4FEA
:1010B000A7CF8C0F9D1F3F5FA058BF4F85CF8C0FD0
:1010C0009D1F6C0F7D1FD39400581F4FB3CFE42F8B
:1010D000F0E000E810E00E1B1F0BBE016E1B7F0B43
:1010E000660F771F30E0A3E7B1E051E0842EFC01EA
:1010F000932EE52ECF93DF93ED01EF96EF96229698
:10110000A590C590992059F0AE9C5001CE9C6001ED
:1011100037302CF4F880D094FD20FB28F99233234B
:101120003AF0FC90C094FC20FA28FD920C949908A7
:1011300011964A9529F72A9551F0482D3395112497
:10114000E60FF11DA00FB11DC00FD11DD9CFDF914A
:10115000CF91112425CFE3E7F1E0A0E0B8E00080D3
:101160000EBC8111012C1197A0FDFDCF0192B9F7A2
:101170000DB40895FC0180917201882311F13FB7ED
:10118000F89482E08093E9002091F200822F90E0B1
:101190001816190614F481E090E0882339F0289895
:1011A00044E6409371014091F1004083222339F0DD
:1011B0002091F200211103C02BE62093E8003FBFED
:1011C00008958FEF9FEF08952FB7F89483E08093F1
:1011D000E9009091E800892F807295FF04C09091FA
:1011E000F20080E4891B2FBF08958091690181116D
:1011F0000DC082E08093650184E0809366011092C7
:1012000068011092670181E08093690185E691E0B1
:101210000895CF93DF931F92CDB7DEB76983DC01CA
:10122000ED91FC910280F381E02D41E050E0BE01A0
:101230006F5F7F4F09950F90DF91CF91089583E005
:101240008093E9008091F200882319F08AE380936B
:10125000E80008950E94E40890E00895CF93DF939A
:101260001F92CDB7DEB7FC018485958597FD08C038
:101270002FEF3FEF358724870F90DF91CF910895AF
:10128000CE0101960E94BA08019719F4898190E075
:10129000F3CF8FEF9FEFF0CF0F931F93CF93DF9399
:1012A0001F92CDB7DEB78C01FC018485958597FF31
:1012B0000BC0CE0101960E94BA08019771F4898192
:1012C00090E0F80195878487F801848595850F90D3
:1012D000DF91CF911F910F9108958FEF9FEFF1CF85
:1012E000FC018485958597FD0BC09FB7F89482E03B
:1012F0008093E9008091F2009FBF90E001960895ED
:101300009FB7F89482E08093E9008091F2009FBF3C
:1013100090E0089540915F015091600120915D013E
:1013200030915E0142175307B4F49091E800957034
:10133000E1F39091E80092FD19C08093F100809153
:101340005F019091600101968F739927892B19F4A1
:101350008EEF8093E80080915F019091600101968B
:101360009093600180935F0181E0089580E008958B
:10137000DF92EF92FF920F931F93CF93DF93D82EBC
:101380008A01EB017B01E40EF51ECE15DF0559F055
:10139000D7FE12C0FE0184910E948A092196811114
:1013A000F4CF0FEF1FEFC801DF91CF911F910F9185
:1013B000FF90EF90DF9008958881EECF0F931F93F9
:1013C000CF93DF931F92CDB7DEB782E0898342E4EB
:1013D00050E06DE67EE080E80E94B8090E94F508C2
:1013E000DC0112960D911C910115110589F0D801AF
:1013F000ED91FC910280F381E02DBE016F5F7F4F84
:10140000C801099597FD04C0F80100851185ECCF4E
:1014100089810F90DF91CF911F910F9108956150B5
:1014200030F02091F100FC0120830196F8CF28983C
:1014300084E68093710108953FB7F8948091590133
:1014400090915A01A0915B01B0915C0126B5A89BD7
:1014500005C02F3F19F00196A11DB11D3FBFBA2F46
:10146000A92F982F8827BC01CD01620F711D811D06
:10147000911D42E0660F771F881F991F4A95D1F78B
:1014800008958F929F92AF92BF92CF92DF92EF9288
:10149000FF926B017C010E941C0A4B015C01C1148C
:1014A000D104E104F104B9F00E941C0A6819790919
:1014B0008A099B09683E73408105910580F321E00C
:1014C000C21AD108E108F10888EE880E83E0981E60
:1014D000A11CB11CE4CFFF90EF90DF90CF90BF90A4
:1014E000AF909F908F9008958F929F92AF92BF92EE
:1014F000CF92DF92EF92FF920F931F93CF93DF93E0
:101500006C017B018A0180910C01882309F45CC085
:1015100080917201882309F457C08091640180FF93
:1015200005C08091E00082608093E000E801B12C6A
:101530008AEFA82E93E0892E2AE3922E209711F4A9
:10154000BB20D9F10E94E40881110AC0AA94AA2004
:10155000D9F161E070E080E090E00E94410AEECFB6
:101560008C171D0611F00CF08C2F9FB7F894809209
:10157000E9002091E80025FD02C09FBFDFCF282FA2
:1015800030E0C21BD30BF701815020F04191409312
:10159000F100FACFE20EF31EBB2021F09092E8009A
:1015A000B12CEBCF8091E80085FDE7CF9092E80069
:1015B000BB24B394209709F3F3CF5D9884E680931E
:1015C0006301101611063CF081E090E0F601938370
:1015D000828310E000E0C801DF91CF911F910F914D
:1015E000FF90EF90DF90CF90BF90AF909F908F9043
:1015F00008950895AF92BF92CF92DF92EF92FF923B
:101600000F931F93CF93DF936C017B018B01040F2A
:10161000151FEB015E01AE18BF08C017D10759F0C6
:101620006991D601ED91FC910190F081E02DC60108
:101630000995892B79F7C501DF91CF911F910F9102
:10164000FF90EF90DF90CF90BF90AF9008952091E2
:101650003C01E0913F01F0914001CF01029690934F
:10166000400180933F01222319F0859194910895C0
:101670008081918108952D9A0895BC0190E080E0C9
:101680000C94410A8FB18095807F669B88601C9B7B
:1016900084600895AF92BF92CF92DF92EF92FF9253
:1016A0000F931F93CF93DF936D3079F0C09150016A
:1016B000D09151016A30B1F410924F0110924E0155
:1016C0002896D0935101C093500181E090E0DF91C2
:1016D000CF911F910F91FF90EF90DF90CF90BF902F
:1016E000AF90089540914E0150914F0185E0689F61
:1016F000F0011124E055F74F9A01C12C80E1E82E4A
:10170000A5E070E0CA1621F0CF0101967491FC01AA
:1017100010E000E0B72FB170DB2E20383105D0F497
:10172000CE01800F911F80349105A0F461E081FD0E
:1017300064E080FD660F82FD6295887FE89ED0019F
:101740001124A20FF62EAD58BE4F8C91DD20A9F0CA
:10175000862B8C9376950F5F1F4F08301105D1F6BD
:10176000C3942F5F3F4F86E0C812CACF4A5F5F4FD6
:1017700050934F0140934E01A8CFF0948F21E9CFB1
:1017800080E00C94AB08089590E080E008950F93FA
:10179000EEEAF4E04491EFEAF4E0249102E070E034
:1017A00060E080EB94E00E949F070F910895CF9333
:1017B000DF93EC010E94420B83FF09C0EA81FB81A9
:1017C000309729F081E090E0DF91CF910994DF918B
:1017D000CF9108950F93ECEAF0E04491EDEAF0E048
:1017E000249102E070E060E08EEA90E00E949F07A2
:1017F0000F910895CF93DF93EC010E94420B83FF7A
:1018000009C0EA81FB81309729F090E080E0DF9108
:10181000CF910994DF91CF9108950C940D131F92ED
:101820000F920FB60F9211248F939F938091E10036
:101830009091E100937F9093E10083FF0FC010929D
:10184000E90091E09093EB001092EC0092E390930A
:10185000ED001092720198E09093F00082FF22C098
:1018600093E09093E9009091F200992319F09AE3A4
:101870009093E80090916301992341F09091630166
:10188000915090936301911101C05D9A9091710103
:10189000992341F0909171019150909371019111B0
:1018A00001C0289A84FF18C08091E2008E7E81607A
:1018B0008093E2008091E1008F7E8093E10080912F
:1018C00064018E7E8061809364019F918F910F905F
:1018D0000FBE0F901F90189580FFF7CF8091E20008
:1018E0008E7E80618093E2008091E1008E7E809305
:1018F000E100809164018E7E8160E5CF1F920F929E
:101900000FB60F921124CF92DF92EF92FF920F93B6
:101910001F932F933F934F935F936F937F938F9377
:101920009F93AF93BF93EF93FF93CF93DF93CDB785
:10193000DEB76C97DEBFCDBF1092E9008091E80062
:1019400083FF25C068E0CE0145960E940F0A82EF12
:101950008093E8008D8987FF39C09091E80090FF5F
:10196000FCCF982F907609F034C19E894F89588D0D
:101970002F89F88C911131C0803861F58091620116
:101980008093F1001092F1008EEF8093E8006C9646
:101990000FB6F894DEBF0FBECDBFDF91CF91FF91A0
:1019A000EF91BF91AF919F918F917F916F915F91D7
:1019B0004F913F912F911F910F91FF90EF90DF90EA
:1019C000CF900F900FBE0F901F9018959EEF9093A1
:1019D000E800C7CF1092F100D5CF913059F48111B2
:1019E000D3CF4130510581F6809162018D7F809384
:1019F0006201CACF933049F48111C6CF41305105FD
:101A000019F6809162018260F2CF953041F48091A5
:101A1000E80080FFFCCF20682093E300B5CF96302C
:101A200009F0A9C00B8D1C8D22E01092E9001092E4
:101A3000600110925F01F2122EC010925E011092AE
:101A40005D010E94DE091F8299E09983FA8291E08C
:101A50009E8390EA98879AEF998720915F01309151
:101A60006001275F3F4F3C832B838D831092E900F9
:101A70001092600110925F0110935E0100935D016E
:101A800049E050E0BE016F5F7F4F80E00E94B809DF
:101A90000E94DE0979CF10935E0100935D010E94E0
:101AA000F508DC0112960D911C910115110509F440
:101AB00051C1D801ED91FC910480F581E02DBE016A
:101AC0006B5E7F4FC8010995009709F03EC1F80190
:101AD00000851185EACFF3E0FF120EC08F898823BD
:101AE00009F440C0823061F440E860E181ED9EE09D
:101AF0000E94FC0F811148CF81E28093EB0047CF19
:101B0000813029F440E86BE085EC9EE0F1CF833032
:101B100099F70E94F508DC011296ED90FC908E0179
:101B20000F5F1F4F6801E114F10479F0D701ED91C7
:101B3000FC910680F781E02DB801C7010995080FD7
:101B4000111DF701E084F184EECFD8011C92F6015B
:101B500001900020E9F73197BF016C197D0940E041
:101B6000C601C6CF6FEA7EE0FB01449150E080E8F9
:101B70000E94B80909CF973009F4BECF983021F4FC
:101B800081E08093F10000CF993009F0FDCE8370A1
:101B900009F0B2CFEEE0F1E081E031E096E321918F
:101BA000222371F08093E9003093EB00DF0111975D
:101BB0002C912093EC009093ED008F5F873079F7A4
:101BC0008EE78093EA001092EA008F898093720179
:101BD000DBCE8B8D9C8D1092E900109260011092EB
:101BE0005F0190935E0180935D01898D811192C0A8
:101BF0008E899D89913A49F4813209F07DCF47E081
:101C000050E065E071E080E0B3CF913209F074CF2D
:101C1000833269F48F89988DB0E0A0E08093010150
:101C200090930201A0930301B0930401ADCE8032E2
:101C300069F48091E80082FFFCCF67E085E091E0E5
:101C40000E940F0A8BEF8093E8009ECE823209F04B
:101C50009BCE8F8980930C01EEEFFFE785919491E5
:101C60008B3F9C4D51F1E0E0F8E0809105019091AF
:101C70000601A0910701B0910801803B9440A105A5
:101C8000B105F1F480910C0180FD1AC0EE3F8AE0AD
:101C9000F80789F587E797E7918380838091600053
:101CA0008093610188E19BE00FB6F894A89580933A
:101CB00060000FBE9093600067CEEEEFFAE0D5CFE4
:101CC000808191818737974709F05ECEA8958091F2
:101CD0006000886180936000809161018093600062
:101CE000EE3F2AE0F20789F08091FE0A9091FF0A08
:101CF0009183808349CE808191818737980751F203
:101D00009093FF0A8093FE0AC5CF1092FF0A1092AB
:101D1000FE0A3ACE0E94F508DC0112960D911C9144
:101D20000115110509F4E8CED801ED91FC9101905F
:101D3000F081E02DBE016B5E7F4FC80109958111D6
:101D400023CEF80100851185EBCF181619060CF487
:101D50001BCED2CEF1E0FF12BECE63EB7EE004CF0D
:101D60001F920F920FB60F9211242F933F938F93D0
:101D70009F93AF93BF938091550190915601A0918D
:101D80005701B09158013091540123E0230F2D37B2
:101D900058F50196A11DB11D209354018093550162
:101DA00090935601A0935701B09358018091590127
:101DB00090915A01A0915B01B0915C010196A11D27
:101DC000B11D8093590190935A01A0935B01B09388
:101DD0005C01BF91AF919F918F913F912F910F9097
:101DE0000FBE0F901F90189526E8230F0296A11D95
:101DF000B11DD2CF1F920F920FB60F921124CF9226
:101E0000DF92EF92FF922F933F934F935F936F93E5
:101E10007F938F939F93AF93BF93CF93DF93EF9372
:101E2000FF938091440190914501A0914601B091AA
:101E30004701892B8A2B8B2B09F446C080914301E3
:101E400081110BC088B190E4892788B98091420143
:101E5000882319F088B1805888B980914401909105
:101E60004501A0914601B0914701181619061A06BE
:101E70001B069CF48091440190914501A09146017C
:101E8000B09147010197A109B10980934401909352
:101E90004501A0934601B0934701FF91EF91DF9177
:101EA000CF91BF91AF919F918F917F916F915F91F2
:101EB0004F913F912F91FF90EF90DF90CF900F9037
:101EC0000FBE0F901F9018950E94270B811520E8D8
:101ED000920761F4809171008D7F80937100109260
:101EE00091004698479810924101D7CF21E0209366
:101EF0004101813020E8920731F4109240011092A4
:101F00003F010E94270B97FD05C020913E0122232F
:101F100009F454C020913D01211150C021E02093CB
:101F20004201EC01DF77209709F04BC081E08093FC
:101F3000430146983FE9C32E3FE0D32EE12CF12C1C
:101F4000CAEFD0E0E091D105F091D2050995811159
:101F500003C081E08093430180914201882329F0EE
:101F600080914301882309F43FC047980E94270BC2
:101F70000097F1F19C01DE010E946413DC01CB01AA
:101F800029E0B595A795979587952A95D1F7109251
:101F900090002AE020939100D0929900C09298007E
:101FA0008093440190934501A0934601B09347016B
:101FB000809171008260809371006FCF1092420116
:101FC000B0CF9E0150E040E060E472E48FE090E02A
:101FD0000E94231369017A0181E0C81AD108E1083F
:101FE000F10810924301AECF4699BFCF479ABECFBA
:101FF0008FEF9FEFDC01CBCFEF92FF920F931F93F8
:10200000CF93DF93F82E192FE62E042F81E0860F51
:10201000880F0E948A0983E00E948A09CF2DD12F60
:10202000EC0EFD2EF11CCE15DF05B9F007FF13C035
:10203000FE0184910E948A09182F80E00E948A097B
:10204000812321968111EFCFDF91CF911F910F91C5
:10205000FF90EF9008958881EDCF81E0F5CFE3E721
:10206000F5E01382128288EE93E0A0E0B0E0848372
:102070009583A683B78388E191E0918380838FEF76
:102080009FEF95878487E7EDF5E01382128284E362
:1020900091E0918380838CE997E09093D2058093BF
:1020A000D10580E090E89093D0058093CF054698C5
:1020B0003E9A47983F9A8AE291E09093D4058093A4
:1020C000D3050895789484B5826084BD84B5816019
:1020D00084BD85B5826085BD85B5816085BD8091F3
:1020E0006E00816080936E0010928100809181006B
:1020F0008260809381008091810081608093810063
:102100008091800081608093800080919100826046
:1021100080939100809191008160809391008091E3
:1021200090008160809390008091C10084608093D2
:10213000C1008091C10082608093C1008091C10084
:1021400081608093C1008091C30081608093C3004F
:102150008091C00082608093C0008091C200816045
:102160008093C20080917A00846080937A0080918D
:102170007A00826080937A0080917A0081608093F7
:102180007A0080917A00806880937A0010927201C0
:1021900010926201109264018091D7008160809357
:1021A000D70080EA8093D80089B5806189BD89B560
:1021B000826089BD09B400FEFDCF61E070E080E07F
:1021C00090E00E94410A8091D8008F7C80618093CA
:1021D000D8008091E000807F8093E0008091E10052
:1021E0008E7E8093E1008DE08093E200559A209AE4
:1021F00081EC80937C0085B1806F85B984B1877E46
:1022000084B984B1876E84B95E9A5F988AB1806D13
:102210008AB9769A6E9881B3806F81BB899880B3B2
:102220008D7080BB80E58CBD81E08DBD85E090E048
:102230000E943D0B5F9A85E090E00E943D0B5E9806
:102240005C98E0E6FEE084918EBD00000DB407FED0
:10225000FDCF31962EE0ED36F207A9F75C9A81E8C2
:1022600080936400809165008160809365000E9486
:10227000C00B0E94420B87FF15C05C9885EA8EBD9B
:1022800000000DB407FEFDCF5C9A2E982F982D9874
:102290008091640080628093640081E083BF8895B0
:1022A00013BEFCCF0E94420B82FF48C02D980E94B3
:1022B000420B84788438E1F40E943B0B88EC90E078
:1022C0000E943D0B2F9882E090E00E940D138F3FFB
:1022D00029F06FEF82E090E00E94151384EF91E007
:1022E0000E943D0B2F9A0E94420B84788438D9F3C8
:1022F0000E94420B84718431E1F40E943B0B88EC14
:1023000090E00E943D0B2E9882E090E00E940D1319
:10231000882329F060E082E090E00E94151384EFAA
:1023200091E00E943D0B2E9A0E94420B84718431F1
:10233000D9F388EC90E00E943D0BB4CF0E943B0B98
:1023400082E090E00E940D0C882309F44EC03E9A72
:102350003F9A81E08093480181E090E00E940D0C5B
:10236000482F4470942E81FF10C041112E98C1EF68
:10237000DFEF08E010E078E5872E0E94420B86FF31
:1023800039C02E9A2F9A0E943B0B82E390E00E9464
:102390003D0B0E94420B8111F8CF80E18093000138
:1023A00083ED95E09093530180935201FF24F394C1
:1023B00003E711E0C0E0D0E0EE24E3948FB7F89497
:1023C000409155015091560160915701709158010B
:1023D0008FBF80914B01882309F4CDC010924B012F
:1023E000209761F30E940000E9CF109248013E98C7
:1023F0003F98B2CF992029F0C430D10511F42E9A1C
:102400002F9881E00E94AB089E01D7FF04C02227CD
:1024100033272C1B3D0B27703327CE01D7FD0796A2
:1024200063E0959587956A95E1F7D7FF05C0019719
:10243000D801A21BB30B9D01BC017695762F6627B0
:10244000779567956D587E4FF12CE12C3801621A13
:10245000730A8E3FBFEF9B0709F43DC08E9CD001ED
:102460008F9CB00D112450E040E0A055B24F5B01AD
:10247000E0E8AE0EB11C8F3F980791F0FD01E40F2C
:10248000F51FE4916B01C40ED51EF0E02F01022E62
:1024900001C0440C0A94EAF7F60154884528448A9E
:1024A0002115310599F0FD01E40FF51FE491650157
:1024B000C40ED51EF0E02F01062C02C0559447949F
:1024C0000A94E2F7F60154884528448A4F5F5F4F2B
:1024D0004835510581F6019660587F4FEA94EF2800
:1024E00009F045C00E94C00B8FE090E00E943D0BB8
:1024F0002196C931D10509F040CF992011F02F9ACA
:102500002D9880E991E00E943D0B0E943B0B81E0F9
:1025100090E00E940D0C80FF38CF8AE090E00E948E
:102520000D0C9FEF980F9E3F08F02FCF22E330E075
:1025300030934F0120934E0128E330E03093510156
:1025400020935001CBE0D0E0682F87ED95E00E940A
:102550004A0BCE010E940D0C2196C131D105A1F785
:102560000E94C00B88EE93E00E943D0B0ECFEE243C
:10257000E394F12C6ECF90914C01242F291B922FC4
:1025800020910001921740F49F5F921708F028CF26
:10259000F3BE889513BE24CFE0924B0140934C01CB
:1025A0002091490130914A012F5F3F4F30934A01FA
:1025B00020934901F80181118FEF002481938193C9
:1025C000819381930394D1F710925101109250019D
:1025D00010924F0110924E010E94420B80934D01C8
:1025E0008091520190915301DC01ED91FC910280A8
:1025F000F381E02D67ED75E009958091520190918E
:102600005301DC01ED91FC910480F581E02D67ED33
:1026100075E009950E94C00BE3CEF999FECF92BDFB
:1026200081BDF89A992780B50895262FF999FECF94
:102630001FBA92BD81BD20BD0FB6F894FA9AF99ADF
:102640000FBE01960895052E97FB1EF400940E947C
:102650003A1357FD07D00E94421307FC03D04EF4F3
:102660000C943A1350954095309521953F4F4F4F1C
:102670005F4F089590958095709561957F4F8F4F2E
:102680009F4F0895A1E21A2EAA1BBB1BFD010DC08E
:10269000AA1FBB1FEE1FFF1FA217B307E407F50712
:1026A00020F0A21BB30BE40BF50B661F771F881FEE
:1026B000991F1A9469F760957095809590959B0184
:1026C000AC01BD01CF010895A29FB001B39FC0012D
:1026D000A39F700D811D1124911DB29F700D811D4E
:1026E0001124911D0895EE0FFF1F0590F491E02D28
:0626F0000994F894FFCFED
:1026F60010FFFFFFFF00E100000000000000C180A6
:1027060081000000000000000909740A2A091F0957
:1027160070092E094C0900000000F90AD70BC70BF7
:0C272600000000004A0BFA0AC40BC30BB1
:00000001FF
