:100000000C94470D0C946F0D0C946F0D0C946F0DA8
:100010000C946F0D0C946F0D0C946F0D0C946F0D70
:100020000C946F0D0C946F0D0C94E2260C945127D8
:100030000C946F0D0C946F0D0C946F0D0C946F0D50
:100040000C946F0D0C946F0D0C946F0D0C946F0D40
:100050000C946F0D0C946F0D0C946F0D0C949826EE
:100060000C946F0D0C946F0D0C946F0D0C946F0D20
:100070000C946F0D0C946F0D0C946F0D0C946F0D10
:100080000C9483290C946F0D0C946F0D0C946F0DD0
:100090000C946F0D0C946F0D0C946F0D0C946F0DF0
:1000A0000C946F0D0C946F0D0C946F0D10200000CC
:1000B00000000000008000008000000000003EC042
:1000C000000039FFBF0F07470747FE00F800000197
:1000D00002000F5E5CDDDDD95D0104070100000058
:1000E000403C0201000000000001011E2000102021
:1000F0000000000000000080808080000000000000
:100100000000001C7E5E87838B838B7F0100C07C98
:10011000007CC781000F5E5CDCDCD85C0001010064
:100120000000000060180F00000000300B0E0000FF
:10013000102000000000000000000000000000008F
:10014000000000000000E0F0F83810B838B8F020E7
:10015000000070D80808007BF2E4E4E4C4E4036023
:1001600040200000006020201A020A0A0A3A2000FB
:10017000000000000000000000000000000000007F
:10018000000000000000E0F0F83810B838B8F020A7
:10019000000000304888007BF2E4E4E4C4E403207B
:1001A000201000000000201012120A1A3662C080CF
:1001B00040000000000000000000000000000000FF
:1001C000000000000000C0E0F07020707070E0409F
:1001D0000000000040A01177E5C8C8C988C9070021
:1001E0008000000000000101341515CDB5050001A7
:1001F00000000000000000000000000000000000FF
:10020000000000000000E0F0F83810B838B8F02026
:100210000000000000C0B00BB264446444E443003A
:1002200000000000000081C0A21A0A026632180015
:1002300000000000000000000000000000000000BE
:1002400000000000000070F87C1C085C1C5CF810CA
:10025000000000003058083D695A525252521110A5
:1002600008000000180810100D05050303050C38E0
:10027000200000000000000000000000000000005E
:10028000000000000000E0F0F83810B838B8F020A6
:10029000000000000030006BD2B4A44444242300CA
:1002A0000000000000100818121A0206060230C0F2
:1002B000804000000000000000000000000000007E
:1002C000000000000000C0E0F07020707070E0409E
:1002D0000000000000C0A1B7554848490849070080
:1002E0000000000000000030151514D5AD0D000011
:1002F00000000000000000000000000000000000FE
:10030000000000000000E0F0F83810B838B8F02025
:10031000000000007090184BFAF4E4E4C4E4038099
:10032000800000000041A0908A020242222A1000B0
:1003300000000000000000000000000000000000BD
:1003400000000000000070F87C1C085C1C5CF810C9
:100350000000182404040439797272726272012058
:100360001C0000000C0408080D05050101050438F7
:10037000200010200000000000000000000000002D
:100380000000000000000000E0F0F83810B838B8B5
:10039000F0200000000000F8007BF2E4E4E4C4E494
:1003A0000330E0000000000F0080FA02060606FAA3
:1003B00080030100000000000000000000000000B9
:1003C0000000000000000000C0E0F07020707070BD
:1003D000E04000000000C07001E7E5C8C8C988C956
:1003E00007E00000000003060CA0D5050D0D0DD59B
:1003F000A007000010200000000000000000000026
:1004000000000000000000E00024FC381C580F0C25
:10041000ACFE000000000000030618113AFACACB37
:100420007A11180E030000000020380C06020002AA
:10043000030101070400102000000000000000007C
:100440000000000000000000000000000080E0F05C
:10045000F06070F0F0E08000402020202000E3E415
:10046000E928CA080A070100002010202130190BD2
:100470000B0B0804083018001020000000000000DA
:10048000000000000000000000000000000020F854
:100490003C7C189C3CBCF860400000806010100060
:1004A00019FAFACA3A0221201000000000000018D0
:1004B000080A0202060418100000000000000000F4
:1004C000000000000000000000000000000040F0FC
:1004D00078F830387878F0C08000000060909001A3
:1004E0001AF4F495740523100800000000000000C1
:1004F000180A0A0206186040000000000000000010
:10050000000000000000000000000000000000C02B
:10051000E0E0C0E0E0E0C000000000000000810773
:1005200069D3D054D195CF0302000000000001012F
:10053000012A0B6A510000000000000000000000CA
:100540000000000000000000000000000020F83C57
:100550007C189C3CBCF8604000000000000000617A
:100560005AAAAAAA2A010000000000000000603078
:10057000180C061214080000000000000000000023
:1005800000000000000000000000000000083E4FD6
:100590009F86A78FAF7E181000000000000018246F
:1005A0000226AAAA080804000000000000010302B5
:1005B000030100000101030400000000000000002E
:1005C000000000000000000000000000000080E0CB
:1005D000F0F06070F0F0E08000000000000040A348
:1005E0009469888A884A0701010000000000100809
:1005F000101E020018604000000000000000000013
:10060000000000000000000000000000000000806A
:10061000C0C080C0C0C08000000000000000028F89
:100620005367E169E32B1F0604000000000001325C
:1006300012100B6B410100000000000000000000E0
:100640000000000000000000000000000020F83C56
:100650007C189C3CBCF86040000000000040A011E9
:100660003AFACAFA0A312000000000000000605087
:1006700008021A0A04000000000010200000000018
:1006800000000000000000000000000000000080EA
:10069000E0F0F06070F0F0E080000000000000008A
:1006A000A364E9E82A28EA0701010000000000002D
:1006B000074C611B0B7B400600000000000000009F
:1006C000000000000000000000000000000000002A
:1006D00000C0E0E0C0E0E0E0C0000000000000007A
:1006E000A167E9D31014D1150F0302000000000028
:1006F000074C611B0B7B400600000000102000002F
:10070000000000000000000000000000000000FEEB
:100710000030E2F478399E0C185CF00038C000011B
:100720000E007BF2F4B424A4650221201C03020E07
:10073000080C04060200C2425C7000000000102099
:1007400000000000000000000000000000000000A9
:1007500000000000C0E0E07070703060E000000059
:1007600040A090007BF3F5B4A8AA680A2720121CC9
:1007700000000000000606120E040006120E000023
:100780001020000000000000000000000000000039
:10079000000000000000E0F0F03818580850F000A9
:1007A00000000060F0C035797A7A6A4A2A02613026
:1007B000300000000000301111050D0B102040002A
:1007C0000000000000000000000000000000000029
:1007D000000000000000C0E0E07030B010A0E000B9
:1007E0000000000040E0B38335F4D4945484C3C0C7
:1007F0000000000000000109101202764000000015
:1008000000000000000000000000000000000000E8
:10081000000000000000E0F0F03818580850F00028
:100820000000000030009D312A2A2232B20201006D
:1008300000000000006050190D0521331800000071
:1008400000000000000000000000000000000000A8
:10085000000000000000787CBC8E869682947C00AC
:100860000000000C0E001F524C4C48CA280C060613
:1008700000000004040C0C06030100000103020E3A
:100880000800000000000000000000000000000060
:10089000000000000000E0F0F03818580850F000A8
:1008A000000000001038055132224242323201006D
:1008B0000000000018081811190D010B18306060B5
:1008C0000000000000000000000000000000000028
:1008D000000000000000C0E0E07030B010A0E000B8
:1008E00000000000C0E03343F5F4D49414C4C30006
:1008F0000000000000013111101A027640000000D3
:1009000000000000000000000000000000000000E7
:10091000000000000000E0F0F03818580850F00027
:1009200000000060F09015417A7A6A0A4262610024
:1009300000000000016170590501251B080000003E
:1009400000000000000000000000000000000000A7
:10095000000000000000787CBC8E869682947C00AB
:100960000000001C1A030D2CAF2E2C68000C080E82
:1009700006000000060202030100000001030E0849
:100980000000102000000000000000000000000037
:100990000000000000000000C0E0E07030B010A0D7
:1009A000E000000000E030007BF3F5D494D4740440
:1009B0000300000000070C00601A0206060600098A
:1009C00073020000000000000000000000000000B2
:1009D00000000000000000C0E0E07030B010A0E0B7
:1009E00000000000E030007BF3F5D494D4740403DD
:1009F00000000000070C00007A020606060009133A
:100A00006200000000000000000000000000000084
:100A10000000000000000000E0F0F0381858085016
:100A2000F000000000E0380801397A7A6A4A6A3A30
:100A3000810000000001070060100D0103030300A6
:100A40007D00000000000000000000000000000029
:100A500000000000000000E0F0F03818580850F0E6
:100A60000000000000F80801397A7A6A4A6A3A817F
:100A7000C000000000030600700D01030303000422
:100A80007800000010208000004090E0506060700E
:100A9000604060800000001F204000DFE0A2A0A8AE
:100AA000A0A2209F8060000040700809030707078C
:100AB0000300242418000003142408080808101058
:100AC0005090A02020101020000000000000000026
:100AD000000000000000000000000000F8FC3C7E68
:100AE0000626060424F8000000C02010011D3D7AEF
:100AF0007A7A7A3A0221C0C0040808041715040261
:100B000002020101010504001020000000000000A5
:100B100000000000000000000000000000F8FC9E43
:100B20003E0E26060624F8000000003804008E1E43
:100B30003D3D3D3D9D81101010100408282F0808F0
:100B40000808080808082F28080400000000000012
:100B500000000000000000000000000000E0F0784D
:100B6000F83898181890E000000000E010033B7A75
:100B7000F4F4F4F47404434040400810505C121044
:100B80001010101012125C5010080000000000003D
:100B90000000000000000000000000000000F0F86D
:100BA0003C7C1C4C0C0C48F00000007008001D3D03
:100BB000797A7A7A3A02222120200810505E1110A8
:100BC0001010101011115E501008000000000000FD
:100BD0000000000000000000000000000000E0F045
:100BE00078F83898181890E0000000E010003B7B7F
:100BF000F2F4F4F47404444340400810505C1210C2
:100C00001010101012125C501008000000000000BC
:100C100000000000000000000000000000F8FC9E42
:100C20003E0E26060624F8000000003804008E1E42
:100C30003D3D3D3D9D81101010100408282F0808EF
:100C40000808080808082F28080400000000000011
:100C500000000000000000000000000000E0F0784C
:100C6000F83898181890E000000000E010033B7A74
:100C7000F4F4F4F47404434040400810505C121043
:100C80001010101012125C5010081020000000000C
:100C9000000000000000000000000000000000F064
:100CA000F83C7C1C4C0C0C48F00000000070080163
:100CB0001D3D7A7A7A7A3A02212020200810505E6F
:100CC00011101010101011115E50100800000000DB
:100CD0000000000000000000000000000000000014
:100CE000E0F078F83898181890E0000000E0100064
:100CF0003B7BF2F4F4F47404444340400810505C2D
:100D000012101010101012125C5010081020000069
:100D1000000000000000808080000000000000FC57
:100D2000000078FC9C3E06470747F800E03E0001C3
:100D30000304000EBE3D3D3DBD1D000F010000003F
:100D400000001E010000000000011E000000102035
:100D50000000000000000000008080800000000013
:100D6000000000000078FC9C3E06170717F8000002
:100D7000000000E018000EBE3D3DBD3D1DC0380026
:100D8000000000010040300F20100F0000010000A3
:100D90001020000000000000000000000000000023
:100DA000000000000000C0E0E0F030303838C00043
:100DB000000000C0603003F7F4E9E8E9E809878043
:100DC000400000000110180801010505081020402E
:100DD0008000000000000000000000000000000093
:100DE00000000000000080C0C0E060607070800003
:100DF0000000000000C007EFE9D3D0D2D0120F00EE
:100E0000000000000001122233030BFB010001006F
:100E100000000000000000000000000000000000D2
:100E2000000000000000C0E0E0F030303838C000C2
:100E30000000000000C003D7B469686968090700B2
:100E40000000000000000080711D0521110C000051
:100E50000000000000000000000000000000000092
:100E6000000000000000E0F070F818981C9CE00002
:100E7000000000002050013B6AD4D4D4D444430085
:100E8000000000080808080808060200000206180A
:100E90000000000000000000000000000000000052
:100EA000000000000000C0E0E0F030303838C00042
:100EB0000000000000C003F7B46968696809070012
:100EC000000000000010180C050501010930E08049
:100ED0000000000000000000000000000000000012
:100EE00000000000000080C0C0E060607070800002
:100EF000000000000000C7EFE9D3D0D2D0120F00ED
:100F000000000000000011233A0201F3010200007A
:100F100000000000000000000000000000000000D1
:100F2000000000000000C0E0E0F030303838C000C1
:100F3000000000C020100377F4E9E8E9E8090700A1
:100F4000000000000100804030190121140D010053
:100F50000000000000000000000000000000000091
:100F6000000000000000E0F070F818981C9CE00001
:100F7000000000300808013B7AF4F4F4F404233054
:100F80000000000000040C0808040000020206181B
:100F90000000102000000000000000000000000021
:100FA000000000000000000080C0C0E060607070C1
:100FB000800000000080C000E7EFC9D3D0D2D0127B
:100FC0008F0080800287C420100B0B030B0B0908D5
:100FD0000911E18000000000000000000000000096
:100FE00000000000000000C0E0E0F030303838C001
:100FF0000000000000C0600377F4E9E8E9E8E907D1
:10100000C080C0400183C230080505010505040405
:101010000810E08020200000000000000000000018
:10102000000000000000FF000000000000000000C1
:101030000000000000000000000000000000008030
:10104000808000000000FF000000000000000000A1
:1010500000000000000000000000001008040484EC
:1010600048D07FC48282EF705050901020C00000A2
:10107000000000000000000000000000000000016F
:10108000030103010021211E0000030000000000F5
:101090000000000000000808007E81BDBD817E00C8
:1010A00013100000F018CC2424242424CC08183079
:1010B000E0800000007C023F60C7898B89898987B6
:1010C000808080603F021E70060606090909090932
:1010D00006060603030F0703060606070F010103B2
:1010E000060606070F1F0F0706060603011D0F075A
:1010F0000808007E81BDBD817E0006061E0000003E
:10110000000006061E03010501030606060301058D
:101110000103FFFFFF0000000000000000000000CE
:101120000000000000000007FFFF01680000000051
:10113000031500000000000000000200FFFFFF0098
:1011400000000000000417045D0000000000000023
:1011500000FF7FF0020600000000035D00000000B9
:101160000000000002003FFEF80000000000000246
:101170002602620000000000000200FFFFFF0142A3
:101180000000000003460000000000000000010015
:10119000FFFFFF0000000000000438000000000016
:1011A000000000000007FFFF0168000000000315B9
:1011B00000000000000000000200FFFFFF00000030
:1011C0000000000417045D0000000000000000FFA4
:1011D0007FF0020600000000035D00000000000038
:1011E000000002003FFEF80000000000000226029E
:1011F000620000000000000200FFFFFF014200004B
:101200000000034600000000000000000100FFFF96
:10121000FF00000000000004380000000000000093
:101220000000001C08301C07051D65C780003E2318
:10123000301C07202427253D1900301E0908781C82
:10124000076F1BF0000004FC2E0E2E0E1C78F870A9
:101250000000000000000080C0F078783830F87896
:10126000F0400000000000000000000000F0F8382E
:101270007C0D2F0F2EF00000000000000000000089
:1012800000F8FC3C7E0626060424F800000000005E
:10129000000000000000008080808000000000004E
:1012A0000000000000008080808080C0C0C0C0803E
:1012B000C00001070C18017272727272793D00044D
:1012C0001CF00000000000000305046594F4F2F136
:1012D00000901010102000000000C030001D7D7A2A
:1012E0007A7A7A3A817000000000000000C0201075
:1012F000011D3D7A7A7A7A3A0221C0C000000000CE
:10130000008000DE9FAFA3435341533F0080E000C5
:1013100000000000018183C74F1F1F87A0A4A024E5
:101320001F000030386CC1030303013DE08002035D
:101330000100000000040C180402040505050C1847
:10134000101008100000000000030080601F402003
:101350001F0000030000000000000004080804173C
:10136000150402020201010105040000000002054B
:10137000040003B737151545434081010100000003
:1013800000008080070C80C0113707232160C484CF
:101390000000000000010000000000000307000042
:1013A000000000000000000000000000000000003D
:1013B000000000000000000000000000000000002D
:1013C000000000000000000000000000000000001D
:1013D000000000000000000000000000000000000D
:1013E00000040300000000000300000000000000F3
:1013F0000000000101010000000000000000037572
:101400000D7EFFFFFFE3E7C600FFFFFFFF00FFFFCA
:1014100000FFFFFFFFE3FF7E00FFFFFFFFE3E3E3CB
:1014200000FFFFFFFFE3FFFFBE0000000000000021
:10143000FFFFFFFFE3FFFFBE0066AFCFEF6600FFD9
:10144000FFFFFF63FFFFBE00030303FFFFFFFF0378
:10145000030300FFFFFFFF60FFFFFF00FFFFFFFF31
:1014600003FFFFFE00FEFFFFFF63FFFFFE007F7F25
:10147000FFFFE0FF7F7F0C1C1C18181F0F000F1FC1
:101480001F1F181F0F001F1F1F1F000000001F1F1E
:101490001F1F181818001F1F1F1F001F1F1F0000ED
:1014A00000000000001F1F1F1F181F1F0F00171B29
:1014B0001D0E17001F1F1F1F001F1F1F0000000011
:1014C0001F1F1F1F000000001F1F1F1F001F1F1FC7
:1014D000001F1F1F1F181F1F0F001F1F1F1F001F90
:1014E0001F1F0000001F1F1F1F00001A05081010FB
:1014F0000F000E11110E001F01011E001E09091E12
:101500000016151509000300000000003E5B4F5B4C
:101510003E3E6B4F6B3E1C3E7C3E1C183C7E3C1896
:101520001C577D571C1C5E7F5E1C00183C1800FF7A
:10153000E7C3E7FF0018241800FFE7DBE7FF3048A8
:101540003A060E2629792926407F050507407F05A2
:10155000253F5A3CE73C5A7F3E1C1C08081C1C3E99
:101560007F14227F22145F5F005F5F06097F017F87
:10157000006689956A606060606094A2FFA294082A
:10158000047E040810207E201008082A1C08081C6D
:101590002A08081E101010100C1E0C1E0C30383EAD
:1015A0003830060E3E0E06000000000000005F000E
:1015B000000007000700147F147F14242A7F2A12DA
:1015C00023130864623649562050000807030000C0
:1015D0001C2241000041221C002A1C7F1C2A0808F2
:1015E0003E08080080703000080808080800006005
:1015F000600020100804023E5149453E00427F40F1
:101600000072494949462141494D331814127F104F
:1016100027454545393C4A49493141211109073699
:1016200049494936464949291E0000140000004036
:101630003400000008142241141414141400412230
:10164000140802015909063E415D594E7C121112DF
:101650007C7F494949363E414141227F4141413EDB
:101660007F494949417F090909013E414151737F41
:101670000808087F00417F41002040413F017F086A
:101680001422417F404040407F021C027F7F0408BB
:10169000107F3E4141413E7F090909063E415121EB
:1016A0005E7F09192946264949493203017F010312
:1016B0003F4040403F1F2040201F3F4038403F6395
:1016C0001408146303047804036159494D43007FEF
:1016D0004141410204081020004141417F040201C0
:1016E0000204404040404000030708002054547862
:1016F000407F284444383844444428384444287FB0
:10170000385454541800087E090218A4A49C787F09
:101710000804047800447D40002040403D007F10D4
:1017200028440000417F40007C047804787C080451
:1017300004783844444438FC182424181824241805
:10174000FC7C08040408485454542404043F4424F2
:101750003C4040207C1C2040201C3C4030403C440D
:10176000281028444C9090907C4464544C440008C9
:1017700036410000007700000041360800020102F7
:1017800004023C2623263C1EA1A161123A404020BF
:101790007A3854545559215555794121545478413A
:1017A000215554784020545579400C1E52721239FC
:1017B00055555559395454545939555454580000B5
:1017C000457C410002457D420001457C40F02924D2
:1017D00029F0F0282528F07C545545002054547CED
:1017E000547C0A097F4932494949323248484832D3
:1017F000324A4848303A4141217A3A424020780002
:101800009DA0A07D39444444393D4040403D3C24A6
:10181000FF2424487E4943662B2FFC2F2BFF0929E8
:10182000F620C0887E090320545479410000447D8D
:10183000413048484A32384040227A007A0A0A72D7
:101840007D0D19317D2629292F2826292929263081
:10185000484D4020380808080808080808382F10A4
:10186000C8ACBA2F102834FA00007B000008142AF4
:10187000142222142A14089500220095AA0055006B
:10188000AAAA55AA55AA000000FF00101010FF00D8
:10189000141414FF001010FF00FF1010F010F014CB
:1018A0001414FC001414F700FF0000FF00FF1414D0
:1018B000F404FC141417101F10101F101F1414141C
:1018C0001F00101010F0000000001F101010101F5B
:1018D00010101010F010000000FF10101010101069
:1018E000101010FF10000000FF140000FF00FF00A8
:1018F000001F10170000FC04F41414171017141420
:10190000F404F40000FF00F714141414141414F772
:1019100000F7141414171410101F101F141414F4CB
:10192000141010F010F000001F101F0000001F1412
:10193000000000FC140000F010F01010FF10FF1465
:101940001414FF141010101F00000000F010FFFF0F
:10195000FFFFFFF0F0F0F0F0FFFFFF0000000000DD
:10196000FFFF0F0F0F0F0F38444438447C2A2A3EE4
:10197000147E02020606027E027E0263554941631E
:101980003844443C04407E201E2006027E02029918
:10199000A5E7A5991C2A492A1C4C7201724C304AB1
:1019A0004D4D303048784830BC625A463D3E49493A
:1019B00049007E0101017E2A2A2A2A2A44445F44E2
:1019C0004440514A444040444A51400000FF010312
:1019D000E080FF000008086B6B08361236243606DC
:1019E0000F090F060000181800000010100030400A
:1019F000FF0101001F01011E00191D1712003C3CD0
:101A00003C3C0000000000080B000202020000093C
:101A10000400000102020000052400100105240159
:101A200001010424020605240600010705810310B4
:101A3000004009040100020A0000000705020240FC
:101A4000000007058302400000040309041201009E
:101A500002EF0201404123368000010102030141EF
:101A6000726475696E6F204C4C43004172647569F5
:101A70006E6F204C656F6E6172646F00D5F08D14CF
:101A8000A1C881CFD9F1AF200000E429912C112405
:101A90001FBECFEFDAE0DEBFCDBF12E0A0E0B1E0C5
:101AA000EAE8F8E602C005900D92AC37B107D9F725
:101AB00027E0ACE7B2E001C01D92AC3EB207E1F70F
:101AC0001DE0C6E4DDE004C02197FE010E94353030
:101AD000C534D107C9F70E94BF2A0C9438340C943E
:101AE000000080918D020895FC018091C806882332
:101AF00011F13FB7F89482E08093E9002091F20061
:101B0000822F90E01816190614F481E090E08823E3
:101B100039F0289844E64093C7064091F10040838D
:101B2000222339F02091F200211103C02BE62093EB
:101B3000E8003FBF08958FEF9FEF08952FB7F89407
:101B400083E08093E9009091E800892F807295FFEF
:101B500004C09091F20080E4891B2FBF089580910A
:101B6000BF0681110DC082E08093BB0684E08093A4
:101B7000BC061092BE061092BD0681E08093BF069F
:101B80008BEB96E008953FB7F8948091B70690915B
:101B9000B806A091B906B091BA0626B5A89B05C0B3
:101BA0002F3F19F00196A11DB11D3FBFBA2FA92FDC
:101BB000982F8827BC01CD01620F711D811D911DD9
:101BC00042E0660F771F881F991F4A95D1F7089545
:101BD0008F929F92AF92BF92CF92DF92EF92FF923D
:101BE0006B017C010E94C30D4B015C01C114D10447
:101BF000E104F104B9F00E94C30D681979098A095A
:101C00009B09683E73408105910580F321E0C21A6B
:101C1000D108E108F10888EE880E83E0981EA11C27
:101C2000B11CE4CFFF90EF90DF90CF90BF90AF90CA
:101C30009F908F90089565E070E080E090E00C94B4
:101C4000E80DCF93C82F8091AE069091AF06DC01CE
:101C5000ED91FC910084F185E02D0995C130C1F032
:101C600070F0C230D1F08091AE069091AF06DC01E9
:101C7000ED91FC910190F081E02DCF91099480913C
:101C80002D0790912E079093AF068093AE06EBCF71
:101C900080912B0790912C07F6CF80912907909186
:101CA0002A07F1CF40919E0250919F0220919C0201
:101CB00030919D0242175307B4F49091E80095705B
:101CC000E1F39091E80092FD19C08093F1008091BA
:101CD0009E0290919F0201968F739927892B19F488
:101CE0008EEF8093E80080919E0290919F02019672
:101CF00090939F0280939E0281E0089580E0089572
:101D0000EF92FF920F931F93CF93DF93F82E192F2B
:101D1000E62E042F81E0860F880F0E94520E83E08A
:101D20000E94520ECF2DD12FEC0EFD2EF11CCE15A0
:101D3000DF05B9F007FF13C0FE0184910E94520E27
:101D4000182F80E00E94520E812321968111EFCF3F
:101D5000DF91CF911F910F91FF90EF9008958881AF
:101D6000EDCF81E0F5CFDF92EF92FF920F931F93BB
:101D7000CF93DF93D82E8A01EB017B01E40EF51E91
:101D8000CE15DF0559F0D7FE12C0FE0184910E94E6
:101D9000520E21968111F4CF0FEF1FEFC801DF9192
:101DA000CF911F910F91FF90EF90DF900895888160
:101DB000EECF0F931F93CF93DF931F92CDB7DEB774
:101DC00082E0898342E450E067E07AE180E80E94A3
:101DD000B30E0E94AF0DDC0112960D911C910115FE
:101DE000110589F0D801ED91FC910280F381E02D7D
:101DF000BE016F5F7F4FC801099597FD04C0F801D0
:101E000000851185ECCF89810F90DF91CF911F91D3
:101E10000F910895615030F02091F100FC01208372
:101E20000196F8CF289884E68093C7060895AF926C
:101E3000BF92CF92DF92EF92FF920F931F93CF93B7
:101E4000DF936C017B018B01040F151FEB015E0119
:101E5000AE18BF08C017D10759F06991D601ED91AE
:101E6000FC910190F081E02DC6010995892B79F74D
:101E7000C501DF91CF911F910F91FF90EF90DF90FF
:101E8000CF90BF90AF9008958F929F92AF92BF92E4
:101E9000CF92DF92EF92FF920F931F93CF93DF9336
:101EA0006C017B018A0180912901882309F45CC0BF
:101EB0008091C806882309F457C08091A20280FF50
:101EC00005C08091E00082608093E000E801B12CC1
:101ED0008AEFA82E93E0892E2AE3922E209711F400
:101EE000BB20D9F10E949E0D81110AC0AA94AA209C
:101EF000D9F161E070E080E090E00E94E80DEECF63
:101F00008C171D0611F00CF08C2F9FB7F89480925F
:101F1000E9002091E80025FD02C09FBFDFCF282FF8
:101F200030E0C21BD30BF701815020F04191409368
:101F3000F100FACFE20EF31EBB2021F09092E800F0
:101F4000B12CEBCF8091E80085FDE7CF9092E800BF
:101F5000BB24B394209709F3F3CF5D9884E6809374
:101F6000A102101611063CF081E090E0F601938387
:101F7000828310E000E0C801DF91CF911F910F91A3
:101F8000FF90EF90DF90CF90BF90AF909F908F9099
:101F90000895CF93DF931F92CDB7DEB76983DC013D
:101FA000ED91FC910280F381E02D41E050E0BE0113
:101FB0006F5F7F4F09950F90DF91CF91089583E078
:101FC0008093E9008091F200882319F08AE38093DE
:101FD000E80008950E949E0D90E00895CF93DF934E
:101FE0001F92CDB7DEB7FC018485958597FD08C0AB
:101FF0002FEF3FEF358724870F90DF91CF91089522
:10200000CE0101960E94740D019719F4898190E028
:10201000F3CF8FEF9FEFF0CF0F931F93CF93DF930B
:102020001F92CDB7DEB78C01FC018485958597FFA3
:102030000BC0CE0101960E94740D019771F4898145
:1020400090E0F80195878487F801848595850F9045
:10205000DF91CF911F910F9108958FEF9FEFF1CFF7
:10206000FC018485958597FD0BC09FB7F89482E0AD
:102070008093E9008091F2009FBF90E0019608955F
:102080009FB7F89482E08093E9008091F2009FBFAF
:1020900090E0089520919502E0919302F0919402CE
:1020A000CF0102969093940280939302222319F019
:1020B000859194910895808191810895CF92DF92C6
:1020C000EF92FF92CF93DF930E944A10811520E890
:1020D000920791F4809171008D7F8093710010922E
:1020E00091004698479810929202DF91CF91FF900D
:1020F000EF90DF90CF90089521E0209392028130FD
:1021000020E8920751F4809190029091910290936F
:102110009402809393020E944A1097FD05C020917B
:102120008F02222309F454C020918E02211150C045
:1021300021E020939602EC01DF77209709F04BC055
:1021400081E08093970246983FE9C32E3FE0D32E6B
:10215000E12CF12CCAEFD0E0E0912707F09128079D
:102160000995811103C081E08093970280919602C6
:10217000882329F080919702882309F43FC047986B
:102180000E944A100097F1F19C01DE010E94BB2DD4
:10219000DC01CB0129E0B595A795979587952A9500
:1021A000D1F7109290002AE020939100D0929900EC
:1021B000C09298008093980290939902A0939A02FB
:1021C000B0939B02809171008260809371008DCFEB
:1021D00010929602B0CF9E0150E040E060E472E4BD
:1021E0008FE090E00E94672D69017A0181E0C81AB2
:1021F000D108E108F10810929702AECF4699BFCFFF
:10220000479ABECF8FEF9FEFDC01CBCF9C01E1E778
:10221000F0E090819D7F908310929502E9E1F7E0D4
:10222000F0939402E0939302F0939102E093900272
:10223000318320837383628380E090E89583848375
:102240000C945E104F925F926F927F928F929F924A
:10225000AF92BF92CF92DF92EF92FF920F931F93B4
:10226000CF93DF934C015901FC2DC02FD0E0CE015C
:10227000880D991D181619060CF06CC020E88216FE
:1022800091040CF067C09B012E0D311D1216130630
:102290000CF060C0603471050CF05CC04115510554
:1022A00009F458C0E62FE770FE2EDB0177FD179684
:1022B00033E0B595A7953A95E1F73A2F77FF04C03B
:1022C000FF2011F03FEF3A0F662777276819790949
:1022D00097FC02C070E060E0803891050CF44BC0C0
:1022E00090E89819961BA32F032E000CBB0B1A2FF6
:1022F00010953F3F0CF010E021E08E2D877009F41F
:1023000020E0E694E694E694E20EAE0DB11D199736
:102310001CF028E0E22EE31AE11A310F20E8320324
:10232000D0011124A80DB91DA60FB71F019F600D84
:10233000711D1124460F571F0F2D0F2C000C110B70
:10234000F33009F41CC1C8F4F13009F4D0C0F23004
:1023500009F47CC0DF91CF911F910F91FF90EF9016
:10236000DF90CF90BF90AF909F908F907F906F90B5
:102370005F904F900895902FB5CFFA3FB1F1232F82
:102380002E0DFB3F39F7321729F3BD0166557D4FFE
:10239000D12CC12CC91608F0A4C0FA01EC0DFD1D0A
:1023A000E491F0E04F01002E02C0880C991C0A94C1
:1023B000E2F737FD06C0FB018081E82CE0948E2116
:1023C0008083FF2061F0373054F45B01F0E8AF0EFA
:1023D000B11CE92CE094F50180818E218083FFEF10
:1023E000CF1ADF0A6F5F7F4FD5CF232F2E0D321705
:1023F00009F4B0CFBD0166557D4FD12CC12CC91653
:1024000008F069C0FA01EC0DFD1DE491F0E04F0108
:10241000002E02C0880C991C0A94E2F737FD04C014
:10242000FB01808188298083FF2051F0373044F4FC
:102430005B01F0E8AF0EB11CF50180818929808332
:10244000FFEFCF1ADF0A6F5F7F4FD9CF6FEF70E0DA
:102450000F2C02C0660F771F0A94E2F76095709503
:10246000772E232F2E0D321709F474CFFD01E65578
:10247000FD4F6F01B12CA12CA91638F5FA01EA0D18
:10248000FB1DE491F0E02F01002E02C0440C551C0E
:102490000A94E2F737FD05C0F6018081862384297E
:1024A0008083FF2059F037304CF44601F0E88F0E5E
:1024B000911CF4018081872185298083FFEFAF1A69
:1024C000BF0A8FEFC81AD80AD7CF3F5F4C0F5D1FE6
:1024D000A058BF4FC8CF3F5F4C0F5D1FA058BF4FE4
:1024E00086CF3F5F4C0F5D1FA058BF4F4CCF6A0D8A
:1024F0007B1D232F2E0D321709F42CCFFD01E6553D
:10250000FD4F6F01B12CA12CA91688F5FB01EA0D36
:10251000FB1D8490912C002E02C0880C991C0A94FB
:10252000E2F780949094FA01EA0DFB1D6490712CFF
:10253000002E02C0660C771C0A94E2F737FD05C036
:10254000F6018081882186298083FF2049F0373079
:102550003CF4F601E058FF4F808189218729808370
:10256000FFEFAF1ABF0A8FEFC81AD80ACDCF3F5F6F
:102570004C0F5D1F6C0F7D1FA058BF4FBCCFC92EE5
:10258000D12CFA01E60FF71FA655BD4F00E810E069
:102590000C191D09CC19DD09BE01660F771F41E03A
:1025A00050E06A010F2C01C0CC0C0A94EAF7592FB5
:1025B0002E2D792ECF93DF93ED01EF96EF96229695
:1025C0008590A590FF2059F08C9C4001AC9C500157
:1025D00037302CF4E880B094EB20E928E9923323DB
:1025E0003AF0EC90A094EA20E828ED920C94F912CD
:1025F00011965A9529F72A9551F0572D33951124A4
:10260000E60FF11DA00FB11DC00FD11DD9CFDF9175
:10261000CF9111249FCECF92EF920F93FA010491A4
:102620003196E4904E5F5F4F22E0C22E30E020E012
:102630000E9422110F91EF90CF900895CF92EF92C8
:102640000F934115510541F1FA0104913196E4903F
:102650004E5F5F4F2223D1F0A1E0B0E03E2D3770F6
:1026600011F4B0E0A0E0EE2DE695E695E695EA0FD0
:10267000FB2FF11D0E9FD0010F9FB00D11242A9F3B
:10268000F0012B9FF00D11244E0F5F1F2AEFC22E79
:1026900030E020E00E9422110F91EF90CF9008953A
:1026A00010928D023E983F9808953E9A3F9A81E09D
:1026B00080938D020895AF92BF92CF92DF92EF92F6
:1026C000FF920F931F93CF93DF936D3079F0C091FA
:1026D000AC06D091AD066A30B1F41092AB06109200
:1026E000AA062896D093AD06C093AC0681E090E090
:1026F000DF91CF911F910F91FF90EF90DF90CF90DE
:10270000BF90AF9008954091AA065091AB0685E026
:10271000689FF0011124E95FFA4E9A01C12C80E113
:10272000E82EA5E070E0CA1621F0CF010196749161
:10273000FC0110E000E0B72FB170DB2E203831052E
:10274000D0F4CE01800F911F80349105A0F461E098
:1027500081FD64E080FD660F82FD6295887FE89EC2
:10276000D0011124A20FF62EA655BD4F8C91DD206D
:10277000A9F0862B8C9376950F5F1F4F08301105BB
:10278000D1F6C3942F5F3F4F86E0C812CACF4A5F8D
:102790005F4F5093AB064093AA06A8CFF0948F21C9
:1027A000E9CF9091A802982329F49091A902982347
:1027B00081E009F480E00895089590E080E00895B4
:1027C000CF93DF93EC0188E00E94D113882351F06E
:1027D00068E270E08BE092E00E940611EA81FB81E2
:1027E00081E0099584E00E94D113882391F08091C3
:1027F0008D02882321F0DF91CF910C9450130E9419
:10280000551368E270E081E290E0DF91CF910C9483
:102810000611DF91CF91089581E080931D012FB7BC
:10282000F8948091B3069091B406A091B506B0914A
:10283000B6062FBF8093890290938A02A0938B02E1
:10284000B0938C0208950895CF93DF93EC018C85AB
:102850009D85009749F0DC01ED91FC910280F381A8
:10286000E02D09951D861C862AA13BA1FE0190E062
:1028700080E0821793074CF446855785452B11F06D
:102880001786168601963296F4CF1BA21AA2DF9104
:10289000CF91089580917C0290917D02009759F02C
:1028A000DC01ED91FC910280F381E02D09951092FD
:1028B0007D0210927C020895FC0173836283089567
:1028C0008F929F92AF92BF92CF92DF92EF92FF9240
:1028D0000F931F93CF93DF938C01EC01AB966C01A8
:1028E00081E3C80ED11CE990F990D70154968C91E0
:1028F000882301F1F80162857385072E000C880B8F
:10290000990B0E94E62E4B015C01D70155966D9103
:102910007C91072E000C880B990B0E94E62E9B01E0
:10292000AC01C501B4010E94CB2D0E94AE2EF7016F
:1029300073876287CC15DD05B1F69801255C3F4FA2
:10294000E991F9918685882351F0D8011A968D91E5
:102950009C9144855585840F951F91838083C21770
:10296000D30771F7DF91CF911F910F91FF90EF90F7
:10297000DF90CF90BF90AF909F908F900895CF93AE
:10298000DF93EC019B01FA0167E170E00E940D30DA
:1029900048EE50E1892B21F1CE0161E170E00E9407
:1029A0000D3040EE50E1892BD9F0CE016CE070E0A3
:1029B0000E940D3048ED50E1892B91F0CE018770D7
:1029C000992740ED50E1892B59F0CE0167E070E086
:1029D0000E940D3048EC50E1892B11F04AE051E1A2
:1029E000BF01C901DF91CF910C940B13AF92BF923D
:1029F000CF92DF92EF92FF920F931F93CF93DF93CB
:102A0000EC016C01B12CA12C10E000E0EA84FB8405
:102A1000EA0CFB1C0115110519F00731110539F4F9
:102A20006C857D854AE051E1C7010E940B13D601F8
:102A300053968C9153978130C1F46C857D85011537
:102A4000110551F052968C9142E051E1882351F0EA
:102A50000731110509F448C0F6018489811144C089
:102A60004AEF50E1C7010E940B130F5F1F4FF6E0C2
:102A7000AF0EB11C8FEFC81AD80A0831110531F614
:102A80008E01055D1F4F7E01A1E3EA0EF11CF801E6
:102A9000819191918F01DC01ED91FC910680F7818C
:102AA000E02D09950E151F0591F7EB96D801ED91D4
:102AB000FD918D018685882349F06281738120E034
:102AC00040EF50E1808191810E941E13C017D10711
:102AD00069F7DF91CF911F910F91FF90EF90DF90F9
:102AE000CF90BF90AF900895AB01B701C8010E948D
:102AF000BF14BBCF0895FC0184898823E1F083894A
:102B0000813049F46485758520E040EA50E1828592
:102B100093850C941E13823031F46485758520E012
:102B200044E150E1F4CF811106C06485758520E051
:102B300046E950E1ECCF0895CF92DF92EF92FF92F9
:102B40000F931F93CF93DF937B01FC0104891589B9
:102B5000EC0130E020E086E0C82ED12C20173107B0
:102B6000DCF4E991F9913097A1F08289811111C0CB
:102B700082859385A701481B590BCA01B6010E94A3
:102B80000D306831710528F4E60FF71F8389813015
:102B900069F02F5F3F4FE2CF80E0DF91CF911F912F
:102BA0000F91FF90EF90DF90CF90089581E0F5CFE7
:102BB00008958F929F92AF92BF92CF92DF92EF9241
:102BC000FF92CF93DF93EC0120912B0130912C01E8
:102BD00040912D0150912E0168A179A18AA19BA15C
:102BE0000E94CB2D6B017C01C8A2D9A2EAA2FBA254
:102BF0006EA17FA1072E000C880B990B0E94E62E78
:102C00004B015C01AC019B01C701B6010E94962FEC
:102C100087FD16C08CA19DA101969DA38CA32A8936
:102C20003B898217930714F01DA21CA2A5019401F1
:102C3000C701B6010E94CA2D68A379A38AA39BA3EA
:102C4000EE80FF80E114F104E9F068AD79AD8AAD62
:102C50009BAD0E94AE2E4B016CA97DA98EA99FA9A8
:102C60000E94AE2ECB012CA1A701B401DF91CF9120
:102C7000FF90EF90DF90CF90BF90AF909F908F909C
:102C80000C941E13DF91CF91FF90EF90DF90CF90C7
:102C9000BF90AF909F908F9008950895FB01019091
:102CA0000020E9F73197AF01461B570B0C94170F23
:102CB0008F929F92AF92BF920F931F93CF93DF9308
:102CC000CDB7DEB7A1970FB6F894DEBF0FBECDBF6C
:102CD00019A2423008F44AE08E010F5D1F4F842E86
:102CE000912CB12CA12CA50194010E94992DE62FC5
:102CF000B901CA01EA3004F5E05DD801EE938D0117
:102D0000232B242B252B79F790E080E0109729F0D6
:102D1000BD018FE297E00E944E16A1960FB6F8947F
:102D2000DEBF0FBECDBFDF91CF911F910F91BF903E
:102D3000AF909F908F900895E95CDFCF611571058A
:102D400011F00C944E1690E080E008950F931F93BD
:102D50004BEE54E170E060E085E090E00E940B13E0
:102D60004FEF53E167E070E085E090E00E940B13C5
:102D700041E452E16BE170E086E090E00E940B13C9
:102D800043E252E166E170E08CE590E00E940B13B3
:102D90008FB7F8944091B3065091B4066091B50690
:102DA0007091B6068FBF8091890290918A02A0919E
:102DB0008B02B0918C028A019B01081B190B2A0B14
:102DC0003B0BD901C801843F9140A105B10570F0CA
:102DD00080911D0191E0892780931D014093890214
:102DE00050938A0260938B0270938C0280911D0134
:102DF000882391F081E190E09093AB068093AA063E
:102E000089E390E09093AD068093AC066AEB71E0A5
:102E10008FE297E00E949E1680918D02811112C070
:102E20001092AB061092AA068AE390E09093AD064A
:102E30008093AC066BEC71E08FE297E01F910F91ED
:102E40000C949E161F910F910895DC01FC010190D6
:102E50000020E9F73197E81BF90B9E2F990FE90F36
:102E6000EF7780E490E08E1B91099093AB068093FE
:102E7000AA0670E07093AD066093AC06BD018FE2C8
:102E800097E00C949E164F925F926F927F928F9272
:102E90009F92AF92BF92EF92FF920F931F93CF93A7
:102EA000DF9300D0CDB7DEB78C01F62EFC0162AB0C
:102EB000F5E06F9F30011124430120E5820E911C43
:102EC000C4010E94512DB82E8983C3018F5A9F4F90
:102ED0000E94512DE82E8A83C40102960E94512D32
:102EE000EB24E81611F01A82198289819A81F8017F
:102EF000E05CFF4F9183808382E090E0F801958B46
:102F0000848B28E030E0378B268B21E030E0318F56
:102F1000208F338F228F358F248F4AE050E051A7C6
:102F200040A746E050E053A742A735A724A737A7FC
:102F300026A731AB20AB6AE9862E69E9962EA92C2B
:102F40006EE3B62E8092080190920901A0920A01C8
:102F5000B0920B01412C512C70EA672E70EC772E49
:102F6000409210015092110160921201709213016F
:102F700040920C0150920D0160920E0170920F016F
:102F8000412C512C612CAFE37A2E409200015092DB
:102F900001016092020170920301309318012093A5
:102FA00017013093160120931501412C512C612CEF
:102FB000B1E47B2E44AE55AE66AE77AE10927F0282
:102FC000F2E0FF1609F414C1FF1550F1FF2009F4D7
:102FD0008EC0F21609F4CEC0F80183A915A214A27E
:102FE00010A211A212A213A2823009F4E5C108F0C6
:102FF000AFC1882309F4B4C1813009F4C6C10F9070
:103000000F90DF91CF911F910F91FF90EF90BF90A4
:10301000AF909F908F907F906F905F904F900895AA
:10302000E3E0FE1609F438C1F4E0FF12D5CF2EEF2D
:1030300031E0F801EC5BFF4F3183208324E032E084
:1030400032963183208324E030E0F801358B248BE5
:1030500020E130E031A720A722E839E0318720873E
:1030600020E837E0338722872EE337E0358724874F
:10307000318B208B2CEF36E03787268743E353E3F1
:1030800063E970EC409310015093110160931201B9
:10309000709313014EEA57E461E67EE34093080122
:1030A0005093090160930A0170930B0190931801EA
:1030B00080931701909316018093150180E090E0B2
:1030C000A0E1B1E480930C0190930D01A0930E0157
:1030D000B0930F018DEC9CECACECBDE38093000150
:1030E00090930101A0930201B093030175CF8DEC81
:1030F00091E0F801EC5BFF4F9183808383ED91E0D9
:1031000032969183808382E99FE0F80191878087DE
:1031100080E99DE0938782878EE49DE09587848790
:10312000918B808B8CE09DE09787868783E393E388
:10313000A3E5B0EC8093100190931101A0931201CC
:10314000B09313018DEC9CECACE4BEE380930801DA
:1031500090930901A0930A01B0930B0180920001A2
:1031600090920101A0920201B092030181E080934C
:103170007F0232CF22EE31E0F801EC5BFF4F31836A
:10318000208328EE31E0329631832083F801578B7B
:10319000468B2AE83CE03187208728E03BE03387F4
:1031A000228726EC3AE035872487318B208B24E870
:1031B0003AE03787268740E050E060E870EC4093C3
:1031C00010015093110160931201709313019093B9
:1031D0001801809317019093160180931501409375
:1031E0000C0150930D0160930E0170930F01F4CE0A
:1031F00028E132E0F801EC5BFF4F318320832EE1C0
:1032000032E03296318320832AE736E0F8013187B5
:10321000208728E734E03387228726E334E03587A8
:103220002487318B208B24EF33E03787268746E6CF
:1032300056E666E070EC40931001509311016093E4
:1032400012017093130146E656E666E470EC409373
:103250000C0150930D0160930E0170930F014CEE21
:1032600051E568E37EE340930801509309016093C0
:103270000A0170930B0190931801809317019093AA
:1032800016018093150180E090E0A0EAB0E484AFDD
:1032900095AFA6AFB7AFA0CE23E332E0F801EC5B69
:1032A000FF4F318320832AE332E03296318320833B
:1032B00022E733E0F8013187208720E331E03387CC
:1032C00022872EEE30E035872487318B208B2CEA45
:1032D00030E03787268724E130E031A720A740E09F
:1032E00050E060E870EC409310015093110160933E
:1032F00012017093130143E353E363E170EC4093D5
:103300000C0150930D0160930E0170930F0140E08A
:1033100050E060E87EE34093080150930901609318
:103320000A0170930B014DEC5CEC6CE47EE340937E
:103330000001509301016093020170930301909387
:10334000180180931701909316018093150144CEC4
:103350008330E9F1843009F052CE868597852EC0FE
:10336000808591859783868384899589938B828BC9
:1033700080A591A597A386A380911701909118012C
:1033800090931601809315013ACE80E090E0A0E082
:10339000B0E480A391A3A2A3B3A382E090E095A39D
:1033A00084A3828593859783868386899789938B67
:1033B000828B86E090E0DECF848595859783868337
:1033C00081E090E0938B828B97A386A318CE8089AF
:1033D0009189F4CFCF93DF93EC0188E00E94D11361
:1033E000882351F0EA81FB8182E0099568E270E070
:1033F0008BE092E00E94061180E40E94D1138823A2
:10340000B9F080917E0290E0019666E070E00E9443
:103410000D3080937E02682F80917C0290917D0216
:103420000E94431768E270E08BE790E00E9406116B
:1034300080E20E94D1138823C9F080917E0290E03F
:10344000059666E070E00E940D3080937E02682F42
:1034500080917C0290917D020E94431768E270E0A7
:103460008BE790E0DF91CF910C940611DF91CF9123
:103470000895CF93DF9388E490E00E943B30EC0105
:1034800060917E028DE391E0998388831A821B828A
:103490001C821D8280E090E0A0E6B2E48CAB9DAB84
:1034A000AEABBFAB80E090E0A0EEB1E488AF99AFE7
:1034B000AAAFBBAF8CE190E09F8F8E8F1DA21CA2A4
:1034C000FE01E05CFF4F11821082329683E090E0B3
:1034D00091838083CE010E9443171DA21CA218A2D3
:1034E00019A21AA21BA21BAA888599859F838E8385
:1034F0008C899D899B8B8A8B88A599A59FA38EA378
:1035000080911701909118019093160180931501F5
:10351000D0937D02C0937C02DF91CF9108958F926A
:103520009F92AF92BF92CF92DF92EF92FF920F9352
:103530001F93CF93DF9300D000D000D0CDB7DEB77C
:103540008C01DC0114966D917C91FB0101900020AF
:10355000E9F73197E61BF70B8E2F880FE80FEE0F78
:1035600080E890E08E1B91099093AB068093AA06A9
:103570001092AD061092AC068FE297E00E949E1664
:10358000F80183858F9382858F9380E592E09F93E6
:103590008F93CE0101967C019F938F930E9460319F
:1035A0001092AB061092AA061092AD061092AC06CD
:1035B000B7018FE297E00E949E161092AB06109220
:1035C000AA0684E190E09093AD068093AC06C0908B
:1035D0002B01D0902C01E0902D01F0902E010F9046
:1035E0000F900F900F900F900F90A7019601C701B9
:1035F000B6010E940830882329F165E572E08FE268
:1036000097E00E944E1668019EE0C90ED11CF12C75
:10361000E12CD80192968D919C91E816F9060CF058
:10362000A2C0F601819191916F01009739F0DC0100
:10363000ED91FC910680F781E02D0995BFEFEB1A23
:10364000FB0AE7CF46015701E894B7F82FEF3FEFA9
:103650004FE75FE7C501B4010E94083081110CC03B
:103660002FEF3FEF4FE75FE7C501B4010E94372E10
:1036700069E572E018161CF22FEF3FEF4FE75FE4A9
:10368000C701B6010E94962F18161CF46DE572E072
:10369000B6CF2FEF3FEF4FE75FECC701B6010E94B7
:1036A000372E87FDF3CF20E030E0A901C701B60136
:1036B0000E94372E87FF09C06DE28FE297E00E94DB
:1036C0005B13F7FAF094F7F8F0942AE037ED43EA49
:1036D0005BE3C701B6010E94CB2D4B015C010E9448
:1036E000B52E6B017C010E94E42E9B01AC01C5014B
:1036F000B4010E94CA2D4B015C014AE0C701B6012A
:103700000E9458166EE28FE297E00E945B1320E061
:1037100030E040E251E4C501B4010E949B2F4B010F
:103720005C010E94B52E6B01F12CE12C4AE0C7012F
:10373000B6010E945816C701B6010E94E42E9B01F3
:10374000AC01C501B4010E94CA2D20E030E040E286
:1037500051E40E949B2F0E94B52E90E080E04AE049
:103760000E94581650CFF801848595850E94D9157E
:1037700080918802882391F082E290E09093AB06DA
:103780008093AA0680E290E09093AD068093AC0609
:1037900061E672E08FE297E00E949E1626960FB6D1
:1037A000F894DEBF0FBECDBFDF91CF911F910F9177
:1037B000FF90EF90DF90CF90BF90AF909F908F9051
:1037C0000895EF92FF920F931F93CF93DF93CDB79E
:1037D000DEB72C970FB6F894DEBF0FBECDBFE091D9
:1037E0007C02F0917D02E05CFF4F81818F938081AC
:1037F0008F938BE692E09F938F938E010F5F1F4F05
:103800001F930F930E946031E0917C02F0917D0242
:10381000EC5BFF4F60E0808191810E942517E09171
:103820007C02F0917D02EA5BFF4F6BE08081918129
:103830000E94251765E1C8010E94251780917C022E
:1038400090917D020E94D9150F900F900F900F90CC
:103850000F900F90F12CE12C10E000E04CE350E0D1
:10386000B801C7010E94BF140A5F1F4F8FEFE81A0B
:10387000F80A0E37110591F72C960FB6F894DEBFB3
:103880000FBECDBFDF91CF911F910F91FF90EF90B1
:103890000895CF92DF92EF92FF920F931F93CF93F1
:1038A000DF93EC01EC85FD8515A214A210A211A2F4
:1038B00012A213A284E083AB8685978597838683C3
:1038C000848D958D938B828B80A991A997A386A3D4
:1038D0001092190110921A0110921B0110921C01F2
:1038E0008DEC9CECACE4BFE380932B0190932C0116
:1038F000A0932D01B0932E016AEF70E088E891E06B
:103900000E94061181E0809388020A851B85EC8560
:10391000FD85DF01A05CBF4F8D919C9180179107C1
:1039200064F5C2A985E0C89FE00111247E0180E50D
:10393000E80EF11CC12EC026C7010E94512D801730
:1039400021F0602FC7010E94592DCF5ADF4FCE01C1
:103950000E94512D181721F0612FCE010E94592D80
:103960006C2DC7010296DF91CF911F910F91FF90AF
:10397000EF90DF90CF900C94592DDF91CF911F9154
:103980000F91FF90EF90DF90CF900895EF92FF920C
:103990000F931F93CF93DF938C0182EB91E0D801BB
:1039A0008D939C93E801AB967801B1E3EB0EF11C8B
:1039B00089919991009739F0DC01ED91FC91028099
:1039C000F381E02D0995CE15DF0591F7055C1F4FBA
:1039D000899199910E94D7300C171D07C9F7DF9183
:1039E000CF911F910F91FF90EF900895CF93DF93A8
:1039F000EC010E94C61CCE01DF91CF910C94D73010
:103A00000C94D7300C94D7302F923F924F925F9204
:103A10006F927F928F929F92AF92BF92CF92DF92DE
:103A2000EF92FF920F931F93CF93DF93CDB7DEB743
:103A30002A970FB6F894DEBF0FBECDBF1C016B01F5
:103A4000AC014D5E5F4F90E080E0FC01EC0DFD1D90
:103A5000E491DA0130E020E0F0E0BF01022E02C084
:103A6000759567950A94E2F761706D932F5F3F4FEC
:103A70002830310591F70196485F5F4F83309105FB
:103A800021F7560123E0A20EB11CA1014A5F5F4F4E
:103A90005C834B83710142E050E0B501CE01019699
:103AA0000E94482D8980D701882009F4FCC09B968C
:103AB0000D911C91F10162857385072E000C880B16
:103AC000990B0E94E62E2B013C01D80153968C9253
:103AD0005397E2E05296EC935297912C6A8170E0F2
:103AE00056967C936E935597072E000C880B990B76
:103AF0000E94E62EA30192010E94CB2D0E94AE2EC1
:103B0000D8011B967C936E931A97072E000C880B96
:103B1000990B0E94E62EF801628373838483958358
:103B2000F6E0F89DC001F99D900D11249C012F5BDA
:103B30003E4F4901D9016C9170E0F80175876487A7
:103B4000072E000C880B990B0E94E62ED8011696C2
:103B50006D937D938D939C931997F401818190E0EF
:103B60001F969C938E931E97828190E051969C9312
:103B70008E935097D7019B96ED91FC91B1E0B48B59
:103B8000B2E0AB0EB11CE2E0EE0EF11C2B813C81E9
:103B9000E216F30609F07FCFD101D196ED91FC91A9
:103BA000D2971686D396ED91FC91D4971686D5962A
:103BB000ED91FC91D6971686D796ED91FC91D8970A
:103BC0001686D996ED91FC911686F6013996FE83FC
:103BD000ED8396012D5E3F4F38872F83A101475C0F
:103BE0005F4F5A8749878AE0E82EF12C412C512CEF
:103BF00090E2692E91E4792E42E050E06D817E8161
:103C0000CE0101960E94482DD98051E0D51250C0B6
:103C1000D101D1960D911C91D2976A8170E01A96CC
:103C20008D919C91F80175876487860F971F91830A
:103C30008083072E000C880B990B0E94E62ED8017A
:103C400014966D937D938D939C9317971396FC9286
:103C5000EE921297F8014086518662867386D68668
:103C60008D819E8102969E838D83AF81B885A81732
:103C7000B90711F62A960FB6F894DEBF0FBECDBF76
:103C8000DF91CF911F910F91FF90EF90DF90CF9038
:103C9000BF90AF909F908F907F906F905F904F906C
:103CA0003F902F9008959B96ED91FC91148A68CFD8
:103CB000F2E0DF1255C0D101D196CD90DC90D297C1
:103CC0000A8110E01A968D919C91F6011587048760
:103CD000800F911F91838083B801012E000C880B07
:103CE000990B0E94E62ED60114966D937D938D93C9
:103CF0009C9317971396FC92EE921297F6014086CA
:103D000051866286738621E02687D101D396CD90B5
:103D1000DC90D497B801665F7F4F1A968D919C9185
:103D2000F60175876487860F971F91838083072E1E
:103D3000000C880B990B0E94E62ED60114966D9309
:103D40007D938D939C9317971396FC92EE92129706
:103D5000F601408651866286738621E0268780CFF1
:103D600033E0D3129CC0D101D1960D911C91D29712
:103D7000CA80D12C1A968D919C91F801D586C48663
:103D80008C0D9D1D91838083B6010D2C000C880B3A
:103D9000990B0E94E62E4B015C01D80114968D927E
:103DA0009D92AD92BC9217971396FC92EE92129749
:103DB000F801408651866286738621E02687D1010C
:103DC000D3960D90BC91A02DBC83AB838601065F7A
:103DD0001F4FF101828593851D961C930E931C97AE
:103DE000800F911F8D939C93B801012E000C880BBE
:103DF000990B0E94E62EAB81BC8114966D937D9346
:103E00008D939C9317971396FC92EE921297FD0157
:103E1000408651866286738621E02687D101D59639
:103E2000ED91FC91D6971A962D913C911B97D586D2
:103E3000C486C20ED31ED182C08284829582A6829D
:103E4000B78224E130E03383228320E030E040EA8F
:103E500051E4208731874287538731E03687D796F0
:103E6000ED91FC91D8971A962D913C911587048776
:103E7000200F311F3183208364837583868397836A
:103E800044E150E05383428380E090E0A0EAB1E453
:103E900080879187A287B38791E09687E1CEA4E0DF
:103EA000DA12DECE5101B1E3AB0EB11C0A8110E093
:103EB000F501C190D1905F01D1011A968D919C912D
:103EC000F60115870487800F911F91838083B801C5
:103ED000012E000C880B990B0E94E62ED601149639
:103EE0006D937D938D939C9317971396FC92EE920E
:103EF0001297F601408651866286738621E02687F6
:103F0000065F1F4F49855A85A416B50689F6A8CEC7
:103F10002F923F924F925F926F927F928F929F92D9
:103F2000AF92BF92CF92DF92EF92FF920F931F93C7
:103F3000CF93DF93CDB7DEB766970FB6F894DEBFA9
:103F40000FBECDBF1C0180E40E94D1138823B1F0C5
:103F500020E030E040E85EE360912B0170912C019D
:103F600080912D0190912E010E94CB2D60932B0109
:103F700070932C0180932D0190932E0180E20E947A
:103F8000D1138823B1F020E030E040E85EE3609197
:103F90002B0170912C0180912D0190912E010E9496
:103FA000CA2D60932B0170932C0180932D01909367
:103FB0002E0180E80E94D113882331F080911401F2
:103FC00091E089278093140180911401882329F1BD
:103FD0002091E4073091E5074091E6075091E7070B
:103FE00060912B0170912C0180912D0190912E01F7
:103FF0000E94CB2D6B017C012DEC3CEC4CE050E49D
:104000000E94962F18160CF40DC1C0922B01D0926D
:104010002C01E0922D01F0922E0184E00E94D11338
:10402000882361F0D1011296ED91FC9180E0099511
:1040300060E570E087EF90E00E9406116091190141
:1040400070911A0180911B0190911C019058209150
:104050002B0130912C0140912D0150912E010E9495
:104060009B2F6093840270938502809386029093C5
:1040700087027101D12CC12CF10102A0F3A1E02D26
:10408000FE87ED87CE16DF060CF0D9C0D7011E964D
:104090000D911C910115110509F4BDC0F80182892B
:1040A0008111B9C02281338144815581609184029C
:1040B0007091850280918602909187020E94CB2D9B
:1040C0004B015C01D80112968D929D92AD92BC92EB
:1040D000159720E030E0A90116966D917D918D91A4
:1040E0009C9119970E94CB2D2B013C01F80146822F
:1040F000578260867186C501B4010E94AE2E4B01C5
:10410000D8011B967C936E931A97C301B2010E944B
:10411000AE2EF8017587648786859785880E991E6F
:1041200097FE6FC0F1013E9670E060E030E020E065
:10413000A191B191109771F052968C915297811183
:1041400009C01A968D919C9180579F4F68177907E7
:104150000CF4BC012F5F3F4F4D855E85421753071E
:1041600039F7D8011B967C936E931A97072E000C93
:10417000880B990B0E94E62EF80162837383848377
:104180009583E5EAF1E1B12CA12C90E080E0238950
:104190003489121613067CF0D501AA0FBB1F21E04B
:1041A00030E02C0F3D1FA20FB31F8D939C93A501F0
:1041B0004F5F5F4F5A01019675968630910539F72A
:1041C000A114B104F1F00E94F02C9501BB0C440B3A
:1041D000550B0E94672D660F771F81E090E08C0FD2
:1041E0009D1F680F791FDB018D919C91B5E1B89FF0
:1041F000B001B99F700D11246B557E4EC8010E940D
:10420000041DF70186859785DC01ED91FC91048002
:10421000F581E02D0995BFEFCB1ADB0AE2E0EE0E47
:10422000F11C2ACF8DEC9CECACE0B0E480932B0128
:1042300090932C01A0932D01B0932E01EECED101CD
:104240001C96ED90FC90F70160AD71AD82AD93AD21
:104250000E94AE2E6C31710561F58091B00690918F
:10426000B1060197029728F18101025F1F4F20E0FC
:1042700030E040E051E4D701D4966D917D918D916D
:104280009C91D7970E94CB2D0E94AE2E6B0163505C
:104290007109C8010E949C1581110BC0B6016D5FA8
:1042A0007F4FC8010E949C15811103C0C1010E946B
:1042B000491CF101E484F584D701D3968C91D397FE
:1042C000843009F4B8C08091B0069091B1068D7F1A
:1042D000019709F4B0C020E030E040E051E4D4960A
:1042E0006D917D918D919C91D7970E94CB2D0E94CD
:1042F000AE2E8B01F10142A153A1D1011E9630E0F7
:1043000020E0241735070CF096C0ED91FD91309711
:1043100009F422C282859385081719070CF41CC280
:1043200066857785860F971F801791070CF414C256
:10433000D701DC964D905D906D907C90DF97D8967C
:104340008D909D90AD90BC90DB979F01255D3F4F78
:104350003E872D87AF014F5C5F4F5E8B4D8BAD85E8
:10436000BE85CD90DD90BE87AD87F6018489882318
:1043700009F459C0838936E0389F900111243C8BA1
:104380002B8B2F5B3E4F388B2F87D90113968C9147
:1043900022853385820F932F911DF801E81BF90BBD
:1043A000FA8BE98B20E030E040E851E4C501B4012C
:1043B0000E94CB2D0E94AE2EAF85B88914964C91E9
:1043C000F60124853585240F311DAB01421B530BAB
:1043D000588B4F87C301B2010E94AE2EEB89FC8936
:1043E000EF5BFE4F258130E0A901460F571F698919
:1043F0007A89669FC001679F900D900D1124AF854B
:10440000B889AA9F9001AB9F300D300D1124820F07
:10441000931F449F9001459F300D300D112482174A
:1044200093070CF49CC1ED89FE892D853E85E2172A
:10443000F30709F094CFD1011C96CD90DC90F601E2
:1044400083A9843009F485C020E030E040E051E4E5
:1044500064A975A986A997A90E94CB2D0E94AE2EAA
:104460007B01D10192964D915C91F1013E9630E035
:1044700020E0241735070CF06CC001911191011553
:10448000110509F47CC1D8011A968D919C911B9756
:10449000E816F9060CF473C11E966D917C91860F97
:1044A000971F8E159F050CF46AC1F60140AC51AC04
:1044B00062AC73AC64AD75AD86AD97AD0E94AE2EA7
:1044C0006C5F7F4F669F4001679F900C900C11249A
:1044D0006801F1E3CF0ED11C9801255C3F4F3E8768
:1044E0002D87D6010D911D916D01F80186858823D8
:1044F00059F18081918104965701A81AB90A20E0E8
:1045000030E040E851E4C301B2010E94CB2D0E948B
:10451000AE2ED80112962D913C9113972C5F3F4FF0
:10452000621B730BAA9CC001AB9C900D900D1124D3
:10453000669F9001679F300D300D1124820F931FED
:10454000881599050CF41EC1ED85FE85EC15FD0559
:1045500041F6D1011C960D911C9188E00E94D11367
:10456000F82E8091A80283FF50C28091A90283FD9A
:104570004CC2FF2009F41DC1EF2C80E090E0A0EFB9
:10458000B1E48093800290938102A0938202B09361
:104590008302C0901501D09016011C141D040CF06C
:1045A0008BC1F80183A99EEF980F923008F40CC1DB
:1045B000843081F020E030E0A901609180027091A8
:1045C000810280918202909183020E94962F181698
:1045D0000CF4FDC0D801D3963C90D3978EEF830D99
:1045E000823008F096C112968D909D90AD90BC904F
:1045F000159720E030E0A901C501B4010E94372ED3
:1046000087FF13C0EE2089F0A5019401609100019D
:104610007091010180910201909103010E949B2FF2
:10462000F8016283738384839583D80112968D90F9
:104630009D90AD90BC901597C0902B01D0902C010F
:10464000E0902D01F0902E01A7019601C501B40163
:104650000E949B2FF80120AD31AD42AD53AD0E94B9
:10466000CB2D2B013C01D801D8964D925D926D92D5
:104670007C92DB9720910401309105014091060165
:1046800050910701C701B6010E949B2FA50194011B
:104690000E94CB2D4B015C01F80182829382A4829F
:1046A000B582668D778D072E000C880B990B0E94C2
:1046B000E62E6B017C01AC019B01C301B2010E949B
:1046C000962F87FD43C1D801D896CD92DD92ED9209
:1046D000FC92DB9781E0D3968C9380E090E0A0E0A1
:1046E000B0E4F80180A391A3A2A3B3A382E090E079
:1046F00095A384A3828593859783868386899789EA
:10470000938B828B82A593A597A386A38091170193
:1047100090911801909316018093150168E270E062
:1047200081E390E066960FB6F894DEBF0FBECDBF72
:10473000DF91CF911F910F91FF90EF90DF90CF907D
:10474000BF90AF909F908F907F906F905F904F90B1
:104750003F902F900C9406112F5F3F4FD2CDCD2864
:1047600009F469CE86E696E6A6E6B0ECF701828308
:104770009383A483B583C1010E94491C5CCE2F5F43
:104780003F4F77CE012B09F4E4CE1E961C92F10127
:104790008285938501969387828780FD07C08FE687
:1047A0009FE068E270E00E940611D3CE81E99EE0AE
:1047B000F8CF109280021092810210928202109221
:1047C0008302EE24E394E5CEFF2009F403CF809129
:1047D0001701909118018C199D0909F054C064E6E5
:1047E00070E08EE690E00E94061110928002109216
:1047F00081021092820210928302809115019091A1
:10480000160120911701309118018217930709F0C2
:104810004AC04091100150911101609112017091B4
:104820001301D80112964D935D936D937C93159768
:104830000197909316018093150180910801909142
:104840000901A0910A01B0910B018093040190939A
:104850000501A0930601B0930701F80115A214A267
:1048600010A211A212A213A282E083AB84859585C7
:1048700097838683808D918D938B828B84A595A55C
:1048800097A386A3A7CE8130910529F464E670E052
:1048900083E990E0A8CF029709F0A7CF64E670E023
:1048A0008FEA90E0A0CF40910C0150910D016091F2
:1048B0000E0170910F01B5CF80917F02882309F41A
:1048C00089CEFF2091F01092040110920501109200
:1048D00006011092070183EC95EFA8EABEE3F80108
:1048E00082839383A483B58375CEEE2009F472CEC0
:1048F0008091080190910901A0910A01B0910B01EA
:104900008093040190930501A0930601B0930701E1
:1049100061CEF4E03F1609F43EC066960FB6F894F7
:10492000DEBF0FBECDBFDF91CF911F910F91FF90E2
:10493000EF90DF90CF90BF90AF909F908F907F903F
:104940006F905F904F903F902F90089520E030E05F
:10495000A901C501B4010E94962F1816F4F6F3E0E0
:104960003F16D9F2D80195961C921E929497F801A1
:1049700010A211A212A213A283E083AB80899189B5
:1049800097838683828D938D938B828B86A597A543
:1049900097A386A3C2CF1296CD90DD90ED90FC90A8
:1049A000159780902B0190902C01A0902D01B09034
:1049B0002E01A5019401C701B6010E949B2F9B0106
:1049C000AC01F80160AD71AD82AD93AD0E94CB2D0D
:1049D000D801D8966D937D938D939C93DB9720910E
:1049E00008013091090140910A0150910B01C50164
:1049F000B4010E949B2FA70196010E94CB2DF801C4
:104A0000628373838483958388CFE12CF110B5CDC5
:104A100020912B0130912C0140912D0150912E01BC
:104A20006091800270918102809182029091830254
:104A30000E94CA2D6093800270938102809382024B
:104A400090938302E12CA5CD2F923F924F925F92DB
:104A50006F927F928F929F92AF92BF92CF92DF928E
:104A6000EF92FF920F931F93CF93DF93CDB7DEB7F3
:104A70002E970FB6F894DEBF0FBECDBF1C0183E3A7
:104A800093E3A3E7BFE380932B0190932C01A093C2
:104A90002D01B0932E011092840210928502109283
:104AA000860210928702812C912CA12C50E4B52E05
:104AB0008092190190921A01A0921B01B0921C01E0
:104AC0001092880220917E022D8788E490E00E9457
:104AD0003B308C018DE391E0F80191838083128259
:104AE00013821482158214AA15AA16AA17AA412C99
:104AF000512C60EE662E61E4762E40AE51AE62AE71
:104B000073AE7CE1C72ED12CD78EC68E15A214A20F
:104B1000E05CFF4F118210827801F2E4EF0EF11C8D
:104B200083E090E0F701918380836D85C8010E9446
:104B3000431780911701909118019093160180936B
:104B40001501F10115870487F801EC5BFF4F208107
:104B50003181F80114AA15AA16AA17AA40AE51AEBF
:104B600062AE73AED78EC68E81E083AB80A291A277
:104B7000A2A2B3A282E090E095A384A3828593854C
:104B80009783868386899789938B828B82A593A549
:104B900097A386A3F70180819181F1013583248356
:104BA0001386128697838683918780876AE770E0F1
:104BB00080E090E00E943F2DF1013E96C101829677
:104BC000119211928E179F07D9F7F10113A212A229
:104BD000E7E2F1E1D12CC12C90E080E02389348917
:104BE000121613067CF0D601AA0FBB1F21E030E09D
:104BF0002C0F3D1FA20FB31F8D939C9396012F5F27
:104C00003F4F6901019675968630910539F703E3A8
:104C100017E0F12CE12C1E861D86412C512C30E72B
:104C2000632E32E4732E46010D2C000CAA08BB083B
:104C3000F801F386E286B7010F2C000C880B990B64
:104C40000E94E62EF80162837383848395832CE3AC
:104C500030E035872487468257826086718620E956
:104C600030E03787268781E090E0918B808BF101DF
:104C700082A193A18A3091055CF4FC01EE0FFF1F25
:104C8000E20DF31D178706870196F10193A382A316
:104C9000F0E9EF0EF11C2D853E85232B19F0C11490
:104CA000D10461F562E171E1C8010E94041D2D8506
:104CB0003E852F5F3F4F3E872D87055C1F4F30EBB2
:104CC000E31631E0F30609F0B3CF2E960FB6F89451
:104CD000DEBF0FBECDBFDF91CF911F910F91FF902F
:104CE000EF90DF90CF90BF90AF909F908F907F908C
:104CF0006F905F904F903F902F9008950E94F02CFE
:104D0000A50194010E94672D660F771F81E090E056
:104D10008C0F9D1F680F791FFB0180819181F5E148
:104D2000F89FB001F99F700D1124695D7E4EBCCFD4
:104D30001F920F920FB60F9211242F933F938F93D0
:104D40009F93AF93BF938091B3069091B406A091C7
:104D5000B506B091B6063091B20623E0230F2D3789
:104D600058F50196A11DB11D2093B2068093B3069C
:104D70009093B406A093B506B093B6068091B7069B
:104D80009091B806A091B906B091BA060196A11DFE
:104D9000B11D8093B7069093B806A093B906B0935F
:104DA000BA06BF91AF919F918F913F912F910F9034
:104DB0000FBE0F901F90189526E8230F0296A11D95
:104DC000B11DD2CF1F920F920FB60F9211248F9365
:104DD0009F938091E1009091E100937F9093E10097
:104DE00083FF0FC01092E90091E09093EB001092C6
:104DF000EC0092E39093ED001092C80698E0909337
:104E0000F00082FF22C093E09093E9009091F200BD
:104E1000992319F09AE39093E8009091A1029923C5
:104E200041F09091A10291509093A102911101C083
:104E30005D9A9091C706992341F09091C7069150D1
:104E40009093C706911101C0289A84FF18C08091E1
:104E5000E2008E7E81608093E2008091E1008F7E8F
:104E60008093E1008091A2028E7E80618093A202F5
:104E70009F918F910F900FBE0F901F90189580FFFC
:104E8000F7CF8091E2008E7E80618093E200809176
:104E9000E1008E7E8093E1008091A2028E7E81608F
:104EA000E5CF1F920F920FB60F921124CF92DF928F
:104EB000EF92FF920F931F932F933F934F935F9324
:104EC0006F937F938F939F93AF93BF93EF93FF93D2
:104ED000CF93DF93CDB7DEB76C97DEBFCDBF109217
:104EE000E9008091E80083FF25C068E0CE01459687
:104EF0000E940A0F82EF8093E8008D8987FF39C0F6
:104F00009091E80090FFFCCF982F907609F034C183
:104F10009E894F89588D2F89F88C911131C0803826
:104F200061F58091A3028093F1001092F1008EEF61
:104F30008093E8006C960FB6F894DEBF0FBECDBF2D
:104F4000DF91CF91FF91EF91BF91AF919F918F91A1
:104F50007F916F915F914F913F912F911F910F9191
:104F6000FF90EF90DF90CF900F900FBE0F901F90AB
:104F700018959EEF9093E800C7CF1092F100D5CF1F
:104F8000913059F48111D3CF4130510581F6809190
:104F9000A3028D7F8093A302CACF933049F481117D
:104FA000C6CF4130510519F68091A3028260F2CF3D
:104FB000953041F48091E80080FFFCCF2068209379
:104FC000E300B5CF963009F0A9C00B8D1C8D22E00F
:104FD0001092E90010929F0210929E02F2122EC0CF
:104FE00010929D0210929C020E94D90E1F8299E09D
:104FF0009983FA8291E09E8390EA98879AEF998745
:1050000020919E0230919F02275F3F4F3C832B836C
:105010008D831092E90010929F0210929E021093CD
:105020009D0200939C0249E050E0BE016F5F7F4FFC
:1050300080E00E94B30E0E94D90E79CF10939D029A
:1050400000939C020E94AF0DDC0112960D911C9101
:105050000115110509F451C1D801ED91FC910480AD
:10506000F581E02DBE016B5E7F4FC8010995009769
:1050700009F03EC1F80100851185EACFF3E0FF1287
:105080000EC08F89882309F440C0823061F440E863
:1050900060E18BE69AE10E94800E811148CF81E2A7
:1050A0008093EB0047CF813029F440E86BE08FE537
:1050B0009AE1F1CF833099F70E94AF0DDC0112968F
:1050C000ED90FC908E010F5F1F4F6801E114F10419
:1050D00079F0D701ED91FC910680F781E02DB801C0
:1050E000C7010995080F111DF701E084F184EECF87
:1050F000D8011C92F60101900020E9F73197BF0119
:105100006C197D0940E0C601C6CF69E47AE1FB0174
:10511000449150E080E80E94B30E09CF973009F423
:10512000BECF983021F481E08093F10000CF993018
:1051300009F0FDCE837009F0B2CFE4E5F1E081E043
:1051400031E096E32191222371F08093E9003093BE
:10515000EB00DF0111972C912093EC009093ED0070
:105160008F5F873079F78EE78093EA001092EA002C
:105170008F898093C806DBCE8B8D9C8D1092E900C1
:1051800010929F0210929E0290939D0280939C0227
:10519000898D811192C08E899D89913A49F481321D
:1051A00009F07DCF47E050E062E271E080E0B3CFEC
:1051B000913209F074CF833269F48F89988DB0E011
:1051C000A0E080931E0190931F01A0932001B09353
:1051D0002101ADCE803269F48091E80082FFFCCFDE
:1051E00067E082E291E00E940A0F8BEF8093E80073
:1051F0009ECE823209F09BCE8F8980932901EEEFFB
:10520000FFE7859194918B3F9C4D51F1E0E0F8E0F0
:105210008091220190912301A0912401B091250158
:10522000803B9440A105B105F1F48091290180FDF6
:105230001AC0EE3F8AE0F80789F587E797E7918380
:105240008083809160008093A00288E19BE00FB68C
:10525000F894A895809360000FBE9093600067CE8D
:10526000EEEFFAE0D5CF808191818737974709F03B
:105270005ECEA895809160008861809360008091E7
:10528000A00280936000EE3F2AE0F20789F080914F
:10529000FE0A9091FF0A9183808349CE808191819B
:1052A0008737980751F29093FF0A8093FE0AC5CF83
:1052B0001092FF0A1092FE0A3ACE0E94AF0DDC0156
:1052C00012960D911C910115110509F4E8CED80133
:1052D000ED91FC910190F081E02DBE016B5E7F4F5E
:1052E000C8010995811123CEF80100851185EBCF06
:1052F000181619060CF41BCED2CEF1E0FF12BECE6A
:105300006DE47AE104CF1F920F920FB60F92112431
:105310002F933F934F935F936F937F938F939F93BD
:10532000AF93BF93EF93FF9380919802909199026E
:10533000A0919A02B0919B02892B8A2B8B2B09F4A6
:1053400040C08091970281110BC088B190E48927F9
:1053500088B980919602882319F088B1805888B95D
:105360008091980290919902A0919A02B0919B022B
:10537000181619061A061B069CF480919802909143
:105380009902A0919A02B0919B020197A109B109DB
:105390008093980290939902A0939A02B0939B02F3
:1053A000FF91EF91BF91AF919F918F917F916F91FD
:1053B0005F914F913F912F910F900FBE0F901F90D3
:1053C00018950E945E10ECCFAF92BF92CF92DF9201
:1053D000EF92FF920F931F93CF93DF931092CC061F
:1053E0001092CB0688EE93E0A0E0B0E08093CD066B
:1053F0009093CE06A093CF06B093D0068EE591E0B1
:105400009093CA068093C9068FEF9FEF9093D606BC
:105410008093D50610923207109231078AE991E005
:105420009093300780932F0781E79DE090932807A2
:105430008093270780E090E89093260780932507C4
:1054400046983E9A47983F9A84E090E00E943B300D
:10545000FC01138212822CE831E031832083909387
:105460002E0780932D0784E090E00E943B30FC01E2
:10547000138212822EE731E03183208390932C0730
:1054800080932B0784E290E00E943B30EC0184E2A1
:10549000FE0111928A95E9F780E791E0998388836C
:1054A0006AE770E080E090E00E943F2DFE013E96AA
:1054B000CE01829611921192E817F907D9F71BA233
:1054C0001AA2D0932A07C093290720912B0130916B
:1054D0002C0140912D0150912E016DEC7CEC8CE063
:1054E00090E40E94CA2D20E030E046E955E40E9495
:1054F0003C2E6093E4077093E5078093E607909352
:10550000E707C3E3D7E082EBC82E81E0D82E96EA06
:10551000A92E91E0B92ED982C8821A8A8E01055D22
:105520001F4F7E01F1E3EF0EF11C87E190E00E9436
:105530003B30FC01B182A082F801819391938F01ED
:10554000EE16FF0691F78E01055C1F4FE7018FE015
:1055500090E00E943B3089939993C017D107B9F727
:10556000F7E0C43EDF07B9F6DF91CF911F910F91AD
:10557000FF90EF90DF90CF90BF90AF900895789418
:1055800084B5826084BD84B5816084BD85B5826048
:1055900085BD85B5816085BD80916E0081608093F9
:1055A0006E00109281008091810082608093810062
:1055B0008091810081608093810080918000816072
:1055C000809380008091910082608093910080910F
:1055D0009100816080939100809190008160809320
:1055E00090008091C10084608093C1008091C100CF
:1055F00082608093C1008091C10081608093C1006E
:105600008091C30081608093C3008091C00082605C
:105610008093C0008091C20081608093C20080911D
:105620007A00846080937A0080917A00826080930F
:105630007A0080917A00816080937A0080917A006C
:10564000806880937A001092C8061092A30210928C
:10565000A2028091D70081608093D70080EA809376
:10566000D80089B5806189BD89B5826089BD09B4DA
:1056700000FEFDCF61E070E080E090E00E94E80D68
:105680008091D8008F7C80618093D8008091E00069
:10569000807F8093E0008091E1008E7E8093E10026
:1056A0008DE08093E200559A209A8FEF9FEF9093C0
:1056B000D6068093D50681EC80937C0085B1806FFF
:1056C00085B984B1877E84B984B1876E84B95E9AC6
:1056D0005F988AB1806D8AB9769A6E9881B3806F2F
:1056E00081BB899880B38D7080BB80E58CBD81E0E3
:1056F0008DBD0E941B0E5F9A0E941B0E5E985C98E7
:10570000ECE7FAE184918EBD00000DB407FEFDCFF9
:1057100031962AE1E938F207A9F75C9A81E880938B
:1057200064008091650081608093650082E090E074
:105730000E94512D882309F461C00E94551380E115
:1057400080932A0180912D0790912E07DC01ED9125
:10575000FC910680F781E02D61E27EE00995809161
:105760002B0790912C07DC01ED91FC910680F781CD
:10577000E02D61E27EE009958091290790912A074A
:10578000DC01ED91FC910680F781E02D61E27EE085
:10579000099580912D0790912E079093AF068093E5
:1057A000AE06DC01ED91FC910190F081E02D0995B0
:1057B000AA24A394CAEAD2E0B12C84E0E82EF12C0A
:1057C00000E010E0992493949EE1C92ED12C8FB76C
:1057D000F8944091B3065091B4066091B50670916B
:1057E000B6068FBF8091A602882359F01092A602B8
:1057F0000115110561F30E940000E9CF0E945013CA
:105800009ECF9091A702B42FB91B9B2F20912A0104
:10581000B21738F49F5F921758F7A3BE889513BE4E
:10582000E7CF9092A6024093A7022091A402309164
:10583000A5022F5F3F4F3093A5022093A402FE01E3
:1058400081118FEF0024819381938193819303943D
:10585000D1F71092AD061092AC061092AB061092E2
:10586000AA068091A9028093A8028FB18095807FBB
:10587000669B88601C9B84608093A90280E10E94E3
:10588000D113882361F08091B0069091B106019602
:10589000B7010E940D309093B1068093B0068091BD
:1058A000AE069091AF06DC01ED91FC910280F38190
:1058B000E02D09958091AE069091AF06DC01ED9147
:1058C000FC910480F581E02D0995D092AB06C09241
:1058D000AA061092AD061092AC068091B006909187
:1058E000B10664E772E08130910549F066E772E045
:1058F0008330910521F0029731F469E772E08FE27D
:1059000097E00E949E16FE0180E098E000800EBCA9
:10591000B110012C019780FDFDCF0192B9F70DB4B4
:1059200067CFCF93DF93C4EED7E0EB97E881F9819F
:105930000190F081E02DCE01099587E0C333D807AF
:10594000A1F7DF91CF9108958F929F92AF92BF926E
:10595000CF92DF92EF92FF92CF93DF93EC016881B9
:1059600079818A819B81611571058105910521F4F9
:1059700064E279ED8BE597E02DE133EF41E050E013
:105980000E94672D49015A019B01AC01A7EAB1E4CD
:105990000E94862D6B017C01ACEEB4EFA501940151
:1059A0000E94942DC60ED71EE81EF91EF7FE06C0F3
:1059B00081E0C81AD108E10880E8F80AC882D982D3
:1059C000EA82FB82C701B6019F77DF91CF91FF90FA
:1059D000EF90DF90CF90BF90AF909F908F90089501
:1059E0008F929F92AF92BF92CF92DF92EF92FF92EF
:1059F00060912F01709130018091310190913201BD
:105A0000611571058105910521F464E279ED8BE55D
:105A100097E02DE133EF41E050E00E94672D49010E
:105A20005A019B01AC01A7EAB1E40E94862D6B01EB
:105A30007C01ACEEB4EFA50194010E94942DC60E3A
:105A4000D71EE81EF91EF7FE06C081E0C81AD1086D
:105A5000E10880E8F80AC0922F01D0923001E0926C
:105A60003101F0923201C701B6019F77FF90EF90AC
:105A7000DF90CF90BF90AF909F908F9008956093EC
:105A80002F0170933001809331019093320108957A
:105A9000FB01DC0102C005900D9241505040D8F747
:105AA0000895F999FECF92BD81BDF89A992780B5E6
:105AB0000895262FF999FECF1FBA92BD81BD20BD52
:105AC0000FB6F894FA9AF99A0FBE01960895052E2A
:105AD00097FB1EF400940E947E2D57FD07D00E9474
